{
  "address": "0x745a50320B6eB8FF281f1664Fc6713991661B129",
  "abi": [
    {
      "inputs": [
        {
          "internalType": "address",
          "name": "_governor",
          "type": "address"
        },
        {
          "internalType": "address",
          "name": "_keep3rHelperSidechain",
          "type": "address"
        },
        {
          "internalType": "address",
          "name": "_wrappedKP3R",
          "type": "address"
        },
        {
          "internalType": "address",
          "name": "_keep3rEscrow",
          "type": "address"
        }
      ],
      "stateMutability": "nonpayable",
      "type": "constructor"
    },
    {
      "inputs": [],
      "name": "AlreadyAJob",
      "type": "error"
    },
    {
      "inputs": [],
      "name": "AlreadyAKeeper",
      "type": "error"
    },
    {
      "inputs": [],
      "name": "AlreadyDisputed",
      "type": "error"
    },
    {
      "inputs": [],
      "name": "BondsLocked",
      "type": "error"
    },
    {
      "inputs": [],
      "name": "BondsUnexistent",
      "type": "error"
    },
    {
      "inputs": [],
      "name": "Deprecated",
      "type": "error"
    },
    {
      "inputs": [],
      "name": "Disputed",
      "type": "error"
    },
    {
      "inputs": [],
      "name": "DisputerExistent",
      "type": "error"
    },
    {
      "inputs": [],
      "name": "DisputerUnexistent",
      "type": "error"
    },
    {
      "inputs": [],
      "name": "GasNotInitialized",
      "type": "error"
    },
    {
      "inputs": [],
      "name": "InsufficientFunds",
      "type": "error"
    },
    {
      "inputs": [],
      "name": "InsufficientJobTokenCredits",
      "type": "error"
    },
    {
      "inputs": [],
      "name": "InvalidAddress",
      "type": "error"
    },
    {
      "inputs": [],
      "name": "InvalidAmount",
      "type": "error"
    },
    {
      "inputs": [],
      "name": "JobAlreadyAdded",
      "type": "error"
    },
    {
      "inputs": [],
      "name": "JobDisputed",
      "type": "error"
    },
    {
      "inputs": [],
      "name": "JobLiquidityInsufficient",
      "type": "error"
    },
    {
      "inputs": [],
      "name": "JobLiquidityLessThanMin",
      "type": "error"
    },
    {
      "inputs": [],
      "name": "JobLiquidityUnexistent",
      "type": "error"
    },
    {
      "inputs": [],
      "name": "JobMigrationImpossible",
      "type": "error"
    },
    {
      "inputs": [],
      "name": "JobMigrationLocked",
      "type": "error"
    },
    {
      "inputs": [],
      "name": "JobMigrationUnavailable",
      "type": "error"
    },
    {
      "inputs": [],
      "name": "JobTokenCreditsLocked",
      "type": "error"
    },
    {
      "inputs": [],
      "name": "JobTokenInsufficient",
      "type": "error"
    },
    {
      "inputs": [],
      "name": "JobTokenUnexistent",
      "type": "error"
    },
    {
      "inputs": [],
      "name": "JobUnapproved",
      "type": "error"
    },
    {
      "inputs": [],
      "name": "JobUnavailable",
      "type": "error"
    },
    {
      "inputs": [],
      "name": "LengthMismatch",
      "type": "error"
    },
    {
      "inputs": [],
      "name": "LiquidityPairApproved",
      "type": "error"
    },
    {
      "inputs": [],
      "name": "LiquidityPairUnapproved",
      "type": "error"
    },
    {
      "inputs": [],
      "name": "LiquidityPairUnexistent",
      "type": "error"
    },
    {
      "inputs": [],
      "name": "MinRewardPeriod",
      "type": "error"
    },
    {
      "inputs": [],
      "name": "NotDisputed",
      "type": "error"
    },
    {
      "inputs": [],
      "name": "OnlyDisputer",
      "type": "error"
    },
    {
      "inputs": [],
      "name": "OnlyGovernor",
      "type": "error"
    },
    {
      "inputs": [],
      "name": "OnlyJobOwner",
      "type": "error"
    },
    {
      "inputs": [],
      "name": "OnlyPendingGovernor",
      "type": "error"
    },
    {
      "inputs": [],
      "name": "OnlyPendingJobOwner",
      "type": "error"
    },
    {
      "inputs": [],
      "name": "OnlySlasher",
      "type": "error"
    },
    {
      "inputs": [],
      "name": "SlasherExistent",
      "type": "error"
    },
    {
      "inputs": [],
      "name": "SlasherUnexistent",
      "type": "error"
    },
    {
      "inputs": [],
      "name": "TokenUnallowed",
      "type": "error"
    },
    {
      "inputs": [],
      "name": "UnbondsLocked",
      "type": "error"
    },
    {
      "inputs": [],
      "name": "UnbondsUnexistent",
      "type": "error"
    },
    {
      "inputs": [],
      "name": "ZeroAddress",
      "type": "error"
    },
    {
      "inputs": [],
      "name": "ZeroAmount",
      "type": "error"
    },
    {
      "anonymous": false,
      "inputs": [
        {
          "indexed": true,
          "internalType": "address",
          "name": "_keeper",
          "type": "address"
        },
        {
          "indexed": true,
          "internalType": "address",
          "name": "_bond",
          "type": "address"
        },
        {
          "indexed": false,
          "internalType": "uint256",
          "name": "_amount",
          "type": "uint256"
        }
      ],
      "name": "Activation",
      "type": "event"
    },
    {
      "anonymous": false,
      "inputs": [
        {
          "indexed": false,
          "internalType": "uint256",
          "name": "_bondTime",
          "type": "uint256"
        }
      ],
      "name": "BondTimeChange",
      "type": "event"
    },
    {
      "anonymous": false,
      "inputs": [
        {
          "indexed": true,
          "internalType": "address",
          "name": "_keeper",
          "type": "address"
        },
        {
          "indexed": true,
          "internalType": "address",
          "name": "_bonding",
          "type": "address"
        },
        {
          "indexed": false,
          "internalType": "uint256",
          "name": "_amount",
          "type": "uint256"
        }
      ],
      "name": "Bonding",
      "type": "event"
    },
    {
      "anonymous": false,
      "inputs": [
        {
          "indexed": true,
          "internalType": "address",
          "name": "_jobOrKeeper",
          "type": "address"
        },
        {
          "indexed": true,
          "internalType": "address",
          "name": "_disputer",
          "type": "address"
        }
      ],
      "name": "Dispute",
      "type": "event"
    },
    {
      "anonymous": false,
      "inputs": [
        {
          "indexed": false,
          "internalType": "address",
          "name": "_disputer",
          "type": "address"
        }
      ],
      "name": "DisputerAdded",
      "type": "event"
    },
    {
      "anonymous": false,
      "inputs": [
        {
          "indexed": false,
          "internalType": "address",
          "name": "_disputer",
          "type": "address"
        }
      ],
      "name": "DisputerRemoved",
      "type": "event"
    },
    {
      "anonymous": false,
      "inputs": [
        {
          "indexed": false,
          "internalType": "address",
          "name": "_token",
          "type": "address"
        },
        {
          "indexed": false,
          "internalType": "uint256",
          "name": "_amount",
          "type": "uint256"
        },
        {
          "indexed": false,
          "internalType": "address",
          "name": "_to",
          "type": "address"
        }
      ],
      "name": "DustSent",
      "type": "event"
    },
    {
      "anonymous": false,
      "inputs": [
        {
          "indexed": false,
          "internalType": "uint256",
          "name": "_fee",
          "type": "uint256"
        }
      ],
      "name": "FeeChange",
      "type": "event"
    },
    {
      "anonymous": false,
      "inputs": [
        {
          "indexed": false,
          "internalType": "uint256",
          "name": "_inflationPeriod",
          "type": "uint256"
        }
      ],
      "name": "InflationPeriodChange",
      "type": "event"
    },
    {
      "anonymous": false,
      "inputs": [
        {
          "indexed": true,
          "internalType": "address",
          "name": "_job",
          "type": "address"
        },
        {
          "indexed": true,
          "internalType": "address",
          "name": "_jobOwner",
          "type": "address"
        }
      ],
      "name": "JobAddition",
      "type": "event"
    },
    {
      "anonymous": false,
      "inputs": [
        {
          "indexed": true,
          "internalType": "address",
          "name": "_fromJob",
          "type": "address"
        },
        {
          "indexed": false,
          "internalType": "address",
          "name": "_toJob",
          "type": "address"
        }
      ],
      "name": "JobMigrationRequested",
      "type": "event"
    },
    {
      "anonymous": false,
      "inputs": [
        {
          "indexed": false,
          "internalType": "address",
          "name": "_fromJob",
          "type": "address"
        },
        {
          "indexed": true,
          "internalType": "address",
          "name": "_toJob",
          "type": "address"
        }
      ],
      "name": "JobMigrationSuccessful",
      "type": "event"
    },
    {
      "anonymous": false,
      "inputs": [
        {
          "indexed": true,
          "internalType": "address",
          "name": "_job",
          "type": "address"
        },
        {
          "indexed": true,
          "internalType": "address",
          "name": "_previousOwner",
          "type": "address"
        },
        {
          "indexed": true,
          "internalType": "address",
          "name": "_newOwner",
          "type": "address"
        }
      ],
      "name": "JobOwnershipAssent",
      "type": "event"
    },
    {
      "anonymous": false,
      "inputs": [
        {
          "indexed": true,
          "internalType": "address",
          "name": "_job",
          "type": "address"
        },
        {
          "indexed": true,
          "internalType": "address",
          "name": "_owner",
          "type": "address"
        },
        {
          "indexed": true,
          "internalType": "address",
          "name": "_pendingOwner",
          "type": "address"
        }
      ],
      "name": "JobOwnershipChange",
      "type": "event"
    },
    {
      "anonymous": false,
      "inputs": [
        {
          "indexed": true,
          "internalType": "address",
          "name": "_job",
          "type": "address"
        },
        {
          "indexed": false,
          "internalType": "address",
          "name": "_liquidity",
          "type": "address"
        },
        {
          "indexed": true,
          "internalType": "address",
          "name": "_slasher",
          "type": "address"
        },
        {
          "indexed": false,
          "internalType": "uint256",
          "name": "_amount",
          "type": "uint256"
        }
      ],
      "name": "JobSlashLiquidity",
      "type": "event"
    },
    {
      "anonymous": false,
      "inputs": [
        {
          "indexed": true,
          "internalType": "address",
          "name": "_job",
          "type": "address"
        },
        {
          "indexed": false,
          "internalType": "address",
          "name": "_token",
          "type": "address"
        },
        {
          "indexed": true,
          "internalType": "address",
          "name": "_slasher",
          "type": "address"
        },
        {
          "indexed": false,
          "internalType": "uint256",
          "name": "_amount",
          "type": "uint256"
        }
      ],
      "name": "JobSlashToken",
      "type": "event"
    },
    {
      "anonymous": false,
      "inputs": [
        {
          "indexed": false,
          "internalType": "address",
          "name": "_keep3rHelper",
          "type": "address"
        }
      ],
      "name": "Keep3rHelperChange",
      "type": "event"
    },
    {
      "anonymous": false,
      "inputs": [
        {
          "indexed": false,
          "internalType": "address",
          "name": "_keep3rV1",
          "type": "address"
        }
      ],
      "name": "Keep3rV1Change",
      "type": "event"
    },
    {
      "anonymous": false,
      "inputs": [
        {
          "indexed": false,
          "internalType": "address",
          "name": "_keep3rV1Proxy",
          "type": "address"
        }
      ],
      "name": "Keep3rV1ProxyChange",
      "type": "event"
    },
    {
      "anonymous": false,
      "inputs": [
        {
          "indexed": true,
          "internalType": "address",
          "name": "_keeper",
          "type": "address"
        },
        {
          "indexed": true,
          "internalType": "address",
          "name": "_slasher",
          "type": "address"
        }
      ],
      "name": "KeeperRevoke",
      "type": "event"
    },
    {
      "anonymous": false,
      "inputs": [
        {
          "indexed": true,
          "internalType": "address",
          "name": "_keeper",
          "type": "address"
        },
        {
          "indexed": true,
          "internalType": "address",
          "name": "_slasher",
          "type": "address"
        },
        {
          "indexed": false,
          "internalType": "uint256",
          "name": "_amount",
          "type": "uint256"
        }
      ],
      "name": "KeeperSlash",
      "type": "event"
    },
    {
      "anonymous": false,
      "inputs": [
        {
          "indexed": false,
          "internalType": "uint256",
          "name": "_gasLeft",
          "type": "uint256"
        }
      ],
      "name": "KeeperValidation",
      "type": "event"
    },
    {
      "anonymous": false,
      "inputs": [
        {
          "indexed": true,
          "internalType": "address",
          "name": "_credit",
          "type": "address"
        },
        {
          "indexed": true,
          "internalType": "address",
          "name": "_job",
          "type": "address"
        },
        {
          "indexed": true,
          "internalType": "address",
          "name": "_keeper",
          "type": "address"
        },
        {
          "indexed": false,
          "internalType": "uint256",
          "name": "_payment",
          "type": "uint256"
        },
        {
          "indexed": false,
          "internalType": "uint256",
          "name": "_gasLeft",
          "type": "uint256"
        }
      ],
      "name": "KeeperWork",
      "type": "event"
    },
    {
      "anonymous": false,
      "inputs": [
        {
          "indexed": true,
          "internalType": "address",
          "name": "_job",
          "type": "address"
        },
        {
          "indexed": true,
          "internalType": "address",
          "name": "_liquidity",
          "type": "address"
        },
        {
          "indexed": true,
          "internalType": "address",
          "name": "_provider",
          "type": "address"
        },
        {
          "indexed": false,
          "internalType": "uint256",
          "name": "_amount",
          "type": "uint256"
        }
      ],
      "name": "LiquidityAddition",
      "type": "event"
    },
    {
      "anonymous": false,
      "inputs": [
        {
          "indexed": false,
          "internalType": "address",
          "name": "_liquidity",
          "type": "address"
        }
      ],
      "name": "LiquidityApproval",
      "type": "event"
    },
    {
      "anonymous": false,
      "inputs": [
        {
          "indexed": true,
          "internalType": "address",
          "name": "_job",
          "type": "address"
        },
        {
          "indexed": false,
          "internalType": "uint256",
          "name": "_rewardedAt",
          "type": "uint256"
        },
        {
          "indexed": false,
          "internalType": "uint256",
          "name": "_currentCredits",
          "type": "uint256"
        }
      ],
      "name": "LiquidityCreditsForced",
      "type": "event"
    },
    {
      "anonymous": false,
      "inputs": [
        {
          "indexed": true,
          "internalType": "address",
          "name": "_job",
          "type": "address"
        },
        {
          "indexed": false,
          "internalType": "uint256",
          "name": "_rewardedAt",
          "type": "uint256"
        },
        {
          "indexed": false,
          "internalType": "uint256",
          "name": "_currentCredits",
          "type": "uint256"
        },
        {
          "indexed": false,
          "internalType": "uint256",
          "name": "_periodCredits",
          "type": "uint256"
        }
      ],
      "name": "LiquidityCreditsReward",
      "type": "event"
    },
    {
      "anonymous": false,
      "inputs": [
        {
          "indexed": false,
          "internalType": "uint256",
          "name": "_liquidityMinimum",
          "type": "uint256"
        }
      ],
      "name": "LiquidityMinimumChange",
      "type": "event"
    },
    {
      "anonymous": false,
      "inputs": [
        {
          "indexed": false,
          "internalType": "address",
          "name": "_liquidity",
          "type": "address"
        }
      ],
      "name": "LiquidityRevocation",
      "type": "event"
    },
    {
      "anonymous": false,
      "inputs": [
        {
          "indexed": true,
          "internalType": "address",
          "name": "_job",
          "type": "address"
        },
        {
          "indexed": true,
          "internalType": "address",
          "name": "_liquidity",
          "type": "address"
        },
        {
          "indexed": true,
          "internalType": "address",
          "name": "_receiver",
          "type": "address"
        },
        {
          "indexed": false,
          "internalType": "uint256",
          "name": "_amount",
          "type": "uint256"
        }
      ],
      "name": "LiquidityWithdrawal",
      "type": "event"
    },
    {
      "anonymous": false,
      "inputs": [
        {
          "indexed": false,
          "internalType": "address",
          "name": "_newGovernor",
          "type": "address"
        }
      ],
      "name": "PendingGovernorAccepted",
      "type": "event"
    },
    {
      "anonymous": false,
      "inputs": [
        {
          "indexed": false,
          "internalType": "address",
          "name": "_governor",
          "type": "address"
        },
        {
          "indexed": false,
          "internalType": "address",
          "name": "_pendingGovernor",
          "type": "address"
        }
      ],
      "name": "PendingGovernorSet",
      "type": "event"
    },
    {
      "anonymous": false,
      "inputs": [
        {
          "indexed": true,
          "internalType": "address",
          "name": "_jobOrKeeper",
          "type": "address"
        },
        {
          "indexed": true,
          "internalType": "address",
          "name": "_resolver",
          "type": "address"
        }
      ],
      "name": "Resolve",
      "type": "event"
    },
    {
      "anonymous": false,
      "inputs": [
        {
          "indexed": false,
          "internalType": "uint256",
          "name": "_rewardPeriodTime",
          "type": "uint256"
        }
      ],
      "name": "RewardPeriodTimeChange",
      "type": "event"
    },
    {
      "anonymous": false,
      "inputs": [
        {
          "indexed": false,
          "internalType": "address",
          "name": "_slasher",
          "type": "address"
        }
      ],
      "name": "SlasherAdded",
      "type": "event"
    },
    {
      "anonymous": false,
      "inputs": [
        {
          "indexed": false,
          "internalType": "address",
          "name": "_slasher",
          "type": "address"
        }
      ],
      "name": "SlasherRemoved",
      "type": "event"
    },
    {
      "anonymous": false,
      "inputs": [
        {
          "indexed": true,
          "internalType": "address",
          "name": "_job",
          "type": "address"
        },
        {
          "indexed": true,
          "internalType": "address",
          "name": "_token",
          "type": "address"
        },
        {
          "indexed": true,
          "internalType": "address",
          "name": "_provider",
          "type": "address"
        },
        {
          "indexed": false,
          "internalType": "uint256",
          "name": "_amount",
          "type": "uint256"
        }
      ],
      "name": "TokenCreditAddition",
      "type": "event"
    },
    {
      "anonymous": false,
      "inputs": [
        {
          "indexed": true,
          "internalType": "address",
          "name": "_job",
          "type": "address"
        },
        {
          "indexed": true,
          "internalType": "address",
          "name": "_token",
          "type": "address"
        },
        {
          "indexed": true,
          "internalType": "address",
          "name": "_receiver",
          "type": "address"
        },
        {
          "indexed": false,
          "internalType": "uint256",
          "name": "_amount",
          "type": "uint256"
        }
      ],
      "name": "TokenCreditWithdrawal",
      "type": "event"
    },
    {
      "anonymous": false,
      "inputs": [
        {
          "indexed": false,
          "internalType": "uint256",
          "name": "_unbondTime",
          "type": "uint256"
        }
      ],
      "name": "UnbondTimeChange",
      "type": "event"
    },
    {
      "anonymous": false,
      "inputs": [
        {
          "indexed": true,
          "internalType": "address",
          "name": "_keeperOrJob",
          "type": "address"
        },
        {
          "indexed": true,
          "internalType": "address",
          "name": "_unbonding",
          "type": "address"
        },
        {
          "indexed": false,
          "internalType": "uint256",
          "name": "_amount",
          "type": "uint256"
        }
      ],
      "name": "Unbonding",
      "type": "event"
    },
    {
      "anonymous": false,
      "inputs": [
        {
          "indexed": true,
          "internalType": "address",
          "name": "_keeper",
          "type": "address"
        },
        {
          "indexed": true,
          "internalType": "address",
          "name": "_bond",
          "type": "address"
        },
        {
          "indexed": false,
          "internalType": "uint256",
          "name": "_amount",
          "type": "uint256"
        }
      ],
      "name": "Withdrawal",
      "type": "event"
    },
    {
      "inputs": [],
      "name": "ETH_ADDRESS",
      "outputs": [
        {
          "internalType": "address",
          "name": "",
          "type": "address"
        }
      ],
      "stateMutability": "view",
      "type": "function"
    },
    {
      "inputs": [
        {
          "internalType": "address",
          "name": "_fromJob",
          "type": "address"
        },
        {
          "internalType": "address",
          "name": "_toJob",
          "type": "address"
        }
      ],
      "name": "acceptJobMigration",
      "outputs": [],
      "stateMutability": "nonpayable",
      "type": "function"
    },
    {
      "inputs": [
        {
          "internalType": "address",
          "name": "_job",
          "type": "address"
        }
      ],
      "name": "acceptJobOwnership",
      "outputs": [],
      "stateMutability": "nonpayable",
      "type": "function"
    },
    {
      "inputs": [],
      "name": "acceptPendingGovernor",
      "outputs": [],
      "stateMutability": "nonpayable",
      "type": "function"
    },
    {
      "inputs": [
        {
          "internalType": "address",
          "name": "_bonding",
          "type": "address"
        }
      ],
      "name": "activate",
      "outputs": [],
      "stateMutability": "nonpayable",
      "type": "function"
    },
    {
      "inputs": [
        {
          "internalType": "address",
          "name": "_disputer",
          "type": "address"
        }
      ],
      "name": "addDisputer",
      "outputs": [],
      "stateMutability": "nonpayable",
      "type": "function"
    },
    {
      "inputs": [
        {
          "internalType": "address",
          "name": "_job",
          "type": "address"
        }
      ],
      "name": "addJob",
      "outputs": [],
      "stateMutability": "nonpayable",
      "type": "function"
    },
    {
      "inputs": [
        {
          "internalType": "address",
          "name": "_job",
          "type": "address"
        },
        {
          "internalType": "address",
          "name": "_liquidity",
          "type": "address"
        },
        {
          "internalType": "uint256",
          "name": "_amount",
          "type": "uint256"
        }
      ],
      "name": "addLiquidityToJob",
      "outputs": [],
      "stateMutability": "nonpayable",
      "type": "function"
    },
    {
      "inputs": [
        {
          "internalType": "address",
          "name": "_slasher",
          "type": "address"
        }
      ],
      "name": "addSlasher",
      "outputs": [],
      "stateMutability": "nonpayable",
      "type": "function"
    },
    {
      "inputs": [
        {
          "internalType": "address",
          "name": "_job",
          "type": "address"
        },
        {
          "internalType": "address",
          "name": "_token",
          "type": "address"
        },
        {
          "internalType": "uint256",
          "name": "_amount",
          "type": "uint256"
        }
      ],
      "name": "addTokenCreditsToJob",
      "outputs": [],
      "stateMutability": "nonpayable",
      "type": "function"
    },
    {
      "inputs": [
        {
          "internalType": "address",
          "name": "_liquidity",
          "type": "address"
        }
      ],
      "name": "approveLiquidity",
      "outputs": [],
      "stateMutability": "nonpayable",
      "type": "function"
    },
    {
      "inputs": [],
      "name": "approvedLiquidities",
      "outputs": [
        {
          "internalType": "address[]",
          "name": "_list",
          "type": "address[]"
        }
      ],
      "stateMutability": "view",
      "type": "function"
    },
    {
      "inputs": [
        {
          "internalType": "address",
          "name": "_bonding",
          "type": "address"
        },
        {
          "internalType": "uint256",
          "name": "_amount",
          "type": "uint256"
        }
      ],
      "name": "bond",
      "outputs": [],
      "stateMutability": "nonpayable",
      "type": "function"
    },
    {
      "inputs": [],
      "name": "bondTime",
      "outputs": [
        {
          "internalType": "uint256",
          "name": "",
          "type": "uint256"
        }
      ],
      "stateMutability": "view",
      "type": "function"
    },
    {
      "inputs": [
        {
          "internalType": "address",
          "name": "_keeper",
          "type": "address"
        },
        {
          "internalType": "uint256",
          "name": "_payment",
          "type": "uint256"
        }
      ],
      "name": "bondedPayment",
      "outputs": [],
      "stateMutability": "nonpayable",
      "type": "function"
    },
    {
      "inputs": [
        {
          "internalType": "address",
          "name": "",
          "type": "address"
        },
        {
          "internalType": "address",
          "name": "",
          "type": "address"
        }
      ],
      "name": "bonds",
      "outputs": [
        {
          "internalType": "uint256",
          "name": "",
          "type": "uint256"
        }
      ],
      "stateMutability": "view",
      "type": "function"
    },
    {
      "inputs": [
        {
          "internalType": "address",
          "name": "",
          "type": "address"
        },
        {
          "internalType": "address",
          "name": "",
          "type": "address"
        }
      ],
      "name": "canActivateAfter",
      "outputs": [
        {
          "internalType": "uint256",
          "name": "",
          "type": "uint256"
        }
      ],
      "stateMutability": "view",
      "type": "function"
    },
    {
      "inputs": [
        {
          "internalType": "address",
          "name": "",
          "type": "address"
        },
        {
          "internalType": "address",
          "name": "",
          "type": "address"
        }
      ],
      "name": "canWithdrawAfter",
      "outputs": [
        {
          "internalType": "uint256",
          "name": "",
          "type": "uint256"
        }
      ],
      "stateMutability": "view",
      "type": "function"
    },
    {
      "inputs": [
        {
          "internalType": "address",
          "name": "_job",
          "type": "address"
        },
        {
          "internalType": "address",
          "name": "_newOwner",
          "type": "address"
        }
      ],
      "name": "changeJobOwnership",
      "outputs": [],
      "stateMutability": "nonpayable",
      "type": "function"
    },
    {
      "inputs": [
        {
          "internalType": "address",
          "name": "_token",
          "type": "address"
        },
        {
          "internalType": "address",
          "name": "_keeper",
          "type": "address"
        },
        {
          "internalType": "uint256",
          "name": "_amount",
          "type": "uint256"
        }
      ],
      "name": "directTokenPayment",
      "outputs": [],
      "stateMutability": "nonpayable",
      "type": "function"
    },
    {
      "inputs": [
        {
          "internalType": "address",
          "name": "_jobOrKeeper",
          "type": "address"
        }
      ],
      "name": "dispute",
      "outputs": [],
      "stateMutability": "nonpayable",
      "type": "function"
    },
    {
      "inputs": [
        {
          "internalType": "address",
          "name": "",
          "type": "address"
        }
      ],
      "name": "disputers",
      "outputs": [
        {
          "internalType": "bool",
          "name": "",
          "type": "bool"
        }
      ],
      "stateMutability": "view",
      "type": "function"
    },
    {
      "inputs": [
        {
          "internalType": "address",
          "name": "",
          "type": "address"
        }
      ],
      "name": "disputes",
      "outputs": [
        {
          "internalType": "bool",
          "name": "",
          "type": "bool"
        }
      ],
      "stateMutability": "view",
      "type": "function"
    },
    {
      "inputs": [],
      "name": "fee",
      "outputs": [
        {
          "internalType": "uint256",
          "name": "",
          "type": "uint256"
        }
      ],
      "stateMutability": "view",
      "type": "function"
    },
    {
      "inputs": [
        {
          "internalType": "address",
          "name": "",
          "type": "address"
        }
      ],
      "name": "firstSeen",
      "outputs": [
        {
          "internalType": "uint256",
          "name": "",
          "type": "uint256"
        }
      ],
      "stateMutability": "view",
      "type": "function"
    },
    {
      "inputs": [
        {
          "internalType": "address",
          "name": "_job",
          "type": "address"
        },
        {
          "internalType": "uint256",
          "name": "_amount",
          "type": "uint256"
        }
      ],
      "name": "forceLiquidityCreditsToJob",
      "outputs": [],
      "stateMutability": "nonpayable",
      "type": "function"
    },
    {
      "inputs": [],
      "name": "governor",
      "outputs": [
        {
          "internalType": "address",
          "name": "",
          "type": "address"
        }
      ],
      "stateMutability": "view",
      "type": "function"
    },
    {
      "inputs": [
        {
          "internalType": "address",
          "name": "",
          "type": "address"
        }
      ],
      "name": "hasBonded",
      "outputs": [
        {
          "internalType": "bool",
          "name": "",
          "type": "bool"
        }
      ],
      "stateMutability": "view",
      "type": "function"
    },
    {
      "inputs": [],
      "name": "inflationPeriod",
      "outputs": [
        {
          "internalType": "uint256",
          "name": "",
          "type": "uint256"
        }
      ],
      "stateMutability": "view",
      "type": "function"
    },
    {
      "inputs": [
        {
          "internalType": "address",
          "name": "_keeper",
          "type": "address"
        },
        {
          "internalType": "address",
          "name": "_bond",
          "type": "address"
        },
        {
          "internalType": "uint256",
          "name": "_minBond",
          "type": "uint256"
        },
        {
          "internalType": "uint256",
          "name": "_earned",
          "type": "uint256"
        },
        {
          "internalType": "uint256",
          "name": "_age",
          "type": "uint256"
        }
      ],
      "name": "isBondedKeeper",
      "outputs": [
        {
          "internalType": "bool",
          "name": "_isBondedKeeper",
          "type": "bool"
        }
      ],
      "stateMutability": "nonpayable",
      "type": "function"
    },
    {
      "inputs": [
        {
          "internalType": "address",
          "name": "_keeper",
          "type": "address"
        }
      ],
      "name": "isKeeper",
      "outputs": [
        {
          "internalType": "bool",
          "name": "_isKeeper",
          "type": "bool"
        }
      ],
      "stateMutability": "nonpayable",
      "type": "function"
    },
    {
      "inputs": [
        {
          "internalType": "address",
          "name": "_job",
          "type": "address"
        }
      ],
      "name": "jobLiquidityCredits",
      "outputs": [
        {
          "internalType": "uint256",
          "name": "_liquidityCredits",
          "type": "uint256"
        }
      ],
      "stateMutability": "view",
      "type": "function"
    },
    {
      "inputs": [
        {
          "internalType": "address",
          "name": "",
          "type": "address"
        }
      ],
      "name": "jobOwner",
      "outputs": [
        {
          "internalType": "address",
          "name": "",
          "type": "address"
        }
      ],
      "stateMutability": "view",
      "type": "function"
    },
    {
      "inputs": [
        {
          "internalType": "address",
          "name": "",
          "type": "address"
        }
      ],
      "name": "jobPendingOwner",
      "outputs": [
        {
          "internalType": "address",
          "name": "",
          "type": "address"
        }
      ],
      "stateMutability": "view",
      "type": "function"
    },
    {
      "inputs": [
        {
          "internalType": "address",
          "name": "_job",
          "type": "address"
        }
      ],
      "name": "jobPeriodCredits",
      "outputs": [
        {
          "internalType": "uint256",
          "name": "_periodCredits",
          "type": "uint256"
        }
      ],
      "stateMutability": "view",
      "type": "function"
    },
    {
      "inputs": [
        {
          "internalType": "address",
          "name": "",
          "type": "address"
        },
        {
          "internalType": "address",
          "name": "",
          "type": "address"
        }
      ],
      "name": "jobTokenCredits",
      "outputs": [
        {
          "internalType": "uint256",
          "name": "",
          "type": "uint256"
        }
      ],
      "stateMutability": "view",
      "type": "function"
    },
    {
      "inputs": [
        {
          "internalType": "address",
          "name": "",
          "type": "address"
        },
        {
          "internalType": "address",
          "name": "",
          "type": "address"
        }
      ],
      "name": "jobTokenCreditsAddedAt",
      "outputs": [
        {
          "internalType": "uint256",
          "name": "",
          "type": "uint256"
        }
      ],
      "stateMutability": "view",
      "type": "function"
    },
    {
      "inputs": [],
      "name": "jobs",
      "outputs": [
        {
          "internalType": "address[]",
          "name": "_list",
          "type": "address[]"
        }
      ],
      "stateMutability": "view",
      "type": "function"
    },
    {
      "inputs": [],
      "name": "keep3rHelper",
      "outputs": [
        {
          "internalType": "address",
          "name": "",
          "type": "address"
        }
      ],
      "stateMutability": "view",
      "type": "function"
    },
    {
      "inputs": [],
      "name": "keep3rV1",
      "outputs": [
        {
          "internalType": "address",
          "name": "",
          "type": "address"
        }
      ],
      "stateMutability": "view",
      "type": "function"
    },
    {
      "inputs": [],
      "name": "keep3rV1Proxy",
      "outputs": [
        {
          "internalType": "address",
          "name": "",
          "type": "address"
        }
      ],
      "stateMutability": "view",
      "type": "function"
    },
    {
      "inputs": [],
      "name": "keepers",
      "outputs": [
        {
          "internalType": "address[]",
          "name": "_list",
          "type": "address[]"
        }
      ],
      "stateMutability": "view",
      "type": "function"
    },
    {
      "inputs": [
        {
          "internalType": "address",
          "name": "",
          "type": "address"
        },
        {
          "internalType": "address",
          "name": "",
          "type": "address"
        }
      ],
      "name": "liquidityAmount",
      "outputs": [
        {
          "internalType": "uint256",
          "name": "",
          "type": "uint256"
        }
      ],
      "stateMutability": "view",
      "type": "function"
    },
    {
      "inputs": [],
      "name": "liquidityMinimum",
      "outputs": [
        {
          "internalType": "uint256",
          "name": "",
          "type": "uint256"
        }
      ],
      "stateMutability": "view",
      "type": "function"
    },
    {
      "inputs": [
        {
          "internalType": "address",
          "name": "_fromJob",
          "type": "address"
        },
        {
          "internalType": "address",
          "name": "_toJob",
          "type": "address"
        }
      ],
      "name": "migrateJob",
      "outputs": [],
      "stateMutability": "nonpayable",
      "type": "function"
    },
    {
      "inputs": [
        {
          "internalType": "address",
          "name": "_liquidity",
          "type": "address"
        }
      ],
      "name": "observeLiquidity",
      "outputs": [
        {
          "components": [
            {
              "internalType": "int56",
              "name": "current",
              "type": "int56"
            },
            {
              "internalType": "int56",
              "name": "difference",
              "type": "int56"
            },
            {
              "internalType": "uint256",
              "name": "period",
              "type": "uint256"
            }
          ],
          "internalType": "struct IKeep3rJobFundableLiquidity.TickCache",
          "name": "_tickCache",
          "type": "tuple"
        }
      ],
      "stateMutability": "view",
      "type": "function"
    },
    {
      "inputs": [
        {
          "internalType": "address",
          "name": "",
          "type": "address"
        },
        {
          "internalType": "address",
          "name": "",
          "type": "address"
        }
      ],
      "name": "pendingBonds",
      "outputs": [
        {
          "internalType": "uint256",
          "name": "",
          "type": "uint256"
        }
      ],
      "stateMutability": "view",
      "type": "function"
    },
    {
      "inputs": [],
      "name": "pendingGovernor",
      "outputs": [
        {
          "internalType": "address",
          "name": "",
          "type": "address"
        }
      ],
      "stateMutability": "view",
      "type": "function"
    },
    {
      "inputs": [
        {
          "internalType": "address",
          "name": "",
          "type": "address"
        }
      ],
      "name": "pendingJobMigrations",
      "outputs": [
        {
          "internalType": "address",
          "name": "",
          "type": "address"
        }
      ],
      "stateMutability": "view",
      "type": "function"
    },
    {
      "inputs": [
        {
          "internalType": "address",
          "name": "",
          "type": "address"
        },
        {
          "internalType": "address",
          "name": "",
          "type": "address"
        }
      ],
      "name": "pendingUnbonds",
      "outputs": [
        {
          "internalType": "uint256",
          "name": "",
          "type": "uint256"
        }
      ],
      "stateMutability": "view",
      "type": "function"
    },
    {
      "inputs": [
        {
          "internalType": "address",
          "name": "_liquidity",
          "type": "address"
        },
        {
          "internalType": "uint256",
          "name": "_amount",
          "type": "uint256"
        }
      ],
      "name": "quoteLiquidity",
      "outputs": [
        {
          "internalType": "uint256",
          "name": "_periodCredits",
          "type": "uint256"
        }
      ],
      "stateMutability": "view",
      "type": "function"
    },
    {
      "inputs": [
        {
          "internalType": "address",
          "name": "_disputer",
          "type": "address"
        }
      ],
      "name": "removeDisputer",
      "outputs": [],
      "stateMutability": "nonpayable",
      "type": "function"
    },
    {
      "inputs": [
        {
          "internalType": "address",
          "name": "_slasher",
          "type": "address"
        }
      ],
      "name": "removeSlasher",
      "outputs": [],
      "stateMutability": "nonpayable",
      "type": "function"
    },
    {
      "inputs": [
        {
          "internalType": "address",
          "name": "_jobOrKeeper",
          "type": "address"
        }
      ],
      "name": "resolve",
      "outputs": [],
      "stateMutability": "nonpayable",
      "type": "function"
    },
    {
      "inputs": [
        {
          "internalType": "address",
          "name": "_keeper",
          "type": "address"
        }
      ],
      "name": "revoke",
      "outputs": [],
      "stateMutability": "nonpayable",
      "type": "function"
    },
    {
      "inputs": [
        {
          "internalType": "address",
          "name": "_liquidity",
          "type": "address"
        }
      ],
      "name": "revokeLiquidity",
      "outputs": [],
      "stateMutability": "nonpayable",
      "type": "function"
    },
    {
      "inputs": [],
      "name": "rewardPeriodTime",
      "outputs": [
        {
          "internalType": "uint256",
          "name": "",
          "type": "uint256"
        }
      ],
      "stateMutability": "view",
      "type": "function"
    },
    {
      "inputs": [
        {
          "internalType": "address",
          "name": "",
          "type": "address"
        }
      ],
      "name": "rewardedAt",
      "outputs": [
        {
          "internalType": "uint256",
          "name": "",
          "type": "uint256"
        }
      ],
      "stateMutability": "view",
      "type": "function"
    },
    {
      "inputs": [
        {
          "internalType": "address",
          "name": "_token",
          "type": "address"
        },
        {
          "internalType": "uint256",
          "name": "_amount",
          "type": "uint256"
        },
        {
          "internalType": "address",
          "name": "_to",
          "type": "address"
        }
      ],
      "name": "sendDust",
      "outputs": [],
      "stateMutability": "nonpayable",
      "type": "function"
    },
    {
      "inputs": [
        {
          "internalType": "uint256",
          "name": "_bondTime",
          "type": "uint256"
        }
      ],
      "name": "setBondTime",
      "outputs": [],
      "stateMutability": "nonpayable",
      "type": "function"
    },
    {
      "inputs": [
        {
          "internalType": "uint256",
          "name": "_fee",
          "type": "uint256"
        }
      ],
      "name": "setFee",
      "outputs": [],
      "stateMutability": "nonpayable",
      "type": "function"
    },
    {
      "inputs": [
        {
          "internalType": "uint256",
          "name": "_inflationPeriod",
          "type": "uint256"
        }
      ],
      "name": "setInflationPeriod",
      "outputs": [],
      "stateMutability": "nonpayable",
      "type": "function"
    },
    {
      "inputs": [
        {
          "internalType": "address",
          "name": "_keep3rHelper",
          "type": "address"
        }
      ],
      "name": "setKeep3rHelper",
      "outputs": [],
      "stateMutability": "nonpayable",
      "type": "function"
    },
    {
      "inputs": [
        {
          "internalType": "address",
          "name": "_keep3rV1",
          "type": "address"
        }
      ],
      "name": "setKeep3rV1",
      "outputs": [],
      "stateMutability": "nonpayable",
      "type": "function"
    },
    {
      "inputs": [
        {
          "internalType": "address",
          "name": "_keep3rV1Proxy",
          "type": "address"
        }
      ],
      "name": "setKeep3rV1Proxy",
      "outputs": [],
      "stateMutability": "nonpayable",
      "type": "function"
    },
    {
      "inputs": [
        {
          "internalType": "uint256",
          "name": "_liquidityMinimum",
          "type": "uint256"
        }
      ],
      "name": "setLiquidityMinimum",
      "outputs": [],
      "stateMutability": "nonpayable",
      "type": "function"
    },
    {
      "inputs": [
        {
          "internalType": "address",
          "name": "_pendingGovernor",
          "type": "address"
        }
      ],
      "name": "setPendingGovernor",
      "outputs": [],
      "stateMutability": "nonpayable",
      "type": "function"
    },
    {
      "inputs": [
        {
          "internalType": "uint256",
          "name": "_rewardPeriodTime",
          "type": "uint256"
        }
      ],
      "name": "setRewardPeriodTime",
      "outputs": [],
      "stateMutability": "nonpayable",
      "type": "function"
    },
    {
      "inputs": [
        {
          "internalType": "uint256",
          "name": "_unbondTime",
          "type": "uint256"
        }
      ],
      "name": "setUnbondTime",
      "outputs": [],
      "stateMutability": "nonpayable",
      "type": "function"
    },
    {
      "inputs": [
        {
          "internalType": "address",
          "name": "_keeper",
          "type": "address"
        },
        {
          "internalType": "address",
          "name": "_bonded",
          "type": "address"
        },
        {
          "internalType": "uint256",
          "name": "_bondAmount",
          "type": "uint256"
        },
        {
          "internalType": "uint256",
          "name": "_unbondAmount",
          "type": "uint256"
        }
      ],
      "name": "slash",
      "outputs": [],
      "stateMutability": "nonpayable",
      "type": "function"
    },
    {
      "inputs": [
        {
          "internalType": "address",
          "name": "_job",
          "type": "address"
        },
        {
          "internalType": "address",
          "name": "_liquidity",
          "type": "address"
        },
        {
          "internalType": "uint256",
          "name": "_amount",
          "type": "uint256"
        }
      ],
      "name": "slashLiquidityFromJob",
      "outputs": [],
      "stateMutability": "nonpayable",
      "type": "function"
    },
    {
      "inputs": [
        {
          "internalType": "address",
          "name": "_job",
          "type": "address"
        },
        {
          "internalType": "address",
          "name": "_token",
          "type": "address"
        },
        {
          "internalType": "uint256",
          "name": "_amount",
          "type": "uint256"
        }
      ],
      "name": "slashTokenFromJob",
      "outputs": [],
      "stateMutability": "nonpayable",
      "type": "function"
    },
    {
      "inputs": [
        {
          "internalType": "address",
          "name": "",
          "type": "address"
        }
      ],
      "name": "slashers",
      "outputs": [
        {
          "internalType": "bool",
          "name": "",
          "type": "bool"
        }
      ],
      "stateMutability": "view",
      "type": "function"
    },
    {
      "inputs": [],
      "name": "totalBonds",
      "outputs": [
        {
          "internalType": "uint256",
          "name": "",
          "type": "uint256"
        }
      ],
      "stateMutability": "view",
      "type": "function"
    },
    {
      "inputs": [
        {
          "internalType": "address",
          "name": "_job",
          "type": "address"
        }
      ],
      "name": "totalJobCredits",
      "outputs": [
        {
          "internalType": "uint256",
          "name": "_credits",
          "type": "uint256"
        }
      ],
      "stateMutability": "view",
      "type": "function"
    },
    {
      "inputs": [
        {
          "internalType": "address",
          "name": "_bonding",
          "type": "address"
        },
        {
          "internalType": "uint256",
          "name": "_amount",
          "type": "uint256"
        }
      ],
      "name": "unbond",
      "outputs": [],
      "stateMutability": "nonpayable",
      "type": "function"
    },
    {
      "inputs": [
        {
          "internalType": "address",
          "name": "_job",
          "type": "address"
        },
        {
          "internalType": "address",
          "name": "_liquidity",
          "type": "address"
        },
        {
          "internalType": "uint256",
          "name": "_amount",
          "type": "uint256"
        }
      ],
      "name": "unbondLiquidityFromJob",
      "outputs": [],
      "stateMutability": "nonpayable",
      "type": "function"
    },
    {
      "inputs": [],
      "name": "unbondTime",
      "outputs": [
        {
          "internalType": "uint256",
          "name": "",
          "type": "uint256"
        }
      ],
      "stateMutability": "view",
      "type": "function"
    },
    {
      "inputs": [],
      "name": "virtualReserves",
      "outputs": [
        {
          "internalType": "int256",
          "name": "_virtualReserves",
          "type": "int256"
        }
      ],
      "stateMutability": "view",
      "type": "function"
    },
    {
      "inputs": [
        {
          "internalType": "address",
          "name": "_bonding",
          "type": "address"
        }
      ],
      "name": "withdraw",
      "outputs": [],
      "stateMutability": "nonpayable",
      "type": "function"
    },
    {
      "inputs": [
        {
          "internalType": "address",
          "name": "_job",
          "type": "address"
        },
        {
          "internalType": "address",
          "name": "_liquidity",
          "type": "address"
        },
        {
          "internalType": "address",
          "name": "_receiver",
          "type": "address"
        }
      ],
      "name": "withdrawLiquidityFromJob",
      "outputs": [],
      "stateMutability": "nonpayable",
      "type": "function"
    },
    {
      "inputs": [
        {
          "internalType": "address",
          "name": "_job",
          "type": "address"
        },
        {
          "internalType": "address",
          "name": "_token",
          "type": "address"
        },
        {
          "internalType": "uint256",
          "name": "_amount",
          "type": "uint256"
        },
        {
          "internalType": "address",
          "name": "_receiver",
          "type": "address"
        }
      ],
      "name": "withdrawTokenCreditsFromJob",
      "outputs": [],
      "stateMutability": "nonpayable",
      "type": "function"
    },
    {
      "inputs": [
        {
          "internalType": "address",
          "name": "",
          "type": "address"
        }
      ],
      "name": "workCompleted",
      "outputs": [
        {
          "internalType": "uint256",
          "name": "",
          "type": "uint256"
        }
      ],
      "stateMutability": "view",
      "type": "function"
    },
    {
      "inputs": [
        {
          "internalType": "address",
          "name": "",
          "type": "address"
        }
      ],
      "name": "worked",
      "outputs": [],
      "stateMutability": "pure",
      "type": "function"
    },
    {
      "inputs": [
        {
          "internalType": "address",
          "name": "_keeper",
          "type": "address"
        },
        {
          "internalType": "uint256",
          "name": "_usdPerGasUnit",
          "type": "uint256"
        }
      ],
      "name": "worked",
      "outputs": [],
      "stateMutability": "nonpayable",
      "type": "function"
    },
    {
      "inputs": [
        {
          "internalType": "address",
          "name": "",
          "type": "address"
        }
      ],
      "name": "workedAt",
      "outputs": [
        {
          "internalType": "uint256",
          "name": "",
          "type": "uint256"
        }
      ],
      "stateMutability": "view",
      "type": "function"
    }
  ],
  "transactionHash": "0xb3c66ef8d19268f92ca3f512a6b943d6bea80e80a0ff9b67f880c9024e6fa6bf",
  "args": [
    "0x9A040a31bc38919D50FD740973dBB6F8fdee1426",
    "0x832accE332B81262C028B2F800D1D53C8aEE12f4",
    "0x4a2bE2075588BcE6A7E072574698a7DbbAc39b08",
    "0xDBc6501645407CF4D3af383FbD5Bf7586b135d81"
  ],
  "numDeployments": 1,
  "solcInputHash": "3a869c3b827b38468356d50761a61b47",
  "bytecode": "0x60806040526203f480601f55621275006020556729a2241af62c000060215562069780602255622cd300602355601e6024553480156200003e57600080fd5b50604051620061023803806200610283398101604081905262000061916200010f565b60016000558383838382828286806001600160a01b038116620000975760405163d92e233d60e01b815260040160405180910390fd5b600380546001600160a01b03199081166001600160a01b0393841617909155601e8054821696831696909617909555601c805486169482169490941790935550601d80549093169116179055506200016c9650505050505050565b80516001600160a01b03811681146200010a57600080fd5b919050565b600080600080608085870312156200012657600080fd5b6200013185620000f2565b93506200014160208601620000f2565b92506200015160408601620000f2565b91506200016160608601620000f2565b905092959194509250565b615f86806200017c6000396000f3fe608060405234801561001057600080fd5b50600436106104c25760003560e01c806398e90a0f11610278578063c7ae40d01161015c578063ec8ca643116100ce578063f25e311b11610092578063f25e311b14610c40578063f263c47014610c53578063f75f9f7b14610c5c578063f9d46cf214610c6f578063fc253d2b14610c82578063fe75bc4614610c8b57600080fd5b8063ec8ca64314610bbe578063f0f346b914610be7578063f11a1d1a14610bfa578063f136a09d14610c0d578063f235757f14610c2d57600080fd5b8063dd2080d611610120578063dd2080d614610b49578063ddca3f4314610b5c578063e3056a3414610b65578063e326ac4314610b78578063ebbb619414610b98578063ec00cdfc14610bab57600080fd5b8063c7ae40d014610ad2578063cb4be2bb14610ae5578063cb54694d14610af8578063cd22af1b14610b0b578063d55995fe14610b3657600080fd5b8063af320e81116101f5578063b600702a116101b9578063b600702a14610a50578063b70362b914610a63578063b7e7734014610a76578063b87fcbff14610a89578063c20297f014610aac578063c5198abc14610abf57600080fd5b8063af320e81146109d4578063b0103b1a146109e7578063b0f328f114610a0a578063b239223314610a12578063b440027f14610a2557600080fd5b8063a5d059ca1161023c578063a5d059ca1461096a578063a676f9ff1461097d578063a734f06e1461099d578063a7d2e784146109b8578063aac6aa9c146109c157600080fd5b806398e90a0f146108dd5780639d5c33d814610906578063a214580914610919578063a39744b51461092c578063a515366a1461095757600080fd5b806359a2255e116103aa57806372da828a1161031c5780638bb6dfa8116102e05780638bb6dfa8146108665780638cb22b76146108795780638fe204dd1461089c57806390a4684e146108af578063951dc22c146108c2578063966abd00146108ca57600080fd5b806372da828a1461080657806374a8f10314610819578063768b5d901461082c5780637c8fce2314610835578063878c723e1461083d57600080fd5b806368a9f19c1161036e57806368a9f19c1461077c578063694798e61461078f57806369fe0e2d146107ba5780636ba42aaa146107cd5780636cf262bc146107e05780636e2a9ca6146107f357600080fd5b806359a2255e146107315780635ebe23f0146107445780635feeb7941461074d578063633fb68f1461076057806364bb43ee1461076957600080fd5b8063168f92e711610443578063274a8db411610407578063274a8db41461069f57806351cff8d9146106d257806352a4de29146106e557806355ea6c47146106f8578063575288bf1461070b578063594a3a931461071e57600080fd5b8063168f92e7146106035780631b44555e1461062e5780631c5a9d9c1461064e5780631ef94b911461066157806321040b011461067457600080fd5b80631101eb411161048a5780631101eb411461056b57806311466d721461058057806313f6986d1461059357806315006b821461059b578063165e62e7146105c657600080fd5b8063034d4c61146104c757806307b435c2146104ed5780630c340a24146105185780630c620bce146105435780630d6a1f8714610558575b600080fd5b6104da6104d536600461590a565b610c9e565b6040519081526020015b60405180910390f35b6104da6104fb366004615927565b601760209081526000928352604080842090915290825290205481565b60035461052b906001600160a01b031681565b6040516001600160a01b0390911681526020016104e4565b61054b610da4565b6040516104e49190615960565b6104da6105663660046159ad565b610db5565b61057e6105793660046159d9565b610ec8565b005b61057e61058e3660046159ad565b611022565b61057e6111c7565b6104da6105a9366004615927565b601560209081526000928352604080842090915290825290205481565b6105d96105d436600461590a565b6111fc565b604080518251600690810b825260208085015190910b9082015291810151908201526060016104e4565b6104da610611366004615927565b600e60209081526000928352604080842090915290825290205481565b6104da61063c36600461590a565b600a6020526000908152604090205481565b61057e61065c36600461590a565b61141b565b601c5461052b906001600160a01b031681565b6104da610682366004615927565b601860209081526000928352604080842090915290825290205481565b6106c26106ad36600461590a565b60066020526000908152604090205460ff1681565b60405190151581526020016104e4565b61057e6106e036600461590a565b6115d6565b61057e6106f33660046159d9565b61176e565b61057e61070636600461590a565b6119a1565b61057e6107193660046159d9565b611a55565b61057e61072c366004615927565b611d10565b61057e61073f36600461590a565b611db5565b6104da601f5481565b61057e61075b36600461590a565b611e67565b6104da60215481565b61057e61077736600461590a565b611e80565b61057e61078a36600461590a565b611f5b565b6104da61079d366004615927565b602860209081526000928352604080842090915290825290205481565b61057e6107c8366004615a1a565b61203b565b6106c26107db36600461590a565b61209b565b6104da6107ee36600461590a565b6120fb565b61057e6108013660046159d9565b612243565b61057e61081436600461590a565b61238f565b61057e61082736600461590a565b61242f565b6104da60225481565b61054b61252a565b61052b61084b36600461590a565b6001602052600090815260409020546001600160a01b031681565b6104da61087436600461590a565b612536565b6106c261088736600461590a565b60196020526000908152604090205460ff1681565b61057e6108aa366004615a1a565b6125d9565b61057e6108bd366004615927565b612637565b61054b612721565b61057e6108d8366004615a33565b61272d565b61052b6108eb36600461590a565b6002602052600090815260409020546001600160a01b031681565b61057e61091436600461590a565b612843565b61057e610927366004615a75565b612923565b6104da61093a366004615927565b600d60209081526000928352604080842090915290825290205481565b61057e6109653660046159ad565b612af3565b61057e6109783660046159ad565b612d4a565b6104da61098b36600461590a565b60296020526000908152604090205481565b61052b73eeeeeeeeeeeeeeeeeeeeeeeeeeeeeeeeeeeeeeee81565b6104da60205481565b61057e6109cf36600461590a565b612e24565b61057e6109e2366004615927565b612ed9565b6106c26109f536600461590a565b600c6020526000908152604090205460ff1681565b6104da613356565b61057e610a20366004615a1a565b6133e8565b6104da610a33366004615927565b602560209081526000928352604080842090915290825290205481565b61057e610a5e36600461590a565b613448565b61057e610a713660046159ad565b6136a5565b61057e610a84366004615a1a565b61393f565b6106c2610a9736600461590a565b60056020526000908152604090205460ff1681565b61057e610aba366004615ab5565b61399f565b61057e610acd36600461590a565b613a58565b601d5461052b906001600160a01b031681565b61057e610af336600461590a565b613b1e565b61057e610b06366004615a1a565b613bbe565b6104da610b19366004615927565b601660209081526000928352604080842090915290825290205481565b61057e610b44366004615afb565b613c42565b61057e610b573660046159d9565b613e79565b6104da60245481565b60045461052b906001600160a01b031681565b6104da610b8636600461590a565b600b6020526000908152604090205481565b61057e610ba6366004615a1a565b614008565b61057e610bb936600461590a565b614068565b61052b610bcc36600461590a565b602c602052600090815260409020546001600160a01b031681565b61057e610bf536600461590a565b614113565b601e5461052b906001600160a01b031681565b6104da610c1b36600461590a565b602a6020526000908152604090205481565b61057e610c3b36600461590a565b6141c8565b61057e610c4e3660046159d9565b6141ff565b6104da60095481565b61057e610c6a36600461590a565b614445565b6106c2610c7d366004615b4e565b6144fd565b6104da60235481565b61057e610c993660046159ad565b6145e6565b600080610caa836120fb565b6022549091504290610cc590610cc09083615bb5565b6146d6565b6001600160a01b0385166000908152602960205260409020541115610d69576022546001600160a01b038516600090815260296020526040902054610d0a9042615bb5565b10610d46576022546001600160a01b038516600090815260296020526040902054610d359190615bcc565b610d3f9082615bb5565b9050610d7f565b6001600160a01b038416600090815260296020526040902054610d3f9082615bb5565b610d72426146d6565b610d7c9082615bb5565b90505b610d8981836146f0565b610d9285612536565b610d9c9190615bcc565b949350505050565b6060610db0602661471a565b905090565b6000610dc260268461472e565b15610ec2576000610dd2846111fc565b90508060400151600014610ec0576001600160a01b03841660009081526014602052604081205460ff16610e13578160200151610e0e90615be4565b610e19565b81602001515b601e5460225460405163a0d2710760e01b815260048101889052600684900b60248201526044810191909152919250610eb7916001600160a01b039091169063a0d27107906064015b60206040518083038186803b158015610e7a57600080fd5b505afa158015610e8e573d6000803e3d6000fd5b505050506040513d601f19601f82011682018060405250810190610eb29190615c0b565b614750565b92505050610ec2565b505b92915050565b6001600160a01b038381166000908152600160205260409020548491163314610f0457604051636efb4f4160e11b815260040160405180910390fd5b602054610f119042615bcc565b6001600160a01b03808616600081815260176020908152604080832094891680845294825280832095909555918152601882528381209281529190529081208054849290610f60908490615bcc565b90915550610f719050848484614761565b6001600160a01b038085166000908152602860209081526040808320938716835292905220548015801590610fb05750602154610fae828661496f565b105b15610fce57604051636f447fcd60e11b815260040160405180910390fd5b836001600160a01b0316856001600160a01b03167f9aaab310d247ad45aef26bbdefc4ebf20c728fdb84c92b95b2b05d21826940de8560405161101391815260200190565b60405180910390a35050505050565b336000818152600c602052604090205460ff16156110535760405163ad2fdf3b60e01b815260040160405180910390fd5b61105e601a8261472e565b61107a5760405162941a5760e11b815260040160405180910390fd5b61108381614a97565b156110e0576001600160a01b038116600081815260296020908152604080832054600f835281842054601084529382902054825191825292810193909352820152600080516020615f318339815191529060600160405180910390a25b6001600160a01b0381166000908152600f60205260409020548211156111615761110981614c6d565b6001600160a01b038116600081815260296020908152604080832054600f835281842054601084529382902054825191825292810193909352820152600080516020615f318339815191529060600160405180910390a25b61116c818484614cfb565b601c546001600160a01b038085169183821691167f46f2180879a7123a197cc3828c28955d70d661c70acbdc02450daf5f9a9c1cfa856111aa614df8565b6040805192835260208301919091520160405180910390a4505050565b6004546001600160a01b031633146111f257604051639ba0305d60e01b815260040160405180910390fd5b6111fa614e12565b565b6040805160608101825260008082526020820181905291810191909152611222426146d6565b6001600160a01b0383166000908152602b6020526040902060010154141561129057506001600160a01b03166000908152602b602090815260409182902082516060810184528154600681810b8352600160381b909104900b92810192909252600101549181019190915290565b604080516002808252606082018352600092839291906020830190803683370190505090506112be426146d6565b6112c89042615bb5565b816000815181106112db576112db615c24565b602002602001019063ffffffff16908163ffffffff1681525050602254611301426146d6565b61130b9042615bb5565b6113159190615bcc565b8160018151811061132857611328615c24565b63ffffffff909216602092830291909101820152601e546001600160a01b0386811660009081526013909352604080842054905163dc686d9160e01b81529282169263dc686d91926113809216908690600401615c3a565b60606040518083038186803b15801561139857600080fd5b505afa1580156113ac573d6000803e3d6000fd5b505050506040513d601f19601f820116820180604052508101906113d09190615cb8565b60069290920b80875291945091506113e9908290615cfb565b60060b6020850152821561140a57611400426146d6565b6040850152611412565b600060408501525b5050505b919050565b336000818152600c602052604090205460ff161561144c576040516362e6201d60e01b815260040160405180910390fd5b6001600160a01b038082166000908152601660209081526040808320938616835292905220548061149057604051636258f48160e01b815260040160405180910390fd5b4281106114b057604051630fd0eeef60e11b815260040160405180910390fd5b6001600160a01b0382166000908152600b60205260409020546114e9576001600160a01b0382166000908152600b602052604090204290555b6114f4600783614e70565b506001600160a01b038083166000818152601560209081526040808320948816808452948252808320805490849055938352600d8252808320948352939052918220805491928392611547908490615bcc565b9091555050601c546001600160a01b03858116911614156115835780600960008282546115749190615bcc565b90915550611583905081614e85565b836001600160a01b0316836001600160a01b03167f3673530133b6da67e9854f605b0cfa7bb9798cd33c18036dfc10d8da7c4d4a75836040516115c891815260200190565b60405180910390a350505050565b600260005414156116025760405162461bcd60e51b81526004016115f990615d4b565b60405180910390fd5b600260009081553381526018602090815260408083206001600160a01b03851684529091529020546116475760405163184c088160e21b815260040160405180910390fd5b3360009081526017602090815260408083206001600160a01b0385168452909152902054421161168a576040516327cfdcb760e01b815260040160405180910390fd5b336000908152600c602052604090205460ff16156116bb576040516362e6201d60e01b815260040160405180910390fd5b3360008181526018602090815260408083206001600160a01b038681168086529184528285208054908690559585526017845282852082865290935290832092909255601c541614156117115761171181614f70565b6117256001600160a01b0383163383614fb8565b6040518181526001600160a01b0383169033907f2717ead6b9200dd235aad468c9809ea400fe33ac69b5bfaa6d3e90fc922b63989060200160405180910390a350506001600055565b600260005414156117915760405162461bcd60e51b81526004016115f990615d4b565b60026000556117a160268361472e565b6117be5760405163e0b6aead60e01b815260040160405180910390fd5b6117c9601a8461472e565b6117e657604051636211d34960e01b815260040160405180910390fd5b6001600160a01b03831660009081526012602052604090206118089083614e70565b5061181283615020565b6021546001600160a01b038085166000908152602860209081526040808320938716835292905220546118509061184a908490615bcc565b8461496f565b101561186f57604051636f447fcd60e11b815260040160405180910390fd5b6001600160a01b038316600081815260296020908152604080832054600f835281842054601084529382902054825191825292810193909352820152600080516020615f318339815191529060600160405180910390a26118db6001600160a01b03831633308461507e565b6001600160a01b03808416600090815260286020908152604080832093861683529290529081208054839290611912908490615bcc565b909155506119259050610eb2828461496f565b6001600160a01b0384166000908152601060205260408120805490919061194d908490615bcc565b909155505060405181815233906001600160a01b0384811691908616907f4e186bc75a2220191b826baff3ee63c3e970e94e58a9007ff94c9a7b8e6ebb3f9060200160405180910390a45050600160005550565b3360009081526006602052604090205460ff166119d157604051630942721960e31b815260040160405180910390fd5b6001600160a01b0381166000908152600c602052604090205460ff16611a0a576040516310cec38560e21b815260040160405180910390fd5b6001600160a01b0381166000818152600c6020526040808220805460ff19169055513392917fe02b2375d8fb4aef3e5bc5d53bffcf70b6f185c5c93e69dcbe8b6cfc58e837e291a350565b60026000541415611a785760405162461bcd60e51b81526004016115f990615d4b565b6002600055611a88601a8461472e565b611aa557604051636211d34960e01b815260040160405180910390fd5b601c546001600160a01b0383811691161415611ad35760405162822d9760e71b815260040160405180910390fd5b6040516370a0823160e01b81523060048201526000906001600160a01b038416906370a082319060240160206040518083038186803b158015611b1557600080fd5b505afa158015611b29573d6000803e3d6000fd5b505050506040513d601f19601f82011682018060405250810190611b4d9190615c0b565b9050611b646001600160a01b03841633308561507e565b6040516370a0823160e01b815230600482015260009082906001600160a01b038616906370a082319060240160206040518083038186803b158015611ba857600080fd5b505afa158015611bbc573d6000803e3d6000fd5b505050506040513d601f19601f82011682018060405250810190611be09190615c0b565b611bea9190615bb5565b9050600061271060245483611bff9190615d82565b611c099190615db7565b9050611c158183615bb5565b6001600160a01b038088166000908152600e60209081526040808320938a1683529290529081208054909190611c4c908490615bcc565b90915550506001600160a01b0380871660009081526025602090815260408083208985168085529252909120429055600354611c89921683614fb8565b6001600160a01b0386166000908152601160205260409020611cab9086614e70565b50336001600160a01b0316856001600160a01b0316876001600160a01b03167fec1a37d4a331a5059081e0fb5da1735e7890900cd215a4fb1e9f2779fd7b83eb85604051611cfb91815260200190565b60405180910390a45050600160005550505050565b6001600160a01b038281166000908152600160205260409020548391163314611d4c57604051636efb4f4160e11b815260040160405180910390fd5b6001600160a01b03838116600081815260026020908152604080832080546001600160a01b031916888716908117909155600190925280832054905191941692917fa8bad3f0b781e1d954af9945167d5f80bfe5e57930f17c93843187c77557a6b891a4505050565b6001600160a01b038181166000908152600260205260409020548291163314611df15760405163cfe9663360e01b815260040160405180910390fd5b6001600160a01b03828116600081815260016020908152604080832080546002909352818420805487166001600160a01b031980861691909117909255805490911690555193169283929133917fcf30c54296d5eee76168b564c59c50578d49c271733a470f32707c8cfbc88a8b9190a4505050565b6040516331cee75f60e21b815260040160405180910390fd5b6003546001600160a01b03163314611eab5760405163070545c960e51b815260040160405180910390fd5b611eb66026826150bc565b611ed357604051630a8d08b160e01b815260040160405180910390fd5b6001600160a01b038116600081815260136020908152604080832080546001600160a01b031916905560148252808320805460ff19169055602b825280832080546001600160701b03191681556001019290925590519182527f51199d699bdfd516fa88dd0d2f8487c40c147b4867acaa23adc8d4df6b098e5691015b60405180910390a150565b6003546001600160a01b03163314611f865760405163070545c960e51b815260040160405180910390fd5b6001600160a01b038116611fad5760405163d92e233d60e01b815260040160405180910390fd5b6001600160a01b03811660009081526005602052604090205460ff1615611fe75760405163546da66560e11b815260040160405180910390fd5b6001600160a01b038116600081815260056020908152604091829020805460ff1916600117905590519182527f049ccb28ab796d3225573a065712f6e7754487ced56056cda8889c337511807b9101611f50565b6003546001600160a01b031633146120665760405163070545c960e51b815260040160405180910390fd5b60248190556040518181527f4c10ca068ff7002cf5da78f2f697d1e91f6f0ac27f7344b28e8ef25263f87e5d90602001611f50565b60006120a5614df8565b602e556120b360078361472e565b15611416577f4851cad52e624c8f7a1d44c28a80db05988ba2451fc0db6b0ec338d8eca95afb602e546040516120eb91815260200190565b60405180910390a1506001919050565b6000805b6001600160a01b0383166000908152601260205260409020612120906150d1565b81101561223d576001600160a01b038316600090815260126020526040812061214990836150db565b905061215660268261472e565b1561222a576000612166826111fc565b90508060400151600014612228576001600160a01b03821660009081526014602052604081205460ff166121a75781602001516121a290615be4565b6121ad565b81602001515b601e546001600160a01b03888116600090815260286020908152604080832089851684529091529081902054602254915163a0d2710760e01b81526004810191909152600685900b6024820152604481019190915292935061221a9291169063a0d2710790606401610e62565b6122249086615bcc565b9450505b505b508061223581615dcb565b9150506120ff565b50919050565b3360009081526005602052604090205460ff1661227357604051637e57b1e160e01b815260040160405180910390fd5b6001600160a01b0383166000908152600c602052604090205460ff166122ac576040516310cec38560e21b815260040160405180910390fd5b6122b7838383614761565b60035460405163a9059cbb60e01b81526001600160a01b039182166004820152602481018390529083169063a9059cbb90604401602060405180830381600087803b15801561230557600080fd5b505af1925050508015612335575060408051601f3d908101601f1916820190925261233291810190615de6565b60015b61233e57612340565b505b604080516001600160a01b038481168252602082018490523392908616917f6e10247c3c094d220ee99436c164b7f38d63b335a20ed817cbefaee4bb02d20e91015b60405180910390a3505050565b6003546001600160a01b031633146123ba5760405163070545c960e51b815260040160405180910390fd5b6001600160a01b0381166123e15760405163d92e233d60e01b815260040160405180910390fd5b601e80546001600160a01b0319166001600160a01b0383169081179091556040519081527f71973fd672e51deb8f739b1f7e1eab991936645acd6f83e2bde6eeeaff5490b090602001611f50565b3360009081526005602052604090205460ff1661245f57604051637e57b1e160e01b815260040160405180910390fd5b6001600160a01b0381166000908152600c602052604090205460ff16612498576040516310cec38560e21b815260040160405180910390fd5b6124a36007826150bc565b50601c546001600160a01b038083166000818152600d60209081526040808320949095168083529381528482205492825260188152848220848352905292909220546124f1928492916150e7565b60405133906001600160a01b038316907f038a17b9b553c0c3fc2ed14b957a5d8420a1666fd2efe5c1b3fe5f23eea61bb390600090a350565b6060610db0601a61471a565b600080612542836120fb565b6022546001600160a01b0385166000908152602960205260409020549192509061256c9042615bb5565b1015610ec25760008111612598576001600160a01b0383166000908152600f60205260409020546125d2565b6001600160a01b038316600090815260106020908152604080832054600f909252909120546125c8908390615d82565b6125d29190615db7565b915061223d565b6003546001600160a01b031633146126045760405163070545c960e51b815260040160405180910390fd5b60208181556040518281527fc8d443472c9783cc36f8f5f5091f08ce9f37fc2f9e6d79cf1d9aaf40a433fee29101611f50565b6001600160a01b03828116600090815260016020526040902054839116331461267357604051636efb4f4160e11b815260040160405180910390fd5b816001600160a01b0316836001600160a01b031614156126a65760405163afe7ad4960e01b815260040160405180910390fd5b6001600160a01b038381166000818152602c6020908152604080832080546001600160a01b0319169588169586179055602d8252808320858452825291829020429055905192835290917fff0456758201108de53c0ff04c69988d4678ff455b2ce6f733328cf85722c04c91015b60405180910390a2505050565b6060610db0600761471a565b6003546001600160a01b031633146127585760405163070545c960e51b815260040160405180910390fd5b6001600160a01b03811661277f5760405163d92e233d60e01b815260040160405180910390fd5b6001600160a01b03831673eeeeeeeeeeeeeeeeeeeeeeeeeeeeeeeeeeeeeeee14156127e0576040516001600160a01b0382169083156108fc029084906000818181858888f193505050501580156127da573d6000803e3d6000fd5b506127f4565b6127f46001600160a01b0384168284614fb8565b604080516001600160a01b0385811682526020820185905283168183015290517f9a3055ded8c8b5f21bbf4946c5afab6e1fa8b3f057922658e5e1ade125fb0b1e9181900360600190a1505050565b6003546001600160a01b0316331461286e5760405163070545c960e51b815260040160405180910390fd5b6001600160a01b0381166128955760405163d92e233d60e01b815260040160405180910390fd5b6001600160a01b03811660009081526006602052604090205460ff16156128cf5760405163274e25dd60e11b815260040160405180910390fd5b6001600160a01b038116600081815260066020908152604091829020805460ff1916600117905590519182527f8addc69f897ecca0e41d70ed4ff9d75a9148a615a0fbda8597e53aea2684302f9101611f50565b6001600160a01b03838116600090815260016020526040902054849116331461295f57604051636efb4f4160e11b815260040160405180910390fd5b6001600160a01b0382166129865760405163d92e233d60e01b815260040160405180910390fd5b6001600160a01b038085166000908152601860209081526040808320938716835292905220546129c95760405163184c088160e21b815260040160405180910390fd5b6001600160a01b038085166000908152601760209081526040808320938716835292905220544211612a0e576040516327cfdcb760e01b815260040160405180910390fd5b6001600160a01b0384166000908152600c602052604090205460ff1615612a48576040516362e6201d60e01b815260040160405180910390fd5b6001600160a01b0380851660008181526018602090815260408083209488168084529482528083208054908490559383526017825280832085845290915281205590612a95908483614fb8565b826001600160a01b0316846001600160a01b0316866001600160a01b03167ffdb7893bf11f50c621e59cc7f1cf540e94295cb27ca869ec7ed7618ca792886284604051612ae491815260200190565b60405180910390a45050505050565b60026000541415612b165760405162461bcd60e51b81526004016115f990615d4b565b60026000908155338152600c602052604090205460ff1615612b4b576040516362e6201d60e01b815260040160405180910390fd5b612b56601a3361472e565b15612b745760405163d7229c4360e01b815260040160405180910390fd5b601f54612b819042615bcc565b3360009081526016602090815260408083206001600160a01b03871680855292528083209390935591516370a0823160e01b81523060048201529091906370a082319060240160206040518083038186803b158015612bdf57600080fd5b505afa158015612bf3573d6000803e3d6000fd5b505050506040513d601f19601f82011682018060405250810190612c179190615c0b565b9050612c2e6001600160a01b03841633308561507e565b6040516370a0823160e01b815230600482015281906001600160a01b038516906370a082319060240160206040518083038186803b158015612c6f57600080fd5b505afa158015612c83573d6000803e3d6000fd5b505050506040513d601f19601f82011682018060405250810190612ca79190615c0b565b612cb19190615bb5565b336000908152601960209081526040808320805460ff19166001179055601582528083206001600160a01b0388168452909152812080549294508492909190612cfb908490615bcc565b90915550506040518281526001600160a01b0384169033907fa7e66869262026842e8d81f5e6806cdc8d846e27c824e2e22f4fe51442771b349060200160405180910390a35050600160005550565b602054612d579042615bcc565b3360008181526017602090815260408083206001600160a01b03881680855290835281842095909555928252600d81528282209382529290925281208054839290612da3908490615bb5565b90915550503360009081526018602090815260408083206001600160a01b038616845290915281208054839290612ddb908490615bcc565b90915550506040518181526001600160a01b0383169033907f9aaab310d247ad45aef26bbdefc4ebf20c728fdb84c92b95b2b05d21826940de9060200160405180910390a35050565b6003546001600160a01b03163314612e4f5760405163070545c960e51b815260040160405180910390fd5b6001600160a01b03811660009081526005602052604090205460ff16612e88576040516336fe17e760e21b815260040160405180910390fd5b6001600160a01b038116600081815260056020908152604091829020805460ff1916905590519182527f3ed8cbce8cab40e59282f1743e2b607effa08b5cbe0111bb4721134f2f80d0259101611f50565b6001600160a01b038181166000908152600160205260409020548291163314612f1557604051636efb4f4160e11b815260040160405180910390fd5b6001600160a01b0383166000908152600c602052604090205460ff1680612f5457506001600160a01b0382166000908152600c602052604090205460ff165b15612f725760405163ad2fdf3b60e01b815260040160405180910390fd5b6001600160a01b038381166000908152602c6020526040902054811690831614612faf57604051630ced616b60e21b815260040160405180910390fd5b6001600160a01b038084166000908152602d6020908152604080832093861683529290522054612fe190603c90615bcc565b421015613001576040516356248e9760e01b815260040160405180910390fd5b61300a83615020565b61301382615020565b6001600160a01b0383166000908152601160205260408120613034906150d1565b1115613116576001600160a01b038316600090815260116020526040812061305c90826150db565b6001600160a01b038086166000908152600e6020818152604080842085871680865290835281852054958a1685529282528084209284529190528120805493945091926130aa908490615bcc565b90915550506001600160a01b038085166000818152600e6020908152604080832094861683529381528382208290559181526011909152206130ec90826150bc565b506001600160a01b038316600090815260116020526040902061310f9082614e70565b5050613013565b6001600160a01b0383166000908152601260205260408120613137906150d1565b1115613219576001600160a01b038316600090815260126020526040812061315f90826150db565b6001600160a01b03808616600090815260286020818152604080842085871680865290835281852054958a1685529282528084209284529190528120805493945091926131ad908490615bcc565b90915550506001600160a01b03808516600090815260286020908152604080832085851684528252808320839055928616825260129052206131ef9082614e70565b506001600160a01b038416600090815260126020526040902061321290826150bc565b5050613116565b6001600160a01b038084166000908152601060205260408082205492851682528120805490919061324b908490615bcc565b90915550506001600160a01b038084166000908152601060209081526040808320839055600f9091528082205492851682528120805490919061328f908490615bcc565b90915550506001600160a01b0383166000908152600f6020908152604080832083905560299091528120556132c5601a846150bc565b506001600160a01b03838116600081815260016020908152604080832080546001600160a01b031990811690915560028352818420805482169055602d8352818420958816808552958352818420849055848452602c835292819020805490931690925590519182527f9b712b63e3fb1325fa042d3c238ce8144937875065900528ea1e4f3b00f379f29101612714565b600954601c54601d546040516370a0823160e01b81526001600160a01b0391821660048201526000939291909116906370a082319060240160206040518083038186803b1580156133a657600080fd5b505afa1580156133ba573d6000803e3d6000fd5b505050506040513d601f19601f820116820180604052508101906133de9190615c0b565b610db09190615e01565b6003546001600160a01b031633146134135760405163070545c960e51b815260040160405180910390fd5b60238190556040518181527fbdcfd7b8482f31cff6a87c362d9e2e3887f4cdc2018c7c485d8e78a7b2fadb6990602001611f50565b6003546001600160a01b031633146134735760405163070545c960e51b815260040160405180910390fd5b61347e602682614e70565b61349b5760405163f25e6b9f60e01b815260040160405180910390fd5b601e5460405163eb37d34960e01b81526001600160a01b0383811660048301529091169063eb37d3499060240160206040518083038186803b1580156134e057600080fd5b505afa1580156134f4573d6000803e3d6000fd5b505050506040513d601f19601f820116820180604052508101906135189190615e40565b6001600160a01b03828116600090815260136020526040902080546001600160a01b0319169290911691821790556135635760405163d92e233d60e01b815260040160405180910390fd5b601e546001600160a01b038281166000908152601360205260409081902054905163696a437b60e01b8152908216600482015291169063696a437b9060240160206040518083038186803b1580156135ba57600080fd5b505afa1580156135ce573d6000803e3d6000fd5b505050506040513d601f19601f820116820180604052508101906135f29190615de6565b6001600160a01b0382166000908152601460205260409020805460ff1916911515919091179055613622816111fc565b6001600160a01b0382166000818152602b6020908152604091829020845181548684015166ffffffffffffff908116600160381b026001600160701b031990921692169190911717815593820151600190940193909355519081527fabfa8db4d238fa78bf4e15fcc91328dd35f3978f200e2857a56bb719732b7b0b9101611f50565b602e546136c557604051630262ab9b60e61b815260040160405180910390fd5b60006136cf614df8565b336000818152600c60205260409020549192509060ff16156137045760405163ad2fdf3b60e01b815260040160405180910390fd5b61370f601a8261472e565b61372b5760405162941a5760e11b815260040160405180910390fd5b61373481614a97565b15613791576001600160a01b038116600081815260296020908152604080832054600f835281842054601084529382902054825191825292810193909352820152600080516020615f318339815191529060600160405180910390a25b601e546001600160a01b038581166000908152600d60209081526040808320601c548516845290915280822054905163435b21c160e01b8152600481019190915290928392839291169063435b21c19060240160606040518083038186803b1580156137fc57600080fd5b505afa158015613810573d6000803e3d6000fd5b505050506040513d601f19601f820116820180604052508101906138349190615e5d565b919450925090506000613852868361384c8a87615d82565b8761524c565b6001600160a01b0386166000908152600f60205260409020549091508111156138d65761387e85614c6d565b6001600160a01b038516600081815260296020908152604080832054600f835281842054601084529382902054825191825292810193909352820152600080516020615f318339815191529060600160405180910390a25b6138e1858983614cfb565b6000602e55601c5460408051838152602081018990526001600160a01b038b811693898216939116917f46f2180879a7123a197cc3828c28955d70d661c70acbdc02450daf5f9a9c1cfa910160405180910390a45050505050505050565b6003546001600160a01b0316331461396a5760405163070545c960e51b815260040160405180910390fd5b601f8190556040518181527fd319ef78d2b690bb773fcccc2d096306bac7c9222dd0bb6b300f461e4a376b4390602001611f50565b3360009081526005602052604090205460ff166139cf57604051637e57b1e160e01b815260040160405180910390fd5b6001600160a01b0384166000908152600c602052604090205460ff16613a08576040516310cec38560e21b815260040160405180910390fd5b613a14848484846150e7565b336001600160a01b0385167f10a73de7ab6e9023aa6e2bc23f7abf4dcef591487e7e55f44c00e34fe60d56db613a4a8486615bcc565b6040519081526020016115c8565b613a63601a8261472e565b15613a8157604051630809740d60e01b815260040160405180910390fd5b6001600160a01b03811660009081526019602052604090205460ff1615613abb57604051632f3d320560e01b815260040160405180910390fd5b613ac6601a82614e70565b506001600160a01b03811660008181526001602052604080822080546001600160a01b0319163390811790915590519092917fed3faef50715743626cd57de74281a2b17cdbfc11c0486feda541fb911e0293d91a350565b6003546001600160a01b03163314613b495760405163070545c960e51b815260040160405180910390fd5b6001600160a01b038116613b705760405163d92e233d60e01b815260040160405180910390fd5b601d80546001600160a01b0319166001600160a01b0383169081179091556040519081527feb931b4b5a98d20a6b1e6693a7c59d8e337a06e2f1473bb776e19251db7ae25090602001611f50565b6003546001600160a01b03163314613be95760405163070545c960e51b815260040160405180910390fd5b62015180811015613c0d57604051633f384aad60e21b815260040160405180910390fd5b60228190556040518181527f54aafa56429e22230b52f1495588ffc632277d74f3a85ec755e13ac50c1584d990602001611f50565b60026000541415613c655760405162461bcd60e51b81526004016115f990615d4b565b600260009081556001600160a01b03858116825260016020526040909120548591163314613ca657604051636efb4f4160e11b815260040160405180910390fd5b6001600160a01b03808616600090815260256020908152604080832093881683529290522054613cd890603c90615bcc565b4211613cf757604051631e0b407560e01b815260040160405180910390fd5b6001600160a01b038086166000908152600e6020908152604080832093881683529290522054831115613d3d5760405163024ae82d60e61b815260040160405180910390fd5b6001600160a01b0385166000908152600c602052604090205460ff1615613d775760405163ad2fdf3b60e01b815260040160405180910390fd5b6001600160a01b038086166000908152600e6020908152604080832093881683529290529081208054859290613dae908490615bb5565b90915550613dc890506001600160a01b0385168385614fb8565b6001600160a01b038086166000908152600e6020908152604080832093881683529290522054613e16576001600160a01b0385166000908152601160205260409020613e1490856150bc565b505b816001600160a01b0316846001600160a01b0316866001600160a01b03167f53e982dd9ec088d634c74c98fbbc161f808b4b6469a26c657120b9a31cb34bfe86604051613e6591815260200190565b60405180910390a450506001600055505050565b336000818152600c602052604090205460ff1615613eaa5760405163ad2fdf3b60e01b815260040160405180910390fd5b6001600160a01b0383166000908152600c602052604090205460ff1615613ee4576040516362e6201d60e01b815260040160405180910390fd5b613eef601a8261472e565b613f0b5760405162941a5760e11b815260040160405180910390fd5b6001600160a01b038082166000908152600e6020908152604080832093881683529290522054821115613f515760405163356680b760e01b815260040160405180910390fd5b6001600160a01b038082166000908152600e6020908152604080832093881683529290529081208054849290613f88908490615bb5565b90915550613fa290506001600160a01b0385168484614fb8565b826001600160a01b0316816001600160a01b0316856001600160a01b03167f46f2180879a7123a197cc3828c28955d70d661c70acbdc02450daf5f9a9c1cfa85613fea614df8565b6040805192835260208301919091520160405180910390a450505050565b6003546001600160a01b031633146140335760405163070545c960e51b815260040160405180910390fd5b60218190556040518181527f24d51b415694a791b1c77df7817c075ac82b83ce611bcd8627d2e66cf37aa3e790602001611f50565b6003546001600160a01b031633146140935760405163070545c960e51b815260040160405180910390fd5b6001600160a01b0381166140ba5760405163d92e233d60e01b815260040160405180910390fd5b6140c5600954614f70565b601c80546001600160a01b0319166001600160a01b0383169081179091556040519081527f1d1a3e7caf0717056e48dc8aefa54d806c7af86324fece4e5d49f8e1f01f84bf90602001611f50565b6003546001600160a01b0316331461413e5760405163070545c960e51b815260040160405180910390fd5b6001600160a01b03811660009081526006602052604090205460ff1661417757604051633ca0d42760e11b815260040160405180910390fd5b6001600160a01b038116600081815260066020908152604091829020805460ff1916905590519182527f5e8bd21d0a98cb2caf33706e56139ff40ffbdca7ec5d9d412a0a2292496dc70e9101611f50565b6003546001600160a01b031633146141f35760405163070545c960e51b815260040160405180910390fd5b6141fc816152a9565b50565b3360009081526005602052604090205460ff1661422f57604051637e57b1e160e01b815260040160405180910390fd5b6001600160a01b0383166000908152600c602052604090205460ff16614268576040516310cec38560e21b815260040160405180910390fd5b6001600160a01b038316600090815260116020526040902061428a908361472e565b6142a757604051632eda7a1160e01b815260040160405180910390fd5b6001600160a01b038084166000908152600e60209081526040808320938616835292905220548111156142ec5760405162919bed60e01b815260040160405180910390fd5b60035460405163a9059cbb60e01b81526001600160a01b039182166004820152602481018390529083169063a9059cbb90604401602060405180830381600087803b15801561433a57600080fd5b505af192505050801561436a575060408051601f3d908101601f1916820190925261436791810190615de6565b60015b61437357614375565b505b6001600160a01b038084166000908152600e60209081526040808320938616835292905290812080548392906143ac908490615bb5565b90915550506001600160a01b038084166000908152600e60209081526040808320938616835292905220546143ff576001600160a01b03831660009081526011602052604090206143fd90836150bc565b505b604080516001600160a01b038481168252602082018490523392908616917f20262b97130b5cb8f80624eed2733df2b05db4a0789b4a3d0157e1d3183331049101612382565b3360009081526006602052604090205460ff1661447557604051630942721960e31b815260040160405180910390fd5b6001600160a01b0381166000908152600c602052604090205460ff16156144af576040516304ee891b60e11b815260040160405180910390fd5b6001600160a01b0381166000818152600c6020526040808220805460ff19166001179055513392917f070125a1c0f5202217aae14ec399abfaaa13c2fd98a91d43bd3a897dd4751e8091a350565b6000614507614df8565b602e5561451560078761472e565b801561454657506001600160a01b038087166000908152600d60209081526040808320938916835292905220548411155b801561456a57506001600160a01b0386166000908152600a60205260409020548311155b801561459957506001600160a01b0386166000908152600b602052604090205482906145969042615bb5565b10155b156145dd577f4851cad52e624c8f7a1d44c28a80db05988ba2451fc0db6b0ec338d8eca95afb602e546040516145d191815260200190565b60405180910390a15060015b95945050505050565b6003546001600160a01b031633146146115760405163070545c960e51b815260040160405180910390fd5b61461c601a8361472e565b61463957604051636211d34960e01b815260040160405180910390fd5b61464282615020565b6001600160a01b0382166000908152600f60205260408120805483929061466a908490615bcc565b90915550506001600160a01b038216600081815260296020908152604080832054600f909252918290205491517f5abcf5031fdbd3badb9d1e09094208de329aee72730e87650f346584205d23d1926146ca928252602082015260400190565b60405180910390a25050565b6000602254826146e69190615e8b565b610ec29083615bb5565b600060225483101561223d576022546147098385615d82565b6147139190615db7565b9050610ec2565b606060006147278361532c565b9392505050565b6001600160a01b03811660009081526001830160205260408120541515614727565b6000610ec282602254602354615388565b600260005414156147845760405162461bcd60e51b81526004016115f990615d4b565b600260009081556001600160a01b03841681526012602052604090206147aa908361472e565b6147c6576040516241cfa560e21b815260040160405180910390fd5b6001600160a01b0380841660009081526028602090815260408083209386168352929052205481111561480c5760405163435b562560e01b815260040160405180910390fd5b61481583615436565b6000614824610eb2838561496f565b6001600160a01b038516600090815260106020526040902054909150156148da576001600160a01b038416600090815260106020908152604080832054600f90925290912054614875908390615d82565b61487f9190615db7565b6001600160a01b0385166000908152600f6020526040812080549091906148a7908490615bb5565b90915550506001600160a01b038416600090815260106020526040812080548392906148d4908490615bb5565b90915550505b6001600160a01b03808516600090815260286020908152604080832093871683529290529081208054849290614911908490615bb5565b90915550506001600160a01b03808516600090815260286020908152604080832093871683529290522054614964576001600160a01b038416600090815260126020526040902061496290846150bc565b505b505060016000555050565b6001600160a01b0381166000908152602b602052604081206001015415610ec2576001600160a01b03821660009081526014602052604081205460ff166149e1576001600160a01b0383166000908152602b60205260409020546149dc90600160381b900460060b615be4565b614a05565b6001600160a01b0383166000908152602b6020526040902054600160381b900460060b5b601e5460225460405163a0d2710760e01b815260048101889052600684900b602482015260448101919091529192506001600160a01b03169063a0d271079060640160206040518083038186803b158015614a5f57600080fd5b505afa158015614a73573d6000803e3d6000fd5b505050506040513d601f19601f82011682018060405250810190610d9c9190615c0b565b6000614aa2426146d6565b6001600160a01b038316600090815260296020526040902054101561141657614ad260225442610cc09190615bb5565b6001600160a01b03831660009081526029602052604090205411614b4857614af982615436565b6001600160a01b038216600090815260106020908152604080832054600f90925290912055614b27426146d6565b6001600160a01b038316600090815260296020526040902055506001919050565b6022546001600160a01b038316600090815260296020526040902054614b6e9042615bb5565b10614bca57614b7c82615436565b6001600160a01b038216600090815260106020908152604080832054600f83528184205560225460299092528220805491929091614bbb908490615bcc565b90915550600191506114169050565b614bd3426146d6565b6001600160a01b0383166000908152602a60205260409020541015611416576001600160a01b038216600090815260106020526040902054614c1483615436565b6001600160a01b038316600090815260106020908152604080832054600f909252909120548291614c4491615d82565b614c4e9190615db7565b6001600160a01b0384166000908152600f602052604090205550919050565b6001600160a01b038116600090815260296020526040902054614cb290614c949042615bb5565b6001600160a01b0383166000908152601060205260409020546146f0565b6001600160a01b0382166000908152600f602052604081208054909190614cda908490615bcc565b90915550506001600160a01b03166000908152602960205260409020429055565b6001600160a01b0383166000908152600f6020526040902054811115614d345760405163356680b760e01b815260040160405180910390fd5b6001600160a01b0383166000908152602a60209081526040808320429055600f90915281208054839290614d69908490615bb5565b90915550506001600160a01b038083166000908152600d60209081526040808320601c5490941683529290529081208054839290614da8908490615bcc565b90915550506001600160a01b0382166000908152600a602052604081208054839290614dd5908490615bcc565b925050819055508060096000828254614dee9190615bcc565b9091555050505050565b6000603f5a614e08906040615d82565b610db09190615db7565b60048054600380546001600160a01b0383166001600160a01b031991821681179092559091169091556040519081527f5d5d6e01b731c3e68060f7fe13156f6197d4aeffc2d6f498e34c717ae616b7349060200160405180910390a1565b6000614727836001600160a01b03841661545b565b601c54601d5460405163095ea7b360e01b81526001600160a01b0391821660048201526024810184905291169063095ea7b390604401602060405180830381600087803b158015614ed557600080fd5b505af1158015614ee9573d6000803e3d6000fd5b505050506040513d601f19601f82011682018060405250810190614f0d9190615de6565b50601d5460405163b6b55f2560e01b8152600481018390526001600160a01b039091169063b6b55f25906024015b600060405180830381600087803b158015614f5557600080fd5b505af1158015614f69573d6000803e3d6000fd5b5050505050565b8060096000828254614f829190615bb5565b9091555050601d5460405163140e25ad60e31b8152600481018390526001600160a01b039091169063a0712d6890602401614f3b565b6040516001600160a01b03831660248201526044810182905261501b90849063a9059cbb60e01b906064015b60408051601f198184030181529190526020810180516001600160e01b03166001600160e01b0319909316929092179091526154aa565b505050565b61502981614a97565b5061503381614c6d565b6001600160a01b0381166000908152600f6020908152604080832054601090925290912054615062919061557c565b6001600160a01b039091166000908152600f6020526040902055565b6040516001600160a01b03808516602483015283166044820152606481018290526150b69085906323b872dd60e01b90608401614fe4565b50505050565b6000614727836001600160a01b038416615592565b6000610ec2825490565b60006147278383615685565b601c546001600160a01b038481169116146151ce576003546001600160a01b038085169163a9059cbb911661511c8486615bcc565b6040516001600160e01b031960e085901b1681526001600160a01b0390921660048301526024820152604401602060405180830381600087803b15801561516257600080fd5b505af1925050508015615192575060408051601f3d908101601f1916820190925261518f91810190615de6565b60015b6151cc573d8080156151c0576040519150601f19603f3d011682016040523d82523d6000602084013e6151c5565b606091505b50506151ce565b505b6001600160a01b038085166000908152600d6020908152604080832093871683529290529081208054849290615205908490615bb5565b90915550506001600160a01b03808516600090815260186020908152604080832093871683529290529081208054839290615241908490615bb5565b909155505050505050565b6000808486602e5461525e9190615bb5565b6152689190615bcc565b9050670de0b6b3a7640000846127106152818685615d82565b61528b9190615db7565b6152959190615d82565b61529f9190615db7565b9695505050505050565b6001600160a01b0381166152d05760405163d92e233d60e01b815260040160405180910390fd5b600480546001600160a01b0319166001600160a01b038381169182179092556003546040805191909316815260208101919091527f6353ec38ac394f8be94bfafcdd3580d356470599059eaeebedc3207e1cc03dec9101611f50565b60608160000180548060200260200160405190810160405280929190818152602001828054801561537c57602002820191906000526020600020905b815481526020019060010190808311615368575b50505050509050919050565b6000808060001985870985870292508281108382030391505080600014156153c257600084116153b757600080fd5b508290049050614727565b8084116153ce57600080fd5b600084868809600260036001881981018916988990049182028318808302840302808302840302808302840302808302840302808302840302918202909203026000889003889004909101858311909403939093029303949094049190911702949350505050565b61543f816156af565b6001600160a01b03909116600090815260106020526040902055565b60008181526001830160205260408120546154a257508154600181810184556000848152602080822090930184905584548482528286019093526040902091909155610ec2565b506000610ec2565b60006154ff826040518060400160405280602081526020017f5361666545524332303a206c6f772d6c6576656c2063616c6c206661696c6564815250856001600160a01b03166157ea9092919063ffffffff16565b80519091501561501b578080602001905181019061551d9190615de6565b61501b5760405162461bcd60e51b815260206004820152602a60248201527f5361666545524332303a204552433230206f7065726174696f6e20646964206e6044820152691bdd081cdd58d8d9595960b21b60648201526084016115f9565b600081831061558b5781614727565b5090919050565b6000818152600183016020526040812054801561567b5760006155b6600183615bb5565b85549091506000906155ca90600190615bb5565b905081811461562f5760008660000182815481106155ea576155ea615c24565b906000526020600020015490508087600001848154811061560d5761560d615c24565b6000918252602080832090910192909255918252600188019052604090208390555b855486908061564057615640615e9f565b600190038181906000526020600020016000905590558560010160008681526020019081526020016000206000905560019350505050610ec2565b6000915050610ec2565b600082600001828154811061569c5761569c615c24565b9060005260206000200154905092915050565b6000805b6001600160a01b03831660009081526012602052604090206156d4906150d1565b81101561223d576001600160a01b03831660009081526012602052604081206156fd90836150db565b905061570a60268261472e565b156157d757615718426146d6565b6001600160a01b0382166000908152602b60205260409020600101541461579657615742816111fc565b6001600160a01b0382166000908152602b6020908152604091829020835181549285015166ffffffffffffff908116600160381b026001600160701b03199094169116179190911781559101516001909101555b6001600160a01b038085166000908152602860209081526040808320938516835292905220546157ca90610eb2908361496f565b6157d49084615bcc565b92505b50806157e281615dcb565b9150506156b3565b6060610d9c848460008585843b6158435760405162461bcd60e51b815260206004820152601d60248201527f416464726573733a2063616c6c20746f206e6f6e2d636f6e747261637400000060448201526064016115f9565b600080866001600160a01b0316858760405161585f9190615ee1565b60006040518083038185875af1925050503d806000811461589c576040519150601f19603f3d011682016040523d82523d6000602084013e6158a1565b606091505b50915091506158b18282866158bc565b979650505050505050565b606083156158cb575081614727565b8251156158db5782518084602001fd5b8160405162461bcd60e51b81526004016115f99190615efd565b6001600160a01b03811681146141fc57600080fd5b60006020828403121561591c57600080fd5b8135614727816158f5565b6000806040838503121561593a57600080fd5b8235615945816158f5565b91506020830135615955816158f5565b809150509250929050565b6020808252825182820181905260009190848201906040850190845b818110156159a15783516001600160a01b03168352928401929184019160010161597c565b50909695505050505050565b600080604083850312156159c057600080fd5b82356159cb816158f5565b946020939093013593505050565b6000806000606084860312156159ee57600080fd5b83356159f9816158f5565b92506020840135615a09816158f5565b929592945050506040919091013590565b600060208284031215615a2c57600080fd5b5035919050565b600080600060608486031215615a4857600080fd5b8335615a53816158f5565b9250602084013591506040840135615a6a816158f5565b809150509250925092565b600080600060608486031215615a8a57600080fd5b8335615a95816158f5565b92506020840135615aa5816158f5565b91506040840135615a6a816158f5565b60008060008060808587031215615acb57600080fd5b8435615ad6816158f5565b93506020850135615ae6816158f5565b93969395505050506040820135916060013590565b60008060008060808587031215615b1157600080fd5b8435615b1c816158f5565b93506020850135615b2c816158f5565b9250604085013591506060850135615b43816158f5565b939692955090935050565b600080600080600060a08688031215615b6657600080fd5b8535615b71816158f5565b94506020860135615b81816158f5565b94979496505050506040830135926060810135926080909101359150565b634e487b7160e01b600052601160045260246000fd5b600082821015615bc757615bc7615b9f565b500390565b60008219821115615bdf57615bdf615b9f565b500190565b60008160060b667fffffffffffff19811415615c0257615c02615b9f565b60000392915050565b600060208284031215615c1d57600080fd5b5051919050565b634e487b7160e01b600052603260045260246000fd5b6001600160a01b038316815260406020808301829052835191830182905260009184820191906060850190845b81811015615c8957845163ffffffff1683529383019391830191600101615c67565b5090979650505050505050565b8051600681900b811461141657600080fd5b8051801515811461141657600080fd5b600080600060608486031215615ccd57600080fd5b615cd684615c96565b9250615ce460208501615c96565b9150615cf260408501615ca8565b90509250925092565b60008160060b8360060b6000811281667fffffffffffff1901831281151615615d2657615d26615b9f565b81667fffffffffffff018313811615615d4157615d41615b9f565b5090039392505050565b6020808252601f908201527f5265656e7472616e637947756172643a207265656e7472616e742063616c6c00604082015260600190565b6000816000190483118215151615615d9c57615d9c615b9f565b500290565b634e487b7160e01b600052601260045260246000fd5b600082615dc657615dc6615da1565b500490565b6000600019821415615ddf57615ddf615b9f565b5060010190565b600060208284031215615df857600080fd5b61472782615ca8565b60008083128015600160ff1b850184121615615e1f57615e1f615b9f565b6001600160ff1b0384018313811615615e3a57615e3a615b9f565b50500390565b600060208284031215615e5257600080fd5b8151614727816158f5565b600080600060608486031215615e7257600080fd5b8351925060208401519150604084015190509250925092565b600082615e9a57615e9a615da1565b500690565b634e487b7160e01b600052603160045260246000fd5b60005b83811015615ed0578181015183820152602001615eb8565b838111156150b65750506000910152565b60008251615ef3818460208701615eb5565b9190910192915050565b6020815260008251806020840152615f1c816040850160208701615eb5565b601f01601f1916919091016040019291505056feee3f0daba9837d1ab0597acf34328550e4832d02e24e467825e7c2dd318c3820a264697066735822122092dd1a4589672def8dde508250ee75a31216dad323e874a66fb20fdcae6d923064736f6c63430008080033",
  "devdoc": {
    "kind": "dev",
    "methods": {
      "acceptJobMigration(address,address)": {
        "details": "Unbond/withdraw process doesn't get migrated",
        "params": {
          "_fromJob": "The address of the job that requested to migrate",
          "_toJob": "The address to which the job wants to migrate to"
        }
      },
      "acceptJobOwnership(address)": {
        "params": {
          "_job": "The address of the job"
        }
      },
      "activate(address)": {
        "params": {
          "_bonding": "The asset being activated as bond collateral"
        }
      },
      "addJob(address)": {
        "params": {
          "_job": "Address of the contract for which work should be performed"
        }
      },
      "addLiquidityToJob(address,address,uint256)": {
        "params": {
          "_amount": "The amount of liquidity tokens to add",
          "_job": "The address of the job to assign liquidity to",
          "_liquidity": "The liquidity being added"
        }
      },
      "addTokenCreditsToJob(address,address,uint256)": {
        "params": {
          "_amount": "The amount of credit being added",
          "_job": "The address of the job being credited",
          "_token": "The address of the token being credited"
        }
      },
      "approveLiquidity(address)": {
        "details": "Function should be called after setting an oracle in Keep3rHelperSidechain",
        "params": {
          "_liquidity": "Address of the liquidity token being approved"
        }
      },
      "approvedLiquidities()": {
        "returns": {
          "_list": "An array of addresses with all the approved liquidity pairs"
        }
      },
      "bond(address,uint256)": {
        "params": {
          "_amount": "The amount of bonding asset being bonded",
          "_bonding": "The asset being bonded"
        }
      },
      "bondedPayment(address,uint256)": {
        "details": "Pays the keeper that performs the work with KP3R",
        "params": {
          "_keeper": "Address of the keeper that performed the work",
          "_payment": "The reward that should be allocated for the job"
        }
      },
      "changeJobOwnership(address,address)": {
        "params": {
          "_job": "The address of the job",
          "_newOwner": "The address of the proposed new owner"
        }
      },
      "constructor": {
        "params": {
          "_governor": "Address of governor",
          "_keep3rEscrow": "Address of sidechain Keep3rEscrow",
          "_keep3rHelperSidechain": "Address of sidechain Keep3rHelper",
          "_wrappedKP3R": "Address of wrapped KP3R implementation"
        }
      },
      "directTokenPayment(address,address,uint256)": {
        "details": "Pays the keeper that performs the work with a specific token",
        "params": {
          "_amount": "The reward that should be allocated",
          "_keeper": "Address of the keeper that performed the work",
          "_token": "The asset being awarded to the keeper"
        }
      },
      "dispute(address)": {
        "params": {
          "_jobOrKeeper": "The address in dispute"
        }
      },
      "forceLiquidityCreditsToJob(address,uint256)": {
        "params": {
          "_amount": "The amount of liquidity credits to gift",
          "_job": "The address of the job being credited"
        }
      },
      "isBondedKeeper(address,address,uint256,uint256,uint256)": {
        "details": "Should be used for protected functions",
        "params": {
          "_age": "The minimum keeper age required",
          "_bond": "The bond token being evaluated",
          "_earned": "The minimum funds earned in the keepers lifetime",
          "_keeper": "The keeper to check",
          "_minBond": "The minimum amount of bonded tokens"
        },
        "returns": {
          "_isBondedKeeper": "Whether the `_keeper` meets the given requirements"
        }
      },
      "isKeeper(address)": {
        "details": "Can be used for general (non critical) functions",
        "params": {
          "_keeper": "The keeper being investigated"
        },
        "returns": {
          "_isKeeper": "Whether the address passed as a parameter is a keeper or not"
        }
      },
      "jobLiquidityCredits(address)": {
        "params": {
          "_job": "The address of the job of which we want to know the liquidity credits"
        },
        "returns": {
          "_liquidityCredits": "The liquidity credits of a given job"
        }
      },
      "jobPeriodCredits(address)": {
        "params": {
          "_job": "The address of the job of which we want to know the period credits"
        },
        "returns": {
          "_periodCredits": "The credits the given job has at the current period"
        }
      },
      "jobs()": {
        "returns": {
          "_list": "Array with all the jobs in _jobs"
        }
      },
      "keepers()": {
        "returns": {
          "_list": "Array with all the keepers in _keepers"
        }
      },
      "migrateJob(address,address)": {
        "params": {
          "_fromJob": "The address of the job that is requesting to migrate",
          "_toJob": "The address at which the job is requesting to migrate"
        }
      },
      "observeLiquidity(address)": {
        "params": {
          "_liquidity": "Address of the liquidity token being observed"
        }
      },
      "quoteLiquidity(address,uint256)": {
        "details": "_periodCredits = underlying KP3Rs for given liquidity amount * rewardPeriod / inflationPeriod",
        "params": {
          "_amount": "The amount of liquidity to provide",
          "_liquidity": "The address of the liquidity to provide"
        },
        "returns": {
          "_periodCredits": "The amount of KP3R periodically minted for the given liquidity"
        }
      },
      "resolve(address)": {
        "params": {
          "_jobOrKeeper": "The address cleared"
        }
      },
      "revoke(address)": {
        "params": {
          "_keeper": "The address being slashed"
        }
      },
      "revokeLiquidity(address)": {
        "params": {
          "_liquidity": "The liquidity no longer accepted"
        }
      },
      "sendDust(address,uint256,address)": {
        "params": {
          "_amount": "The amont of the token that will be transferred",
          "_to": "The address that will receive the idle funds",
          "_token": "The token that will be transferred"
        }
      },
      "setBondTime(uint256)": {
        "params": {
          "_bond": "The new bond time"
        }
      },
      "setFee(uint256)": {
        "params": {
          "_fee": "The new fee"
        }
      },
      "setInflationPeriod(uint256)": {
        "params": {
          "_inflationPeriod": "The new inflation period"
        }
      },
      "setKeep3rHelper(address)": {
        "params": {
          "_keep3rHelper": "The Keep3rHelper address"
        }
      },
      "setKeep3rV1(address)": {
        "params": {
          "_keep3rV1": "The Keep3rV1 address"
        }
      },
      "setKeep3rV1Proxy(address)": {
        "params": {
          "_keep3rV1Proxy": "The Keep3rV1Proxy address"
        }
      },
      "setLiquidityMinimum(uint256)": {
        "params": {
          "_liquidityMinimum": "The new minimum amount of liquidity"
        }
      },
      "setPendingGovernor(address)": {
        "params": {
          "_pendingGovernor": "Address of the proposed new governor"
        }
      },
      "setRewardPeriodTime(uint256)": {
        "params": {
          "_rewardPeriodTime": "The new amount of time required to pass between rewards"
        }
      },
      "setUnbondTime(uint256)": {
        "params": {
          "_unbond": "The new unbond time"
        }
      },
      "slash(address,address,uint256,uint256)": {
        "params": {
          "_bondAmount": "The bonded amount being slashed",
          "_bonded": "The asset being slashed",
          "_keeper": "The address being slashed",
          "_unbondAmount": "The pending unbond amount being slashed"
        }
      },
      "slashLiquidityFromJob(address,address,uint256)": {
        "params": {
          "_amount": "The amount of liquidity that will be slashed",
          "_job": "The address being slashed",
          "_liquidity": "The address of the liquidity that will be slashed"
        }
      },
      "slashTokenFromJob(address,address,uint256)": {
        "params": {
          "_amount": "The amount of the token that will be slashed",
          "_job": "The address of the job from which the token will be slashed",
          "_token": "The address of the token that will be slashed"
        }
      },
      "totalJobCredits(address)": {
        "params": {
          "_job": "The address of the job of which we want to know the total credits"
        },
        "returns": {
          "_credits": "The total credits of the given job"
        }
      },
      "unbond(address,uint256)": {
        "params": {
          "_amount": "Allows for partial unbonding",
          "_bonding": "The asset being unbonded"
        }
      },
      "unbondLiquidityFromJob(address,address,uint256)": {
        "details": "Can only be called by the job's owner",
        "params": {
          "_amount": "The amount of liquidity being removed",
          "_job": "The address of the job being unbonded from",
          "_liquidity": "The liquidity being unbonded"
        }
      },
      "virtualReserves()": {
        "returns": {
          "_virtualReserves": "The surplus amount of wKP3Rs in escrow contract"
        }
      },
      "withdraw(address)": {
        "params": {
          "_bonding": "The asset to withdraw from the bonding pool"
        }
      },
      "withdrawLiquidityFromJob(address,address,address)": {
        "params": {
          "_job": "The address of the job being withdrawn from",
          "_liquidity": "The liquidity being withdrawn",
          "_receiver": "The address that will receive the withdrawn liquidity"
        }
      },
      "withdrawTokenCreditsFromJob(address,address,uint256,address)": {
        "params": {
          "_amount": "The amount of token to be withdrawn",
          "_job": "The address of the job from which the credits are withdrawn",
          "_receiver": "The user that will receive tokens",
          "_token": "The address of the token being withdrawn"
        }
      },
      "worked(address)": {
        "details": "Sidechain implementation deprecates worked(address) as it should come with a usdPerGasUnit parameter"
      },
      "worked(address,uint256)": {
        "details": "Uses a USD per gas unit payment mechanism",
        "params": {
          "_keeper": "Address of the keeper that performed the work",
          "_usdPerGasUnit": "Units of USD (in wei) per gas unit that should be rewarded to the keeper"
        }
      }
    },
    "version": 1
  },
  "userdoc": {
    "errors": {
      "AlreadyAJob()": [
        {
          "notice": "Throws when the address that is trying to register as a job is already a job"
        }
      ],
      "AlreadyAKeeper()": [
        {
          "notice": "Throws when the address that is trying to register as a keeper is already a keeper"
        }
      ],
      "AlreadyDisputed()": [
        {
          "notice": "Throws when a job or keeper is already disputed"
        }
      ],
      "BondsLocked()": [
        {
          "notice": "Throws if the time required to bond an asset has not passed yet"
        }
      ],
      "BondsUnexistent()": [
        {
          "notice": "Throws if there are no bonded assets"
        }
      ],
      "Deprecated()": [
        {
          "notice": "Throws when job contract calls deprecated worked(address) function"
        }
      ],
      "Disputed()": [
        {
          "notice": "Throws if either a job or a keeper is disputed"
        }
      ],
      "DisputerExistent()": [
        {
          "notice": "Throws if the address is already a registered disputer"
        }
      ],
      "DisputerUnexistent()": [
        {
          "notice": "Throws if caller is not a registered disputer"
        }
      ],
      "GasNotInitialized()": [
        {
          "notice": "Throws if work method was called without calling isKeeper or isBondedKeeper"
        }
      ],
      "InsufficientFunds()": [
        {
          "notice": "Throws if the amount of funds in the job is less than the payment that must be paid to the keeper that works that job"
        }
      ],
      "InsufficientJobTokenCredits()": [
        {
          "notice": "Throws when the user tries to withdraw more tokens than it has"
        }
      ],
      "InvalidAddress()": [
        {
          "notice": "Thrown if an address is invalid"
        }
      ],
      "InvalidAmount()": [
        {
          "notice": "Thrown if an amount is invalid"
        }
      ],
      "JobAlreadyAdded()": [
        {
          "notice": "Throws when trying to add a job that has already been added"
        }
      ],
      "JobDisputed()": [
        {
          "notice": "Throws when an action that requires an undisputed job is applied on a disputed job"
        }
      ],
      "JobLiquidityInsufficient()": [
        {
          "notice": "Throws when trying to remove more liquidity than the job has"
        }
      ],
      "JobLiquidityLessThanMin()": [
        {
          "notice": "Throws when trying to add less liquidity than the minimum liquidity required"
        }
      ],
      "JobLiquidityUnexistent()": [
        {
          "notice": "Throws when the job doesn't have the requested liquidity"
        }
      ],
      "JobMigrationImpossible()": [
        {
          "notice": "Throws when the address of the job that requests to migrate wants to migrate to its same address"
        }
      ],
      "JobMigrationLocked()": [
        {
          "notice": "Throws when cooldown between migrations has not yet passed"
        }
      ],
      "JobMigrationUnavailable()": [
        {
          "notice": "Throws when the _toJob address differs from the address being tracked in the pendingJobMigrations mapping"
        }
      ],
      "JobTokenCreditsLocked()": [
        {
          "notice": "Throws when the token withdraw cooldown has not yet passed"
        }
      ],
      "JobTokenInsufficient()": [
        {
          "notice": "Throws when someone tries to slash more tokens than the job has"
        }
      ],
      "JobTokenUnexistent()": [
        {
          "notice": "Throws when the token trying to be slashed doesn't exist"
        }
      ],
      "JobUnapproved()": [
        {
          "notice": "Throws if the address claiming to be a job is not in the list of approved jobs"
        }
      ],
      "JobUnavailable()": [
        {
          "notice": "Throws when an address is passed as a job, but that address is not a job"
        }
      ],
      "LengthMismatch()": [
        {
          "notice": "Thrown if the lengths of a set of lists mismatch"
        }
      ],
      "LiquidityPairApproved()": [
        {
          "notice": "Throws when the liquidity being approved has already been approved"
        }
      ],
      "LiquidityPairUnapproved()": [
        {
          "notice": "Throws when trying to add liquidity to an unapproved pool"
        }
      ],
      "LiquidityPairUnexistent()": [
        {
          "notice": "Throws when the liquidity being removed has not been approved"
        }
      ],
      "MinRewardPeriod()": [
        {
          "notice": "Throws if the reward period is less than the minimum reward period time"
        }
      ],
      "NotDisputed()": [
        {
          "notice": "Throws when a job or keeper is not disputed and someone tries to resolve the dispute"
        }
      ],
      "OnlyDisputer()": [
        {
          "notice": "Throws if the msg.sender is not a disputer or is not a part of governance"
        }
      ],
      "OnlyGovernor()": [
        {
          "notice": "Thrown if a non-governor user tries to call a OnlyGovernor function"
        }
      ],
      "OnlyJobOwner()": [
        {
          "notice": "Throws when the caller of the function is not the job owner"
        }
      ],
      "OnlyPendingGovernor()": [
        {
          "notice": "Thrown if a non-pending-governor user tries to call a OnlyPendingGovernor function"
        }
      ],
      "OnlyPendingJobOwner()": [
        {
          "notice": "Throws when the caller of the function is not the pending job owner"
        }
      ],
      "OnlySlasher()": [
        {
          "notice": "Throws if the msg.sender is not a slasher or is not a part of governance"
        }
      ],
      "SlasherExistent()": [
        {
          "notice": "Throws if the address is already a registered slasher"
        }
      ],
      "SlasherUnexistent()": [
        {
          "notice": "Throws if caller is not a registered slasher"
        }
      ],
      "TokenUnallowed()": [
        {
          "notice": "Throws when the token is KP3R, as it should not be used for direct token payments"
        }
      ],
      "UnbondsLocked()": [
        {
          "notice": "Throws if the time required to withdraw the bonds has not passed yet"
        }
      ],
      "UnbondsUnexistent()": [
        {
          "notice": "Throws if there are no bonds to withdraw"
        }
      ],
      "ZeroAddress()": [
        {
          "notice": "Thrown if an address is the zero address"
        }
      ],
      "ZeroAmount()": [
        {
          "notice": "Thrown if an amount is zero"
        }
      ]
    },
    "events": {
      "Activation(address,address,uint256)": {
        "notice": "Emitted when Keep3rKeeperFundable#activate is called"
      },
      "BondTimeChange(uint256)": {
        "notice": "Emitted when bondTime is changed"
      },
      "Bonding(address,address,uint256)": {
        "notice": "Emitted when the bonding process of a new keeper begins"
      },
      "Dispute(address,address)": {
        "notice": "Emitted when a keeper or a job is disputed"
      },
      "DisputerAdded(address)": {
        "notice": "Emitted when a disputer is added"
      },
      "DisputerRemoved(address)": {
        "notice": "Emitted when a disputer is removed"
      },
      "DustSent(address,uint256,address)": {
        "notice": "Emitted when dust is sent"
      },
      "FeeChange(uint256)": {
        "notice": "Emitted when the fee is changed"
      },
      "InflationPeriodChange(uint256)": {
        "notice": "Emitted when the inflationPeriod is changed"
      },
      "JobAddition(address,address)": {
        "notice": "Emitted when Keep3rJobManager#addJob is called"
      },
      "JobMigrationRequested(address,address)": {
        "notice": "Emitted when Keep3rJobMigration#migrateJob function is called"
      },
      "JobMigrationSuccessful(address,address)": {
        "notice": "Emitted when Keep3rJobMigration#acceptJobMigration function is called"
      },
      "JobOwnershipAssent(address,address,address)": {
        "notice": "Emitted when Keep3rJobOwnership#JobOwnershipAssent is called"
      },
      "JobOwnershipChange(address,address,address)": {
        "notice": "Emitted when Keep3rJobOwnership#changeJobOwnership is called"
      },
      "JobSlashLiquidity(address,address,address,uint256)": {
        "notice": "Emitted when Keep3rJobDisputable#slashLiquidityFromJob is called"
      },
      "JobSlashToken(address,address,address,uint256)": {
        "notice": "Emitted when Keep3rJobDisputable#slashTokenFromJob is called"
      },
      "Keep3rHelperChange(address)": {
        "notice": "Emitted when the Keep3rHelper address is changed"
      },
      "Keep3rV1Change(address)": {
        "notice": "Emitted when the Keep3rV1 address is changed"
      },
      "Keep3rV1ProxyChange(address)": {
        "notice": "Emitted when the Keep3rV1Proxy address is changed"
      },
      "KeeperRevoke(address,address)": {
        "notice": "Emitted when Keep3rKeeperDisputable#revoke is called"
      },
      "KeeperSlash(address,address,uint256)": {
        "notice": "Emitted when Keep3rKeeperDisputable#slash is called"
      },
      "KeeperValidation(uint256)": {
        "notice": "Emitted when a keeper is validated before a job"
      },
      "KeeperWork(address,address,address,uint256,uint256)": {
        "notice": "Emitted when a keeper works a job"
      },
      "LiquidityAddition(address,address,address,uint256)": {
        "notice": "Emitted when IKeep3rJobFundableLiquidity#addLiquidityToJob function is called"
      },
      "LiquidityApproval(address)": {
        "notice": "Emitted when Keep3rJobFundableLiquidity#approveLiquidity function is called"
      },
      "LiquidityCreditsForced(address,uint256,uint256)": {
        "notice": "Emitted when Keep3rJobFundableLiquidity#forceLiquidityCreditsToJob function is called"
      },
      "LiquidityCreditsReward(address,uint256,uint256,uint256)": {
        "notice": "Emitted when Keep3rJobFundableLiquidity#addLiquidityToJob function is called"
      },
      "LiquidityMinimumChange(uint256)": {
        "notice": "Emitted when _liquidityMinimum is changed"
      },
      "LiquidityRevocation(address)": {
        "notice": "Emitted when Keep3rJobFundableLiquidity#revokeLiquidity function is called"
      },
      "LiquidityWithdrawal(address,address,address,uint256)": {
        "notice": "Emitted when IKeep3rJobFundableLiquidity#withdrawLiquidityFromJob function is called"
      },
      "PendingGovernorAccepted(address)": {
        "notice": "Emitted when a new governor is set"
      },
      "PendingGovernorSet(address,address)": {
        "notice": "Emitted when a new pending governor is set"
      },
      "Resolve(address,address)": {
        "notice": "Emitted when a dispute is resolved"
      },
      "RewardPeriodTimeChange(uint256)": {
        "notice": "Emitted when _rewardPeriodTime is changed"
      },
      "SlasherAdded(address)": {
        "notice": "Emitted when a slasher is added"
      },
      "SlasherRemoved(address)": {
        "notice": "Emitted when a slasher is removed"
      },
      "TokenCreditAddition(address,address,address,uint256)": {
        "notice": "Emitted when Keep3rJobFundableCredits#addTokenCreditsToJob is called"
      },
      "TokenCreditWithdrawal(address,address,address,uint256)": {
        "notice": "Emitted when Keep3rJobFundableCredits#withdrawTokenCreditsFromJob is called"
      },
      "UnbondTimeChange(uint256)": {
        "notice": "Emitted when _unbondTime is changed"
      },
      "Unbonding(address,address,uint256)": {
        "notice": "Emitted when a keeper or job begins the unbonding process to withdraw the funds"
      },
      "Withdrawal(address,address,uint256)": {
        "notice": "Emitted when Keep3rKeeperFundable#withdraw is called"
      }
    },
    "kind": "user",
    "methods": {
      "acceptJobMigration(address,address)": {
        "notice": "Completes the migration process for a job"
      },
      "acceptJobOwnership(address)": {
        "notice": "The proposed address accepts to be the owner of the job"
      },
      "acceptPendingGovernor()": {
        "notice": "Allows a proposed governor to accept the governance"
      },
      "activate(address)": {
        "notice": "End of the bonding process after bonding time has passed"
      },
      "addDisputer(address)": {
        "notice": "Registers a disputer by updating the disputers mapping"
      },
      "addJob(address)": {
        "notice": "Allows any caller to add a new job"
      },
      "addLiquidityToJob(address,address,uint256)": {
        "notice": "Allows anyone to fund a job with liquidity"
      },
      "addSlasher(address)": {
        "notice": "Registers a slasher by updating the slashers mapping"
      },
      "addTokenCreditsToJob(address,address,uint256)": {
        "notice": "Add credit to a job to be paid out for work"
      },
      "approveLiquidity(address)": {
        "notice": "Sidechain implementation asks the Helper for an oracle, instead of reading it from the ERC-20"
      },
      "approvedLiquidities()": {
        "notice": "Lists liquidity pairs"
      },
      "bond(address,uint256)": {
        "notice": "Beginning of the bonding process"
      },
      "bondTime()": {
        "notice": "The amount of time required to pass after a keeper has bonded assets for it to be able to activate"
      },
      "bondedPayment(address,uint256)": {
        "notice": "Implemented by jobs to show that a keeper performed work"
      },
      "bonds(address,address)": {
        "notice": "Mapping (job => bonding => amount)"
      },
      "canActivateAfter(address,address)": {
        "notice": "Tracks when a bonding for a keeper can be activated"
      },
      "canWithdrawAfter(address,address)": {
        "notice": "Tracks when keeper bonds are ready to be withdrawn"
      },
      "changeJobOwnership(address,address)": {
        "notice": "Proposes a new address to be the owner of the job"
      },
      "directTokenPayment(address,address,uint256)": {
        "notice": "Implemented by jobs to show that a keeper performed work"
      },
      "dispute(address)": {
        "notice": "Allows governor to create a dispute for a given keeper/job"
      },
      "disputers(address)": {
        "notice": "Tracks whether the address is a disputer or not"
      },
      "disputes(address)": {
        "notice": "Tracks if a keeper or job has a pending dispute"
      },
      "fee()": {
        "notice": "The fee to be sent to governor when a user adds liquidity to a job"
      },
      "firstSeen(address)": {
        "notice": "Tracks when a keeper was first registered"
      },
      "forceLiquidityCreditsToJob(address,uint256)": {
        "notice": "Gifts liquidity credits to the specified job"
      },
      "hasBonded(address)": {
        "notice": "Checks whether the address has ever bonded an asset"
      },
      "inflationPeriod()": {
        "notice": "The inflation period is the denominator used to regulate the emission of KP3R"
      },
      "isBondedKeeper(address,address,uint256,uint256,uint256)": {
        "notice": "Confirms if the current keeper is registered and has a minimum bond of any asset."
      },
      "isKeeper(address)": {
        "notice": "Confirms if the current keeper is registered"
      },
      "jobLiquidityCredits(address)": {
        "notice": "Returns the liquidity credits of a given job"
      },
      "jobOwner(address)": {
        "notice": "Maps the job to the owner of the job"
      },
      "jobPendingOwner(address)": {
        "notice": "Maps the job to its pending owner"
      },
      "jobPeriodCredits(address)": {
        "notice": "Returns the credits of a given job for the current period"
      },
      "jobTokenCredits(address,address)": {
        "notice": "The current token credits available for a job"
      },
      "jobTokenCreditsAddedAt(address,address)": {
        "notice": "Last block where tokens were added to the job"
      },
      "jobs()": {
        "notice": "Lists all jobs"
      },
      "keep3rHelper()": {
        "notice": "Address of Keep3rHelper's contract"
      },
      "keep3rV1()": {
        "notice": "Address of Keep3rV1's contract"
      },
      "keep3rV1Proxy()": {
        "notice": "Address of Keep3rV1Proxy's contract"
      },
      "keepers()": {
        "notice": "Lists all keepers"
      },
      "liquidityAmount(address,address)": {
        "notice": "Amount of liquidity in a specified job"
      },
      "liquidityMinimum()": {
        "notice": "The minimum amount of liquidity required to fund a job per liquidity"
      },
      "migrateJob(address,address)": {
        "notice": "Initializes the migration process for a job by adding the request to the pendingJobMigrations mapping"
      },
      "observeLiquidity(address)": {
        "notice": "Sidechain implementation will always ask for 2 tickCumulatives instead of cacheing"
      },
      "pendingBonds(address,address)": {
        "notice": "Tracks the amount of assets deposited in pending bonds"
      },
      "pendingJobMigrations(address)": {
        "notice": "Maps the jobs that have requested a migration to the address they have requested to migrate to"
      },
      "pendingUnbonds(address,address)": {
        "notice": "Tracks how much keeper bonds are to be withdrawn"
      },
      "quoteLiquidity(address,uint256)": {
        "notice": "Calculates how many credits should be rewarded periodically for a given liquidity amount"
      },
      "removeDisputer(address)": {
        "notice": "Removes a disputer by updating the disputers mapping"
      },
      "removeSlasher(address)": {
        "notice": "Removes a slasher by updating the slashers mapping"
      },
      "resolve(address)": {
        "notice": "Allows governor to resolve a dispute on a keeper/job"
      },
      "revoke(address)": {
        "notice": "Blacklists a keeper from participating in the network"
      },
      "revokeLiquidity(address)": {
        "notice": "Revoke a liquidity pair from being accepted in future"
      },
      "rewardPeriodTime()": {
        "notice": "The amount of time between each scheduled credits reward given to a job"
      },
      "rewardedAt(address)": {
        "notice": "Last time the job was rewarded liquidity credits"
      },
      "sendDust(address,uint256,address)": {
        "notice": "Allows an authorized user to transfer the tokens or eth that may have been left in a contract"
      },
      "setBondTime(uint256)": {
        "notice": "Sets the bond time required to activate as a keeper"
      },
      "setFee(uint256)": {
        "notice": "Sets the new fee"
      },
      "setInflationPeriod(uint256)": {
        "notice": "Sets the new inflation period"
      },
      "setKeep3rHelper(address)": {
        "notice": "Sets the Keep3rHelper address"
      },
      "setKeep3rV1(address)": {
        "notice": "Sets the Keep3rV1 address"
      },
      "setKeep3rV1Proxy(address)": {
        "notice": "Sets the Keep3rV1Proxy address"
      },
      "setLiquidityMinimum(uint256)": {
        "notice": "Sets the minimum amount of liquidity required to fund a job"
      },
      "setPendingGovernor(address)": {
        "notice": "Allows a governor to propose a new governor"
      },
      "setRewardPeriodTime(uint256)": {
        "notice": "Sets the time required to pass between rewards for jobs"
      },
      "setUnbondTime(uint256)": {
        "notice": "Sets the unbond time required unbond what has been bonded"
      },
      "slash(address,address,uint256,uint256)": {
        "notice": "Allows governor to slash a keeper based on a dispute"
      },
      "slashLiquidityFromJob(address,address,uint256)": {
        "notice": "Allows governor or slasher to slash liquidity from a job"
      },
      "slashTokenFromJob(address,address,uint256)": {
        "notice": "Allows governor or slasher to slash a job specific token"
      },
      "slashers(address)": {
        "notice": "Tracks whether the address is a slasher or not"
      },
      "totalBonds()": {
        "notice": "Tracks the total amount of bonded KP3Rs in the contract"
      },
      "totalJobCredits(address)": {
        "notice": "Calculates the total credits of a given job"
      },
      "unbond(address,uint256)": {
        "notice": "Beginning of the unbonding process"
      },
      "unbondLiquidityFromJob(address,address,uint256)": {
        "notice": "Unbond liquidity for a job"
      },
      "unbondTime()": {
        "notice": "The amount of time required to pass before a keeper can unbond what he has bonded"
      },
      "virtualReserves()": {
        "notice": "The surplus amount of wKP3Rs in escrow contract"
      },
      "withdraw(address)": {
        "notice": "Withdraw funds after unbonding has finished"
      },
      "withdrawLiquidityFromJob(address,address,address)": {
        "notice": "Withdraw liquidity from a job"
      },
      "withdrawTokenCreditsFromJob(address,address,uint256,address)": {
        "notice": "Withdraw credit from a job"
      },
      "workCompleted(address)": {
        "notice": "Tracks the total KP3R earnings of a keeper since it started working"
      },
      "worked(address,uint256)": {
        "notice": "Implemented by jobs to show that a keeper performed work"
      },
      "workedAt(address)": {
        "notice": "Last time the job was worked"
      }
    },
    "version": 1
  },
  "storageLayout": {
    "storage": [
      {
        "astId": 309,
        "contract": "solidity/contracts/sidechain/Keep3rSidechain.sol:Keep3rSidechain",
        "label": "_status",
        "offset": 0,
        "slot": "0",
        "type": "t_uint256"
      },
      {
        "astId": 8568,
        "contract": "solidity/contracts/sidechain/Keep3rSidechain.sol:Keep3rSidechain",
        "label": "jobOwner",
        "offset": 0,
        "slot": "1",
        "type": "t_mapping(t_address,t_address)"
      },
      {
        "astId": 8574,
        "contract": "solidity/contracts/sidechain/Keep3rSidechain.sol:Keep3rSidechain",
        "label": "jobPendingOwner",
        "offset": 0,
        "slot": "2",
        "type": "t_mapping(t_address,t_address)"
      },
      {
        "astId": 82,
        "contract": "solidity/contracts/sidechain/Keep3rSidechain.sol:Keep3rSidechain",
        "label": "governor",
        "offset": 0,
        "slot": "3",
        "type": "t_address"
      },
      {
        "astId": 85,
        "contract": "solidity/contracts/sidechain/Keep3rSidechain.sol:Keep3rSidechain",
        "label": "pendingGovernor",
        "offset": 0,
        "slot": "4",
        "type": "t_address"
      },
      {
        "astId": 6136,
        "contract": "solidity/contracts/sidechain/Keep3rSidechain.sol:Keep3rSidechain",
        "label": "slashers",
        "offset": 0,
        "slot": "5",
        "type": "t_mapping(t_address,t_bool)"
      },
      {
        "astId": 6142,
        "contract": "solidity/contracts/sidechain/Keep3rSidechain.sol:Keep3rSidechain",
        "label": "disputers",
        "offset": 0,
        "slot": "6",
        "type": "t_mapping(t_address,t_bool)"
      },
      {
        "astId": 5604,
        "contract": "solidity/contracts/sidechain/Keep3rSidechain.sol:Keep3rSidechain",
        "label": "_keepers",
        "offset": 0,
        "slot": "7",
        "type": "t_struct(AddressSet)1930_storage"
      },
      {
        "astId": 5608,
        "contract": "solidity/contracts/sidechain/Keep3rSidechain.sol:Keep3rSidechain",
        "label": "totalBonds",
        "offset": 0,
        "slot": "9",
        "type": "t_uint256"
      },
      {
        "astId": 5614,
        "contract": "solidity/contracts/sidechain/Keep3rSidechain.sol:Keep3rSidechain",
        "label": "workCompleted",
        "offset": 0,
        "slot": "10",
        "type": "t_mapping(t_address,t_uint256)"
      },
      {
        "astId": 5620,
        "contract": "solidity/contracts/sidechain/Keep3rSidechain.sol:Keep3rSidechain",
        "label": "firstSeen",
        "offset": 0,
        "slot": "11",
        "type": "t_mapping(t_address,t_uint256)"
      },
      {
        "astId": 5626,
        "contract": "solidity/contracts/sidechain/Keep3rSidechain.sol:Keep3rSidechain",
        "label": "disputes",
        "offset": 0,
        "slot": "12",
        "type": "t_mapping(t_address,t_bool)"
      },
      {
        "astId": 5634,
        "contract": "solidity/contracts/sidechain/Keep3rSidechain.sol:Keep3rSidechain",
        "label": "bonds",
        "offset": 0,
        "slot": "13",
        "type": "t_mapping(t_address,t_mapping(t_address,t_uint256))"
      },
      {
        "astId": 5642,
        "contract": "solidity/contracts/sidechain/Keep3rSidechain.sol:Keep3rSidechain",
        "label": "jobTokenCredits",
        "offset": 0,
        "slot": "14",
        "type": "t_mapping(t_address,t_mapping(t_address,t_uint256))"
      },
      {
        "astId": 5647,
        "contract": "solidity/contracts/sidechain/Keep3rSidechain.sol:Keep3rSidechain",
        "label": "_jobLiquidityCredits",
        "offset": 0,
        "slot": "15",
        "type": "t_mapping(t_address,t_uint256)"
      },
      {
        "astId": 5652,
        "contract": "solidity/contracts/sidechain/Keep3rSidechain.sol:Keep3rSidechain",
        "label": "_jobPeriodCredits",
        "offset": 0,
        "slot": "16",
        "type": "t_mapping(t_address,t_uint256)"
      },
      {
        "astId": 5658,
        "contract": "solidity/contracts/sidechain/Keep3rSidechain.sol:Keep3rSidechain",
        "label": "_jobTokens",
        "offset": 0,
        "slot": "17",
        "type": "t_mapping(t_address,t_struct(AddressSet)1930_storage)"
      },
      {
        "astId": 5664,
        "contract": "solidity/contracts/sidechain/Keep3rSidechain.sol:Keep3rSidechain",
        "label": "_jobLiquidities",
        "offset": 0,
        "slot": "18",
        "type": "t_mapping(t_address,t_struct(AddressSet)1930_storage)"
      },
      {
        "astId": 5669,
        "contract": "solidity/contracts/sidechain/Keep3rSidechain.sol:Keep3rSidechain",
        "label": "_liquidityPool",
        "offset": 0,
        "slot": "19",
        "type": "t_mapping(t_address,t_address)"
      },
      {
        "astId": 5674,
        "contract": "solidity/contracts/sidechain/Keep3rSidechain.sol:Keep3rSidechain",
        "label": "_isKP3RToken0",
        "offset": 0,
        "slot": "20",
        "type": "t_mapping(t_address,t_bool)"
      },
      {
        "astId": 5682,
        "contract": "solidity/contracts/sidechain/Keep3rSidechain.sol:Keep3rSidechain",
        "label": "pendingBonds",
        "offset": 0,
        "slot": "21",
        "type": "t_mapping(t_address,t_mapping(t_address,t_uint256))"
      },
      {
        "astId": 5690,
        "contract": "solidity/contracts/sidechain/Keep3rSidechain.sol:Keep3rSidechain",
        "label": "canActivateAfter",
        "offset": 0,
        "slot": "22",
        "type": "t_mapping(t_address,t_mapping(t_address,t_uint256))"
      },
      {
        "astId": 5698,
        "contract": "solidity/contracts/sidechain/Keep3rSidechain.sol:Keep3rSidechain",
        "label": "canWithdrawAfter",
        "offset": 0,
        "slot": "23",
        "type": "t_mapping(t_address,t_mapping(t_address,t_uint256))"
      },
      {
        "astId": 5706,
        "contract": "solidity/contracts/sidechain/Keep3rSidechain.sol:Keep3rSidechain",
        "label": "pendingUnbonds",
        "offset": 0,
        "slot": "24",
        "type": "t_mapping(t_address,t_mapping(t_address,t_uint256))"
      },
      {
        "astId": 5712,
        "contract": "solidity/contracts/sidechain/Keep3rSidechain.sol:Keep3rSidechain",
        "label": "hasBonded",
        "offset": 0,
        "slot": "25",
        "type": "t_mapping(t_address,t_bool)"
      },
      {
        "astId": 5716,
        "contract": "solidity/contracts/sidechain/Keep3rSidechain.sol:Keep3rSidechain",
        "label": "_jobs",
        "offset": 0,
        "slot": "26",
        "type": "t_struct(AddressSet)1930_storage"
      },
      {
        "astId": 5829,
        "contract": "solidity/contracts/sidechain/Keep3rSidechain.sol:Keep3rSidechain",
        "label": "keep3rV1",
        "offset": 0,
        "slot": "28",
        "type": "t_address"
      },
      {
        "astId": 5833,
        "contract": "solidity/contracts/sidechain/Keep3rSidechain.sol:Keep3rSidechain",
        "label": "keep3rV1Proxy",
        "offset": 0,
        "slot": "29",
        "type": "t_address"
      },
      {
        "astId": 5837,
        "contract": "solidity/contracts/sidechain/Keep3rSidechain.sol:Keep3rSidechain",
        "label": "keep3rHelper",
        "offset": 0,
        "slot": "30",
        "type": "t_address"
      },
      {
        "astId": 5842,
        "contract": "solidity/contracts/sidechain/Keep3rSidechain.sol:Keep3rSidechain",
        "label": "bondTime",
        "offset": 0,
        "slot": "31",
        "type": "t_uint256"
      },
      {
        "astId": 5847,
        "contract": "solidity/contracts/sidechain/Keep3rSidechain.sol:Keep3rSidechain",
        "label": "unbondTime",
        "offset": 0,
        "slot": "32",
        "type": "t_uint256"
      },
      {
        "astId": 5852,
        "contract": "solidity/contracts/sidechain/Keep3rSidechain.sol:Keep3rSidechain",
        "label": "liquidityMinimum",
        "offset": 0,
        "slot": "33",
        "type": "t_uint256"
      },
      {
        "astId": 5857,
        "contract": "solidity/contracts/sidechain/Keep3rSidechain.sol:Keep3rSidechain",
        "label": "rewardPeriodTime",
        "offset": 0,
        "slot": "34",
        "type": "t_uint256"
      },
      {
        "astId": 5862,
        "contract": "solidity/contracts/sidechain/Keep3rSidechain.sol:Keep3rSidechain",
        "label": "inflationPeriod",
        "offset": 0,
        "slot": "35",
        "type": "t_uint256"
      },
      {
        "astId": 5867,
        "contract": "solidity/contracts/sidechain/Keep3rSidechain.sol:Keep3rSidechain",
        "label": "fee",
        "offset": 0,
        "slot": "36",
        "type": "t_uint256"
      },
      {
        "astId": 6569,
        "contract": "solidity/contracts/sidechain/Keep3rSidechain.sol:Keep3rSidechain",
        "label": "jobTokenCreditsAddedAt",
        "offset": 0,
        "slot": "37",
        "type": "t_mapping(t_address,t_mapping(t_address,t_uint256))"
      },
      {
        "astId": 6812,
        "contract": "solidity/contracts/sidechain/Keep3rSidechain.sol:Keep3rSidechain",
        "label": "_approvedLiquidities",
        "offset": 0,
        "slot": "38",
        "type": "t_struct(AddressSet)1930_storage"
      },
      {
        "astId": 6820,
        "contract": "solidity/contracts/sidechain/Keep3rSidechain.sol:Keep3rSidechain",
        "label": "liquidityAmount",
        "offset": 0,
        "slot": "40",
        "type": "t_mapping(t_address,t_mapping(t_address,t_uint256))"
      },
      {
        "astId": 6826,
        "contract": "solidity/contracts/sidechain/Keep3rSidechain.sol:Keep3rSidechain",
        "label": "rewardedAt",
        "offset": 0,
        "slot": "41",
        "type": "t_mapping(t_address,t_uint256)"
      },
      {
        "astId": 6832,
        "contract": "solidity/contracts/sidechain/Keep3rSidechain.sol:Keep3rSidechain",
        "label": "workedAt",
        "offset": 0,
        "slot": "42",
        "type": "t_mapping(t_address,t_uint256)"
      },
      {
        "astId": 6838,
        "contract": "solidity/contracts/sidechain/Keep3rSidechain.sol:Keep3rSidechain",
        "label": "_tick",
        "offset": 0,
        "slot": "43",
        "type": "t_mapping(t_address,t_struct(TickCache)14687_storage)"
      },
      {
        "astId": 8289,
        "contract": "solidity/contracts/sidechain/Keep3rSidechain.sol:Keep3rSidechain",
        "label": "pendingJobMigrations",
        "offset": 0,
        "slot": "44",
        "type": "t_mapping(t_address,t_address)"
      },
      {
        "astId": 8295,
        "contract": "solidity/contracts/sidechain/Keep3rSidechain.sol:Keep3rSidechain",
        "label": "_migrationCreatedAt",
        "offset": 0,
        "slot": "45",
        "type": "t_mapping(t_address,t_mapping(t_address,t_uint256))"
      },
      {
        "astId": 8692,
        "contract": "solidity/contracts/sidechain/Keep3rSidechain.sol:Keep3rSidechain",
        "label": "_initialGas",
        "offset": 0,
        "slot": "46",
        "type": "t_uint256"
      }
    ],
    "types": {
      "t_address": {
        "encoding": "inplace",
        "label": "address",
        "numberOfBytes": "20"
      },
      "t_array(t_bytes32)dyn_storage": {
        "base": "t_bytes32",
        "encoding": "dynamic_array",
        "label": "bytes32[]",
        "numberOfBytes": "32"
      },
      "t_bool": {
        "encoding": "inplace",
        "label": "bool",
        "numberOfBytes": "1"
      },
      "t_bytes32": {
        "encoding": "inplace",
        "label": "bytes32",
        "numberOfBytes": "32"
      },
      "t_int56": {
        "encoding": "inplace",
        "label": "int56",
        "numberOfBytes": "7"
      },
      "t_mapping(t_address,t_address)": {
        "encoding": "mapping",
        "key": "t_address",
        "label": "mapping(address => address)",
        "numberOfBytes": "32",
        "value": "t_address"
      },
      "t_mapping(t_address,t_bool)": {
        "encoding": "mapping",
        "key": "t_address",
        "label": "mapping(address => bool)",
        "numberOfBytes": "32",
        "value": "t_bool"
      },
      "t_mapping(t_address,t_mapping(t_address,t_uint256))": {
        "encoding": "mapping",
        "key": "t_address",
        "label": "mapping(address => mapping(address => uint256))",
        "numberOfBytes": "32",
        "value": "t_mapping(t_address,t_uint256)"
      },
      "t_mapping(t_address,t_struct(AddressSet)1930_storage)": {
        "encoding": "mapping",
        "key": "t_address",
        "label": "mapping(address => struct EnumerableSet.AddressSet)",
        "numberOfBytes": "32",
        "value": "t_struct(AddressSet)1930_storage"
      },
      "t_mapping(t_address,t_struct(TickCache)14687_storage)": {
        "encoding": "mapping",
        "key": "t_address",
        "label": "mapping(address => struct IKeep3rJobFundableLiquidity.TickCache)",
        "numberOfBytes": "32",
        "value": "t_struct(TickCache)14687_storage"
      },
      "t_mapping(t_address,t_uint256)": {
        "encoding": "mapping",
        "key": "t_address",
        "label": "mapping(address => uint256)",
        "numberOfBytes": "32",
        "value": "t_uint256"
      },
      "t_mapping(t_bytes32,t_uint256)": {
        "encoding": "mapping",
        "key": "t_bytes32",
        "label": "mapping(bytes32 => uint256)",
        "numberOfBytes": "32",
        "value": "t_uint256"
      },
      "t_struct(AddressSet)1930_storage": {
        "encoding": "inplace",
        "label": "struct EnumerableSet.AddressSet",
        "members": [
          {
            "astId": 1929,
            "contract": "solidity/contracts/sidechain/Keep3rSidechain.sol:Keep3rSidechain",
            "label": "_inner",
            "offset": 0,
            "slot": "0",
            "type": "t_struct(Set)1629_storage"
          }
        ],
        "numberOfBytes": "64"
      },
      "t_struct(Set)1629_storage": {
        "encoding": "inplace",
        "label": "struct EnumerableSet.Set",
        "members": [
          {
            "astId": 1624,
            "contract": "solidity/contracts/sidechain/Keep3rSidechain.sol:Keep3rSidechain",
            "label": "_values",
            "offset": 0,
            "slot": "0",
            "type": "t_array(t_bytes32)dyn_storage"
          },
          {
            "astId": 1628,
            "contract": "solidity/contracts/sidechain/Keep3rSidechain.sol:Keep3rSidechain",
            "label": "_indexes",
            "offset": 0,
            "slot": "1",
            "type": "t_mapping(t_bytes32,t_uint256)"
          }
        ],
        "numberOfBytes": "64"
      },
      "t_struct(TickCache)14687_storage": {
        "encoding": "inplace",
        "label": "struct IKeep3rJobFundableLiquidity.TickCache",
        "members": [
          {
            "astId": 14682,
            "contract": "solidity/contracts/sidechain/Keep3rSidechain.sol:Keep3rSidechain",
            "label": "current",
            "offset": 0,
            "slot": "0",
            "type": "t_int56"
          },
          {
            "astId": 14684,
            "contract": "solidity/contracts/sidechain/Keep3rSidechain.sol:Keep3rSidechain",
            "label": "difference",
            "offset": 7,
            "slot": "0",
            "type": "t_int56"
          },
          {
            "astId": 14686,
            "contract": "solidity/contracts/sidechain/Keep3rSidechain.sol:Keep3rSidechain",
            "label": "period",
            "offset": 0,
            "slot": "1",
            "type": "t_uint256"
          }
        ],
        "numberOfBytes": "64"
      },
      "t_uint256": {
        "encoding": "inplace",
        "label": "uint256",
        "numberOfBytes": "32"
      }
    }
  }
}