{
  "address": "0x832accE332B81262C028B2F800D1D53C8aEE12f4",
  "abi": [
    {
      "inputs": [
        {
          "internalType": "address",
          "name": "_keep3rV2",
          "type": "address"
        },
        {
          "internalType": "address",
          "name": "_governor",
          "type": "address"
        },
        {
          "internalType": "address",
          "name": "_kp3r",
          "type": "address"
        },
        {
          "internalType": "address",
          "name": "_weth",
          "type": "address"
        },
        {
          "internalType": "address",
          "name": "_kp3rWethOracle",
          "type": "address"
        },
        {
          "internalType": "address",
          "name": "_wethUsdOracle",
          "type": "address"
        },
        {
          "internalType": "uint8",
          "name": "_usdDecimals",
          "type": "uint8"
        }
      ],
      "stateMutability": "nonpayable",
      "type": "constructor"
    },
    {
      "inputs": [],
      "name": "InvalidAddress",
      "type": "error"
    },
    {
      "inputs": [],
      "name": "InvalidAmount",
      "type": "error"
    },
    {
      "inputs": [],
      "name": "InvalidOraclePool",
      "type": "error"
    },
    {
      "inputs": [],
      "name": "LengthMismatch",
      "type": "error"
    },
    {
      "inputs": [],
      "name": "LiquidityPairInvalid",
      "type": "error"
    },
    {
      "inputs": [],
      "name": "OnlyGovernor",
      "type": "error"
    },
    {
      "inputs": [],
      "name": "OnlyPendingGovernor",
      "type": "error"
    },
    {
      "inputs": [],
      "name": "ZeroAddress",
      "type": "error"
    },
    {
      "inputs": [],
      "name": "ZeroAmount",
      "type": "error"
    },
    {
      "anonymous": false,
      "inputs": [
        {
          "indexed": false,
          "internalType": "address",
          "name": "_keep3rV2",
          "type": "address"
        }
      ],
      "name": "Keep3rV2Change",
      "type": "event"
    },
    {
      "anonymous": false,
      "inputs": [
        {
          "indexed": false,
          "internalType": "address",
          "name": "_address",
          "type": "address"
        },
        {
          "indexed": false,
          "internalType": "bool",
          "name": "_isKP3RToken0",
          "type": "bool"
        }
      ],
      "name": "Kp3rWethPoolChange",
      "type": "event"
    },
    {
      "anonymous": false,
      "inputs": [
        {
          "indexed": false,
          "internalType": "uint256",
          "name": "_maxBoost",
          "type": "uint256"
        }
      ],
      "name": "MaxBoostChange",
      "type": "event"
    },
    {
      "anonymous": false,
      "inputs": [
        {
          "indexed": false,
          "internalType": "uint256",
          "name": "_minBaseFee",
          "type": "uint256"
        }
      ],
      "name": "MinBaseFeeChange",
      "type": "event"
    },
    {
      "anonymous": false,
      "inputs": [
        {
          "indexed": false,
          "internalType": "uint256",
          "name": "_minBoost",
          "type": "uint256"
        }
      ],
      "name": "MinBoostChange",
      "type": "event"
    },
    {
      "anonymous": false,
      "inputs": [
        {
          "indexed": false,
          "internalType": "uint256",
          "name": "_minPriorityFee",
          "type": "uint256"
        }
      ],
      "name": "MinPriorityFeeChange",
      "type": "event"
    },
    {
      "anonymous": false,
      "inputs": [
        {
          "indexed": false,
          "internalType": "address",
          "name": "_liquidity",
          "type": "address"
        },
        {
          "indexed": false,
          "internalType": "address",
          "name": "_oraclePool",
          "type": "address"
        }
      ],
      "name": "OracleSet",
      "type": "event"
    },
    {
      "anonymous": false,
      "inputs": [
        {
          "indexed": false,
          "internalType": "address",
          "name": "_newGovernor",
          "type": "address"
        }
      ],
      "name": "PendingGovernorAccepted",
      "type": "event"
    },
    {
      "anonymous": false,
      "inputs": [
        {
          "indexed": false,
          "internalType": "address",
          "name": "_governor",
          "type": "address"
        },
        {
          "indexed": false,
          "internalType": "address",
          "name": "_pendingGovernor",
          "type": "address"
        }
      ],
      "name": "PendingGovernorSet",
      "type": "event"
    },
    {
      "anonymous": false,
      "inputs": [
        {
          "indexed": false,
          "internalType": "uint32",
          "name": "_quoteTwapTime",
          "type": "uint32"
        }
      ],
      "name": "QuoteTwapTimeChange",
      "type": "event"
    },
    {
      "anonymous": false,
      "inputs": [
        {
          "indexed": false,
          "internalType": "uint256",
          "name": "_targetBond",
          "type": "uint256"
        }
      ],
      "name": "TargetBondChange",
      "type": "event"
    },
    {
      "anonymous": false,
      "inputs": [
        {
          "indexed": false,
          "internalType": "address",
          "name": "_address",
          "type": "address"
        },
        {
          "indexed": false,
          "internalType": "bool",
          "name": "_isWETHToken0",
          "type": "bool"
        },
        {
          "indexed": false,
          "internalType": "uint8",
          "name": "_usdDecimals",
          "type": "uint8"
        }
      ],
      "name": "WethUSDPoolChange",
      "type": "event"
    },
    {
      "anonymous": false,
      "inputs": [
        {
          "indexed": false,
          "internalType": "uint256",
          "name": "_workExtraGas",
          "type": "uint256"
        }
      ],
      "name": "WorkExtraGasChange",
      "type": "event"
    },
    {
      "inputs": [],
      "name": "BOOST_BASE",
      "outputs": [
        {
          "internalType": "uint256",
          "name": "",
          "type": "uint256"
        }
      ],
      "stateMutability": "view",
      "type": "function"
    },
    {
      "inputs": [],
      "name": "KP3R",
      "outputs": [
        {
          "internalType": "address",
          "name": "",
          "type": "address"
        }
      ],
      "stateMutability": "view",
      "type": "function"
    },
    {
      "inputs": [],
      "name": "WETH",
      "outputs": [
        {
          "internalType": "address",
          "name": "",
          "type": "address"
        }
      ],
      "stateMutability": "view",
      "type": "function"
    },
    {
      "inputs": [],
      "name": "acceptPendingGovernor",
      "outputs": [],
      "stateMutability": "nonpayable",
      "type": "function"
    },
    {
      "inputs": [
        {
          "internalType": "address",
          "name": "_keeper",
          "type": "address"
        }
      ],
      "name": "bonds",
      "outputs": [
        {
          "internalType": "uint256",
          "name": "_amountBonded",
          "type": "uint256"
        }
      ],
      "stateMutability": "view",
      "type": "function"
    },
    {
      "inputs": [
        {
          "internalType": "uint256",
          "name": "_liquidityAmount",
          "type": "uint256"
        },
        {
          "internalType": "int56",
          "name": "_tickDifference",
          "type": "int56"
        },
        {
          "internalType": "uint256",
          "name": "_timeInterval",
          "type": "uint256"
        }
      ],
      "name": "getKP3RsAtTick",
      "outputs": [
        {
          "internalType": "uint256",
          "name": "_kp3rAmount",
          "type": "uint256"
        }
      ],
      "stateMutability": "pure",
      "type": "function"
    },
    {
      "inputs": [
        {
          "internalType": "uint256",
          "name": "_bonds",
          "type": "uint256"
        }
      ],
      "name": "getPaymentParams",
      "outputs": [
        {
          "internalType": "uint256",
          "name": "_boost",
          "type": "uint256"
        },
        {
          "internalType": "uint256",
          "name": "_oneUsdQuote",
          "type": "uint256"
        },
        {
          "internalType": "uint256",
          "name": "_extraGas",
          "type": "uint256"
        }
      ],
      "stateMutability": "view",
      "type": "function"
    },
    {
      "inputs": [
        {
          "internalType": "address",
          "name": "_pool",
          "type": "address"
        }
      ],
      "name": "getPoolTokens",
      "outputs": [
        {
          "internalType": "address",
          "name": "_token0",
          "type": "address"
        },
        {
          "internalType": "address",
          "name": "_token1",
          "type": "address"
        }
      ],
      "stateMutability": "view",
      "type": "function"
    },
    {
      "inputs": [
        {
          "internalType": "uint128",
          "name": "_baseAmount",
          "type": "uint128"
        },
        {
          "internalType": "int56",
          "name": "_tickDifference",
          "type": "int56"
        },
        {
          "internalType": "uint256",
          "name": "_timeInterval",
          "type": "uint256"
        }
      ],
      "name": "getQuoteAtTick",
      "outputs": [
        {
          "internalType": "uint256",
          "name": "_quoteAmount",
          "type": "uint256"
        }
      ],
      "stateMutability": "pure",
      "type": "function"
    },
    {
      "inputs": [
        {
          "internalType": "uint256",
          "name": "_gasUsed",
          "type": "uint256"
        }
      ],
      "name": "getRewardAmount",
      "outputs": [
        {
          "internalType": "uint256",
          "name": "_amount",
          "type": "uint256"
        }
      ],
      "stateMutability": "view",
      "type": "function"
    },
    {
      "inputs": [
        {
          "internalType": "address",
          "name": "_keeper",
          "type": "address"
        },
        {
          "internalType": "uint256",
          "name": "_gasUsed",
          "type": "uint256"
        }
      ],
      "name": "getRewardAmountFor",
      "outputs": [
        {
          "internalType": "uint256",
          "name": "_kp3r",
          "type": "uint256"
        }
      ],
      "stateMutability": "view",
      "type": "function"
    },
    {
      "inputs": [
        {
          "internalType": "uint256",
          "name": "_bonds",
          "type": "uint256"
        }
      ],
      "name": "getRewardBoostFor",
      "outputs": [
        {
          "internalType": "uint256",
          "name": "_rewardBoost",
          "type": "uint256"
        }
      ],
      "stateMutability": "view",
      "type": "function"
    },
    {
      "inputs": [],
      "name": "governor",
      "outputs": [
        {
          "internalType": "address",
          "name": "",
          "type": "address"
        }
      ],
      "stateMutability": "view",
      "type": "function"
    },
    {
      "inputs": [
        {
          "internalType": "address",
          "name": "_pool",
          "type": "address"
        }
      ],
      "name": "isKP3RToken0",
      "outputs": [
        {
          "internalType": "bool",
          "name": "_isKP3RToken0",
          "type": "bool"
        }
      ],
      "stateMutability": "view",
      "type": "function"
    },
    {
      "inputs": [],
      "name": "keep3rV2",
      "outputs": [
        {
          "internalType": "address",
          "name": "",
          "type": "address"
        }
      ],
      "stateMutability": "view",
      "type": "function"
    },
    {
      "inputs": [],
      "name": "kp3rWethPool",
      "outputs": [
        {
          "internalType": "address",
          "name": "poolAddress",
          "type": "address"
        },
        {
          "internalType": "bool",
          "name": "isKP3RToken0",
          "type": "bool"
        }
      ],
      "stateMutability": "view",
      "type": "function"
    },
    {
      "inputs": [],
      "name": "maxBoost",
      "outputs": [
        {
          "internalType": "uint256",
          "name": "",
          "type": "uint256"
        }
      ],
      "stateMutability": "view",
      "type": "function"
    },
    {
      "inputs": [],
      "name": "minBaseFee",
      "outputs": [
        {
          "internalType": "uint256",
          "name": "",
          "type": "uint256"
        }
      ],
      "stateMutability": "view",
      "type": "function"
    },
    {
      "inputs": [],
      "name": "minBoost",
      "outputs": [
        {
          "internalType": "uint256",
          "name": "",
          "type": "uint256"
        }
      ],
      "stateMutability": "view",
      "type": "function"
    },
    {
      "inputs": [],
      "name": "minPriorityFee",
      "outputs": [
        {
          "internalType": "uint256",
          "name": "",
          "type": "uint256"
        }
      ],
      "stateMutability": "view",
      "type": "function"
    },
    {
      "inputs": [
        {
          "internalType": "address",
          "name": "_pool",
          "type": "address"
        },
        {
          "internalType": "uint32[]",
          "name": "_secondsAgo",
          "type": "uint32[]"
        }
      ],
      "name": "observe",
      "outputs": [
        {
          "internalType": "int56",
          "name": "_tickCumulative1",
          "type": "int56"
        },
        {
          "internalType": "int56",
          "name": "_tickCumulative2",
          "type": "int56"
        },
        {
          "internalType": "bool",
          "name": "_success",
          "type": "bool"
        }
      ],
      "stateMutability": "view",
      "type": "function"
    },
    {
      "inputs": [
        {
          "internalType": "address",
          "name": "",
          "type": "address"
        }
      ],
      "name": "oracle",
      "outputs": [
        {
          "internalType": "address",
          "name": "",
          "type": "address"
        }
      ],
      "stateMutability": "view",
      "type": "function"
    },
    {
      "inputs": [],
      "name": "pendingGovernor",
      "outputs": [
        {
          "internalType": "address",
          "name": "",
          "type": "address"
        }
      ],
      "stateMutability": "view",
      "type": "function"
    },
    {
      "inputs": [
        {
          "internalType": "uint256",
          "name": "_eth",
          "type": "uint256"
        }
      ],
      "name": "quote",
      "outputs": [
        {
          "internalType": "uint256",
          "name": "_amountOut",
          "type": "uint256"
        }
      ],
      "stateMutability": "view",
      "type": "function"
    },
    {
      "inputs": [],
      "name": "quoteTwapTime",
      "outputs": [
        {
          "internalType": "uint32",
          "name": "",
          "type": "uint32"
        }
      ],
      "stateMutability": "view",
      "type": "function"
    },
    {
      "inputs": [
        {
          "internalType": "uint256",
          "name": "_usd",
          "type": "uint256"
        }
      ],
      "name": "quoteUsdToEth",
      "outputs": [
        {
          "internalType": "uint256",
          "name": "_amountOut",
          "type": "uint256"
        }
      ],
      "stateMutability": "view",
      "type": "function"
    },
    {
      "inputs": [
        {
          "internalType": "address",
          "name": "_keep3rV2",
          "type": "address"
        }
      ],
      "name": "setKeep3rV2",
      "outputs": [],
      "stateMutability": "nonpayable",
      "type": "function"
    },
    {
      "inputs": [
        {
          "internalType": "address",
          "name": "_poolAddress",
          "type": "address"
        }
      ],
      "name": "setKp3rWethPool",
      "outputs": [],
      "stateMutability": "nonpayable",
      "type": "function"
    },
    {
      "inputs": [
        {
          "internalType": "uint256",
          "name": "_maxBoost",
          "type": "uint256"
        }
      ],
      "name": "setMaxBoost",
      "outputs": [],
      "stateMutability": "nonpayable",
      "type": "function"
    },
    {
      "inputs": [
        {
          "internalType": "uint256",
          "name": "_minBaseFee",
          "type": "uint256"
        }
      ],
      "name": "setMinBaseFee",
      "outputs": [],
      "stateMutability": "nonpayable",
      "type": "function"
    },
    {
      "inputs": [
        {
          "internalType": "uint256",
          "name": "_minBoost",
          "type": "uint256"
        }
      ],
      "name": "setMinBoost",
      "outputs": [],
      "stateMutability": "nonpayable",
      "type": "function"
    },
    {
      "inputs": [
        {
          "internalType": "uint256",
          "name": "_minPriorityFee",
          "type": "uint256"
        }
      ],
      "name": "setMinPriorityFee",
      "outputs": [],
      "stateMutability": "nonpayable",
      "type": "function"
    },
    {
      "inputs": [
        {
          "internalType": "address",
          "name": "_liquidity",
          "type": "address"
        },
        {
          "internalType": "address",
          "name": "_oracle",
          "type": "address"
        }
      ],
      "name": "setOracle",
      "outputs": [],
      "stateMutability": "nonpayable",
      "type": "function"
    },
    {
      "inputs": [
        {
          "internalType": "address",
          "name": "_pendingGovernor",
          "type": "address"
        }
      ],
      "name": "setPendingGovernor",
      "outputs": [],
      "stateMutability": "nonpayable",
      "type": "function"
    },
    {
      "inputs": [
        {
          "internalType": "uint32",
          "name": "_quoteTwapTime",
          "type": "uint32"
        }
      ],
      "name": "setQuoteTwapTime",
      "outputs": [],
      "stateMutability": "nonpayable",
      "type": "function"
    },
    {
      "inputs": [
        {
          "internalType": "uint256",
          "name": "_targetBond",
          "type": "uint256"
        }
      ],
      "name": "setTargetBond",
      "outputs": [],
      "stateMutability": "nonpayable",
      "type": "function"
    },
    {
      "inputs": [
        {
          "internalType": "address",
          "name": "_poolAddress",
          "type": "address"
        },
        {
          "internalType": "uint8",
          "name": "_usdDecimals",
          "type": "uint8"
        }
      ],
      "name": "setWethUsdPool",
      "outputs": [],
      "stateMutability": "nonpayable",
      "type": "function"
    },
    {
      "inputs": [
        {
          "internalType": "uint256",
          "name": "_workExtraGas",
          "type": "uint256"
        }
      ],
      "name": "setWorkExtraGas",
      "outputs": [],
      "stateMutability": "nonpayable",
      "type": "function"
    },
    {
      "inputs": [],
      "name": "targetBond",
      "outputs": [
        {
          "internalType": "uint256",
          "name": "",
          "type": "uint256"
        }
      ],
      "stateMutability": "view",
      "type": "function"
    },
    {
      "inputs": [],
      "name": "wethUSDPool",
      "outputs": [
        {
          "internalType": "address",
          "name": "poolAddress",
          "type": "address"
        },
        {
          "internalType": "bool",
          "name": "isWETHToken0",
          "type": "bool"
        },
        {
          "internalType": "uint8",
          "name": "usdDecimals",
          "type": "uint8"
        }
      ],
      "stateMutability": "view",
      "type": "function"
    },
    {
      "inputs": [],
      "name": "workExtraGas",
      "outputs": [
        {
          "internalType": "uint256",
          "name": "",
          "type": "uint256"
        }
      ],
      "stateMutability": "view",
      "type": "function"
    }
  ],
  "transactionHash": "0xab6295d6b4ba0b0ef03005f3873b284bbffb70c25f24099f12c23c21824afc05",
  "args": [
    "0x745a50320B6eB8FF281f1664Fc6713991661B129",
    "0x9A040a31bc38919D50FD740973dBB6F8fdee1426",
    "0x1cEB5cB57C4D4E2b2433641b95Dd330A33185A44",
    "0x7ceB23fD6bC0adD59E62ac25578270cFf1b9f619",
    "0x6A060BF6579318c15138160Ee1f1d225fcC9D409",
    "0x45dDa9cb7c25131DF268515131f647d726f50608",
    "0x0000000000000000000000000000000000000006"
  ],
  "numDeployments": 1,
  "solcInputHash": "3a869c3b827b38468356d50761a61b47",
  "bytecode": "0x60c0604052612af8600255612ee0600355680ad78ebc5ac62000006004556184d06005556006805463ffffffff191661025817905564037e11d60060075563773594006008553480156200005257600080fd5b50604051620028c6380380620028c683398101604081905262000075916200041c565b8487878583838383816001600160a01b038116620000a65760405163d92e233d60e01b815260040160405180910390fd5b600080546001600160a01b03199081166001600160a01b03938416178255606087901b6001600160601b0319166080526009805490911686841617905590620000f390839087166200026b565b6040805180820182526001600160a01b0385168082528315156020928301819052600a80546001600160a81b0319168317600160a01b83021790558351918252918101919091529192507f554c636366d5fc882a9ab4b7b9d5181781d1a7076abe50ed410365620dcf4108910160405180910390a15050505050606088901b6001600160601b03191660a05250600092506200019d91508490506001600160a01b0387166200026b565b60408051606080820183526001600160a01b03878116808452851515602080860182905260ff8a8116968801879052600c80546001600160a81b031916909417600160a01b9384021760ff60a81b198116600160a81b890290811795869055895191871696169590951785529190920416151590820152928301919091529192507f10e6a379d12c209d558815459d599ade7bcc91d5270a7dfca948da52aef7df34910160405180910390a16200025762015180620003b1565b5050600060055550620004df945050505050565b6000816001600160a01b0316836001600160a01b0316630dfe16816040518163ffffffff1660e01b815260040160206040518083038186803b158015620002b157600080fd5b505afa158015620002c6573d6000803e3d6000fd5b505050506040513d601f19601f82011682018060405250810190620002ec9190620004ba565b6001600160a01b03161490508015816200038c5750816001600160a01b0316836001600160a01b031663d21220a76040518163ffffffff1660e01b815260040160206040518083038186803b1580156200034557600080fd5b505afa1580156200035a573d6000803e3d6000fd5b505050506040513d601f19601f82011682018060405250810190620003809190620004ba565b6001600160a01b031614155b15620003ab5760405163db60809d60e01b815260040160405180910390fd5b92915050565b6006805463ffffffff191663ffffffff83169081179091556040519081527fc806e26fb64e3a95f4b70abf4d87280555696244d01068b5f45b0e515aceb1de9060200160405180910390a150565b80516001600160a01b03811681146200041757600080fd5b919050565b600080600080600080600060e0888a0312156200043857600080fd5b6200044388620003ff565b96506200045360208901620003ff565b95506200046360408901620003ff565b94506200047360608901620003ff565b93506200048360808901620003ff565b92506200049360a08901620003ff565b915060c088015160ff81168114620004aa57600080fd5b8091505092959891949750929550565b600060208284031215620004cd57600080fd5b620004d882620003ff565b9392505050565b60805160601c60a05160601c61239f620005276000396000818161051a01526113ca01526000818161025d01528181610c6201528181610ca60152611505015261239f6000f3fe608060405234801561001057600080fd5b50600436106102535760003560e01c8063696a437b11610146578063b2e0df96116100c3578063e244208b11610087578063e244208b146105e0578063e3056a34146105f3578063eb37d34914610606578063ed1bd76c1461062f578063f235757f14610642578063fe10d7741461065557600080fd5b8063b2e0df961461053c578063b93f5af01461054f578063c84993af14610562578063ca4f280314610575578063dc686d91146105a857600080fd5b8063a0d271071161010a578063a0d27107146104d3578063a62611a2146104e6578063ab5dce00146104ef578063ab8cedc514610502578063ad5c46481461051557600080fd5b8063696a437b1461043b5780637b40c9131461045e5780638561579c1461049c5780638a9b1b09146104a55780639aaad679146104ae57600080fd5b80632750c0f9116101d45780633facf242116101985780633facf242146103cb578063435b21c1146103d4578063516c3323146104025780635c38eb3a14610415578063607e48d41461042857600080fd5b80632750c0f914610338578063289adb441461038957806337090c2f1461039c5780633b67c3bd146103a55780633cc7ab30146103b857600080fd5b806313f6986d1161021b57806313f6986d146102ea578063160e1e31146102f25780632248e82d1461030557806325f09e61146103265780632742b9e71461032f57600080fd5b806305e0b9a0146102585780630c340a241461029c5780630c525835146102af578063117cfc1b146102c457806311a6e1c7146102d7575b600080fd5b61027f7f000000000000000000000000000000000000000000000000000000000000000081565b6040516001600160a01b0390911681526020015b60405180910390f35b60005461027f906001600160a01b031681565b6102c26102bd366004611c79565b610668565b005b60095461027f906001600160a01b031681565b6102c26102e5366004611ca7565b6106cf565b6102c261072f565b6102c2610300366004611ce6565b610764565b610318610313366004611d03565b6107c2565b604051908152602001610293565b61031861271081565b61031860045481565b600c54610361906001600160a01b0381169060ff600160a01b8204811691600160a81b90041683565b604080516001600160a01b039094168452911515602084015260ff1690820152606001610293565b6102c2610397366004611c79565b6107f5565b61031860035481565b6103186103b3366004611c79565b610855565b6102c26103c6366004611ce6565b6109ec565b61031860055481565b6103e76103e2366004611c79565b610a8c565b60408051938452602084019290925290820152606001610293565b610318610410366004611c79565b610abd565b6102c2610423366004611d2f565b610b18565b6102c2610436366004611c79565b610bea565b61044e610449366004611ce6565b610c4a565b6040519015158152602001610293565b600a5461047d906001600160a01b03811690600160a01b900460ff1682565b604080516001600160a01b039093168352901515602083015201610293565b61031860025481565b61031860085481565b6006546104be9063ffffffff1681565b60405163ffffffff9091168152602001610293565b6103186104e1366004611d6c565b610cfd565b61031860075481565b6102c26104fd366004611c79565b610d30565b610318610510366004611da4565b610d90565b61027f7f000000000000000000000000000000000000000000000000000000000000000081565b6102c261054a366004611c79565b610e39565b6102c261055d366004611df9565b610e99565b610318610570366004611c79565b610ecd565b610588610583366004611ce6565b610edf565b604080516001600160a01b03938416815292909116602083015201610293565b6105bb6105b6366004611e7f565b610fcd565b60408051600694850b81529290930b6020830152151591810191909152606001610293565b6102c26105ee366004611c79565b6110d8565b60015461027f906001600160a01b031681565b61027f610614366004611ce6565b600b602052600090815260409020546001600160a01b031681565b61031861063d366004611c79565b611138565b6102c2610650366004611ce6565b61127e565b610318610663366004611ce6565b6112b2565b6000546001600160a01b031633146106935760405163070545c960e51b815260040160405180910390fd5b60028190556040518181527f0919fdaaac0f59c6bc7eeef4f975d6163475220f1e4820d0bce99c84c51cac1d906020015b60405180910390a150565b6000546001600160a01b031633146106fa5760405163070545c960e51b815260040160405180910390fd5b6001600160a01b0382166107215760405163d92e233d60e01b815260040160405180910390fd5b61072b82826113c2565b5050565b6001546001600160a01b0316331461075a57604051639ba0305d60e01b815260040160405180910390fd5b61076261149f565b565b6000546001600160a01b0316331461078f5760405163070545c960e51b815260040160405180910390fd5b6001600160a01b0381166107b65760405163d92e233d60e01b815260040160405180910390fd5b6107bf816114fd565b50565b6000806107d1610410856112b2565b90506107ed6127106107e38386611f47565b61063d9190611f7c565b949350505050565b6000546001600160a01b031633146108205760405163070545c960e51b815260040160405180910390fd5b60058190556040518181527fed847bdbab1a30becee18585f23c759bd06156561390d2e7fbffd18e74b56c9b906020016106c4565b604080516002808252606082018352600092839291906020830190803683375050600654825192935063ffffffff1691839150600190811061089957610899611f90565b63ffffffff90921660209283029190910190910152600c546108c79060ff600160a81b909104166012611fa6565b6108d290600a6120a1565b6108dc9084611f7c565b600c5460405163883bdbfd60e01b81529194506000916001600160a01b039091169063883bdbfd906109129085906004016120ad565b60006040518083038186803b15801561092a57600080fd5b505afa15801561093e573d6000803e3d6000fd5b505050506040513d6000823e601f3d908101601f191682016040526109669190810190612166565b50905060008160018151811061097e5761097e611f90565b60200260200101518260008151811061099957610999611f90565b60200260200101516109ab919061222b565b600c549091506109e3908690600160a01b900460ff166109d3576109ce8361227b565b6109d5565b825b60065463ffffffff16610d90565b95945050505050565b6000546001600160a01b03163314610a175760405163070545c960e51b815260040160405180910390fd5b6001600160a01b038116610a3e5760405163d92e233d60e01b815260040160405180910390fd5b600980546001600160a01b0319166001600160a01b0383169081179091556040519081527fcf744e4fc39d49b6d8103035078629b8a3be95adc007b0d663e96bdff777b10a906020016106c4565b6000806000610aa561063d670de0b6b3a7640000610855565b9150610ab084610abd565b6005549095929450925050565b6000610acb8260045461159b565b9150600060045483600254600354610ae39190611fa6565b610aed9190611f47565b610af79190611f7c565b600254610b0491906122a2565b9050610b11600182611f47565b9392505050565b6000546001600160a01b03163314610b435760405163070545c960e51b815260040160405180910390fd5b6001600160a01b0382161580610b6057506001600160a01b038116155b15610b7e5760405163d92e233d60e01b815260040160405180910390fd5b6001600160a01b038281166000818152600b602090815260409182902080546001600160a01b031916948616948517905581519283528201929092527fc1d3048301c0d23629a2532c8defa6d68f8e1a0e4157918769e9fb1b2eeb888e91015b60405180910390a15050565b6000546001600160a01b03163314610c155760405163070545c960e51b815260040160405180910390fd5b60078190556040518181527ff1443dcc693c421058f429cf588bc37e5c8de2275c3771a810a5e4bf0a908a4b906020016106c4565b6000806000610c5884610edf565b80925081935050507f00000000000000000000000000000000000000000000000000000000000000006001600160a01b0316826001600160a01b03161415610ca4575060019392505050565b7f00000000000000000000000000000000000000000000000000000000000000006001600160a01b0316816001600160a01b031614610cf657604051637d7c8f2760e11b815260040160405180910390fd5b5050919050565b600080610d16610d1184600687900b6122ba565b6115b1565b90506109e3600160601b86836001600160a01b03166119ca565b6000546001600160a01b03163314610d5b5760405163070545c960e51b815260040160405180910390fd5b60048190556040518181527feac367d684b6ac6c6ae7e3e852c06f17e6354e0f1e7122832c3e6d17e0a2b71e906020016106c4565b600080610da4610d1184600687900b6122ba565b90506001600160801b036001600160a01b03821611610df4576000610dd26001600160a01b03831680611f47565b9050610dec600160c01b876001600160801b0316836119ca565b925050610e31565b6000610e136001600160a01b03831680680100000000000000006119ca565b9050610e2d600160801b876001600160801b0316836119ca565b9250505b509392505050565b6000546001600160a01b03163314610e645760405163070545c960e51b815260040160405180910390fd5b60038190556040518181527fa1292b4e7a0d916ccfd2bc83858b05f328e344d1f0f507d97ac66723ac7c2aaa906020016106c4565b6000546001600160a01b03163314610ec45760405163070545c960e51b815260040160405180910390fd5b6107bf81611a78565b6000610ed932836107c2565b92915050565b600080826001600160a01b0316630dfe16816040518163ffffffff1660e01b815260040160206040518083038186803b158015610f1b57600080fd5b505afa158015610f2f573d6000803e3d6000fd5b505050506040513d601f19601f82011682018060405250810190610f5391906122e8565b836001600160a01b031663d21220a76040518163ffffffff1660e01b815260040160206040518083038186803b158015610f8c57600080fd5b505afa158015610fa0573d6000803e3d6000fd5b505050506040513d601f19601f82011682018060405250810190610fc491906122e8565b91509150915091565b6000806000846001600160a01b031663883bdbfd856040518263ffffffff1660e01b8152600401610ffe91906120ad565b60006040518083038186803b15801561101657600080fd5b505afa92505050801561104b57506040513d6000823e601f3d908101601f191682016040526110489190810190612166565b60015b611085573d808015611079576040519150601f19603f3d011682016040523d82523d6000602084013e61107e565b606091505b50506110d1565b8160008151811061109857611098611f90565b602002602001015194506001825111156110ca57816001815181106110bf576110bf611f90565b602002602001015193505b6001925050505b9250925092565b6000546001600160a01b031633146111035760405163070545c960e51b815260040160405180910390fd5b60088190556040518181527f403b461d2c3bcad840d570faac033e4e69e5649645ce89f3c5b4e28d54159221906020016106c4565b604080516002808252606082018352600092839291906020830190803683375050600654825192935063ffffffff1691839150600190811061117c5761117c611f90565b63ffffffff90921660209283029190910190910152600a5460405163883bdbfd60e01b81526000916001600160a01b03169063883bdbfd906111c29085906004016120ad565b60006040518083038186803b1580156111da57600080fd5b505afa1580156111ee573d6000803e3d6000fd5b505050506040513d6000823e601f3d908101601f191682016040526112169190810190612166565b50905060008160018151811061122e5761122e611f90565b60200260200101518260008151811061124957611249611f90565b602002602001015161125b919061222b565b600a549091506109e3908690600160a01b900460ff166109d3576109ce8361227b565b6000546001600160a01b031633146112a95760405163070545c960e51b815260040160405180910390fd5b6107bf81611ac0565b600080600960009054906101000a90046001600160a01b03166001600160a01b0316631ef94b916040518163ffffffff1660e01b815260040160206040518083038186803b15801561130357600080fd5b505afa158015611317573d6000803e3d6000fd5b505050506040513d601f19601f8201168201806040525081019061133b91906122e8565b60095460405163a39744b560e01b81526001600160a01b038681166004830152808416602483015292935091169063a39744b59060440160206040518083038186803b15801561138a57600080fd5b505afa15801561139e573d6000803e3d6000fd5b505050506040513d601f19601f82011682018060405250810190610b119190612305565b60006113ee837f0000000000000000000000000000000000000000000000000000000000000000611b43565b60408051606080820183526001600160a01b03878116808452851515602080860182905260ff8a8116968801879052600c80546001600160a81b031916909417600160a01b9384021760ff60a81b198116600160a81b890290811795869055895191871696169590951785529190920416151590820152928301919091529192507f10e6a379d12c209d558815459d599ade7bcc91d5270a7dfca948da52aef7df34910160405180910390a1505050565b60018054600080546001600160a01b0383166001600160a01b031991821681179092559091169091556040519081527f5d5d6e01b731c3e68060f7fe13156f6197d4aeffc2d6f498e34c717ae616b7349060200160405180910390a1565b6000611529827f0000000000000000000000000000000000000000000000000000000000000000611b43565b6040805180820182526001600160a01b0385168082528315156020928301819052600a80546001600160a81b0319168317600160a01b83021790558351918252918101919091529192507f554c636366d5fc882a9ab4b7b9d5181781d1a7076abe50ed410365620dcf41089101610bde565b60008183106115aa5781610b11565b5090919050565b60008060008360020b126115c8578260020b6115d5565b8260020b6115d59061231e565b90506115e4620d89e71961233b565b60020b81111561161e5760405162461bcd60e51b81526020600482015260016024820152601560fa1b604482015260640160405180910390fd5b60006001821661163257600160801b611644565b6ffffcb933bd6fad37aa2d162d1a5940015b70ffffffffffffffffffffffffffffffffff169050600282161561168357608061167e826ffff97272373d413259a46990580e213a611f47565b901c90505b60048216156116ad5760806116a8826ffff2e50f5f656932ef12357cf3c7fdcc611f47565b901c90505b60088216156116d75760806116d2826fffe5caca7e10e4e61c3624eaa0941cd0611f47565b901c90505b60108216156117015760806116fc826fffcb9843d60f6159c9db58835c926644611f47565b901c90505b602082161561172b576080611726826fff973b41fa98c081472e6896dfb254c0611f47565b901c90505b6040821615611755576080611750826fff2ea16466c96a3843ec78b326b52861611f47565b901c90505b608082161561177f57608061177a826ffe5dee046a99a2a811c461f1969c3053611f47565b901c90505b6101008216156117aa5760806117a5826ffcbe86c7900a88aedcffc83b479aa3a4611f47565b901c90505b6102008216156117d55760806117d0826ff987a7253ac413176f2b074cf7815e54611f47565b901c90505b6104008216156118005760806117fb826ff3392b0822b70005940c7a398e4b70f3611f47565b901c90505b61080082161561182b576080611826826fe7159475a2c29b7443b29c7fa6e889d9611f47565b901c90505b611000821615611856576080611851826fd097f3bdfd2022b8845ad8f792aa5825611f47565b901c90505b61200082161561188157608061187c826fa9f746462d870fdf8a65dc1f90e061e5611f47565b901c90505b6140008216156118ac5760806118a7826f70d869a156d2a1b890bb3df62baf32f7611f47565b901c90505b6180008216156118d75760806118d2826f31be135f97d08fd981231505542fcfa6611f47565b901c90505b620100008216156119035760806118fe826f09aa508b5b7a84e1c677de54f3e99bc9611f47565b901c90505b6202000082161561192e576080611929826e5d6af8dedb81196699c329225ee604611f47565b901c90505b62040000821615611958576080611953826d2216e584f5fa1ea926041bedfe98611f47565b901c90505b6208000082161561198057608061197b826b048a170391f7dc42444e8fa2611f47565b901c90505b60008460020b131561199b5761199881600019611f7c565b90505b6119aa64010000000082612355565b156119b65760016119b9565b60005b6107ed9060ff16602083901c6122a2565b600080806000198587098587029250828110838203039150508060001415611a0457600084116119f957600080fd5b508290049050610b11565b808411611a1057600080fd5b600084868809600260036001881981018916988990049182028318808302840302808302840302808302840302808302840302808302840302918202909203026000889003889004909101858311909403939093029303949094049190911702949350505050565b6006805463ffffffff191663ffffffff83169081179091556040519081527fc806e26fb64e3a95f4b70abf4d87280555696244d01068b5f45b0e515aceb1de906020016106c4565b6001600160a01b038116611ae75760405163d92e233d60e01b815260040160405180910390fd5b600180546001600160a01b0319166001600160a01b038381169182179092556000546040805191909316815260208101919091527f6353ec38ac394f8be94bfafcdd3580d356470599059eaeebedc3207e1cc03dec91016106c4565b6000816001600160a01b0316836001600160a01b0316630dfe16816040518163ffffffff1660e01b815260040160206040518083038186803b158015611b8857600080fd5b505afa158015611b9c573d6000803e3d6000fd5b505050506040513d601f19601f82011682018060405250810190611bc091906122e8565b6001600160a01b0316149050801581611c5b5750816001600160a01b0316836001600160a01b031663d21220a76040518163ffffffff1660e01b815260040160206040518083038186803b158015611c1757600080fd5b505afa158015611c2b573d6000803e3d6000fd5b505050506040513d601f19601f82011682018060405250810190611c4f91906122e8565b6001600160a01b031614155b15610ed95760405163db60809d60e01b815260040160405180910390fd5b600060208284031215611c8b57600080fd5b5035919050565b6001600160a01b03811681146107bf57600080fd5b60008060408385031215611cba57600080fd5b8235611cc581611c92565b9150602083013560ff81168114611cdb57600080fd5b809150509250929050565b600060208284031215611cf857600080fd5b8135610b1181611c92565b60008060408385031215611d1657600080fd5b8235611d2181611c92565b946020939093013593505050565b60008060408385031215611d4257600080fd5b8235611d4d81611c92565b91506020830135611cdb81611c92565b8060060b81146107bf57600080fd5b600080600060608486031215611d8157600080fd5b833592506020840135611d9381611d5d565b929592945050506040919091013590565b600080600060608486031215611db957600080fd5b83356001600160801b0381168114611dd057600080fd5b92506020840135611d9381611d5d565b803563ffffffff81168114611df457600080fd5b919050565b600060208284031215611e0b57600080fd5b610b1182611de0565b634e487b7160e01b600052604160045260246000fd5b604051601f8201601f1916810167ffffffffffffffff81118282101715611e5357611e53611e14565b604052919050565b600067ffffffffffffffff821115611e7557611e75611e14565b5060051b60200190565b60008060408385031215611e9257600080fd5b8235611e9d81611c92565b915060208381013567ffffffffffffffff811115611eba57600080fd5b8401601f81018613611ecb57600080fd5b8035611ede611ed982611e5b565b611e2a565b81815260059190911b82018301908381019088831115611efd57600080fd5b928401925b82841015611f2257611f1384611de0565b82529284019290840190611f02565b80955050505050509250929050565b634e487b7160e01b600052601160045260246000fd5b6000816000190483118215151615611f6157611f61611f31565b500290565b634e487b7160e01b600052601260045260246000fd5b600082611f8b57611f8b611f66565b500490565b634e487b7160e01b600052603260045260246000fd5b600082821015611fb857611fb8611f31565b500390565b600181815b80851115611ff8578160001904821115611fde57611fde611f31565b80851615611feb57918102915b93841c9390800290611fc2565b509250929050565b60008261200f57506001610ed9565b8161201c57506000610ed9565b8160018114612032576002811461203c57612058565b6001915050610ed9565b60ff84111561204d5761204d611f31565b50506001821b610ed9565b5060208310610133831016604e8410600b841016171561207b575081810a610ed9565b6120858383611fbd565b806000190482111561209957612099611f31565b029392505050565b6000610b118383612000565b6020808252825182820181905260009190848201906040850190845b818110156120eb57835163ffffffff16835292840192918401916001016120c9565b50909695505050505050565b600082601f83011261210857600080fd5b81516020612118611ed983611e5b565b82815260059290921b8401810191818101908684111561213757600080fd5b8286015b8481101561215b57805161214e81611c92565b835291830191830161213b565b509695505050505050565b6000806040838503121561217957600080fd5b825167ffffffffffffffff8082111561219157600080fd5b818501915085601f8301126121a557600080fd5b815160206121b5611ed983611e5b565b82815260059290921b840181019181810190898411156121d457600080fd5b948201945b838610156121fb5785516121ec81611d5d565b825294820194908201906121d9565b9188015191965090935050508082111561221457600080fd5b50612221858286016120f7565b9150509250929050565b60008160060b8360060b6000811281667fffffffffffff190183128115161561225657612256611f31565b81667fffffffffffff01831381161561227157612271611f31565b5090039392505050565b60008160060b667fffffffffffff1981141561229957612299611f31565b60000392915050565b600082198211156122b5576122b5611f31565b500190565b6000826122c9576122c9611f66565b600160ff1b8214600019841416156122e3576122e3611f31565b500590565b6000602082840312156122fa57600080fd5b8151610b1181611c92565b60006020828403121561231757600080fd5b5051919050565b6000600160ff1b82141561233457612334611f31565b5060000390565b60008160020b627fffff1981141561229957612299611f31565b60008261236457612364611f66565b50069056fea26469706673582212206c0ca89630f2f91836f9a3a38aeffab856a05a5e99be6e2c445b810e579b461a64736f6c63430008080033",
  "devdoc": {
    "kind": "dev",
    "methods": {
      "bonds(address)": {
        "params": {
          "_keeper": "The address of the keeper to check"
        },
        "returns": {
          "_amountBonded": "The amount of KP3R the keeper has bonded"
        }
      },
      "constructor": {
        "details": "Oracle pools should use 18 decimals tokens",
        "params": {
          "_governor": "Address of governor",
          "_keep3rV2": "Address of sidechain Keep3r implementation",
          "_kp3rWethOracle": "Address of oracle used for KP3R/WETH quote",
          "_wethUsdOracle": "Address of oracle used for WETH/USD quote"
        }
      },
      "getKP3RsAtTick(uint256,int56,uint256)": {
        "params": {
          "_liquidityAmount": "Amount of liquidity to be converted",
          "_tickDifference": "Tick value used to calculate the quote",
          "_timeInterval": "Time value used to calculate the quote"
        },
        "returns": {
          "_kp3rAmount": "Amount of KP3R tokens underlying on the given liquidity"
        }
      },
      "getPaymentParams(uint256)": {
        "params": {
          "_bonds": "Amount of bonded KP3R owned by the keeper"
        },
        "returns": {
          "_boost": "Multiplier per gas unit. Takes into account the base fee and the amount of bonded KP3R",
          "_extraGas": "Amount of extra gas that should be added to the gas spent",
          "_oneUsdQuote": "Amount of KP3R tokens equivalent to 1 ETH"
        }
      },
      "getPoolTokens(address)": {
        "params": {
          "_pool": "Address of the correspondant pool"
        },
        "returns": {
          "_token0": "Address of the first token of the pair",
          "_token1": "Address of the second token of the pair"
        }
      },
      "getQuoteAtTick(uint128,int56,uint256)": {
        "params": {
          "_baseAmount": "Amount of token to be converted",
          "_tickDifference": "Tick value used to calculate the quote",
          "_timeInterval": "Time value used to calculate the quote"
        },
        "returns": {
          "_quoteAmount": "Amount of credits deserved for the baseAmount at the tick value"
        }
      },
      "getRewardAmount(uint256)": {
        "params": {
          "_gasUsed": "The amount of gas used that will be rewarded"
        },
        "returns": {
          "_amount": "The amount of KP3R that should be awarded to tx.origin"
        }
      },
      "getRewardAmountFor(address,uint256)": {
        "params": {
          "_gasUsed": "The amount of gas used that will be rewarded",
          "_keeper": "The address of the keeper to check"
        },
        "returns": {
          "_kp3r": "The amount of KP3R that should be awarded to the keeper"
        }
      },
      "getRewardBoostFor(uint256)": {
        "details": "If the keeper has no bonds, boost should be +10% of gas cost, if keeper has max bonds, +20%",
        "params": {
          "_bonds": "The amount of KP3R tokens bonded by the keeper"
        },
        "returns": {
          "_rewardBoost": "The reward boost that corresponds to the keeper"
        }
      },
      "isKP3RToken0(address)": {
        "params": {
          "_pool": "Address of the correspondant pool"
        },
        "returns": {
          "_isKP3RToken0": "Boolean indicating the order of the tokens in the pair"
        }
      },
      "observe(address,uint32[])": {
        "params": {
          "_pool": "Address of the pool to observe",
          "_secondsAgo": "Array with time references to observe"
        },
        "returns": {
          "_success": "Boolean indicating if the observe call was succesfull",
          "_tickCumulative1": "Cumulative sum of ticks until first time reference",
          "_tickCumulative2": "Cumulative sum of ticks until second time reference"
        }
      },
      "quote(uint256)": {
        "details": "This function allows us to calculate how much KP3R we should pay to a keeper for things expressed in ETH, like gas",
        "params": {
          "_eth": "The amount of ETH"
        },
        "returns": {
          "_amountOut": "The amount of KP3R"
        }
      },
      "quoteUsdToEth(uint256)": {
        "details": "Used to know how much ETH should be paid to keepers before converting it from ETH to KP3R",
        "params": {
          "_usd": "The amount of USD to quote to ETH"
        },
        "returns": {
          "_amountOut": "The resulting amount of ETH after quoting the USD"
        }
      },
      "setKeep3rV2(address)": {
        "params": {
          "_keep3rV2": "The address of Keep3r V2"
        }
      },
      "setKp3rWethPool(address)": {
        "params": {
          "_poolAddress": "The address of the KP3R-WETH pool"
        }
      },
      "setMaxBoost(uint256)": {
        "params": {
          "_maxBoost": "The maximum boost multiplier"
        }
      },
      "setMinBaseFee(uint256)": {
        "params": {
          "_minBaseFee": "The minimum rewarded gas fee"
        }
      },
      "setMinBoost(uint256)": {
        "params": {
          "_minBoost": "The minimum boost multiplier"
        }
      },
      "setMinPriorityFee(uint256)": {
        "params": {
          "_minPriorityFee": "The minimum rewarded priority fee"
        }
      },
      "setOracle(address,address)": {
        "details": "The oracle must contain KP3R as either token0 or token1",
        "params": {
          "_liquidity": "The address of the liquidity",
          "_oracle": "The address of the pool used to quote the liquidity from"
        }
      },
      "setPendingGovernor(address)": {
        "params": {
          "_pendingGovernor": "Address of the proposed new governor"
        }
      },
      "setQuoteTwapTime(uint32)": {
        "params": {
          "_quoteTwapTime": "The twap time for quoting"
        }
      },
      "setTargetBond(uint256)": {
        "params": {
          "_targetBond": "The target bond amount"
        }
      },
      "setWethUsdPool(address,uint8)": {
        "details": "The oracle must contain WETH as either token0 or token1",
        "params": {
          "_poolAddress": "The address of the pool used as oracle",
          "_usdDecimals": "The amount of decimals of the USD token paired with ETH"
        }
      },
      "setWorkExtraGas(uint256)": {
        "params": {
          "_workExtraGas": "The work extra gas"
        }
      }
    },
    "stateVariables": {
      "_USD_BASE_DECIMALS": {
        "details": "Amount of decimals in which USD is quoted within the contract"
      },
      "oracle": {
        "return": "_oracle The address of the observable pool for given liquidity",
        "returns": {
          "_0": "_oracle The address of the observable pool for given liquidity"
        }
      },
      "wethUSDPool": {
        "returns": {
          "isWETHToken0": "True if calling the token0 method of the pool returns the WETH token address",
          "poolAddress": "Address of the pool",
          "usdDecimals": "The amount of decimals of the USD token paired with ETH"
        }
      }
    },
    "version": 1
  },
  "userdoc": {
    "errors": {
      "InvalidAddress()": [
        {
          "notice": "Thrown if an address is invalid"
        }
      ],
      "InvalidAmount()": [
        {
          "notice": "Thrown if an amount is invalid"
        }
      ],
      "InvalidOraclePool()": [
        {
          "notice": "Throws when pool does not have KP3R as token0 nor token1"
        }
      ],
      "LengthMismatch()": [
        {
          "notice": "Thrown if the lengths of a set of lists mismatch"
        }
      ],
      "LiquidityPairInvalid()": [
        {
          "notice": "Throws when none of the tokens in the liquidity pair is KP3R"
        }
      ],
      "OnlyGovernor()": [
        {
          "notice": "Thrown if a non-governor user tries to call a OnlyGovernor function"
        }
      ],
      "OnlyPendingGovernor()": [
        {
          "notice": "Thrown if a non-pending-governor user tries to call a OnlyPendingGovernor function"
        }
      ],
      "ZeroAddress()": [
        {
          "notice": "Thrown if an address is the zero address"
        }
      ],
      "ZeroAmount()": [
        {
          "notice": "Thrown if an amount is zero"
        }
      ]
    },
    "events": {
      "Keep3rV2Change(address)": {
        "notice": "Emitted when the Keep3r V2 address is changed"
      },
      "Kp3rWethPoolChange(address,bool)": {
        "notice": "Emitted when the kp3r weth pool is changed"
      },
      "MaxBoostChange(uint256)": {
        "notice": "Emitted when the maximum boost multiplier is changed"
      },
      "MinBaseFeeChange(uint256)": {
        "notice": "Emitted when minimum rewarded gas fee is changed"
      },
      "MinBoostChange(uint256)": {
        "notice": "Emitted when the minimum boost multiplier is changed"
      },
      "MinPriorityFeeChange(uint256)": {
        "notice": "Emitted when minimum rewarded priority fee is changed"
      },
      "OracleSet(address,address)": {
        "notice": "The oracle for a liquidity has been saved"
      },
      "PendingGovernorAccepted(address)": {
        "notice": "Emitted when a new governor is set"
      },
      "PendingGovernorSet(address,address)": {
        "notice": "Emitted when a new pending governor is set"
      },
      "QuoteTwapTimeChange(uint32)": {
        "notice": "Emitted when the quote twap time is changed"
      },
      "TargetBondChange(uint256)": {
        "notice": "Emitted when the target bond amount is changed"
      },
      "WethUSDPoolChange(address,bool,uint8)": {
        "notice": "Emitted when the WETH USD pool is changed"
      },
      "WorkExtraGasChange(uint256)": {
        "notice": "Emitted when the work extra gas amount is changed"
      }
    },
    "kind": "user",
    "methods": {
      "BOOST_BASE()": {
        "notice": "The boost base used to calculate the boost rewards for the keeper"
      },
      "KP3R()": {
        "notice": "Address of KP3R token"
      },
      "WETH()": {
        "notice": "Ethereum mainnet WETH address used for quoting references"
      },
      "acceptPendingGovernor()": {
        "notice": "Allows a proposed governor to accept the governance"
      },
      "bonds(address)": {
        "notice": "Uses valid wKP3R address from Keep3rSidechain to query keeper bonds"
      },
      "getKP3RsAtTick(uint256,int56,uint256)": {
        "notice": "Given a tick and a liquidity amount, calculates the underlying KP3R tokens"
      },
      "getPaymentParams(uint256)": {
        "notice": "Get multiplier, quote, and extra, in order to calculate keeper payment"
      },
      "getPoolTokens(address)": {
        "notice": "Given a pool address, returns the underlying tokens of the pair"
      },
      "getQuoteAtTick(uint128,int56,uint256)": {
        "notice": "Given a tick and a token amount, calculates the output in correspondant token"
      },
      "getRewardAmount(uint256)": {
        "notice": "Calculates the reward (in KP3R) that corresponds to tx.origin for using gas"
      },
      "getRewardAmountFor(address,uint256)": {
        "notice": "Calculates the reward (in KP3R) that corresponds to a keeper for using gas"
      },
      "getRewardBoostFor(uint256)": {
        "notice": "Calculates the boost in the reward given to a keeper based on the amount of KP3R that keeper has bonded"
      },
      "isKP3RToken0(address)": {
        "notice": "Defines the order of the tokens in the pair for twap calculations"
      },
      "keep3rV2()": {
        "notice": "Address of Keep3r V2"
      },
      "kp3rWethPool()": {
        "notice": "KP3R-WETH pool that is being used as oracle"
      },
      "maxBoost()": {
        "notice": "The maximum multiplier used to calculate the amount of gas paid to the Keeper for the gas used to perform a job         For example: if the quoted gas used is 1000, then the maximum amount to be paid will be 1000 * maxBoost / BOOST_BASE"
      },
      "minBaseFee()": {
        "notice": "The minimum base fee that is used to calculate keeper rewards"
      },
      "minBoost()": {
        "notice": "The minimum multiplier used to calculate the amount of gas paid to the Keeper for the gas used to perform a job         For example: if the quoted gas used is 1000, then the minimum amount to be paid will be 1000 * minBoost / BOOST_BASE"
      },
      "minPriorityFee()": {
        "notice": "The minimum priority fee that is also rewarded for keepers"
      },
      "observe(address,uint32[])": {
        "notice": "Given an array of secondsAgo, returns UniswapV3 pool cumulatives at that moment"
      },
      "quote(uint256)": {
        "notice": "Calculates the amount of KP3R that corresponds to the ETH passed into the function"
      },
      "quoteTwapTime()": {
        "notice": "The twap time for quoting"
      },
      "quoteUsdToEth(uint256)": {
        "notice": "Quotes USD to ETH"
      },
      "setKeep3rV2(address)": {
        "notice": "Sets the Keep3r V2 address"
      },
      "setKp3rWethPool(address)": {
        "notice": "Sets KP3R-WETH pool"
      },
      "setMaxBoost(uint256)": {
        "notice": "Sets the maximum boost multiplier"
      },
      "setMinBaseFee(uint256)": {
        "notice": "Sets the minimum rewarded gas fee"
      },
      "setMinBoost(uint256)": {
        "notice": "Sets the minimum boost multiplier"
      },
      "setMinPriorityFee(uint256)": {
        "notice": "Sets the minimum rewarded gas priority fee"
      },
      "setOracle(address,address)": {
        "notice": "Sets an oracle for a given liquidity"
      },
      "setPendingGovernor(address)": {
        "notice": "Allows a governor to propose a new governor"
      },
      "setQuoteTwapTime(uint32)": {
        "notice": "Sets the quote twap time"
      },
      "setTargetBond(uint256)": {
        "notice": "Sets the target bond amount"
      },
      "setWethUsdPool(address,uint8)": {
        "notice": "Sets an oracle for querying WETH/USD quote"
      },
      "setWorkExtraGas(uint256)": {
        "notice": "Sets the work extra gas amount"
      },
      "targetBond()": {
        "notice": "The targeted amount of bonded KP3Rs to max-up reward multiplier         For example: if the amount of KP3R the keeper has bonded is targetBond or more, then the keeper will get                      the maximum boost possible in his rewards, if it's less, the reward boost will be proportional"
      },
      "wethUSDPool()": {
        "notice": "WETH-USD pool that is being used as oracle"
      },
      "workExtraGas()": {
        "notice": "The amount of unaccounted gas that is going to be added to keeper payments"
      }
    },
    "version": 1
  },
  "storageLayout": {
    "storage": [
      {
        "astId": 82,
        "contract": "solidity/contracts/sidechain/Keep3rHelperSidechain.sol:Keep3rHelperSidechain",
        "label": "governor",
        "offset": 0,
        "slot": "0",
        "type": "t_address"
      },
      {
        "astId": 85,
        "contract": "solidity/contracts/sidechain/Keep3rHelperSidechain.sol:Keep3rHelperSidechain",
        "label": "pendingGovernor",
        "offset": 0,
        "slot": "1",
        "type": "t_address"
      },
      {
        "astId": 3288,
        "contract": "solidity/contracts/sidechain/Keep3rHelperSidechain.sol:Keep3rHelperSidechain",
        "label": "minBoost",
        "offset": 0,
        "slot": "2",
        "type": "t_uint256"
      },
      {
        "astId": 3293,
        "contract": "solidity/contracts/sidechain/Keep3rHelperSidechain.sol:Keep3rHelperSidechain",
        "label": "maxBoost",
        "offset": 0,
        "slot": "3",
        "type": "t_uint256"
      },
      {
        "astId": 3298,
        "contract": "solidity/contracts/sidechain/Keep3rHelperSidechain.sol:Keep3rHelperSidechain",
        "label": "targetBond",
        "offset": 0,
        "slot": "4",
        "type": "t_uint256"
      },
      {
        "astId": 3303,
        "contract": "solidity/contracts/sidechain/Keep3rHelperSidechain.sol:Keep3rHelperSidechain",
        "label": "workExtraGas",
        "offset": 0,
        "slot": "5",
        "type": "t_uint256"
      },
      {
        "astId": 3308,
        "contract": "solidity/contracts/sidechain/Keep3rHelperSidechain.sol:Keep3rHelperSidechain",
        "label": "quoteTwapTime",
        "offset": 0,
        "slot": "6",
        "type": "t_uint32"
      },
      {
        "astId": 3313,
        "contract": "solidity/contracts/sidechain/Keep3rHelperSidechain.sol:Keep3rHelperSidechain",
        "label": "minBaseFee",
        "offset": 0,
        "slot": "7",
        "type": "t_uint256"
      },
      {
        "astId": 3318,
        "contract": "solidity/contracts/sidechain/Keep3rHelperSidechain.sol:Keep3rHelperSidechain",
        "label": "minPriorityFee",
        "offset": 0,
        "slot": "8",
        "type": "t_uint256"
      },
      {
        "astId": 3322,
        "contract": "solidity/contracts/sidechain/Keep3rHelperSidechain.sol:Keep3rHelperSidechain",
        "label": "keep3rV2",
        "offset": 0,
        "slot": "9",
        "type": "t_address"
      },
      {
        "astId": 3327,
        "contract": "solidity/contracts/sidechain/Keep3rHelperSidechain.sol:Keep3rHelperSidechain",
        "label": "kp3rWethPool",
        "offset": 0,
        "slot": "10",
        "type": "t_struct(Kp3rWethOraclePool)12965_storage"
      },
      {
        "astId": 9888,
        "contract": "solidity/contracts/sidechain/Keep3rHelperSidechain.sol:Keep3rHelperSidechain",
        "label": "oracle",
        "offset": 0,
        "slot": "11",
        "type": "t_mapping(t_address,t_address)"
      },
      {
        "astId": 9893,
        "contract": "solidity/contracts/sidechain/Keep3rHelperSidechain.sol:Keep3rHelperSidechain",
        "label": "wethUSDPool",
        "offset": 0,
        "slot": "12",
        "type": "t_struct(WethUsdOraclePool)15476_storage"
      }
    ],
    "types": {
      "t_address": {
        "encoding": "inplace",
        "label": "address",
        "numberOfBytes": "20"
      },
      "t_bool": {
        "encoding": "inplace",
        "label": "bool",
        "numberOfBytes": "1"
      },
      "t_mapping(t_address,t_address)": {
        "encoding": "mapping",
        "key": "t_address",
        "label": "mapping(address => address)",
        "numberOfBytes": "32",
        "value": "t_address"
      },
      "t_struct(Kp3rWethOraclePool)12965_storage": {
        "encoding": "inplace",
        "label": "struct IKeep3rHelperParameters.Kp3rWethOraclePool",
        "members": [
          {
            "astId": 12962,
            "contract": "solidity/contracts/sidechain/Keep3rHelperSidechain.sol:Keep3rHelperSidechain",
            "label": "poolAddress",
            "offset": 0,
            "slot": "0",
            "type": "t_address"
          },
          {
            "astId": 12964,
            "contract": "solidity/contracts/sidechain/Keep3rHelperSidechain.sol:Keep3rHelperSidechain",
            "label": "isKP3RToken0",
            "offset": 20,
            "slot": "0",
            "type": "t_bool"
          }
        ],
        "numberOfBytes": "32"
      },
      "t_struct(WethUsdOraclePool)15476_storage": {
        "encoding": "inplace",
        "label": "struct IKeep3rHelperSidechain.WethUsdOraclePool",
        "members": [
          {
            "astId": 15471,
            "contract": "solidity/contracts/sidechain/Keep3rHelperSidechain.sol:Keep3rHelperSidechain",
            "label": "poolAddress",
            "offset": 0,
            "slot": "0",
            "type": "t_address"
          },
          {
            "astId": 15473,
            "contract": "solidity/contracts/sidechain/Keep3rHelperSidechain.sol:Keep3rHelperSidechain",
            "label": "isWETHToken0",
            "offset": 20,
            "slot": "0",
            "type": "t_bool"
          },
          {
            "astId": 15475,
            "contract": "solidity/contracts/sidechain/Keep3rHelperSidechain.sol:Keep3rHelperSidechain",
            "label": "usdDecimals",
            "offset": 21,
            "slot": "0",
            "type": "t_uint8"
          }
        ],
        "numberOfBytes": "32"
      },
      "t_uint256": {
        "encoding": "inplace",
        "label": "uint256",
        "numberOfBytes": "32"
      },
      "t_uint32": {
        "encoding": "inplace",
        "label": "uint32",
        "numberOfBytes": "4"
      },
      "t_uint8": {
        "encoding": "inplace",
        "label": "uint8",
        "numberOfBytes": "1"
      }
    }
  }
}