{
  "address": "0xDBc6501645407CF4D3af383FbD5Bf7586b135d81",
  "abi": [
    {
      "inputs": [
        {
          "internalType": "address",
          "name": "_governor",
          "type": "address"
        },
        {
          "internalType": "address",
          "name": "_wKP3R",
          "type": "address"
        }
      ],
      "stateMutability": "nonpayable",
      "type": "constructor"
    },
    {
      "inputs": [],
      "name": "InsufficientBalance",
      "type": "error"
    },
    {
      "inputs": [],
      "name": "InvalidAddress",
      "type": "error"
    },
    {
      "inputs": [],
      "name": "InvalidAmount",
      "type": "error"
    },
    {
      "inputs": [],
      "name": "LengthMismatch",
      "type": "error"
    },
    {
      "inputs": [],
      "name": "OnlyGovernor",
      "type": "error"
    },
    {
      "inputs": [],
      "name": "OnlyMinter",
      "type": "error"
    },
    {
      "inputs": [],
      "name": "OnlyPendingGovernor",
      "type": "error"
    },
    {
      "inputs": [],
      "name": "ZeroAddress",
      "type": "error"
    },
    {
      "inputs": [],
      "name": "ZeroAmount",
      "type": "error"
    },
    {
      "anonymous": false,
      "inputs": [
        {
          "indexed": false,
          "internalType": "address",
          "name": "_token",
          "type": "address"
        },
        {
          "indexed": false,
          "internalType": "uint256",
          "name": "_amount",
          "type": "uint256"
        },
        {
          "indexed": false,
          "internalType": "address",
          "name": "_to",
          "type": "address"
        }
      ],
      "name": "DustSent",
      "type": "event"
    },
    {
      "anonymous": false,
      "inputs": [
        {
          "indexed": false,
          "internalType": "address",
          "name": "_minter",
          "type": "address"
        }
      ],
      "name": "MinterSet",
      "type": "event"
    },
    {
      "anonymous": false,
      "inputs": [
        {
          "indexed": false,
          "internalType": "address",
          "name": "_newGovernor",
          "type": "address"
        }
      ],
      "name": "PendingGovernorAccepted",
      "type": "event"
    },
    {
      "anonymous": false,
      "inputs": [
        {
          "indexed": false,
          "internalType": "address",
          "name": "_governor",
          "type": "address"
        },
        {
          "indexed": false,
          "internalType": "address",
          "name": "_pendingGovernor",
          "type": "address"
        }
      ],
      "name": "PendingGovernorSet",
      "type": "event"
    },
    {
      "anonymous": false,
      "inputs": [
        {
          "indexed": false,
          "internalType": "address",
          "name": "_wKP3R",
          "type": "address"
        },
        {
          "indexed": false,
          "internalType": "address",
          "name": "_sender",
          "type": "address"
        },
        {
          "indexed": false,
          "internalType": "uint256",
          "name": "_amount",
          "type": "uint256"
        }
      ],
      "name": "wKP3RDeposited",
      "type": "event"
    },
    {
      "anonymous": false,
      "inputs": [
        {
          "indexed": false,
          "internalType": "address",
          "name": "_wKP3R",
          "type": "address"
        },
        {
          "indexed": false,
          "internalType": "address",
          "name": "_recipient",
          "type": "address"
        },
        {
          "indexed": false,
          "internalType": "uint256",
          "name": "_amount",
          "type": "uint256"
        }
      ],
      "name": "wKP3RMinted",
      "type": "event"
    },
    {
      "anonymous": false,
      "inputs": [
        {
          "indexed": false,
          "internalType": "address",
          "name": "_newWKP3R",
          "type": "address"
        }
      ],
      "name": "wKP3RSet",
      "type": "event"
    },
    {
      "inputs": [],
      "name": "ETH_ADDRESS",
      "outputs": [
        {
          "internalType": "address",
          "name": "",
          "type": "address"
        }
      ],
      "stateMutability": "view",
      "type": "function"
    },
    {
      "inputs": [],
      "name": "acceptPendingGovernor",
      "outputs": [],
      "stateMutability": "nonpayable",
      "type": "function"
    },
    {
      "inputs": [
        {
          "internalType": "uint256",
          "name": "_amount",
          "type": "uint256"
        }
      ],
      "name": "deposit",
      "outputs": [],
      "stateMutability": "nonpayable",
      "type": "function"
    },
    {
      "inputs": [],
      "name": "governor",
      "outputs": [
        {
          "internalType": "address",
          "name": "",
          "type": "address"
        }
      ],
      "stateMutability": "view",
      "type": "function"
    },
    {
      "inputs": [
        {
          "internalType": "uint256",
          "name": "_amount",
          "type": "uint256"
        }
      ],
      "name": "mint",
      "outputs": [],
      "stateMutability": "nonpayable",
      "type": "function"
    },
    {
      "inputs": [],
      "name": "minter",
      "outputs": [
        {
          "internalType": "address",
          "name": "",
          "type": "address"
        }
      ],
      "stateMutability": "view",
      "type": "function"
    },
    {
      "inputs": [],
      "name": "pendingGovernor",
      "outputs": [
        {
          "internalType": "address",
          "name": "",
          "type": "address"
        }
      ],
      "stateMutability": "view",
      "type": "function"
    },
    {
      "inputs": [
        {
          "internalType": "address",
          "name": "_token",
          "type": "address"
        },
        {
          "internalType": "uint256",
          "name": "_amount",
          "type": "uint256"
        },
        {
          "internalType": "address",
          "name": "_to",
          "type": "address"
        }
      ],
      "name": "sendDust",
      "outputs": [],
      "stateMutability": "nonpayable",
      "type": "function"
    },
    {
      "inputs": [
        {
          "internalType": "address",
          "name": "_minter",
          "type": "address"
        }
      ],
      "name": "setMinter",
      "outputs": [],
      "stateMutability": "nonpayable",
      "type": "function"
    },
    {
      "inputs": [
        {
          "internalType": "address",
          "name": "_pendingGovernor",
          "type": "address"
        }
      ],
      "name": "setPendingGovernor",
      "outputs": [],
      "stateMutability": "nonpayable",
      "type": "function"
    },
    {
      "inputs": [
        {
          "internalType": "address",
          "name": "_wKP3R",
          "type": "address"
        }
      ],
      "name": "setWKP3R",
      "outputs": [],
      "stateMutability": "nonpayable",
      "type": "function"
    },
    {
      "inputs": [],
      "name": "wKP3R",
      "outputs": [
        {
          "internalType": "address",
          "name": "",
          "type": "address"
        }
      ],
      "stateMutability": "view",
      "type": "function"
    }
  ],
  "transactionHash": "0x90beb78c831c2aabff3a4dc96ad0a219804d0343fdcac671156051a1eff2ab69",
  "args": [
    "0x9A040a31bc38919D50FD740973dBB6F8fdee1426",
    "0x4a2bE2075588BcE6A7E072574698a7DbbAc39b08"
  ],
  "numDeployments": 1,
  "solcInputHash": "3a869c3b827b38468356d50761a61b47",
  "bytecode": "0x608060405234801561001057600080fd5b50604051610b92380380610b9283398101604081905261002f916100ac565b81806001600160a01b0381166100585760405163d92e233d60e01b815260040160405180910390fd5b600080546001600160a01b039283166001600160a01b0319918216179091556003805494909216931692909217909155506100df9050565b80516001600160a01b03811681146100a757600080fd5b919050565b600080604083850312156100bf57600080fd5b6100c883610090565b91506100d660208401610090565b90509250929050565b610aa4806100ee6000396000f3fe608060405234801561001057600080fd5b50600436106100b45760003560e01c8063a734f06e11610071578063a734f06e1461013e578063b509ec4514610159578063b6b55f251461016c578063e3056a341461017f578063f235757f14610192578063fca3b5aa146101a557600080fd5b806307546172146100b95780630c340a24146100e857806313f6986d146100fb5780632131606414610105578063966abd0014610118578063a0712d681461012b575b600080fd5b6002546100cc906001600160a01b031681565b6040516001600160a01b03909116815260200160405180910390f35b6000546100cc906001600160a01b031681565b6101036101b8565b005b610103610113366004610961565b6101ed565b61010361012636600461097c565b610294565b6101036101393660046109b8565b6103aa565b6100cc73eeeeeeeeeeeeeeeeeeeeeeeeeeeeeeeeeeeeeeee81565b6003546100cc906001600160a01b031681565b61010361017a3660046109b8565b610435565b6001546100cc906001600160a01b031681565b6101036101a0366004610961565b610496565b6101036101b3366004610961565b6104cd565b6001546001600160a01b031633146101e357604051639ba0305d60e01b815260040160405180910390fd5b6101eb61056d565b565b6000546001600160a01b031633146102185760405163070545c960e51b815260040160405180910390fd5b6001600160a01b03811661023f5760405163d92e233d60e01b815260040160405180910390fd5b600380546001600160a01b0319166001600160a01b0383169081179091556040519081527f8592ade84fad7cc1c020f9783980e05e1be8bf3c0b6b557f3f5d5b48b5147647906020015b60405180910390a150565b6000546001600160a01b031633146102bf5760405163070545c960e51b815260040160405180910390fd5b6001600160a01b0381166102e65760405163d92e233d60e01b815260040160405180910390fd5b6001600160a01b03831673eeeeeeeeeeeeeeeeeeeeeeeeeeeeeeeeeeeeeeee1415610347576040516001600160a01b0382169083156108fc029084906000818181858888f19350505050158015610341573d6000803e3d6000fd5b5061035b565b61035b6001600160a01b03841682846105cb565b604080516001600160a01b0385811682526020820185905283168183015290517f9a3055ded8c8b5f21bbf4946c5afab6e1fa8b3f057922658e5e1ade125fb0b1e9181900360600190a1505050565b6002546001600160a01b031633146103d557604051639cdc2ed560e01b815260040160405180910390fd5b6003546103ec906001600160a01b031633836105cb565b600354604080516001600160a01b03909216825233602083015281018290527f5c5d429f40d64606e3af1c2373aa5f5b0846566f2bb3871dcccf094850ed4fc890606001610289565b60035461044d906001600160a01b0316333084610633565b600354604080516001600160a01b03909216825233602083015281018290527fb0c9218af42df0588074c7f30948dd6d1293a5ef42e7762e83d62c5daa7c9b8490606001610289565b6000546001600160a01b031633146104c15760405163070545c960e51b815260040160405180910390fd5b6104ca81610671565b50565b6000546001600160a01b031633146104f85760405163070545c960e51b815260040160405180910390fd5b6001600160a01b03811661051f5760405163d92e233d60e01b815260040160405180910390fd5b600280546001600160a01b0319166001600160a01b0383169081179091556040519081527f726b590ef91a8c76ad05bbe91a57ef84605276528f49cd47d787f558a4e755b690602001610289565b60018054600080546001600160a01b0383166001600160a01b031991821681179092559091169091556040519081527f5d5d6e01b731c3e68060f7fe13156f6197d4aeffc2d6f498e34c717ae616b7349060200160405180910390a1565b6040516001600160a01b03831660248201526044810182905261062e90849063a9059cbb60e01b906064015b60408051601f198184030181529190526020810180516001600160e01b03166001600160e01b0319909316929092179091526106f4565b505050565b6040516001600160a01b038085166024830152831660448201526064810182905261066b9085906323b872dd60e01b906084016105f7565b50505050565b6001600160a01b0381166106985760405163d92e233d60e01b815260040160405180910390fd5b600180546001600160a01b0319166001600160a01b038381169182179092556000546040805191909316815260208101919091527f6353ec38ac394f8be94bfafcdd3580d356470599059eaeebedc3207e1cc03dec9101610289565b6000610749826040518060400160405280602081526020017f5361666545524332303a206c6f772d6c6576656c2063616c6c206661696c6564815250856001600160a01b03166107cb9092919063ffffffff16565b80519091501561062e578080602001905181019061076791906109d1565b61062e5760405162461bcd60e51b815260206004820152602a60248201527f5361666545524332303a204552433230206f7065726174696f6e20646964206e6044820152691bdd081cdd58d8d9595960b21b60648201526084015b60405180910390fd5b60606107da84846000856107e4565b90505b9392505050565b6060824710156108455760405162461bcd60e51b815260206004820152602660248201527f416464726573733a20696e73756666696369656e742062616c616e636520666f6044820152651c8818d85b1b60d21b60648201526084016107c2565b843b6108935760405162461bcd60e51b815260206004820152601d60248201527f416464726573733a2063616c6c20746f206e6f6e2d636f6e747261637400000060448201526064016107c2565b600080866001600160a01b031685876040516108af9190610a1f565b60006040518083038185875af1925050503d80600081146108ec576040519150601f19603f3d011682016040523d82523d6000602084013e6108f1565b606091505b509150915061090182828661090c565b979650505050505050565b6060831561091b5750816107dd565b82511561092b5782518084602001fd5b8160405162461bcd60e51b81526004016107c29190610a3b565b80356001600160a01b038116811461095c57600080fd5b919050565b60006020828403121561097357600080fd5b6107dd82610945565b60008060006060848603121561099157600080fd5b61099a84610945565b9250602084013591506109af60408501610945565b90509250925092565b6000602082840312156109ca57600080fd5b5035919050565b6000602082840312156109e357600080fd5b815180151581146107dd57600080fd5b60005b83811015610a0e5781810151838201526020016109f6565b8381111561066b5750506000910152565b60008251610a318184602087016109f3565b9190910192915050565b6020815260008251806020840152610a5a8160408501602087016109f3565b601f01601f1916919091016040019291505056fea2646970667358221220f434ab00043d895f70b777dbc3d2b90244ba2004f042a55d3494310dc78ef28564736f6c63430008080033",
  "devdoc": {
    "kind": "dev",
    "methods": {
      "constructor": {
        "params": {
          "_governor": "Address of governor",
          "_wKP3R": "Address of wrapped KP3R implementation"
        }
      },
      "deposit(uint256)": {
        "params": {
          "_amount": "The amount of wKP3R to deposit"
        }
      },
      "mint(uint256)": {
        "params": {
          "_amount": "The amount of wKP3R to mint"
        }
      },
      "sendDust(address,uint256,address)": {
        "params": {
          "_amount": "The amont of the token that will be transferred",
          "_to": "The address that will receive the idle funds",
          "_token": "The token that will be transferred"
        }
      },
      "setMinter(address)": {
        "params": {
          "_minter": "The address set as the minter"
        }
      },
      "setPendingGovernor(address)": {
        "params": {
          "_pendingGovernor": "Address of the proposed new governor"
        }
      },
      "setWKP3R(address)": {
        "params": {
          "_wKP3R": "the wKP3R address"
        }
      }
    },
    "stateVariables": {
      "wKP3R": {
        "return": "_wKP3RAddress The address of wKP3R",
        "returns": {
          "_0": "_wKP3RAddress The address of wKP3R"
        }
      }
    },
    "version": 1
  },
  "userdoc": {
    "errors": {
      "InsufficientBalance()": [
        {
          "notice": "Throws when minter attempts to withdraw more wKP3R than the escrow has in its balance"
        }
      ],
      "InvalidAddress()": [
        {
          "notice": "Thrown if an address is invalid"
        }
      ],
      "InvalidAmount()": [
        {
          "notice": "Thrown if an amount is invalid"
        }
      ],
      "LengthMismatch()": [
        {
          "notice": "Thrown if the lengths of a set of lists mismatch"
        }
      ],
      "OnlyGovernor()": [
        {
          "notice": "Thrown if a non-governor user tries to call a OnlyGovernor function"
        }
      ],
      "OnlyMinter()": [
        {
          "notice": "Throws if the caller of the function is not the minter"
        }
      ],
      "OnlyPendingGovernor()": [
        {
          "notice": "Thrown if a non-pending-governor user tries to call a OnlyPendingGovernor function"
        }
      ],
      "ZeroAddress()": [
        {
          "notice": "Thrown if an address is the zero address"
        }
      ],
      "ZeroAmount()": [
        {
          "notice": "Thrown if an amount is zero"
        }
      ]
    },
    "events": {
      "DustSent(address,uint256,address)": {
        "notice": "Emitted when dust is sent"
      },
      "MinterSet(address)": {
        "notice": "Emitted when governor sets a new minter"
      },
      "PendingGovernorAccepted(address)": {
        "notice": "Emitted when a new governor is set"
      },
      "PendingGovernorSet(address,address)": {
        "notice": "Emitted when a new pending governor is set"
      },
      "wKP3RDeposited(address,address,uint256)": {
        "notice": "Emitted when Keep3rEscrow#deposit function is called"
      },
      "wKP3RMinted(address,address,uint256)": {
        "notice": "Emitted when Keep3rEscrow#mint function is called"
      },
      "wKP3RSet(address)": {
        "notice": "Emitted when Keep3rEscrow#setWKP3R function is called"
      }
    },
    "kind": "user",
    "methods": {
      "acceptPendingGovernor()": {
        "notice": "Allows a proposed governor to accept the governance"
      },
      "deposit(uint256)": {
        "notice": "Deposits wKP3R into the contract"
      },
      "mint(uint256)": {
        "notice": "mints wKP3R to the recipient"
      },
      "minter()": {
        "notice": "Stores the minter address"
      },
      "sendDust(address,uint256,address)": {
        "notice": "Allows an authorized user to transfer the tokens or eth that may have been left in a contract"
      },
      "setMinter(address)": {
        "notice": "Sets a new address to be the minter"
      },
      "setPendingGovernor(address)": {
        "notice": "Allows a governor to propose a new governor"
      },
      "setWKP3R(address)": {
        "notice": "sets the wKP3R address"
      },
      "wKP3R()": {
        "notice": "Lists the address of the wKP3R contract"
      }
    },
    "version": 1
  },
  "storageLayout": {
    "storage": [
      {
        "astId": 82,
        "contract": "solidity/contracts/sidechain/Keep3rEscrow.sol:Keep3rEscrow",
        "label": "governor",
        "offset": 0,
        "slot": "0",
        "type": "t_address"
      },
      {
        "astId": 85,
        "contract": "solidity/contracts/sidechain/Keep3rEscrow.sol:Keep3rEscrow",
        "label": "pendingGovernor",
        "offset": 0,
        "slot": "1",
        "type": "t_address"
      },
      {
        "astId": 6322,
        "contract": "solidity/contracts/sidechain/Keep3rEscrow.sol:Keep3rEscrow",
        "label": "minter",
        "offset": 0,
        "slot": "2",
        "type": "t_address"
      },
      {
        "astId": 9775,
        "contract": "solidity/contracts/sidechain/Keep3rEscrow.sol:Keep3rEscrow",
        "label": "wKP3R",
        "offset": 0,
        "slot": "3",
        "type": "t_address"
      }
    ],
    "types": {
      "t_address": {
        "encoding": "inplace",
        "label": "address",
        "numberOfBytes": "20"
      }
    }
  }
}