{
  "address": "0xDBc6501645407CF4D3af383FbD5Bf7586b135d81",
  "abi": [
    {
      "inputs": [
        {
          "internalType": "address",
          "name": "_governance",
          "type": "address"
        },
        {
          "internalType": "address",
          "name": "_wKP3R",
          "type": "address"
        }
      ],
      "stateMutability": "nonpayable",
      "type": "constructor"
    },
    {
      "inputs": [],
      "name": "InsufficientBalance",
      "type": "error"
    },
    {
      "inputs": [],
      "name": "NoGovernanceZeroAddress",
      "type": "error"
    },
    {
      "inputs": [],
      "name": "OnlyGovernance",
      "type": "error"
    },
    {
      "inputs": [],
      "name": "OnlyMinter",
      "type": "error"
    },
    {
      "inputs": [],
      "name": "OnlyPendingGovernance",
      "type": "error"
    },
    {
      "inputs": [],
      "name": "ZeroAddress",
      "type": "error"
    },
    {
      "anonymous": false,
      "inputs": [
        {
          "indexed": false,
          "internalType": "address",
          "name": "_token",
          "type": "address"
        },
        {
          "indexed": false,
          "internalType": "uint256",
          "name": "_amount",
          "type": "uint256"
        },
        {
          "indexed": false,
          "internalType": "address",
          "name": "_to",
          "type": "address"
        }
      ],
      "name": "DustSent",
      "type": "event"
    },
    {
      "anonymous": false,
      "inputs": [
        {
          "indexed": false,
          "internalType": "address",
          "name": "_pendingGovernance",
          "type": "address"
        }
      ],
      "name": "GovernanceProposal",
      "type": "event"
    },
    {
      "anonymous": false,
      "inputs": [
        {
          "indexed": false,
          "internalType": "address",
          "name": "_governance",
          "type": "address"
        }
      ],
      "name": "GovernanceSet",
      "type": "event"
    },
    {
      "anonymous": false,
      "inputs": [
        {
          "indexed": false,
          "internalType": "address",
          "name": "_minter",
          "type": "address"
        }
      ],
      "name": "MinterSet",
      "type": "event"
    },
    {
      "anonymous": false,
      "inputs": [
        {
          "indexed": false,
          "internalType": "address",
          "name": "_wKP3R",
          "type": "address"
        },
        {
          "indexed": false,
          "internalType": "address",
          "name": "_sender",
          "type": "address"
        },
        {
          "indexed": false,
          "internalType": "uint256",
          "name": "_amount",
          "type": "uint256"
        }
      ],
      "name": "wKP3RDeposited",
      "type": "event"
    },
    {
      "anonymous": false,
      "inputs": [
        {
          "indexed": false,
          "internalType": "address",
          "name": "_wKP3R",
          "type": "address"
        },
        {
          "indexed": false,
          "internalType": "address",
          "name": "_recipient",
          "type": "address"
        },
        {
          "indexed": false,
          "internalType": "uint256",
          "name": "_amount",
          "type": "uint256"
        }
      ],
      "name": "wKP3RMinted",
      "type": "event"
    },
    {
      "anonymous": false,
      "inputs": [
        {
          "indexed": false,
          "internalType": "address",
          "name": "_newWKP3R",
          "type": "address"
        }
      ],
      "name": "wKP3RSet",
      "type": "event"
    },
    {
      "inputs": [],
      "name": "acceptGovernance",
      "outputs": [],
      "stateMutability": "nonpayable",
      "type": "function"
    },
    {
      "inputs": [
        {
          "internalType": "uint256",
          "name": "_amount",
          "type": "uint256"
        }
      ],
      "name": "deposit",
      "outputs": [],
      "stateMutability": "nonpayable",
      "type": "function"
    },
    {
      "inputs": [],
      "name": "governance",
      "outputs": [
        {
          "internalType": "address",
          "name": "",
          "type": "address"
        }
      ],
      "stateMutability": "view",
      "type": "function"
    },
    {
      "inputs": [
        {
          "internalType": "uint256",
          "name": "_amount",
          "type": "uint256"
        }
      ],
      "name": "mint",
      "outputs": [],
      "stateMutability": "nonpayable",
      "type": "function"
    },
    {
      "inputs": [],
      "name": "minter",
      "outputs": [
        {
          "internalType": "address",
          "name": "",
          "type": "address"
        }
      ],
      "stateMutability": "view",
      "type": "function"
    },
    {
      "inputs": [],
      "name": "pendingGovernance",
      "outputs": [
        {
          "internalType": "address",
          "name": "",
          "type": "address"
        }
      ],
      "stateMutability": "view",
      "type": "function"
    },
    {
      "inputs": [
        {
          "internalType": "address",
          "name": "_token",
          "type": "address"
        },
        {
          "internalType": "uint256",
          "name": "_amount",
          "type": "uint256"
        },
        {
          "internalType": "address",
          "name": "_to",
          "type": "address"
        }
      ],
      "name": "sendDust",
      "outputs": [],
      "stateMutability": "nonpayable",
      "type": "function"
    },
    {
      "inputs": [
        {
          "internalType": "address",
          "name": "_governance",
          "type": "address"
        }
      ],
      "name": "setGovernance",
      "outputs": [],
      "stateMutability": "nonpayable",
      "type": "function"
    },
    {
      "inputs": [
        {
          "internalType": "address",
          "name": "_minter",
          "type": "address"
        }
      ],
      "name": "setMinter",
      "outputs": [],
      "stateMutability": "nonpayable",
      "type": "function"
    },
    {
      "inputs": [
        {
          "internalType": "address",
          "name": "_wKP3R",
          "type": "address"
        }
      ],
      "name": "setWKP3R",
      "outputs": [],
      "stateMutability": "nonpayable",
      "type": "function"
    },
    {
      "inputs": [],
      "name": "wKP3R",
      "outputs": [
        {
          "internalType": "address",
          "name": "",
          "type": "address"
        }
      ],
      "stateMutability": "view",
      "type": "function"
    }
  ],
  "transactionHash": "0x643cdd83070bedbd129bc9d1cdf807ae7d28c447d784bb9fa54d0ae26f227834",
  "args": [
    "0x7d6daDb31dBeBc68c8A0b2cCfE5C1f26F24bD41d",
    "0x74bcb73fA7010EB523a81feE2bB23EaB3d12c2f8"
  ],
  "numDeployments": 1,
  "solcInputHash": "aa1ee30f4d8e78611039940e35c6db8b",
  "bytecode": "0x608060405234801561001057600080fd5b50604051610b20380380610b2083398101604081905261002f916100ab565b81806001600160a01b0381166100575760405162b293ed60e81b815260040160405180910390fd5b600080546001600160a01b039283166001600160a01b0319918216179091556003805494909216931692909217909155506100de9050565b80516001600160a01b03811681146100a657600080fd5b919050565b600080604083850312156100be57600080fd5b6100c78361008f565b91506100d56020840161008f565b90509250929050565b610a33806100ed6000396000f3fe608060405234801561001057600080fd5b50600436106100a95760003560e01c8063a0712d6811610071578063a0712d6814610120578063ab033ea914610133578063b509ec4514610146578063b6b55f2514610159578063f39c38a01461016c578063fca3b5aa1461017f57600080fd5b806307546172146100ae57806321316064146100dd578063238efcbc146100f25780635aa6e675146100fa578063966abd001461010d575b600080fd5b6002546100c1906001600160a01b031681565b6040516001600160a01b03909116815260200160405180910390f35b6100f06100eb3660046108f0565b610192565b005b6100f0610239565b6000546100c1906001600160a01b031681565b6100f061011b36600461090b565b6102c2565b6100f061012e366004610969565b6103d8565b6100f06101413660046108f0565b610463565b6003546100c1906001600160a01b031681565b6100f0610167366004610969565b6104dc565b6001546100c1906001600160a01b031681565b6100f061018d3660046108f0565b61053d565b6000546001600160a01b031633146101bd576040516354348f0360e01b815260040160405180910390fd5b6001600160a01b0381166101e45760405163d92e233d60e01b815260040160405180910390fd5b600380546001600160a01b0319166001600160a01b0383169081179091556040519081527f8592ade84fad7cc1c020f9783980e05e1be8bf3c0b6b557f3f5d5b48b5147647906020015b60405180910390a150565b6001546001600160a01b0316331461026457604051637ef5703160e11b815260040160405180910390fd5b60018054600080546001600160a01b0383166001600160a01b031991821681179092559091169091556040519081527fc73be659241aade67e9a059bcf21494955018b213dbd1179054ccf928b13f3b69060200160405180910390a1565b6000546001600160a01b031633146102ed576040516354348f0360e01b815260040160405180910390fd5b6001600160a01b0381166103145760405163d92e233d60e01b815260040160405180910390fd5b6001600160a01b03831673eeeeeeeeeeeeeeeeeeeeeeeeeeeeeeeeeeeeeeee1415610375576040516001600160a01b0382169083156108fc029084906000818181858888f1935050505015801561036f573d6000803e3d6000fd5b50610389565b6103896001600160a01b03841682846105dd565b604080516001600160a01b0385811682526020820185905283168183015290517f9a3055ded8c8b5f21bbf4946c5afab6e1fa8b3f057922658e5e1ade125fb0b1e9181900360600190a1505050565b6002546001600160a01b0316331461040357604051639cdc2ed560e01b815260040160405180910390fd5b60035461041a906001600160a01b031633836105dd565b600354604080516001600160a01b03909216825233602083015281018290527f5c5d429f40d64606e3af1c2373aa5f5b0846566f2bb3871dcccf094850ed4fc89060600161022e565b6000546001600160a01b0316331461048e576040516354348f0360e01b815260040160405180910390fd5b600180546001600160a01b0319166001600160a01b0383169081179091556040519081527fe987aaedf9d279143bdf1eee16cf1d0feb47742867d81083df8d6cd0a5ac857f9060200161022e565b6003546104f4906001600160a01b0316333084610645565b600354604080516001600160a01b03909216825233602083015281018290527fb0c9218af42df0588074c7f30948dd6d1293a5ef42e7762e83d62c5daa7c9b849060600161022e565b6000546001600160a01b03163314610568576040516354348f0360e01b815260040160405180910390fd5b6001600160a01b03811661058f5760405163d92e233d60e01b815260040160405180910390fd5b600280546001600160a01b0319166001600160a01b0383169081179091556040519081527f726b590ef91a8c76ad05bbe91a57ef84605276528f49cd47d787f558a4e755b69060200161022e565b6040516001600160a01b03831660248201526044810182905261064090849063a9059cbb60e01b906064015b60408051601f198184030181529190526020810180516001600160e01b03166001600160e01b031990931692909217909152610683565b505050565b6040516001600160a01b038085166024830152831660448201526064810182905261067d9085906323b872dd60e01b90608401610609565b50505050565b60006106d8826040518060400160405280602081526020017f5361666545524332303a206c6f772d6c6576656c2063616c6c206661696c6564815250856001600160a01b031661075a9092919063ffffffff16565b80519091501561064057808060200190518101906106f69190610947565b6106405760405162461bcd60e51b815260206004820152602a60248201527f5361666545524332303a204552433230206f7065726174696f6e20646964206e6044820152691bdd081cdd58d8d9595960b21b60648201526084015b60405180910390fd5b60606107698484600085610773565b90505b9392505050565b6060824710156107d45760405162461bcd60e51b815260206004820152602660248201527f416464726573733a20696e73756666696369656e742062616c616e636520666f6044820152651c8818d85b1b60d21b6064820152608401610751565b843b6108225760405162461bcd60e51b815260206004820152601d60248201527f416464726573733a2063616c6c20746f206e6f6e2d636f6e74726163740000006044820152606401610751565b600080866001600160a01b0316858760405161083e9190610982565b60006040518083038185875af1925050503d806000811461087b576040519150601f19603f3d011682016040523d82523d6000602084013e610880565b606091505b509150915061089082828661089b565b979650505050505050565b606083156108aa57508161076c565b8251156108ba5782518084602001fd5b8160405162461bcd60e51b8152600401610751919061099e565b80356001600160a01b03811681146108eb57600080fd5b919050565b60006020828403121561090257600080fd5b61076c826108d4565b60008060006060848603121561092057600080fd5b610929846108d4565b92506020840135915061093e604085016108d4565b90509250925092565b60006020828403121561095957600080fd5b8151801515811461076c57600080fd5b60006020828403121561097b57600080fd5b5035919050565b600082516109948184602087016109d1565b9190910192915050565b60208152600082518060208401526109bd8160408501602087016109d1565b601f01601f19169190910160400192915050565b60005b838110156109ec5781810151838201526020016109d4565b8381111561067d575050600091015256fea2646970667358221220440d01c7061b90b70e2f708b93a96dfa66993b2443aa5c5a3a0267ce92aeadcb64736f6c63430008070033",
  "devdoc": {
    "kind": "dev",
    "methods": {
      "constructor": {
        "params": {
          "_governance": "Address of governance",
          "_wKP3R": "Address of wrapped KP3R implementation"
        }
      },
      "deposit(uint256)": {
        "params": {
          "_amount": "The amount of wKP3R to deposit"
        }
      },
      "mint(uint256)": {
        "params": {
          "_amount": "The amount of wKP3R to mint"
        }
      },
      "sendDust(address,uint256,address)": {
        "params": {
          "_amount": "The amount of the token that will be transferred",
          "_to": "The address that will receive the idle funds",
          "_token": "The token that will be transferred"
        }
      },
      "setGovernance(address)": {
        "params": {
          "_governance": "The address being proposed as the new governance"
        }
      },
      "setMinter(address)": {
        "params": {
          "_minter": "The address set as the minter"
        }
      },
      "setWKP3R(address)": {
        "params": {
          "_wKP3R": "the wKP3R address"
        }
      }
    },
    "stateVariables": {
      "wKP3R": {
        "return": "_wKP3RAddress The address of wKP3R",
        "returns": {
          "_0": "_wKP3RAddress The address of wKP3R"
        }
      }
    },
    "version": 1
  },
  "userdoc": {
    "errors": {
      "InsufficientBalance()": [
        {
          "notice": "Throws when minter attempts to withdraw more wKP3R than the escrow has in its balance"
        }
      ],
      "NoGovernanceZeroAddress()": [
        {
          "notice": "Throws if trying to set governance to zero address"
        }
      ],
      "OnlyGovernance()": [
        {
          "notice": "Throws if the caller of the function is not governance"
        }
      ],
      "OnlyMinter()": [
        {
          "notice": "Throws if the caller of the function is not the minter"
        }
      ],
      "OnlyPendingGovernance()": [
        {
          "notice": "Throws if the caller of the function is not pendingGovernance"
        }
      ],
      "ZeroAddress()": [
        {
          "notice": "Throws if a variable is assigned to the zero address"
        }
      ]
    },
    "events": {
      "DustSent(address,uint256,address)": {
        "notice": "Emitted when dust is sent"
      },
      "GovernanceProposal(address)": {
        "notice": "Emitted when a new governance is proposed"
      },
      "GovernanceSet(address)": {
        "notice": "Emitted when pendingGovernance accepts to be governance"
      },
      "MinterSet(address)": {
        "notice": "Emitted when governance sets a new minter"
      },
      "wKP3RDeposited(address,address,uint256)": {
        "notice": "Emitted when Keep3rEscrow#deposit function is called"
      },
      "wKP3RMinted(address,address,uint256)": {
        "notice": "Emitted when Keep3rEscrow#mint function is called"
      },
      "wKP3RSet(address)": {
        "notice": "Emitted when Keep3rEscrow#setWKP3R function is called"
      }
    },
    "kind": "user",
    "methods": {
      "acceptGovernance()": {
        "notice": "Changes the governance from the current governance to the previously proposed address"
      },
      "deposit(uint256)": {
        "notice": "Deposits wKP3R into the contract"
      },
      "governance()": {
        "notice": "Stores the governance address"
      },
      "mint(uint256)": {
        "notice": "mints wKP3R to the recipient"
      },
      "minter()": {
        "notice": "Stores the minter address"
      },
      "pendingGovernance()": {
        "notice": "Stores the pendingGovernance address"
      },
      "sendDust(address,uint256,address)": {
        "notice": "Allows an authorized user to transfer the tokens or eth that may have been left in a contract"
      },
      "setGovernance(address)": {
        "notice": "Proposes a new address to be governance"
      },
      "setMinter(address)": {
        "notice": "Sets a new address to be the minter"
      },
      "setWKP3R(address)": {
        "notice": "sets the wKP3R address"
      },
      "wKP3R()": {
        "notice": "Lists the address of the wKP3R contract"
      }
    },
    "version": 1
  },
  "storageLayout": {
    "storage": [
      {
        "astId": 5362,
        "contract": "solidity/contracts/sidechain/Keep3rEscrow.sol:Keep3rEscrow",
        "label": "governance",
        "offset": 0,
        "slot": "0",
        "type": "t_address"
      },
      {
        "astId": 5366,
        "contract": "solidity/contracts/sidechain/Keep3rEscrow.sol:Keep3rEscrow",
        "label": "pendingGovernance",
        "offset": 0,
        "slot": "1",
        "type": "t_address"
      },
      {
        "astId": 6185,
        "contract": "solidity/contracts/sidechain/Keep3rEscrow.sol:Keep3rEscrow",
        "label": "minter",
        "offset": 0,
        "slot": "2",
        "type": "t_address"
      },
      {
        "astId": 9638,
        "contract": "solidity/contracts/sidechain/Keep3rEscrow.sol:Keep3rEscrow",
        "label": "wKP3R",
        "offset": 0,
        "slot": "3",
        "type": "t_address"
      }
    ],
    "types": {
      "t_address": {
        "encoding": "inplace",
        "label": "address",
        "numberOfBytes": "20"
      }
    }
  }
}