{
  "address": "0xeDDe080E28Eb53532bD1804de51BD9Cd5cADF0d4",
  "abi": [
    {
      "inputs": [
        {
          "internalType": "address",
          "name": "_keep3rV2",
          "type": "address"
        },
        {
          "internalType": "address",
          "name": "_governance",
          "type": "address"
        }
      ],
      "stateMutability": "nonpayable",
      "type": "constructor"
    },
    {
      "inputs": [],
      "name": "InvalidKp3rPool",
      "type": "error"
    },
    {
      "inputs": [],
      "name": "LiquidityPairInvalid",
      "type": "error"
    },
    {
      "inputs": [],
      "name": "NoGovernanceZeroAddress",
      "type": "error"
    },
    {
      "inputs": [],
      "name": "OnlyGovernance",
      "type": "error"
    },
    {
      "inputs": [],
      "name": "OnlyPendingGovernance",
      "type": "error"
    },
    {
      "anonymous": false,
      "inputs": [
        {
          "indexed": false,
          "internalType": "address",
          "name": "_pendingGovernance",
          "type": "address"
        }
      ],
      "name": "GovernanceProposal",
      "type": "event"
    },
    {
      "anonymous": false,
      "inputs": [
        {
          "indexed": false,
          "internalType": "address",
          "name": "_governance",
          "type": "address"
        }
      ],
      "name": "GovernanceSet",
      "type": "event"
    },
    {
      "anonymous": false,
      "inputs": [
        {
          "indexed": false,
          "internalType": "address",
          "name": "_keep3rV2",
          "type": "address"
        }
      ],
      "name": "Keep3rV2Change",
      "type": "event"
    },
    {
      "anonymous": false,
      "inputs": [
        {
          "indexed": false,
          "internalType": "address",
          "name": "_address",
          "type": "address"
        },
        {
          "indexed": false,
          "internalType": "bool",
          "name": "_isKP3RToken0",
          "type": "bool"
        }
      ],
      "name": "Kp3rWethPoolChange",
      "type": "event"
    },
    {
      "anonymous": false,
      "inputs": [
        {
          "indexed": false,
          "internalType": "uint256",
          "name": "_maxBoost",
          "type": "uint256"
        }
      ],
      "name": "MaxBoostChange",
      "type": "event"
    },
    {
      "anonymous": false,
      "inputs": [
        {
          "indexed": false,
          "internalType": "uint256",
          "name": "_minBaseFee",
          "type": "uint256"
        }
      ],
      "name": "MinBaseFeeChange",
      "type": "event"
    },
    {
      "anonymous": false,
      "inputs": [
        {
          "indexed": false,
          "internalType": "uint256",
          "name": "_minBoost",
          "type": "uint256"
        }
      ],
      "name": "MinBoostChange",
      "type": "event"
    },
    {
      "anonymous": false,
      "inputs": [
        {
          "indexed": false,
          "internalType": "uint256",
          "name": "_minPriorityFee",
          "type": "uint256"
        }
      ],
      "name": "MinPriorityFeeChange",
      "type": "event"
    },
    {
      "anonymous": false,
      "inputs": [
        {
          "indexed": false,
          "internalType": "uint32",
          "name": "_quoteTwapTime",
          "type": "uint32"
        }
      ],
      "name": "QuoteTwapTimeChange",
      "type": "event"
    },
    {
      "anonymous": false,
      "inputs": [
        {
          "indexed": false,
          "internalType": "uint256",
          "name": "_targetBond",
          "type": "uint256"
        }
      ],
      "name": "TargetBondChange",
      "type": "event"
    },
    {
      "anonymous": false,
      "inputs": [
        {
          "indexed": false,
          "internalType": "uint256",
          "name": "_workExtraGas",
          "type": "uint256"
        }
      ],
      "name": "WorkExtraGasChange",
      "type": "event"
    },
    {
      "inputs": [],
      "name": "BOOST_BASE",
      "outputs": [
        {
          "internalType": "uint256",
          "name": "",
          "type": "uint256"
        }
      ],
      "stateMutability": "view",
      "type": "function"
    },
    {
      "inputs": [],
      "name": "KP3R",
      "outputs": [
        {
          "internalType": "address",
          "name": "",
          "type": "address"
        }
      ],
      "stateMutability": "view",
      "type": "function"
    },
    {
      "inputs": [],
      "name": "acceptGovernance",
      "outputs": [],
      "stateMutability": "nonpayable",
      "type": "function"
    },
    {
      "inputs": [
        {
          "internalType": "address",
          "name": "_keeper",
          "type": "address"
        }
      ],
      "name": "bonds",
      "outputs": [
        {
          "internalType": "uint256",
          "name": "_amountBonded",
          "type": "uint256"
        }
      ],
      "stateMutability": "view",
      "type": "function"
    },
    {
      "inputs": [
        {
          "internalType": "uint256",
          "name": "_liquidityAmount",
          "type": "uint256"
        },
        {
          "internalType": "int56",
          "name": "_tickDifference",
          "type": "int56"
        },
        {
          "internalType": "uint256",
          "name": "_timeInterval",
          "type": "uint256"
        }
      ],
      "name": "getKP3RsAtTick",
      "outputs": [
        {
          "internalType": "uint256",
          "name": "_kp3rAmount",
          "type": "uint256"
        }
      ],
      "stateMutability": "pure",
      "type": "function"
    },
    {
      "inputs": [
        {
          "internalType": "uint256",
          "name": "_bonds",
          "type": "uint256"
        }
      ],
      "name": "getPaymentParams",
      "outputs": [
        {
          "internalType": "uint256",
          "name": "_boost",
          "type": "uint256"
        },
        {
          "internalType": "uint256",
          "name": "_oneEthQuote",
          "type": "uint256"
        },
        {
          "internalType": "uint256",
          "name": "_extra",
          "type": "uint256"
        }
      ],
      "stateMutability": "view",
      "type": "function"
    },
    {
      "inputs": [
        {
          "internalType": "address",
          "name": "_pool",
          "type": "address"
        }
      ],
      "name": "getPoolTokens",
      "outputs": [
        {
          "internalType": "address",
          "name": "_token0",
          "type": "address"
        },
        {
          "internalType": "address",
          "name": "_token1",
          "type": "address"
        }
      ],
      "stateMutability": "view",
      "type": "function"
    },
    {
      "inputs": [
        {
          "internalType": "uint128",
          "name": "_baseAmount",
          "type": "uint128"
        },
        {
          "internalType": "int56",
          "name": "_tickDifference",
          "type": "int56"
        },
        {
          "internalType": "uint256",
          "name": "_timeInterval",
          "type": "uint256"
        }
      ],
      "name": "getQuoteAtTick",
      "outputs": [
        {
          "internalType": "uint256",
          "name": "_quoteAmount",
          "type": "uint256"
        }
      ],
      "stateMutability": "pure",
      "type": "function"
    },
    {
      "inputs": [
        {
          "internalType": "uint256",
          "name": "_gasUsed",
          "type": "uint256"
        }
      ],
      "name": "getRewardAmount",
      "outputs": [
        {
          "internalType": "uint256",
          "name": "_amount",
          "type": "uint256"
        }
      ],
      "stateMutability": "view",
      "type": "function"
    },
    {
      "inputs": [
        {
          "internalType": "address",
          "name": "_keeper",
          "type": "address"
        },
        {
          "internalType": "uint256",
          "name": "_gasUsed",
          "type": "uint256"
        }
      ],
      "name": "getRewardAmountFor",
      "outputs": [
        {
          "internalType": "uint256",
          "name": "_kp3r",
          "type": "uint256"
        }
      ],
      "stateMutability": "view",
      "type": "function"
    },
    {
      "inputs": [
        {
          "internalType": "uint256",
          "name": "_bonds",
          "type": "uint256"
        }
      ],
      "name": "getRewardBoostFor",
      "outputs": [
        {
          "internalType": "uint256",
          "name": "_rewardBoost",
          "type": "uint256"
        }
      ],
      "stateMutability": "view",
      "type": "function"
    },
    {
      "inputs": [],
      "name": "governance",
      "outputs": [
        {
          "internalType": "address",
          "name": "",
          "type": "address"
        }
      ],
      "stateMutability": "view",
      "type": "function"
    },
    {
      "inputs": [
        {
          "internalType": "address",
          "name": "_pool",
          "type": "address"
        }
      ],
      "name": "isKP3RToken0",
      "outputs": [
        {
          "internalType": "bool",
          "name": "_isKP3RToken0",
          "type": "bool"
        }
      ],
      "stateMutability": "view",
      "type": "function"
    },
    {
      "inputs": [],
      "name": "keep3rV2",
      "outputs": [
        {
          "internalType": "address",
          "name": "",
          "type": "address"
        }
      ],
      "stateMutability": "view",
      "type": "function"
    },
    {
      "inputs": [],
      "name": "kp3rWethPool",
      "outputs": [
        {
          "internalType": "address",
          "name": "poolAddress",
          "type": "address"
        },
        {
          "internalType": "bool",
          "name": "isKP3RToken0",
          "type": "bool"
        }
      ],
      "stateMutability": "view",
      "type": "function"
    },
    {
      "inputs": [],
      "name": "maxBoost",
      "outputs": [
        {
          "internalType": "uint256",
          "name": "",
          "type": "uint256"
        }
      ],
      "stateMutability": "view",
      "type": "function"
    },
    {
      "inputs": [],
      "name": "minBaseFee",
      "outputs": [
        {
          "internalType": "uint256",
          "name": "",
          "type": "uint256"
        }
      ],
      "stateMutability": "view",
      "type": "function"
    },
    {
      "inputs": [],
      "name": "minBoost",
      "outputs": [
        {
          "internalType": "uint256",
          "name": "",
          "type": "uint256"
        }
      ],
      "stateMutability": "view",
      "type": "function"
    },
    {
      "inputs": [],
      "name": "minPriorityFee",
      "outputs": [
        {
          "internalType": "uint256",
          "name": "",
          "type": "uint256"
        }
      ],
      "stateMutability": "view",
      "type": "function"
    },
    {
      "inputs": [
        {
          "internalType": "address",
          "name": "_pool",
          "type": "address"
        },
        {
          "internalType": "uint32[]",
          "name": "_secondsAgo",
          "type": "uint32[]"
        }
      ],
      "name": "observe",
      "outputs": [
        {
          "internalType": "int56",
          "name": "_tickCumulative1",
          "type": "int56"
        },
        {
          "internalType": "int56",
          "name": "_tickCumulative2",
          "type": "int56"
        },
        {
          "internalType": "bool",
          "name": "_success",
          "type": "bool"
        }
      ],
      "stateMutability": "view",
      "type": "function"
    },
    {
      "inputs": [],
      "name": "pendingGovernance",
      "outputs": [
        {
          "internalType": "address",
          "name": "",
          "type": "address"
        }
      ],
      "stateMutability": "view",
      "type": "function"
    },
    {
      "inputs": [
        {
          "internalType": "uint256",
          "name": "_eth",
          "type": "uint256"
        }
      ],
      "name": "quote",
      "outputs": [
        {
          "internalType": "uint256",
          "name": "_amountOut",
          "type": "uint256"
        }
      ],
      "stateMutability": "view",
      "type": "function"
    },
    {
      "inputs": [],
      "name": "quoteTwapTime",
      "outputs": [
        {
          "internalType": "uint32",
          "name": "",
          "type": "uint32"
        }
      ],
      "stateMutability": "view",
      "type": "function"
    },
    {
      "inputs": [
        {
          "internalType": "address",
          "name": "_governance",
          "type": "address"
        }
      ],
      "name": "setGovernance",
      "outputs": [],
      "stateMutability": "nonpayable",
      "type": "function"
    },
    {
      "inputs": [
        {
          "internalType": "address",
          "name": "_keep3rV2",
          "type": "address"
        }
      ],
      "name": "setKeep3rV2",
      "outputs": [],
      "stateMutability": "nonpayable",
      "type": "function"
    },
    {
      "inputs": [
        {
          "internalType": "address",
          "name": "_poolAddress",
          "type": "address"
        }
      ],
      "name": "setKp3rWethPool",
      "outputs": [],
      "stateMutability": "nonpayable",
      "type": "function"
    },
    {
      "inputs": [
        {
          "internalType": "uint256",
          "name": "_maxBoost",
          "type": "uint256"
        }
      ],
      "name": "setMaxBoost",
      "outputs": [],
      "stateMutability": "nonpayable",
      "type": "function"
    },
    {
      "inputs": [
        {
          "internalType": "uint256",
          "name": "_minBaseFee",
          "type": "uint256"
        }
      ],
      "name": "setMinBaseFee",
      "outputs": [],
      "stateMutability": "nonpayable",
      "type": "function"
    },
    {
      "inputs": [
        {
          "internalType": "uint256",
          "name": "_minBoost",
          "type": "uint256"
        }
      ],
      "name": "setMinBoost",
      "outputs": [],
      "stateMutability": "nonpayable",
      "type": "function"
    },
    {
      "inputs": [
        {
          "internalType": "uint256",
          "name": "_minPriorityFee",
          "type": "uint256"
        }
      ],
      "name": "setMinPriorityFee",
      "outputs": [],
      "stateMutability": "nonpayable",
      "type": "function"
    },
    {
      "inputs": [
        {
          "internalType": "uint32",
          "name": "_quoteTwapTime",
          "type": "uint32"
        }
      ],
      "name": "setQuoteTwapTime",
      "outputs": [],
      "stateMutability": "nonpayable",
      "type": "function"
    },
    {
      "inputs": [
        {
          "internalType": "uint256",
          "name": "_targetBond",
          "type": "uint256"
        }
      ],
      "name": "setTargetBond",
      "outputs": [],
      "stateMutability": "nonpayable",
      "type": "function"
    },
    {
      "inputs": [
        {
          "internalType": "uint256",
          "name": "_workExtraGas",
          "type": "uint256"
        }
      ],
      "name": "setWorkExtraGas",
      "outputs": [],
      "stateMutability": "nonpayable",
      "type": "function"
    },
    {
      "inputs": [],
      "name": "targetBond",
      "outputs": [
        {
          "internalType": "uint256",
          "name": "",
          "type": "uint256"
        }
      ],
      "stateMutability": "view",
      "type": "function"
    },
    {
      "inputs": [],
      "name": "workExtraGas",
      "outputs": [
        {
          "internalType": "uint256",
          "name": "",
          "type": "uint256"
        }
      ],
      "stateMutability": "view",
      "type": "function"
    }
  ],
  "transactionHash": "0x30964bd00a45fa8ded95345fd355792e699128188968b7e01f9b12def9b9733e",
  "args": [
    "0xeb02addCfD8B773A5FFA6B9d1FE99c566f8c44CC",
    "0x0D5Dc686d0a2ABBfDaFDFb4D0533E886517d4E83"
  ],
  "numDeployments": 3,
  "solcInputHash": "128b239e58e270b88e71a55cf65c8c91",
  "bytecode": "0x6080604052612af8600255612ee0600355680ad78ebc5ac620000060045561c3506005556006805463ffffffff191661025817905564037e11d60060075563773594006008553480156200005257600080fd5b5060405162001f9338038062001f938339810160408190526200007591620002ed565b8181806001600160a01b0381166200009f5760405162b293ed60e81b815260040160405180910390fd5b600080546001600160a01b03199081166001600160a01b039384161790915560098054909116918416919091179055620000ed7311b7a6bc0259ed6cf9db8f499988f9ecc7167bf5620000f7565b5050505062000325565b6000731ceb5cb57c4d4e2b2433641b95dd330a33185a446001600160a01b0316826001600160a01b0316630dfe16816040518163ffffffff1660e01b815260040160206040518083038186803b1580156200015157600080fd5b505afa15801562000166573d6000803e3d6000fd5b505050506040513d601f19601f820116820180604052508101906200018c9190620002c8565b6001600160a01b03161490506000731ceb5cb57c4d4e2b2433641b95dd330a33185a446001600160a01b0316836001600160a01b031663d21220a76040518163ffffffff1660e01b815260040160206040518083038186803b158015620001f257600080fd5b505afa15801562000207573d6000803e3d6000fd5b505050506040513d601f19601f820116820180604052508101906200022d9190620002c8565b6001600160a01b03161490508115801562000246575080155b156200026557604051637c395fed60e01b815260040160405180910390fd5b50604080518082019091526001600160a01b03929092168083529015156020909201829052600a80546001600160a81b031916909117600160a01b909202919091179055565b80516001600160a01b0381168114620002c357600080fd5b919050565b600060208284031215620002db57600080fd5b620002e682620002ab565b9392505050565b600080604083850312156200030157600080fd5b6200030c83620002ab565b91506200031c60208401620002ab565b90509250929050565b611c5e80620003356000396000f3fe608060405234801561001057600080fd5b50600436106101b15760003560e01c80637b40c913116100f55780637b40c9131461031f5780638561579c1461034c5780638a9b1b09146103555780639aaad6791461035e578063a0d2710714610383578063a62611a214610396578063ab033ea91461039f578063ab5dce00146103b2578063ab8cedc5146103c5578063b2e0df96146103d8578063b93f5af0146103eb578063c84993af146103fe578063ca4f280314610411578063dc686d9114610432578063e244208b1461046a578063ed1bd76c1461047d578063f39c38a014610490578063fe10d774146104a357600080fd5b806305e0b9a0146101b65780630c525835146101e7578063117cfc1b146101fc578063160e1e311461020f5780632248e82d14610222578063238efcbc1461024357806325f09e611461024b5780632742b9e714610254578063289adb441461025d57806337090c2f146102705780633cc7ab30146102795780633facf2421461028c578063435b21c114610295578063516c3323146102c35780635aa6e675146102d6578063607e48d4146102e9578063696a437b146102fc575b600080fd5b6101d1731ceb5cb57c4d4e2b2433641b95dd330a33185a4481565b6040516101de9190611975565b60405180910390f35b6101fa6101f5366004611901565b6104b6565b005b6009546101d1906001600160a01b031681565b6101fa61021d3660046116d0565b61051d565b6102356102303660046117bd565b610598565b6040519081526020016101de565b6101fa6105cb565b61023561271081565b61023560045481565b6101fa61026b366004611901565b610657565b61023560035481565b6101fa6102873660046116d0565b6106b7565b61023560055481565b6102a86102a3366004611901565b61072e565b604080519384526020840192909252908201526060016101de565b6102356102d1366004611901565b61075c565b6000546101d1906001600160a01b031681565b6101fa6102f7366004611901565b6107c9565b61030f61030a3660046116d0565b610829565b60405190151581526020016101de565b600a5461033e906001600160a01b03811690600160a01b900460ff1682565b6040516101de9291906119a3565b61023560025481565b61023560085481565b60065461036e9063ffffffff1681565b60405163ffffffff90911681526020016101de565b610235610391366004611933565b6108af565b61023560075481565b6101fa6103ad3660046116d0565b6108eb565b6101fa6103c0366004611901565b610961565b6102356103d33660046118b4565b6109c1565b6101fa6103e6366004611901565b610a65565b6101fa6103f936600461195a565b610ac5565b61023561040c366004611901565b610b38565b61042461041f3660046116d0565b610b4a565b6040516101de929190611989565b61044561044036600461170a565b610c38565b60408051600694850b81529290930b60208301521515918101919091526060016101de565b6101fa610478366004611901565b610d43565b61023561048b366004611901565b610da3565b6001546101d1906001600160a01b031681565b6102356104b13660046116d0565b610efe565b6000546001600160a01b031633146104e1576040516354348f0360e01b815260040160405180910390fd5b60028190556040518181527f0919fdaaac0f59c6bc7eeef4f975d6163475220f1e4820d0bce99c84c51cac1d906020015b60405180910390a150565b6000546001600160a01b03163314610548576040516354348f0360e01b815260040160405180910390fd5b61055181610f95565b600a546040517f554c636366d5fc882a9ab4b7b9d5181781d1a7076abe50ed410365620dcf410891610512916001600160a01b03821691600160a01b900460ff16906119a3565b6000806105a76102d185610efe565b90506105c36127106105b98386611ab5565b61048b9190611aa1565b949350505050565b6001546001600160a01b031633146105f657604051637ef5703160e11b815260040160405180910390fd5b60018054600080546001600160a01b0383166001600160a01b031991821681179092559091169091556040517fc73be659241aade67e9a059bcf21494955018b213dbd1179054ccf928b13f3b69161064d91611975565b60405180910390a1565b6000546001600160a01b03163314610682576040516354348f0360e01b815260040160405180910390fd5b60058190556040518181527fed847bdbab1a30becee18585f23c759bd06156561390d2e7fbffd18e74b56c9b90602001610512565b6000546001600160a01b031633146106e2576040516354348f0360e01b815260040160405180910390fd5b600980546001600160a01b0319166001600160a01b0383169081179091556040517fcf744e4fc39d49b6d8103035078629b8a3be95adc007b0d663e96bdff777b10a9161051291611975565b6000806000610744670de0b6b3a7640000610da3565b915061074f8461075c565b6005549095929450925050565b600061076a8260045461113f565b915060006107ae600254600454856002546003546107889190611b24565b6107929190611ab5565b61079c9190611aa1565b6002546107a99190611a5b565b611155565b90506107b8611165565b6107c29082611ab5565b9392505050565b6000546001600160a01b031633146107f4576040516354348f0360e01b815260040160405180910390fd5b60078190556040518181527ff1443dcc693c421058f429cf588bc37e5c8de2275c3771a810a5e4bf0a908a4b90602001610512565b600080600061083784610b4a565b90925090506001600160a01b038216731ceb5cb57c4d4e2b2433641b95dd330a33185a44141561086b575060019392505050565b6001600160a01b038116731ceb5cb57c4d4e2b2433641b95dd330a33185a44146108a857604051637d7c8f2760e11b815260040160405180910390fd5b5050919050565b6000806108c86108c384600687900b611a73565b611180565b90506108e2600160601b86836001600160a01b031661158e565b95945050505050565b6000546001600160a01b03163314610916576040516354348f0360e01b815260040160405180910390fd5b600180546001600160a01b0319166001600160a01b0383161790556040517fe987aaedf9d279143bdf1eee16cf1d0feb47742867d81083df8d6cd0a5ac857f90610512908390611975565b6000546001600160a01b0316331461098c576040516354348f0360e01b815260040160405180910390fd5b60048190556040518181527feac367d684b6ac6c6ae7e3e852c06f17e6354e0f1e7122832c3e6d17e0a2b71e90602001610512565b6000806109d56108c384600687900b611a73565b90506001600160801b036001600160a01b03821611610a25576000610a036001600160a01b03831680611ab5565b9050610a1d600160c01b876001600160801b03168361158e565b925050610a5d565b6000610a3f6001600160a01b03831680600160401b61158e565b9050610a59600160801b876001600160801b03168361158e565b9250505b509392505050565b6000546001600160a01b03163314610a90576040516354348f0360e01b815260040160405180910390fd5b60038190556040518181527fa1292b4e7a0d916ccfd2bc83858b05f328e344d1f0f507d97ac66723ac7c2aaa90602001610512565b6000546001600160a01b03163314610af0576040516354348f0360e01b815260040160405180910390fd5b6006805463ffffffff191663ffffffff83169081179091556040519081527fc806e26fb64e3a95f4b70abf4d87280555696244d01068b5f45b0e515aceb1de90602001610512565b6000610b443283610598565b92915050565b600080826001600160a01b0316630dfe16816040518163ffffffff1660e01b815260040160206040518083038186803b158015610b8657600080fd5b505afa158015610b9a573d6000803e3d6000fd5b505050506040513d601f19601f82011682018060405250810190610bbe91906116ed565b836001600160a01b031663d21220a76040518163ffffffff1660e01b815260040160206040518083038186803b158015610bf757600080fd5b505afa158015610c0b573d6000803e3d6000fd5b505050506040513d601f19601f82011682018060405250810190610c2f91906116ed565b91509150915091565b6000806000846001600160a01b031663883bdbfd856040518263ffffffff1660e01b8152600401610c6991906119be565b60006040518083038186803b158015610c8157600080fd5b505afa925050508015610cb657506040513d6000823e601f3d908101601f19168201604052610cb391908101906117e9565b60015b610cf0573d808015610ce4576040519150601f19603f3d011682016040523d82523d6000602084013e610ce9565b606091505b5050610d3c565b81600081518110610d0357610d03611bd5565b60200260200101519450600182511115610d355781600181518110610d2a57610d2a611bd5565b602002602001015193505b6001925050505b9250925092565b6000546001600160a01b03163314610d6e576040516354348f0360e01b815260040160405180910390fd5b60088190556040518181527f403b461d2c3bcad840d570faac033e4e69e5649645ce89f3c5b4e28d5415922190602001610512565b604080516002808252606082018352600092839291906020830190803683375050600654825192935063ffffffff16918391506001908110610de757610de7611bd5565b63ffffffff90921660209283029190910190910152600a5460405163883bdbfd60e01b81526000916001600160a01b03169063883bdbfd90610e2d9085906004016119be565b60006040518083038186803b158015610e4557600080fd5b505afa158015610e59573d6000803e3d6000fd5b505050506040513d6000823e601f3d908101601f19168201604052610e8191908101906117e9565b509050600081600181518110610e9957610e99611bd5565b602002602001015182600081518110610eb457610eb4611bd5565b6020026020010151610ec69190611ad4565b600a549091506108e2908690600160a01b900460ff16610eee57610ee983611b8f565b610ef0565b825b60065463ffffffff166109c1565b60095460405163a39744b560e01b81526000916001600160a01b03169063a39744b590610f45908590731ceb5cb57c4d4e2b2433641b95dd330a33185a4490600401611989565b60206040518083038186803b158015610f5d57600080fd5b505afa158015610f71573d6000803e3d6000fd5b505050506040513d601f19601f82011682018060405250810190610b44919061191a565b6000731ceb5cb57c4d4e2b2433641b95dd330a33185a446001600160a01b0316826001600160a01b0316630dfe16816040518163ffffffff1660e01b815260040160206040518083038186803b158015610fee57600080fd5b505afa158015611002573d6000803e3d6000fd5b505050506040513d601f19601f8201168201806040525081019061102691906116ed565b6001600160a01b03161490506000731ceb5cb57c4d4e2b2433641b95dd330a33185a446001600160a01b0316836001600160a01b031663d21220a76040518163ffffffff1660e01b815260040160206040518083038186803b15801561108b57600080fd5b505afa15801561109f573d6000803e3d6000fd5b505050506040513d601f19601f820116820180604052508101906110c391906116ed565b6001600160a01b0316149050811580156110db575080155b156110f957604051637c395fed60e01b815260040160405180910390fd5b50604080518082019091526001600160a01b03929092168083529015156020909201829052600a80546001600160a81b031916909117600160a01b909202919091179055565b600081831061114e57816107c2565b5090919050565b60008183101561114e57816107c2565b600061117b600754600854486107a99190611a5b565b905090565b60008060008360020b12611197578260020b6111a4565b8260020b6111a490611b72565b90506111b3620d89e719611b4f565b60020b8111156111ed5760405162461bcd60e51b81526020600482015260016024820152601560fa1b604482015260640160405180910390fd5b60006001821661120157600160801b611213565b6ffffcb933bd6fad37aa2d162d1a5940015b6001600160881b031690506002821615611248576080611243826ffff97272373d413259a46990580e213a611ab5565b901c90505b600482161561127257608061126d826ffff2e50f5f656932ef12357cf3c7fdcc611ab5565b901c90505b600882161561129c576080611297826fffe5caca7e10e4e61c3624eaa0941cd0611ab5565b901c90505b60108216156112c65760806112c1826fffcb9843d60f6159c9db58835c926644611ab5565b901c90505b60208216156112f05760806112eb826fff973b41fa98c081472e6896dfb254c0611ab5565b901c90505b604082161561131a576080611315826fff2ea16466c96a3843ec78b326b52861611ab5565b901c90505b608082161561134457608061133f826ffe5dee046a99a2a811c461f1969c3053611ab5565b901c90505b61010082161561136f57608061136a826ffcbe86c7900a88aedcffc83b479aa3a4611ab5565b901c90505b61020082161561139a576080611395826ff987a7253ac413176f2b074cf7815e54611ab5565b901c90505b6104008216156113c55760806113c0826ff3392b0822b70005940c7a398e4b70f3611ab5565b901c90505b6108008216156113f05760806113eb826fe7159475a2c29b7443b29c7fa6e889d9611ab5565b901c90505b61100082161561141b576080611416826fd097f3bdfd2022b8845ad8f792aa5825611ab5565b901c90505b612000821615611446576080611441826fa9f746462d870fdf8a65dc1f90e061e5611ab5565b901c90505b61400082161561147157608061146c826f70d869a156d2a1b890bb3df62baf32f7611ab5565b901c90505b61800082161561149c576080611497826f31be135f97d08fd981231505542fcfa6611ab5565b901c90505b620100008216156114c85760806114c3826f09aa508b5b7a84e1c677de54f3e99bc9611ab5565b901c90505b620200008216156114f35760806114ee826e5d6af8dedb81196699c329225ee604611ab5565b901c90505b6204000082161561151d576080611518826d2216e584f5fa1ea926041bedfe98611ab5565b901c90505b62080000821615611545576080611540826b048a170391f7dc42444e8fa2611ab5565b901c90505b60008460020b13156115605761155d81600019611aa1565b90505b61156e600160201b82611b3b565b1561157a57600161157d565b60005b6105c39060ff16602083901c611a5b565b6000808060001985870985870292508281108382030391505080600014156115c857600084116115bd57600080fd5b5082900490506107c2565b8084116115d457600080fd5b600084868809600260036001881981018916988990049182028318808302840302808302840302808302840302808302840302808302840302918202909203026000889003889004909101858311909403939093029303949094049190911702949350505050565b600082601f83011261164d57600080fd5b8151602061166261165d83611a38565b611a08565b80838252828201915082860187848660051b890101111561168257600080fd5b60005b858110156116aa57815161169881611c01565b84529284019290840190600101611685565b5090979650505050505050565b803563ffffffff811681146116cb57600080fd5b919050565b6000602082840312156116e257600080fd5b81356107c281611c01565b6000602082840312156116ff57600080fd5b81516107c281611c01565b6000806040838503121561171d57600080fd5b823561172881611c01565b91506020838101356001600160401b0381111561174457600080fd5b8401601f8101861361175557600080fd5b803561176361165d82611a38565b80828252848201915084840189868560051b870101111561178357600080fd5b600094505b838510156117ad57611799816116b7565b835260019490940193918501918501611788565b5080955050505050509250929050565b600080604083850312156117d057600080fd5b82356117db81611c01565b946020939093013593505050565b600080604083850312156117fc57600080fd5b82516001600160401b038082111561181357600080fd5b818501915085601f83011261182757600080fd5b8151602061183761165d83611a38565b8083825282820191508286018a848660051b890101111561185757600080fd5b600096505b8487101561188357805161186f81611c19565b83526001969096019591830191830161185c565b509188015191965090935050508082111561189d57600080fd5b506118aa8582860161163c565b9150509250929050565b6000806000606084860312156118c957600080fd5b83356001600160801b03811681146118e057600080fd5b925060208401356118f081611c19565b929592945050506040919091013590565b60006020828403121561191357600080fd5b5035919050565b60006020828403121561192c57600080fd5b5051919050565b60008060006060848603121561194857600080fd5b8335925060208401356118f081611c19565b60006020828403121561196c57600080fd5b6107c2826116b7565b6001600160a01b0391909116815260200190565b6001600160a01b0392831681529116602082015260400190565b6001600160a01b039290921682521515602082015260400190565b6020808252825182820181905260009190848201906040850190845b818110156119fc57835163ffffffff16835292840192918401916001016119da565b50909695505050505050565b604051601f8201601f191681016001600160401b0381118282101715611a3057611a30611beb565b604052919050565b60006001600160401b03821115611a5157611a51611beb565b5060051b60200190565b60008219821115611a6e57611a6e611ba9565b500190565b600082611a8257611a82611bbf565b600160ff1b821460001984141615611a9c57611a9c611ba9565b500590565b600082611ab057611ab0611bbf565b500490565b6000816000190483118215151615611acf57611acf611ba9565b500290565b60008160060b8360060b6000811281667fffffffffffff1901831281151615611aff57611aff611ba9565b81667fffffffffffff018313811615611b1a57611b1a611ba9565b5090039392505050565b600082821015611b3657611b36611ba9565b500390565b600082611b4a57611b4a611bbf565b500690565b60008160020b627fffff19811415611b6957611b69611ba9565b60000392915050565b6000600160ff1b821415611b8857611b88611ba9565b5060000390565b60008160060b667fffffffffffff19811415611b6957611b695b634e487b7160e01b600052601160045260246000fd5b634e487b7160e01b600052601260045260246000fd5b634e487b7160e01b600052603260045260246000fd5b634e487b7160e01b600052604160045260246000fd5b6001600160a01b0381168114611c1657600080fd5b50565b8060060b8114611c1657600080fdfea26469706673582212206e89e4403baefa616f16bf305963906c46610428d0d81db5936227de5ca95ef664736f6c63430008070033",
  "devdoc": {
    "kind": "dev",
    "methods": {
      "bonds(address)": {
        "params": {
          "_keeper": "The address of the keeper to check"
        },
        "returns": {
          "_amountBonded": "The amount of KP3R the keeper has bonded"
        }
      },
      "getKP3RsAtTick(uint256,int56,uint256)": {
        "params": {
          "_liquidityAmount": "Amount of liquidity to be converted",
          "_tickDifference": "Tick value used to calculate the quote",
          "_timeInterval": "Time value used to calculate the quote"
        },
        "returns": {
          "_kp3rAmount": "Amount of KP3R tokens underlying on the given liquidity"
        }
      },
      "getPaymentParams(uint256)": {
        "params": {
          "_bonds": "Amount of bonded KP3R owned by the keeper"
        },
        "returns": {
          "_boost": "Multiplier per gas unit. Takes into account the base fee and the amount of bonded KP3R",
          "_extra": "Amount of extra gas that should be added to the gas spent",
          "_oneEthQuote": "Amount of KP3R tokens equivalent to 1 ETH"
        }
      },
      "getPoolTokens(address)": {
        "params": {
          "_pool": "Address of the correspondant pool"
        },
        "returns": {
          "_token0": "Address of the first token of the pair",
          "_token1": "Address of the second token of the pair"
        }
      },
      "getQuoteAtTick(uint128,int56,uint256)": {
        "params": {
          "_baseAmount": "Amount of token to be converted",
          "_tickDifference": "Tick value used to calculate the quote",
          "_timeInterval": "Time value used to calculate the quote"
        },
        "returns": {
          "_quoteAmount": "Amount of credits deserved for the baseAmount at the tick value"
        }
      },
      "getRewardAmount(uint256)": {
        "params": {
          "_gasUsed": "The amount of gas used that will be rewarded"
        },
        "returns": {
          "_amount": "The amount of KP3R that should be awarded to tx.origin"
        }
      },
      "getRewardAmountFor(address,uint256)": {
        "params": {
          "_gasUsed": "The amount of gas used that will be rewarded",
          "_keeper": "The address of the keeper to check"
        },
        "returns": {
          "_kp3r": "The amount of KP3R that should be awarded to the keeper"
        }
      },
      "getRewardBoostFor(uint256)": {
        "params": {
          "_bonds": "The amount of KP3R tokens bonded by the keeper"
        },
        "returns": {
          "_rewardBoost": "The reward boost that corresponds to the keeper"
        }
      },
      "isKP3RToken0(address)": {
        "params": {
          "_pool": "Address of the correspondant pool"
        },
        "returns": {
          "_isKP3RToken0": "Boolean indicating the order of the tokens in the pair"
        }
      },
      "observe(address,uint32[])": {
        "params": {
          "_pool": "Address of the pool to observe",
          "_secondsAgo": "Array with time references to observe"
        },
        "returns": {
          "_success": "Boolean indicating if the observe call was succesfull",
          "_tickCumulative1": "Cummulative sum of ticks until first time reference",
          "_tickCumulative2": "Cummulative sum of ticks until second time reference"
        }
      },
      "quote(uint256)": {
        "details": "This function allows us to calculate how much KP3R we should pay to a keeper for things expressed in ETH, like gas",
        "params": {
          "_eth": "The amount of ETH"
        },
        "returns": {
          "_amountOut": "The amount of KP3R"
        }
      },
      "setGovernance(address)": {
        "params": {
          "_governance": "The address being proposed as the new governance"
        }
      },
      "setKeep3rV2(address)": {
        "params": {
          "_keep3rV2": "The address of Keep3r V2"
        }
      },
      "setKp3rWethPool(address)": {
        "params": {
          "_poolAddress": "The address of the KP3R-WETH pool"
        }
      },
      "setMaxBoost(uint256)": {
        "params": {
          "_maxBoost": "The maximum boost multiplier"
        }
      },
      "setMinBaseFee(uint256)": {
        "params": {
          "_minBaseFee": "The minimum rewarded gas fee"
        }
      },
      "setMinBoost(uint256)": {
        "params": {
          "_minBoost": "The minimum boost multiplier"
        }
      },
      "setMinPriorityFee(uint256)": {
        "params": {
          "_minPriorityFee": "The minimum rewarded priority fee"
        }
      },
      "setQuoteTwapTime(uint32)": {
        "params": {
          "_quoteTwapTime": "The twap time for quoting"
        }
      },
      "setTargetBond(uint256)": {
        "params": {
          "_targetBond": "The target bond amount"
        }
      },
      "setWorkExtraGas(uint256)": {
        "params": {
          "_workExtraGas": "The work extra gas"
        }
      }
    },
    "version": 1
  },
  "userdoc": {
    "errors": {
      "InvalidKp3rPool()": [
        {
          "notice": "Throws when pool does not have KP3R as token0 nor token1"
        }
      ],
      "LiquidityPairInvalid()": [
        {
          "notice": "Throws when none of the tokens in the liquidity pair is KP3R"
        }
      ],
      "NoGovernanceZeroAddress()": [
        {
          "notice": "Throws if trying to set governance to zero address"
        }
      ],
      "OnlyGovernance()": [
        {
          "notice": "Throws if the caller of the function is not governance"
        }
      ],
      "OnlyPendingGovernance()": [
        {
          "notice": "Throws if the caller of the function is not pendingGovernance"
        }
      ]
    },
    "events": {
      "GovernanceProposal(address)": {
        "notice": "Emitted when a new governance is proposed"
      },
      "GovernanceSet(address)": {
        "notice": "Emitted when pendingGovernance accepts to be governance"
      },
      "Keep3rV2Change(address)": {
        "notice": "Emitted when the Keep3r V2 address is changed"
      },
      "Kp3rWethPoolChange(address,bool)": {
        "notice": "Emitted when the kp3r weth pool is changed"
      },
      "MaxBoostChange(uint256)": {
        "notice": "Emitted when the maximum boost multiplier is changed"
      },
      "MinBaseFeeChange(uint256)": {
        "notice": "Emitted when minimum rewarded gas fee is changed"
      },
      "MinBoostChange(uint256)": {
        "notice": "Emitted when the minimum boost multiplier is changed"
      },
      "MinPriorityFeeChange(uint256)": {
        "notice": "Emitted when minimum rewarded priority fee is changed"
      },
      "QuoteTwapTimeChange(uint32)": {
        "notice": "Emitted when the quote twap time is changed"
      },
      "TargetBondChange(uint256)": {
        "notice": "Emitted when the target bond amount is changed"
      },
      "WorkExtraGasChange(uint256)": {
        "notice": "Emitted when the work extra gas amount is changed"
      }
    },
    "kind": "user",
    "methods": {
      "BOOST_BASE()": {
        "notice": "The boost base used to calculate the boost rewards for the keeper"
      },
      "KP3R()": {
        "notice": "Address of KP3R token"
      },
      "acceptGovernance()": {
        "notice": "Changes the governance from the current governance to the previously proposed address"
      },
      "bonds(address)": {
        "notice": "Returns the amount of KP3R the keeper has bonded"
      },
      "getKP3RsAtTick(uint256,int56,uint256)": {
        "notice": "Given a tick and a liquidity amount, calculates the underlying KP3R tokens"
      },
      "getPaymentParams(uint256)": {
        "notice": "Get multiplier, quote, and extra, in order to calculate keeper payment"
      },
      "getPoolTokens(address)": {
        "notice": "Given a pool address, returns the underlying tokens of the pair"
      },
      "getQuoteAtTick(uint128,int56,uint256)": {
        "notice": "Given a tick and a token amount, calculates the output in correspondant token"
      },
      "getRewardAmount(uint256)": {
        "notice": "Calculates the reward (in KP3R) that corresponds to tx.origin for using gas"
      },
      "getRewardAmountFor(address,uint256)": {
        "notice": "Calculates the reward (in KP3R) that corresponds to a keeper for using gas"
      },
      "getRewardBoostFor(uint256)": {
        "notice": "Calculates the boost in the reward given to a keeper based on the amount of KP3R that keeper has bonded"
      },
      "governance()": {
        "notice": "Stores the governance address"
      },
      "isKP3RToken0(address)": {
        "notice": "Defines the order of the tokens in the pair for twap calculations"
      },
      "keep3rV2()": {
        "notice": "Address of Keep3r V2"
      },
      "kp3rWethPool()": {
        "notice": "KP3R-WETH pool that is being used as oracle"
      },
      "maxBoost()": {
        "notice": "The maximum multiplier used to calculate the amount of gas paid to the Keeper for the gas used to perform a job         For example: if the quoted gas used is 1000, then the maximum amount to be paid will be 1000 * maxBoost / BOOST_BASE"
      },
      "minBaseFee()": {
        "notice": "The minimum base fee that is used to calculate keeper rewards"
      },
      "minBoost()": {
        "notice": "The minimum multiplier used to calculate the amount of gas paid to the Keeper for the gas used to perform a job         For example: if the quoted gas used is 1000, then the minimum amount to be paid will be 1000 * minBoost / BOOST_BASE"
      },
      "minPriorityFee()": {
        "notice": "The minimum priority fee that is also rewarded for keepers"
      },
      "observe(address,uint32[])": {
        "notice": "Given an array of secondsAgo, returns UniswapV3 pool cumulatives at that moment"
      },
      "pendingGovernance()": {
        "notice": "Stores the pendingGovernance address"
      },
      "quote(uint256)": {
        "notice": "Calculates the amount of KP3R that corresponds to the ETH passed into the function"
      },
      "quoteTwapTime()": {
        "notice": "The twap time for quoting"
      },
      "setGovernance(address)": {
        "notice": "Proposes a new address to be governance"
      },
      "setKeep3rV2(address)": {
        "notice": "Sets the Keep3r V2 address"
      },
      "setKp3rWethPool(address)": {
        "notice": "Sets KP3R-WETH pool"
      },
      "setMaxBoost(uint256)": {
        "notice": "Sets the maximum boost multiplier"
      },
      "setMinBaseFee(uint256)": {
        "notice": "Sets the minimum rewarded gas fee"
      },
      "setMinBoost(uint256)": {
        "notice": "Sets the minimum boost multiplier"
      },
      "setMinPriorityFee(uint256)": {
        "notice": "Sets the minimum rewarded gas priority fee"
      },
      "setQuoteTwapTime(uint32)": {
        "notice": "Sets the quote twap time"
      },
      "setTargetBond(uint256)": {
        "notice": "Sets the target bond amount"
      },
      "setWorkExtraGas(uint256)": {
        "notice": "Sets the work extra gas amount"
      },
      "targetBond()": {
        "notice": "The targeted amount of bonded KP3Rs to max-up reward multiplier         For example: if the amount of KP3R the keeper has bonded is targetBond or more, then the keeper will get                      the maximum boost possible in his rewards, if it's less, the reward boost will be proportional"
      },
      "workExtraGas()": {
        "notice": "The amount of unaccounted gas that is going to be added to keeper payments"
      }
    },
    "version": 1
  },
  "storageLayout": {
    "storage": [
      {
        "astId": 5318,
        "contract": "solidity/contracts/Keep3rHelper.sol:Keep3rHelper",
        "label": "governance",
        "offset": 0,
        "slot": "0",
        "type": "t_address"
      },
      {
        "astId": 5322,
        "contract": "solidity/contracts/Keep3rHelper.sol:Keep3rHelper",
        "label": "pendingGovernance",
        "offset": 0,
        "slot": "1",
        "type": "t_address"
      },
      {
        "astId": 2992,
        "contract": "solidity/contracts/Keep3rHelper.sol:Keep3rHelper",
        "label": "minBoost",
        "offset": 0,
        "slot": "2",
        "type": "t_uint256"
      },
      {
        "astId": 2997,
        "contract": "solidity/contracts/Keep3rHelper.sol:Keep3rHelper",
        "label": "maxBoost",
        "offset": 0,
        "slot": "3",
        "type": "t_uint256"
      },
      {
        "astId": 3002,
        "contract": "solidity/contracts/Keep3rHelper.sol:Keep3rHelper",
        "label": "targetBond",
        "offset": 0,
        "slot": "4",
        "type": "t_uint256"
      },
      {
        "astId": 3007,
        "contract": "solidity/contracts/Keep3rHelper.sol:Keep3rHelper",
        "label": "workExtraGas",
        "offset": 0,
        "slot": "5",
        "type": "t_uint256"
      },
      {
        "astId": 3012,
        "contract": "solidity/contracts/Keep3rHelper.sol:Keep3rHelper",
        "label": "quoteTwapTime",
        "offset": 0,
        "slot": "6",
        "type": "t_uint32"
      },
      {
        "astId": 3017,
        "contract": "solidity/contracts/Keep3rHelper.sol:Keep3rHelper",
        "label": "minBaseFee",
        "offset": 0,
        "slot": "7",
        "type": "t_uint256"
      },
      {
        "astId": 3022,
        "contract": "solidity/contracts/Keep3rHelper.sol:Keep3rHelper",
        "label": "minPriorityFee",
        "offset": 0,
        "slot": "8",
        "type": "t_uint256"
      },
      {
        "astId": 3026,
        "contract": "solidity/contracts/Keep3rHelper.sol:Keep3rHelper",
        "label": "keep3rV2",
        "offset": 0,
        "slot": "9",
        "type": "t_address"
      },
      {
        "astId": 3031,
        "contract": "solidity/contracts/Keep3rHelper.sol:Keep3rHelper",
        "label": "kp3rWethPool",
        "offset": 0,
        "slot": "10",
        "type": "t_struct(Kp3rWethPool)11595_storage"
      }
    ],
    "types": {
      "t_address": {
        "encoding": "inplace",
        "label": "address",
        "numberOfBytes": "20"
      },
      "t_bool": {
        "encoding": "inplace",
        "label": "bool",
        "numberOfBytes": "1"
      },
      "t_struct(Kp3rWethPool)11595_storage": {
        "encoding": "inplace",
        "label": "struct IKeep3rHelperParameters.Kp3rWethPool",
        "members": [
          {
            "astId": 11592,
            "contract": "solidity/contracts/Keep3rHelper.sol:Keep3rHelper",
            "label": "poolAddress",
            "offset": 0,
            "slot": "0",
            "type": "t_address"
          },
          {
            "astId": 11594,
            "contract": "solidity/contracts/Keep3rHelper.sol:Keep3rHelper",
            "label": "isKP3RToken0",
            "offset": 20,
            "slot": "0",
            "type": "t_bool"
          }
        ],
        "numberOfBytes": "32"
      },
      "t_uint256": {
        "encoding": "inplace",
        "label": "uint256",
        "numberOfBytes": "32"
      },
      "t_uint32": {
        "encoding": "inplace",
        "label": "uint32",
        "numberOfBytes": "4"
      }
    }
  }
}