{
  "address": "0xeb02addCfD8B773A5FFA6B9d1FE99c566f8c44CC",
  "abi": [
    {
      "inputs": [
        {
          "internalType": "address",
          "name": "_governance",
          "type": "address"
        },
        {
          "internalType": "address",
          "name": "_keep3rHelper",
          "type": "address"
        },
        {
          "internalType": "address",
          "name": "_keep3rV1",
          "type": "address"
        },
        {
          "internalType": "address",
          "name": "_keep3rV1Proxy",
          "type": "address"
        },
        {
          "internalType": "address",
          "name": "_kp3rWethPool",
          "type": "address"
        }
      ],
      "stateMutability": "nonpayable",
      "type": "constructor"
    },
    {
      "inputs": [],
      "name": "AlreadyAJob",
      "type": "error"
    },
    {
      "inputs": [],
      "name": "AlreadyAKeeper",
      "type": "error"
    },
    {
      "inputs": [],
      "name": "AlreadyDisputed",
      "type": "error"
    },
    {
      "inputs": [],
      "name": "BondsLocked",
      "type": "error"
    },
    {
      "inputs": [],
      "name": "BondsUnexistent",
      "type": "error"
    },
    {
      "inputs": [],
      "name": "Disputed",
      "type": "error"
    },
    {
      "inputs": [],
      "name": "DisputerExistent",
      "type": "error"
    },
    {
      "inputs": [],
      "name": "DisputerUnexistent",
      "type": "error"
    },
    {
      "inputs": [],
      "name": "InsufficientFunds",
      "type": "error"
    },
    {
      "inputs": [],
      "name": "InsufficientJobTokenCredits",
      "type": "error"
    },
    {
      "inputs": [],
      "name": "JobAlreadyAdded",
      "type": "error"
    },
    {
      "inputs": [],
      "name": "JobDisputed",
      "type": "error"
    },
    {
      "inputs": [],
      "name": "JobLiquidityInsufficient",
      "type": "error"
    },
    {
      "inputs": [],
      "name": "JobLiquidityLessThanMin",
      "type": "error"
    },
    {
      "inputs": [],
      "name": "JobLiquidityUnexistent",
      "type": "error"
    },
    {
      "inputs": [],
      "name": "JobMigrationImpossible",
      "type": "error"
    },
    {
      "inputs": [],
      "name": "JobMigrationLocked",
      "type": "error"
    },
    {
      "inputs": [],
      "name": "JobMigrationUnavailable",
      "type": "error"
    },
    {
      "inputs": [],
      "name": "JobTokenCreditsLocked",
      "type": "error"
    },
    {
      "inputs": [],
      "name": "JobTokenInsufficient",
      "type": "error"
    },
    {
      "inputs": [],
      "name": "JobTokenUnexistent",
      "type": "error"
    },
    {
      "inputs": [],
      "name": "JobUnapproved",
      "type": "error"
    },
    {
      "inputs": [],
      "name": "JobUnavailable",
      "type": "error"
    },
    {
      "inputs": [],
      "name": "LiquidityPairApproved",
      "type": "error"
    },
    {
      "inputs": [],
      "name": "LiquidityPairUnapproved",
      "type": "error"
    },
    {
      "inputs": [],
      "name": "LiquidityPairUnexistent",
      "type": "error"
    },
    {
      "inputs": [],
      "name": "MinRewardPeriod",
      "type": "error"
    },
    {
      "inputs": [],
      "name": "NoGovernanceZeroAddress",
      "type": "error"
    },
    {
      "inputs": [],
      "name": "NotDisputed",
      "type": "error"
    },
    {
      "inputs": [],
      "name": "OnlyDisputer",
      "type": "error"
    },
    {
      "inputs": [],
      "name": "OnlyGovernance",
      "type": "error"
    },
    {
      "inputs": [],
      "name": "OnlyJobOwner",
      "type": "error"
    },
    {
      "inputs": [],
      "name": "OnlyPendingGovernance",
      "type": "error"
    },
    {
      "inputs": [],
      "name": "OnlyPendingJobOwner",
      "type": "error"
    },
    {
      "inputs": [],
      "name": "OnlySlasher",
      "type": "error"
    },
    {
      "inputs": [],
      "name": "SlasherExistent",
      "type": "error"
    },
    {
      "inputs": [],
      "name": "SlasherUnexistent",
      "type": "error"
    },
    {
      "inputs": [],
      "name": "TokenUnallowed",
      "type": "error"
    },
    {
      "inputs": [],
      "name": "UnbondsLocked",
      "type": "error"
    },
    {
      "inputs": [],
      "name": "UnbondsUnexistent",
      "type": "error"
    },
    {
      "inputs": [],
      "name": "ZeroAddress",
      "type": "error"
    },
    {
      "anonymous": false,
      "inputs": [
        {
          "indexed": true,
          "internalType": "address",
          "name": "_keeper",
          "type": "address"
        },
        {
          "indexed": true,
          "internalType": "address",
          "name": "_bond",
          "type": "address"
        },
        {
          "indexed": false,
          "internalType": "uint256",
          "name": "_amount",
          "type": "uint256"
        }
      ],
      "name": "Activation",
      "type": "event"
    },
    {
      "anonymous": false,
      "inputs": [
        {
          "indexed": false,
          "internalType": "uint256",
          "name": "_bondTime",
          "type": "uint256"
        }
      ],
      "name": "BondTimeChange",
      "type": "event"
    },
    {
      "anonymous": false,
      "inputs": [
        {
          "indexed": true,
          "internalType": "address",
          "name": "_keeper",
          "type": "address"
        },
        {
          "indexed": true,
          "internalType": "address",
          "name": "_bonding",
          "type": "address"
        },
        {
          "indexed": false,
          "internalType": "uint256",
          "name": "_amount",
          "type": "uint256"
        }
      ],
      "name": "Bonding",
      "type": "event"
    },
    {
      "anonymous": false,
      "inputs": [
        {
          "indexed": true,
          "internalType": "address",
          "name": "_jobOrKeeper",
          "type": "address"
        },
        {
          "indexed": true,
          "internalType": "address",
          "name": "_disputer",
          "type": "address"
        }
      ],
      "name": "Dispute",
      "type": "event"
    },
    {
      "anonymous": false,
      "inputs": [
        {
          "indexed": false,
          "internalType": "address",
          "name": "_disputer",
          "type": "address"
        }
      ],
      "name": "DisputerAdded",
      "type": "event"
    },
    {
      "anonymous": false,
      "inputs": [
        {
          "indexed": false,
          "internalType": "address",
          "name": "_disputer",
          "type": "address"
        }
      ],
      "name": "DisputerRemoved",
      "type": "event"
    },
    {
      "anonymous": false,
      "inputs": [
        {
          "indexed": false,
          "internalType": "address",
          "name": "_token",
          "type": "address"
        },
        {
          "indexed": false,
          "internalType": "uint256",
          "name": "_amount",
          "type": "uint256"
        },
        {
          "indexed": false,
          "internalType": "address",
          "name": "_to",
          "type": "address"
        }
      ],
      "name": "DustSent",
      "type": "event"
    },
    {
      "anonymous": false,
      "inputs": [
        {
          "indexed": false,
          "internalType": "uint256",
          "name": "_fee",
          "type": "uint256"
        }
      ],
      "name": "FeeChange",
      "type": "event"
    },
    {
      "anonymous": false,
      "inputs": [
        {
          "indexed": false,
          "internalType": "address",
          "name": "_pendingGovernance",
          "type": "address"
        }
      ],
      "name": "GovernanceProposal",
      "type": "event"
    },
    {
      "anonymous": false,
      "inputs": [
        {
          "indexed": false,
          "internalType": "address",
          "name": "_governance",
          "type": "address"
        }
      ],
      "name": "GovernanceSet",
      "type": "event"
    },
    {
      "anonymous": false,
      "inputs": [
        {
          "indexed": false,
          "internalType": "uint256",
          "name": "_inflationPeriod",
          "type": "uint256"
        }
      ],
      "name": "InflationPeriodChange",
      "type": "event"
    },
    {
      "anonymous": false,
      "inputs": [
        {
          "indexed": true,
          "internalType": "address",
          "name": "_job",
          "type": "address"
        },
        {
          "indexed": true,
          "internalType": "address",
          "name": "_jobOwner",
          "type": "address"
        }
      ],
      "name": "JobAddition",
      "type": "event"
    },
    {
      "anonymous": false,
      "inputs": [
        {
          "indexed": true,
          "internalType": "address",
          "name": "_fromJob",
          "type": "address"
        },
        {
          "indexed": false,
          "internalType": "address",
          "name": "_toJob",
          "type": "address"
        }
      ],
      "name": "JobMigrationRequested",
      "type": "event"
    },
    {
      "anonymous": false,
      "inputs": [
        {
          "indexed": false,
          "internalType": "address",
          "name": "_fromJob",
          "type": "address"
        },
        {
          "indexed": true,
          "internalType": "address",
          "name": "_toJob",
          "type": "address"
        }
      ],
      "name": "JobMigrationSuccessful",
      "type": "event"
    },
    {
      "anonymous": false,
      "inputs": [
        {
          "indexed": true,
          "internalType": "address",
          "name": "_job",
          "type": "address"
        },
        {
          "indexed": true,
          "internalType": "address",
          "name": "_previousOwner",
          "type": "address"
        },
        {
          "indexed": true,
          "internalType": "address",
          "name": "_newOwner",
          "type": "address"
        }
      ],
      "name": "JobOwnershipAssent",
      "type": "event"
    },
    {
      "anonymous": false,
      "inputs": [
        {
          "indexed": true,
          "internalType": "address",
          "name": "_job",
          "type": "address"
        },
        {
          "indexed": true,
          "internalType": "address",
          "name": "_owner",
          "type": "address"
        },
        {
          "indexed": true,
          "internalType": "address",
          "name": "_pendingOwner",
          "type": "address"
        }
      ],
      "name": "JobOwnershipChange",
      "type": "event"
    },
    {
      "anonymous": false,
      "inputs": [
        {
          "indexed": true,
          "internalType": "address",
          "name": "_job",
          "type": "address"
        },
        {
          "indexed": false,
          "internalType": "address",
          "name": "_liquidity",
          "type": "address"
        },
        {
          "indexed": true,
          "internalType": "address",
          "name": "_slasher",
          "type": "address"
        },
        {
          "indexed": false,
          "internalType": "uint256",
          "name": "_amount",
          "type": "uint256"
        }
      ],
      "name": "JobSlashLiquidity",
      "type": "event"
    },
    {
      "anonymous": false,
      "inputs": [
        {
          "indexed": true,
          "internalType": "address",
          "name": "_job",
          "type": "address"
        },
        {
          "indexed": false,
          "internalType": "address",
          "name": "_token",
          "type": "address"
        },
        {
          "indexed": true,
          "internalType": "address",
          "name": "_slasher",
          "type": "address"
        },
        {
          "indexed": false,
          "internalType": "uint256",
          "name": "_amount",
          "type": "uint256"
        }
      ],
      "name": "JobSlashToken",
      "type": "event"
    },
    {
      "anonymous": false,
      "inputs": [
        {
          "indexed": false,
          "internalType": "address",
          "name": "_keep3rHelper",
          "type": "address"
        }
      ],
      "name": "Keep3rHelperChange",
      "type": "event"
    },
    {
      "anonymous": false,
      "inputs": [
        {
          "indexed": false,
          "internalType": "address",
          "name": "_keep3rV1",
          "type": "address"
        }
      ],
      "name": "Keep3rV1Change",
      "type": "event"
    },
    {
      "anonymous": false,
      "inputs": [
        {
          "indexed": false,
          "internalType": "address",
          "name": "_keep3rV1Proxy",
          "type": "address"
        }
      ],
      "name": "Keep3rV1ProxyChange",
      "type": "event"
    },
    {
      "anonymous": false,
      "inputs": [
        {
          "indexed": true,
          "internalType": "address",
          "name": "_keeper",
          "type": "address"
        },
        {
          "indexed": true,
          "internalType": "address",
          "name": "_slasher",
          "type": "address"
        }
      ],
      "name": "KeeperRevoke",
      "type": "event"
    },
    {
      "anonymous": false,
      "inputs": [
        {
          "indexed": true,
          "internalType": "address",
          "name": "_keeper",
          "type": "address"
        },
        {
          "indexed": true,
          "internalType": "address",
          "name": "_slasher",
          "type": "address"
        },
        {
          "indexed": false,
          "internalType": "uint256",
          "name": "_amount",
          "type": "uint256"
        }
      ],
      "name": "KeeperSlash",
      "type": "event"
    },
    {
      "anonymous": false,
      "inputs": [
        {
          "indexed": false,
          "internalType": "uint256",
          "name": "_gasLeft",
          "type": "uint256"
        }
      ],
      "name": "KeeperValidation",
      "type": "event"
    },
    {
      "anonymous": false,
      "inputs": [
        {
          "indexed": true,
          "internalType": "address",
          "name": "_credit",
          "type": "address"
        },
        {
          "indexed": true,
          "internalType": "address",
          "name": "_job",
          "type": "address"
        },
        {
          "indexed": true,
          "internalType": "address",
          "name": "_keeper",
          "type": "address"
        },
        {
          "indexed": false,
          "internalType": "uint256",
          "name": "_payment",
          "type": "uint256"
        },
        {
          "indexed": false,
          "internalType": "uint256",
          "name": "_gasLeft",
          "type": "uint256"
        }
      ],
      "name": "KeeperWork",
      "type": "event"
    },
    {
      "anonymous": false,
      "inputs": [
        {
          "indexed": false,
          "internalType": "address",
          "name": "_kp3rWethPool",
          "type": "address"
        }
      ],
      "name": "Kp3rWethPoolChange",
      "type": "event"
    },
    {
      "anonymous": false,
      "inputs": [
        {
          "indexed": true,
          "internalType": "address",
          "name": "_job",
          "type": "address"
        },
        {
          "indexed": true,
          "internalType": "address",
          "name": "_liquidity",
          "type": "address"
        },
        {
          "indexed": true,
          "internalType": "address",
          "name": "_provider",
          "type": "address"
        },
        {
          "indexed": false,
          "internalType": "uint256",
          "name": "_amount",
          "type": "uint256"
        }
      ],
      "name": "LiquidityAddition",
      "type": "event"
    },
    {
      "anonymous": false,
      "inputs": [
        {
          "indexed": false,
          "internalType": "address",
          "name": "_liquidity",
          "type": "address"
        }
      ],
      "name": "LiquidityApproval",
      "type": "event"
    },
    {
      "anonymous": false,
      "inputs": [
        {
          "indexed": true,
          "internalType": "address",
          "name": "_job",
          "type": "address"
        },
        {
          "indexed": false,
          "internalType": "uint256",
          "name": "_rewardedAt",
          "type": "uint256"
        },
        {
          "indexed": false,
          "internalType": "uint256",
          "name": "_currentCredits",
          "type": "uint256"
        }
      ],
      "name": "LiquidityCreditsForced",
      "type": "event"
    },
    {
      "anonymous": false,
      "inputs": [
        {
          "indexed": true,
          "internalType": "address",
          "name": "_job",
          "type": "address"
        },
        {
          "indexed": false,
          "internalType": "uint256",
          "name": "_rewardedAt",
          "type": "uint256"
        },
        {
          "indexed": false,
          "internalType": "uint256",
          "name": "_currentCredits",
          "type": "uint256"
        },
        {
          "indexed": false,
          "internalType": "uint256",
          "name": "_periodCredits",
          "type": "uint256"
        }
      ],
      "name": "LiquidityCreditsReward",
      "type": "event"
    },
    {
      "anonymous": false,
      "inputs": [
        {
          "indexed": false,
          "internalType": "uint256",
          "name": "_liquidityMinimum",
          "type": "uint256"
        }
      ],
      "name": "LiquidityMinimumChange",
      "type": "event"
    },
    {
      "anonymous": false,
      "inputs": [
        {
          "indexed": false,
          "internalType": "address",
          "name": "_liquidity",
          "type": "address"
        }
      ],
      "name": "LiquidityRevocation",
      "type": "event"
    },
    {
      "anonymous": false,
      "inputs": [
        {
          "indexed": true,
          "internalType": "address",
          "name": "_job",
          "type": "address"
        },
        {
          "indexed": true,
          "internalType": "address",
          "name": "_liquidity",
          "type": "address"
        },
        {
          "indexed": true,
          "internalType": "address",
          "name": "_receiver",
          "type": "address"
        },
        {
          "indexed": false,
          "internalType": "uint256",
          "name": "_amount",
          "type": "uint256"
        }
      ],
      "name": "LiquidityWithdrawal",
      "type": "event"
    },
    {
      "anonymous": false,
      "inputs": [
        {
          "indexed": true,
          "internalType": "address",
          "name": "_jobOrKeeper",
          "type": "address"
        },
        {
          "indexed": true,
          "internalType": "address",
          "name": "_resolver",
          "type": "address"
        }
      ],
      "name": "Resolve",
      "type": "event"
    },
    {
      "anonymous": false,
      "inputs": [
        {
          "indexed": false,
          "internalType": "uint256",
          "name": "_rewardPeriodTime",
          "type": "uint256"
        }
      ],
      "name": "RewardPeriodTimeChange",
      "type": "event"
    },
    {
      "anonymous": false,
      "inputs": [
        {
          "indexed": false,
          "internalType": "address",
          "name": "_slasher",
          "type": "address"
        }
      ],
      "name": "SlasherAdded",
      "type": "event"
    },
    {
      "anonymous": false,
      "inputs": [
        {
          "indexed": false,
          "internalType": "address",
          "name": "_slasher",
          "type": "address"
        }
      ],
      "name": "SlasherRemoved",
      "type": "event"
    },
    {
      "anonymous": false,
      "inputs": [
        {
          "indexed": true,
          "internalType": "address",
          "name": "_job",
          "type": "address"
        },
        {
          "indexed": true,
          "internalType": "address",
          "name": "_token",
          "type": "address"
        },
        {
          "indexed": true,
          "internalType": "address",
          "name": "_provider",
          "type": "address"
        },
        {
          "indexed": false,
          "internalType": "uint256",
          "name": "_amount",
          "type": "uint256"
        }
      ],
      "name": "TokenCreditAddition",
      "type": "event"
    },
    {
      "anonymous": false,
      "inputs": [
        {
          "indexed": true,
          "internalType": "address",
          "name": "_job",
          "type": "address"
        },
        {
          "indexed": true,
          "internalType": "address",
          "name": "_token",
          "type": "address"
        },
        {
          "indexed": true,
          "internalType": "address",
          "name": "_receiver",
          "type": "address"
        },
        {
          "indexed": false,
          "internalType": "uint256",
          "name": "_amount",
          "type": "uint256"
        }
      ],
      "name": "TokenCreditWithdrawal",
      "type": "event"
    },
    {
      "anonymous": false,
      "inputs": [
        {
          "indexed": false,
          "internalType": "uint256",
          "name": "_unbondTime",
          "type": "uint256"
        }
      ],
      "name": "UnbondTimeChange",
      "type": "event"
    },
    {
      "anonymous": false,
      "inputs": [
        {
          "indexed": true,
          "internalType": "address",
          "name": "_keeperOrJob",
          "type": "address"
        },
        {
          "indexed": true,
          "internalType": "address",
          "name": "_unbonding",
          "type": "address"
        },
        {
          "indexed": false,
          "internalType": "uint256",
          "name": "_amount",
          "type": "uint256"
        }
      ],
      "name": "Unbonding",
      "type": "event"
    },
    {
      "anonymous": false,
      "inputs": [
        {
          "indexed": true,
          "internalType": "address",
          "name": "_keeper",
          "type": "address"
        },
        {
          "indexed": true,
          "internalType": "address",
          "name": "_bond",
          "type": "address"
        },
        {
          "indexed": false,
          "internalType": "uint256",
          "name": "_amount",
          "type": "uint256"
        }
      ],
      "name": "Withdrawal",
      "type": "event"
    },
    {
      "inputs": [],
      "name": "acceptGovernance",
      "outputs": [],
      "stateMutability": "nonpayable",
      "type": "function"
    },
    {
      "inputs": [
        {
          "internalType": "address",
          "name": "_fromJob",
          "type": "address"
        },
        {
          "internalType": "address",
          "name": "_toJob",
          "type": "address"
        }
      ],
      "name": "acceptJobMigration",
      "outputs": [],
      "stateMutability": "nonpayable",
      "type": "function"
    },
    {
      "inputs": [
        {
          "internalType": "address",
          "name": "_job",
          "type": "address"
        }
      ],
      "name": "acceptJobOwnership",
      "outputs": [],
      "stateMutability": "nonpayable",
      "type": "function"
    },
    {
      "inputs": [
        {
          "internalType": "address",
          "name": "_bonding",
          "type": "address"
        }
      ],
      "name": "activate",
      "outputs": [],
      "stateMutability": "nonpayable",
      "type": "function"
    },
    {
      "inputs": [
        {
          "internalType": "address",
          "name": "_disputer",
          "type": "address"
        }
      ],
      "name": "addDisputer",
      "outputs": [],
      "stateMutability": "nonpayable",
      "type": "function"
    },
    {
      "inputs": [
        {
          "internalType": "address",
          "name": "_job",
          "type": "address"
        }
      ],
      "name": "addJob",
      "outputs": [],
      "stateMutability": "nonpayable",
      "type": "function"
    },
    {
      "inputs": [
        {
          "internalType": "address",
          "name": "_job",
          "type": "address"
        },
        {
          "internalType": "address",
          "name": "_liquidity",
          "type": "address"
        },
        {
          "internalType": "uint256",
          "name": "_amount",
          "type": "uint256"
        }
      ],
      "name": "addLiquidityToJob",
      "outputs": [],
      "stateMutability": "nonpayable",
      "type": "function"
    },
    {
      "inputs": [
        {
          "internalType": "address",
          "name": "_slasher",
          "type": "address"
        }
      ],
      "name": "addSlasher",
      "outputs": [],
      "stateMutability": "nonpayable",
      "type": "function"
    },
    {
      "inputs": [
        {
          "internalType": "address",
          "name": "_job",
          "type": "address"
        },
        {
          "internalType": "address",
          "name": "_token",
          "type": "address"
        },
        {
          "internalType": "uint256",
          "name": "_amount",
          "type": "uint256"
        }
      ],
      "name": "addTokenCreditsToJob",
      "outputs": [],
      "stateMutability": "nonpayable",
      "type": "function"
    },
    {
      "inputs": [
        {
          "internalType": "address",
          "name": "_liquidity",
          "type": "address"
        }
      ],
      "name": "approveLiquidity",
      "outputs": [],
      "stateMutability": "nonpayable",
      "type": "function"
    },
    {
      "inputs": [],
      "name": "approvedLiquidities",
      "outputs": [
        {
          "internalType": "address[]",
          "name": "_list",
          "type": "address[]"
        }
      ],
      "stateMutability": "view",
      "type": "function"
    },
    {
      "inputs": [
        {
          "internalType": "address",
          "name": "_bonding",
          "type": "address"
        },
        {
          "internalType": "uint256",
          "name": "_amount",
          "type": "uint256"
        }
      ],
      "name": "bond",
      "outputs": [],
      "stateMutability": "nonpayable",
      "type": "function"
    },
    {
      "inputs": [],
      "name": "bondTime",
      "outputs": [
        {
          "internalType": "uint256",
          "name": "",
          "type": "uint256"
        }
      ],
      "stateMutability": "view",
      "type": "function"
    },
    {
      "inputs": [
        {
          "internalType": "address",
          "name": "_keeper",
          "type": "address"
        },
        {
          "internalType": "uint256",
          "name": "_payment",
          "type": "uint256"
        }
      ],
      "name": "bondedPayment",
      "outputs": [],
      "stateMutability": "nonpayable",
      "type": "function"
    },
    {
      "inputs": [
        {
          "internalType": "address",
          "name": "",
          "type": "address"
        },
        {
          "internalType": "address",
          "name": "",
          "type": "address"
        }
      ],
      "name": "bonds",
      "outputs": [
        {
          "internalType": "uint256",
          "name": "",
          "type": "uint256"
        }
      ],
      "stateMutability": "view",
      "type": "function"
    },
    {
      "inputs": [
        {
          "internalType": "address",
          "name": "",
          "type": "address"
        },
        {
          "internalType": "address",
          "name": "",
          "type": "address"
        }
      ],
      "name": "canActivateAfter",
      "outputs": [
        {
          "internalType": "uint256",
          "name": "",
          "type": "uint256"
        }
      ],
      "stateMutability": "view",
      "type": "function"
    },
    {
      "inputs": [
        {
          "internalType": "address",
          "name": "",
          "type": "address"
        },
        {
          "internalType": "address",
          "name": "",
          "type": "address"
        }
      ],
      "name": "canWithdrawAfter",
      "outputs": [
        {
          "internalType": "uint256",
          "name": "",
          "type": "uint256"
        }
      ],
      "stateMutability": "view",
      "type": "function"
    },
    {
      "inputs": [
        {
          "internalType": "address",
          "name": "_job",
          "type": "address"
        },
        {
          "internalType": "address",
          "name": "_newOwner",
          "type": "address"
        }
      ],
      "name": "changeJobOwnership",
      "outputs": [],
      "stateMutability": "nonpayable",
      "type": "function"
    },
    {
      "inputs": [
        {
          "internalType": "address",
          "name": "_token",
          "type": "address"
        },
        {
          "internalType": "address",
          "name": "_keeper",
          "type": "address"
        },
        {
          "internalType": "uint256",
          "name": "_amount",
          "type": "uint256"
        }
      ],
      "name": "directTokenPayment",
      "outputs": [],
      "stateMutability": "nonpayable",
      "type": "function"
    },
    {
      "inputs": [
        {
          "internalType": "address",
          "name": "_jobOrKeeper",
          "type": "address"
        }
      ],
      "name": "dispute",
      "outputs": [],
      "stateMutability": "nonpayable",
      "type": "function"
    },
    {
      "inputs": [
        {
          "internalType": "address",
          "name": "",
          "type": "address"
        }
      ],
      "name": "disputers",
      "outputs": [
        {
          "internalType": "bool",
          "name": "",
          "type": "bool"
        }
      ],
      "stateMutability": "view",
      "type": "function"
    },
    {
      "inputs": [
        {
          "internalType": "address",
          "name": "",
          "type": "address"
        }
      ],
      "name": "disputes",
      "outputs": [
        {
          "internalType": "bool",
          "name": "",
          "type": "bool"
        }
      ],
      "stateMutability": "view",
      "type": "function"
    },
    {
      "inputs": [],
      "name": "fee",
      "outputs": [
        {
          "internalType": "uint256",
          "name": "",
          "type": "uint256"
        }
      ],
      "stateMutability": "view",
      "type": "function"
    },
    {
      "inputs": [
        {
          "internalType": "address",
          "name": "",
          "type": "address"
        }
      ],
      "name": "firstSeen",
      "outputs": [
        {
          "internalType": "uint256",
          "name": "",
          "type": "uint256"
        }
      ],
      "stateMutability": "view",
      "type": "function"
    },
    {
      "inputs": [
        {
          "internalType": "address",
          "name": "_job",
          "type": "address"
        },
        {
          "internalType": "uint256",
          "name": "_amount",
          "type": "uint256"
        }
      ],
      "name": "forceLiquidityCreditsToJob",
      "outputs": [],
      "stateMutability": "nonpayable",
      "type": "function"
    },
    {
      "inputs": [],
      "name": "governance",
      "outputs": [
        {
          "internalType": "address",
          "name": "",
          "type": "address"
        }
      ],
      "stateMutability": "view",
      "type": "function"
    },
    {
      "inputs": [
        {
          "internalType": "address",
          "name": "",
          "type": "address"
        }
      ],
      "name": "hasBonded",
      "outputs": [
        {
          "internalType": "bool",
          "name": "",
          "type": "bool"
        }
      ],
      "stateMutability": "view",
      "type": "function"
    },
    {
      "inputs": [],
      "name": "inflationPeriod",
      "outputs": [
        {
          "internalType": "uint256",
          "name": "",
          "type": "uint256"
        }
      ],
      "stateMutability": "view",
      "type": "function"
    },
    {
      "inputs": [
        {
          "internalType": "address",
          "name": "_keeper",
          "type": "address"
        },
        {
          "internalType": "address",
          "name": "_bond",
          "type": "address"
        },
        {
          "internalType": "uint256",
          "name": "_minBond",
          "type": "uint256"
        },
        {
          "internalType": "uint256",
          "name": "_earned",
          "type": "uint256"
        },
        {
          "internalType": "uint256",
          "name": "_age",
          "type": "uint256"
        }
      ],
      "name": "isBondedKeeper",
      "outputs": [
        {
          "internalType": "bool",
          "name": "_isBondedKeeper",
          "type": "bool"
        }
      ],
      "stateMutability": "nonpayable",
      "type": "function"
    },
    {
      "inputs": [
        {
          "internalType": "address",
          "name": "_keeper",
          "type": "address"
        }
      ],
      "name": "isKeeper",
      "outputs": [
        {
          "internalType": "bool",
          "name": "_isKeeper",
          "type": "bool"
        }
      ],
      "stateMutability": "nonpayable",
      "type": "function"
    },
    {
      "inputs": [
        {
          "internalType": "address",
          "name": "_job",
          "type": "address"
        }
      ],
      "name": "jobLiquidityCredits",
      "outputs": [
        {
          "internalType": "uint256",
          "name": "_liquidityCredits",
          "type": "uint256"
        }
      ],
      "stateMutability": "view",
      "type": "function"
    },
    {
      "inputs": [
        {
          "internalType": "address",
          "name": "",
          "type": "address"
        }
      ],
      "name": "jobOwner",
      "outputs": [
        {
          "internalType": "address",
          "name": "",
          "type": "address"
        }
      ],
      "stateMutability": "view",
      "type": "function"
    },
    {
      "inputs": [
        {
          "internalType": "address",
          "name": "",
          "type": "address"
        }
      ],
      "name": "jobPendingOwner",
      "outputs": [
        {
          "internalType": "address",
          "name": "",
          "type": "address"
        }
      ],
      "stateMutability": "view",
      "type": "function"
    },
    {
      "inputs": [
        {
          "internalType": "address",
          "name": "_job",
          "type": "address"
        }
      ],
      "name": "jobPeriodCredits",
      "outputs": [
        {
          "internalType": "uint256",
          "name": "_periodCredits",
          "type": "uint256"
        }
      ],
      "stateMutability": "view",
      "type": "function"
    },
    {
      "inputs": [
        {
          "internalType": "address",
          "name": "",
          "type": "address"
        },
        {
          "internalType": "address",
          "name": "",
          "type": "address"
        }
      ],
      "name": "jobTokenCredits",
      "outputs": [
        {
          "internalType": "uint256",
          "name": "",
          "type": "uint256"
        }
      ],
      "stateMutability": "view",
      "type": "function"
    },
    {
      "inputs": [
        {
          "internalType": "address",
          "name": "",
          "type": "address"
        },
        {
          "internalType": "address",
          "name": "",
          "type": "address"
        }
      ],
      "name": "jobTokenCreditsAddedAt",
      "outputs": [
        {
          "internalType": "uint256",
          "name": "",
          "type": "uint256"
        }
      ],
      "stateMutability": "view",
      "type": "function"
    },
    {
      "inputs": [],
      "name": "jobs",
      "outputs": [
        {
          "internalType": "address[]",
          "name": "_list",
          "type": "address[]"
        }
      ],
      "stateMutability": "view",
      "type": "function"
    },
    {
      "inputs": [],
      "name": "keep3rHelper",
      "outputs": [
        {
          "internalType": "address",
          "name": "",
          "type": "address"
        }
      ],
      "stateMutability": "view",
      "type": "function"
    },
    {
      "inputs": [],
      "name": "keep3rV1",
      "outputs": [
        {
          "internalType": "address",
          "name": "",
          "type": "address"
        }
      ],
      "stateMutability": "view",
      "type": "function"
    },
    {
      "inputs": [],
      "name": "keep3rV1Proxy",
      "outputs": [
        {
          "internalType": "address",
          "name": "",
          "type": "address"
        }
      ],
      "stateMutability": "view",
      "type": "function"
    },
    {
      "inputs": [],
      "name": "keepers",
      "outputs": [
        {
          "internalType": "address[]",
          "name": "_list",
          "type": "address[]"
        }
      ],
      "stateMutability": "view",
      "type": "function"
    },
    {
      "inputs": [],
      "name": "kp3rWethPool",
      "outputs": [
        {
          "internalType": "address",
          "name": "",
          "type": "address"
        }
      ],
      "stateMutability": "view",
      "type": "function"
    },
    {
      "inputs": [
        {
          "internalType": "address",
          "name": "",
          "type": "address"
        },
        {
          "internalType": "address",
          "name": "",
          "type": "address"
        }
      ],
      "name": "liquidityAmount",
      "outputs": [
        {
          "internalType": "uint256",
          "name": "",
          "type": "uint256"
        }
      ],
      "stateMutability": "view",
      "type": "function"
    },
    {
      "inputs": [],
      "name": "liquidityMinimum",
      "outputs": [
        {
          "internalType": "uint256",
          "name": "",
          "type": "uint256"
        }
      ],
      "stateMutability": "view",
      "type": "function"
    },
    {
      "inputs": [
        {
          "internalType": "address",
          "name": "_fromJob",
          "type": "address"
        },
        {
          "internalType": "address",
          "name": "_toJob",
          "type": "address"
        }
      ],
      "name": "migrateJob",
      "outputs": [],
      "stateMutability": "nonpayable",
      "type": "function"
    },
    {
      "inputs": [
        {
          "internalType": "address",
          "name": "_liquidity",
          "type": "address"
        }
      ],
      "name": "observeLiquidity",
      "outputs": [
        {
          "components": [
            {
              "internalType": "int56",
              "name": "current",
              "type": "int56"
            },
            {
              "internalType": "int56",
              "name": "difference",
              "type": "int56"
            },
            {
              "internalType": "uint256",
              "name": "period",
              "type": "uint256"
            }
          ],
          "internalType": "struct IKeep3rJobFundableLiquidity.TickCache",
          "name": "_tickCache",
          "type": "tuple"
        }
      ],
      "stateMutability": "view",
      "type": "function"
    },
    {
      "inputs": [
        {
          "internalType": "address",
          "name": "",
          "type": "address"
        },
        {
          "internalType": "address",
          "name": "",
          "type": "address"
        }
      ],
      "name": "pendingBonds",
      "outputs": [
        {
          "internalType": "uint256",
          "name": "",
          "type": "uint256"
        }
      ],
      "stateMutability": "view",
      "type": "function"
    },
    {
      "inputs": [],
      "name": "pendingGovernance",
      "outputs": [
        {
          "internalType": "address",
          "name": "",
          "type": "address"
        }
      ],
      "stateMutability": "view",
      "type": "function"
    },
    {
      "inputs": [
        {
          "internalType": "address",
          "name": "",
          "type": "address"
        }
      ],
      "name": "pendingJobMigrations",
      "outputs": [
        {
          "internalType": "address",
          "name": "",
          "type": "address"
        }
      ],
      "stateMutability": "view",
      "type": "function"
    },
    {
      "inputs": [
        {
          "internalType": "address",
          "name": "",
          "type": "address"
        },
        {
          "internalType": "address",
          "name": "",
          "type": "address"
        }
      ],
      "name": "pendingUnbonds",
      "outputs": [
        {
          "internalType": "uint256",
          "name": "",
          "type": "uint256"
        }
      ],
      "stateMutability": "view",
      "type": "function"
    },
    {
      "inputs": [
        {
          "internalType": "address",
          "name": "_liquidity",
          "type": "address"
        },
        {
          "internalType": "uint256",
          "name": "_amount",
          "type": "uint256"
        }
      ],
      "name": "quoteLiquidity",
      "outputs": [
        {
          "internalType": "uint256",
          "name": "_periodCredits",
          "type": "uint256"
        }
      ],
      "stateMutability": "view",
      "type": "function"
    },
    {
      "inputs": [
        {
          "internalType": "address",
          "name": "_disputer",
          "type": "address"
        }
      ],
      "name": "removeDisputer",
      "outputs": [],
      "stateMutability": "nonpayable",
      "type": "function"
    },
    {
      "inputs": [
        {
          "internalType": "address",
          "name": "_slasher",
          "type": "address"
        }
      ],
      "name": "removeSlasher",
      "outputs": [],
      "stateMutability": "nonpayable",
      "type": "function"
    },
    {
      "inputs": [
        {
          "internalType": "address",
          "name": "_jobOrKeeper",
          "type": "address"
        }
      ],
      "name": "resolve",
      "outputs": [],
      "stateMutability": "nonpayable",
      "type": "function"
    },
    {
      "inputs": [
        {
          "internalType": "address",
          "name": "_keeper",
          "type": "address"
        }
      ],
      "name": "revoke",
      "outputs": [],
      "stateMutability": "nonpayable",
      "type": "function"
    },
    {
      "inputs": [
        {
          "internalType": "address",
          "name": "_liquidity",
          "type": "address"
        }
      ],
      "name": "revokeLiquidity",
      "outputs": [],
      "stateMutability": "nonpayable",
      "type": "function"
    },
    {
      "inputs": [],
      "name": "rewardPeriodTime",
      "outputs": [
        {
          "internalType": "uint256",
          "name": "",
          "type": "uint256"
        }
      ],
      "stateMutability": "view",
      "type": "function"
    },
    {
      "inputs": [
        {
          "internalType": "address",
          "name": "",
          "type": "address"
        }
      ],
      "name": "rewardedAt",
      "outputs": [
        {
          "internalType": "uint256",
          "name": "",
          "type": "uint256"
        }
      ],
      "stateMutability": "view",
      "type": "function"
    },
    {
      "inputs": [
        {
          "internalType": "address",
          "name": "_token",
          "type": "address"
        },
        {
          "internalType": "uint256",
          "name": "_amount",
          "type": "uint256"
        },
        {
          "internalType": "address",
          "name": "_to",
          "type": "address"
        }
      ],
      "name": "sendDust",
      "outputs": [],
      "stateMutability": "nonpayable",
      "type": "function"
    },
    {
      "inputs": [
        {
          "internalType": "uint256",
          "name": "_bondTime",
          "type": "uint256"
        }
      ],
      "name": "setBondTime",
      "outputs": [],
      "stateMutability": "nonpayable",
      "type": "function"
    },
    {
      "inputs": [
        {
          "internalType": "uint256",
          "name": "_fee",
          "type": "uint256"
        }
      ],
      "name": "setFee",
      "outputs": [],
      "stateMutability": "nonpayable",
      "type": "function"
    },
    {
      "inputs": [
        {
          "internalType": "address",
          "name": "_governance",
          "type": "address"
        }
      ],
      "name": "setGovernance",
      "outputs": [],
      "stateMutability": "nonpayable",
      "type": "function"
    },
    {
      "inputs": [
        {
          "internalType": "uint256",
          "name": "_inflationPeriod",
          "type": "uint256"
        }
      ],
      "name": "setInflationPeriod",
      "outputs": [],
      "stateMutability": "nonpayable",
      "type": "function"
    },
    {
      "inputs": [
        {
          "internalType": "address",
          "name": "_keep3rHelper",
          "type": "address"
        }
      ],
      "name": "setKeep3rHelper",
      "outputs": [],
      "stateMutability": "nonpayable",
      "type": "function"
    },
    {
      "inputs": [
        {
          "internalType": "address",
          "name": "_keep3rV1",
          "type": "address"
        }
      ],
      "name": "setKeep3rV1",
      "outputs": [],
      "stateMutability": "nonpayable",
      "type": "function"
    },
    {
      "inputs": [
        {
          "internalType": "address",
          "name": "_keep3rV1Proxy",
          "type": "address"
        }
      ],
      "name": "setKeep3rV1Proxy",
      "outputs": [],
      "stateMutability": "nonpayable",
      "type": "function"
    },
    {
      "inputs": [
        {
          "internalType": "address",
          "name": "_kp3rWethPool",
          "type": "address"
        }
      ],
      "name": "setKp3rWethPool",
      "outputs": [],
      "stateMutability": "nonpayable",
      "type": "function"
    },
    {
      "inputs": [
        {
          "internalType": "uint256",
          "name": "_liquidityMinimum",
          "type": "uint256"
        }
      ],
      "name": "setLiquidityMinimum",
      "outputs": [],
      "stateMutability": "nonpayable",
      "type": "function"
    },
    {
      "inputs": [
        {
          "internalType": "uint256",
          "name": "_rewardPeriodTime",
          "type": "uint256"
        }
      ],
      "name": "setRewardPeriodTime",
      "outputs": [],
      "stateMutability": "nonpayable",
      "type": "function"
    },
    {
      "inputs": [
        {
          "internalType": "uint256",
          "name": "_unbondTime",
          "type": "uint256"
        }
      ],
      "name": "setUnbondTime",
      "outputs": [],
      "stateMutability": "nonpayable",
      "type": "function"
    },
    {
      "inputs": [
        {
          "internalType": "address",
          "name": "_keeper",
          "type": "address"
        },
        {
          "internalType": "address",
          "name": "_bonded",
          "type": "address"
        },
        {
          "internalType": "uint256",
          "name": "_bondAmount",
          "type": "uint256"
        },
        {
          "internalType": "uint256",
          "name": "_unbondAmount",
          "type": "uint256"
        }
      ],
      "name": "slash",
      "outputs": [],
      "stateMutability": "nonpayable",
      "type": "function"
    },
    {
      "inputs": [
        {
          "internalType": "address",
          "name": "_job",
          "type": "address"
        },
        {
          "internalType": "address",
          "name": "_liquidity",
          "type": "address"
        },
        {
          "internalType": "uint256",
          "name": "_amount",
          "type": "uint256"
        }
      ],
      "name": "slashLiquidityFromJob",
      "outputs": [],
      "stateMutability": "nonpayable",
      "type": "function"
    },
    {
      "inputs": [
        {
          "internalType": "address",
          "name": "_job",
          "type": "address"
        },
        {
          "internalType": "address",
          "name": "_token",
          "type": "address"
        },
        {
          "internalType": "uint256",
          "name": "_amount",
          "type": "uint256"
        }
      ],
      "name": "slashTokenFromJob",
      "outputs": [],
      "stateMutability": "nonpayable",
      "type": "function"
    },
    {
      "inputs": [
        {
          "internalType": "address",
          "name": "",
          "type": "address"
        }
      ],
      "name": "slashers",
      "outputs": [
        {
          "internalType": "bool",
          "name": "",
          "type": "bool"
        }
      ],
      "stateMutability": "view",
      "type": "function"
    },
    {
      "inputs": [
        {
          "internalType": "address",
          "name": "_job",
          "type": "address"
        }
      ],
      "name": "totalJobCredits",
      "outputs": [
        {
          "internalType": "uint256",
          "name": "_credits",
          "type": "uint256"
        }
      ],
      "stateMutability": "view",
      "type": "function"
    },
    {
      "inputs": [
        {
          "internalType": "address",
          "name": "_bonding",
          "type": "address"
        },
        {
          "internalType": "uint256",
          "name": "_amount",
          "type": "uint256"
        }
      ],
      "name": "unbond",
      "outputs": [],
      "stateMutability": "nonpayable",
      "type": "function"
    },
    {
      "inputs": [
        {
          "internalType": "address",
          "name": "_job",
          "type": "address"
        },
        {
          "internalType": "address",
          "name": "_liquidity",
          "type": "address"
        },
        {
          "internalType": "uint256",
          "name": "_amount",
          "type": "uint256"
        }
      ],
      "name": "unbondLiquidityFromJob",
      "outputs": [],
      "stateMutability": "nonpayable",
      "type": "function"
    },
    {
      "inputs": [],
      "name": "unbondTime",
      "outputs": [
        {
          "internalType": "uint256",
          "name": "",
          "type": "uint256"
        }
      ],
      "stateMutability": "view",
      "type": "function"
    },
    {
      "inputs": [
        {
          "internalType": "address",
          "name": "_bonding",
          "type": "address"
        }
      ],
      "name": "withdraw",
      "outputs": [],
      "stateMutability": "nonpayable",
      "type": "function"
    },
    {
      "inputs": [
        {
          "internalType": "address",
          "name": "_job",
          "type": "address"
        },
        {
          "internalType": "address",
          "name": "_liquidity",
          "type": "address"
        },
        {
          "internalType": "address",
          "name": "_receiver",
          "type": "address"
        }
      ],
      "name": "withdrawLiquidityFromJob",
      "outputs": [],
      "stateMutability": "nonpayable",
      "type": "function"
    },
    {
      "inputs": [
        {
          "internalType": "address",
          "name": "_job",
          "type": "address"
        },
        {
          "internalType": "address",
          "name": "_token",
          "type": "address"
        },
        {
          "internalType": "uint256",
          "name": "_amount",
          "type": "uint256"
        },
        {
          "internalType": "address",
          "name": "_receiver",
          "type": "address"
        }
      ],
      "name": "withdrawTokenCreditsFromJob",
      "outputs": [],
      "stateMutability": "nonpayable",
      "type": "function"
    },
    {
      "inputs": [
        {
          "internalType": "address",
          "name": "",
          "type": "address"
        }
      ],
      "name": "workCompleted",
      "outputs": [
        {
          "internalType": "uint256",
          "name": "",
          "type": "uint256"
        }
      ],
      "stateMutability": "view",
      "type": "function"
    },
    {
      "inputs": [
        {
          "internalType": "address",
          "name": "_keeper",
          "type": "address"
        }
      ],
      "name": "worked",
      "outputs": [],
      "stateMutability": "nonpayable",
      "type": "function"
    },
    {
      "inputs": [
        {
          "internalType": "address",
          "name": "",
          "type": "address"
        }
      ],
      "name": "workedAt",
      "outputs": [
        {
          "internalType": "uint256",
          "name": "",
          "type": "uint256"
        }
      ],
      "stateMutability": "view",
      "type": "function"
    }
  ],
  "transactionHash": "0xb1310a9dd5fa5eff681016e0213bc39797cd8e75ef21ef3f45ad52c9c0ca3bb9",
  "args": [
    "0x54054EA2db6eDC336cB87966815FD66Cc337f224",
    "0xd36ac9ff5562abb541f51345f340fb650547a661",
    "0x1cEB5cB57C4D4E2b2433641b95Dd330A33185A44",
    "0x976b01c02c636Dd5901444B941442FD70b86dcd5",
    "0x11b7a6bc0259ed6cf9db8f499988f9ecc7167bf5"
  ],
  "numDeployments": 2,
  "solcInputHash": "b8876691210a06f2046b37f0b14142fa",
  "bytecode": "0x60806040526203f480601f55621275006020556729a2241af62c000060215562069780602255622cd300602355601e6024553480156200003e57600080fd5b5060405162006244380380620062448339810160408190526200006191620001ce565b60016000558383838388806001600160a01b038116620000935760405162b293ed60e81b815260040160405180910390fd5b601780546001600160a01b03199081166001600160a01b0393841617909155601d80548216888416178155601b80548316888516179055601c80548316878516179055601e8054831686851690811782556000818152600e602052604090819020805490951690911790935590549054915163696a437b60e01b81529183166004830152909116915063696a437b9060240160206040518083038186803b1580156200013e57600080fd5b505afa15801562000153573d6000803e3d6000fd5b505050506040513d601f19601f820116820180604052508101906200017991906200023e565b6001600160a01b03919091166000908152600f60205260409020805460ff191691151591909117905550620002699650505050505050565b80516001600160a01b0381168114620001c957600080fd5b919050565b600080600080600060a08688031215620001e757600080fd5b620001f286620001b1565b94506200020260208701620001b1565b93506200021260408701620001b1565b92506200022260608701620001b1565b91506200023260808701620001b1565b90509295509295909350565b6000602082840312156200025157600080fd5b815180151581146200026257600080fd5b9392505050565b615fcb80620002796000396000f3fe608060405234801561001057600080fd5b50600436106103ec5760003560e01c806390a4684e1161020d578063c5198abc11610121578063c5198abc146109e1578063c7ae40d0146109f4578063cb4be2bb14610a07578063cb54694d14610a1a578063cd22af1b14610a2d578063d55995fe14610a58578063dd2080d614610a6b578063ddca3f4314610a7e578063e326ac4314610a87578063ebbb619414610aa7578063ec00cdfc14610aba578063ec8ca64314610acd578063f0f346b914610af6578063f11a1d1a14610b09578063f136a09d14610b1c578063f25e311b14610b3c578063f39c38a014610b4f578063f75f9f7b14610b62578063f9d46cf214610b75578063fc253d2b14610b88578063fe75bc4614610b9157600080fd5b806390a4684e146107f4578063951dc22c14610807578063966abd001461080f57806398e90a0f146108225780639d5c33d81461084b578063a21458091461085e578063a39744b514610871578063a515366a1461089c578063a5d059ca146108af578063a676f9ff146108c2578063a7d2e784146108e2578063aac6aa9c146108eb578063ab033ea9146108fe578063af320e8114610911578063b0103b1a14610924578063b239223314610947578063b440027f1461095a578063b600702a14610985578063b7e7734014610998578063b87fcbff146109ab578063c20297f0146109ce57600080fd5b806359a2255e1161030457806359a2255e146106505780635aa6e675146106635780635ebe23f0146106765780635feeb7941461067f578063633fb68f1461069257806364bb43ee1461069b57806368a9f19c146106ae578063694798e6146106c157806369fe0e2d146106ec5780636ba42aaa146106ff5780636cf262bc146107125780636e2a9ca61461072557806372da828a1461073857806374a8f1031461074b578063768b5d901461075e5780637b40c913146107675780637c8fce231461077a578063878c723e146107825780638bb6dfa8146107ab5780638cb22b76146107be5780638fe204dd146107e157600080fd5b8063034d4c61146103f157806307b435c2146104175780630c620bce146104425780630d6a1f87146104575780631101eb411461046a57806311466d721461047f57806315006b8214610492578063160e1e31146104bd578063165e62e7146104d0578063168f92e71461050d5780631b44555e146105385780631c5a9d9c146105585780631ef94b911461056b57806321040b011461058b578063238efcbc146105b6578063274a8db4146105be57806351cff8d9146105f157806352a4de291461060457806355ea6c4714610617578063575288bf1461062a578063594a3a931461063d575b600080fd5b6104046103ff36600461591c565b610ba4565b6040519081526020015b60405180910390f35b610404610425366004615956565b601260209081526000928352604080842090915290825290205481565b61044a610caa565b60405161040e9190615ccb565b610404610465366004615b05565b610cbb565b61047d6104783660046159da565b610dc1565b005b61047d61048d366004615b05565b610f1b565b6104046104a0366004615956565b601060209081526000928352604080842090915290825290205481565b61047d6104cb36600461591c565b6110aa565b6104e36104de36600461591c565b611210565b604080518251600690810b825260208085015190910b90820152918101519082015260600161040e565b61040461051b366004615956565b600960209081526000928352604080842090915290825290205481565b61040461054636600461591c565b60056020526000908152604090205481565b61047d61056636600461591c565b6115d6565b601b5461057e906001600160a01b031681565b60405161040e9190615c42565b610404610599366004615956565b601360209081526000928352604080842090915290825290205481565b61047d61170f565b6105e16105cc36600461591c565b601a6020526000908152604090205460ff1681565b604051901515815260200161040e565b61047d6105ff36600461591c565b61179b565b61047d6106123660046159da565b6119a4565b61047d61062536600461591c565b611bd5565b61047d6106383660046159da565b611c89565b61047d61064b366004615956565b611f4c565b61047d61065e36600461591c565b611ff1565b60175461057e906001600160a01b031681565b610404601f5481565b61047d61068d36600461591c565b6120a3565b61040460215481565b61047d6106a936600461591c565b61230d565b61047d6106bc36600461591c565b61238f565b6104046106cf366004615956565b602860209081526000928352604080842090915290825290205481565b61047d6106fa366004615bc6565b612447565b6105e161070d36600461591c565b6124a7565b61040461072036600461591c565b612507565b61047d6107333660046159da565b61263d565b61047d61074636600461591c565b61278c565b61047d61075936600461591c565b612829565b61040460225481565b601e5461057e906001600160a01b031681565b61044a612924565b61057e61079036600461591c565b6001602052600090815260409020546001600160a01b031681565b6104046107b936600461591c565b612930565b6105e16107cc36600461591c565b60146020526000908152604090205460ff1681565b61047d6107ef366004615bc6565b6129d3565b61047d610802366004615956565b612a31565b61044a612b1f565b61047d61081d366004615b31565b612b2b565b61057e61083036600461591c565b6002602052600090815260409020546001600160a01b031681565b61047d61085936600461591c565b612c41565b61047d61086c36600461598f565b612cf9565b61040461087f366004615956565b600860209081526000928352604080842090915290825290205481565b61047d6108aa366004615b05565b612ec9565b61047d6108bd366004615b05565b61312a565b6104046108d036600461591c565b60296020526000908152604090205481565b61040460205481565b61047d6108f936600461591c565b6131fd565b61047d61090c36600461591c565b6132b1565b61047d61091f366004615956565b613327565b6105e161093236600461591c565b60076020526000908152604090205460ff1681565b61047d610955366004615bc6565b6137a6565b610404610968366004615956565b602560209081526000928352604080842090915290825290205481565b61047d61099336600461591c565b613806565b61047d6109a6366004615bc6565b613a2b565b6105e16109b936600461591c565b60196020526000908152604090205460ff1681565b61047d6109dc366004615a6e565b613a8b565b61047d6109ef36600461591c565b613b4d565b601c5461057e906001600160a01b031681565b61047d610a1536600461591c565b613c12565b61047d610a28366004615bc6565b613caf565b610404610a3b366004615956565b601160209081526000928352604080842090915290825290205481565b61047d610a66366004615a1b565b613d33565b61047d610a793660046159da565b613f6a565b61040460245481565b610404610a9536600461591c565b60066020526000908152604090205481565b61047d610ab5366004615bc6565b6140e7565b61047d610ac836600461591c565b614147565b61057e610adb36600461591c565b602c602052600090815260409020546001600160a01b031681565b61047d610b0436600461591c565b6141e4565b601d5461057e906001600160a01b031681565b610404610b2a36600461591c565b602a6020526000908152604090205481565b61047d610b4a3660046159da565b614298565b60185461057e906001600160a01b031681565b61047d610b7036600461591c565b6144dd565b6105e1610b83366004615ab4565b614595565b61040460235481565b61047d610b9f366004615b05565b61467e565b600080610bb083612507565b6022549091504290610bcb90610bc69083615e4c565b61476e565b6001600160a01b0385166000908152602960205260409020541115610c6f576022546001600160a01b038516600090815260296020526040902054610c109042615e4c565b10610c4c576022546001600160a01b038516600090815260296020526040902054610c3b9190615db1565b610c459082615e4c565b9050610c85565b6001600160a01b038416600090815260296020526040902054610c459082615e4c565b610c784261476e565b610c829082615e4c565b90505b610c8f8183614788565b610c9885612930565b610ca29190615db1565b949350505050565b6060610cb660266147b2565b905090565b6000610cc86026846147c6565b15610dbb576000610cd884611210565b90508060400151600014610db9576001600160a01b0384166000908152600f602052604081205460ff16610d19578160200151610d1490615ebe565b610d1f565b81602001515b601d5460225460405163a0d2710760e01b8152929350610db0926001600160a01b039092169163a0d2710791610d5b9189918791600401615d82565b60206040518083038186803b158015610d7357600080fd5b505afa158015610d87573d6000803e3d6000fd5b505050506040513d601f19601f82011682018060405250810190610dab9190615bdf565b6147e8565b92505050610dbb565b505b92915050565b6001600160a01b038381166000908152600160205260409020548491163314610dfd57604051636efb4f4160e11b815260040160405180910390fd5b602054610e0a9042615db1565b6001600160a01b03808616600081815260126020908152604080832094891680845294825280832095909555918152601382528381209281529190529081208054849290610e59908490615db1565b90915550610e6a90508484846147f9565b6001600160a01b038085166000908152602860209081526040808320938716835292905220548015801590610ea95750602154610ea78286614a07565b105b15610ec757604051636f447fcd60e11b815260040160405180910390fd5b836001600160a01b0316856001600160a01b03167f9aaab310d247ad45aef26bbdefc4ebf20c728fdb84c92b95b2b05d21826940de85604051610f0c91815260200190565b60405180910390a35050505050565b3360008181526007602052604090205460ff1615610f4c5760405163ad2fdf3b60e01b815260040160405180910390fd5b610f576015826147c6565b610f735760405162941a5760e11b815260040160405180910390fd5b610f7c81614b25565b15610fd7576001600160a01b038116600081815260296020908152604080832054600a835281842054600b90935292819020549051600080516020615f7683398151915293610fce9390929091615d9b565b60405180910390a25b6001600160a01b0381166000908152600a60205260409020548211156110565761100081614cfb565b6001600160a01b038116600081815260296020908152604080832054600a835281842054600b90935292819020549051600080516020615f768339815191529361104d9390929091615d9b565b60405180910390a25b611061818484614d89565b601b546001600160a01b03808516918382169116600080516020615f568339815191528561108d614e6d565b6040805192835260208301919091520160405180910390a4505050565b6017546001600160a01b031633146110d5576040516354348f0360e01b815260040160405180910390fd5b6001600160a01b0381166110fc5760405163d92e233d60e01b815260040160405180910390fd5b601e80546001600160a01b038084166001600160a01b031992831681179093556000838152600e6020526040908190208054909316909317909155601d54915163696a437b60e01b815291169063696a437b9061115d908490600401615c42565b60206040518083038186803b15801561117557600080fd5b505afa158015611189573d6000803e3d6000fd5b505050506040513d601f19601f820116820180604052508101906111ad9190615b68565b6001600160a01b0382166000908152600f602052604090819020805460ff191692151592909217909155517f9bb1515b0fc2645a3f011162460a22fdd512e0bca265e7dc9ba6bceae8930afa90611205908390615c42565b60405180910390a150565b60408051606081018252600080825260208201819052918101919091526112364261476e565b6001600160a01b0383166000908152602b602052604090206001015414156112ac57506001600160a01b03166000908152602b602090815260409182902082516060810184528154600681810b810b810b8352600160381b909104810b810b900b92810192909252600101549181019190915290565b6000806112c060225442610bc69190615e4c565b6001600160a01b0385166000908152602b602052604090206001015490915081141561142457604080516001808252818301909252600091602080830190803683375050506001600160a01b0386166000908152602b602052604090205490915060060b61132d4261476e565b6113379042615e4c565b8260008151811061134a5761134a615f27565b63ffffffff909216602092830291909101820152601d546001600160a01b038881166000908152600e90935260409283902054925163dc686d9160e01b81529181169263dc686d91926113a69291909116908690600401615c56565b60606040518083038186803b1580156113be57600080fd5b505afa1580156113d2573d6000803e3d6000fd5b505050506040513d601f19601f820116820180604052508101906113f69190615b83565b600692830b90920b80885291955061141091839150615dfc565b600690810b900b6020860152506115ad9050565b6001600160a01b0384166000908152602b60205260409020600101548111156115ad576040805160028082526060820183526000926020830190803683370190505090506114714261476e565b61147b9042615e4c565b8160008151811061148e5761148e615f27565b602002602001019063ffffffff16908163ffffffff16815250506022546114b44261476e565b6114be9042615e4c565b6114c89190615db1565b816001815181106114db576114db615f27565b63ffffffff909216602092830291909101820152601d546001600160a01b038781166000908152600e909352604080842054905163dc686d9160e01b81529282169263dc686d91926115339216908690600401615c56565b60606040518083038186803b15801561154b57600080fd5b505afa15801561155f573d6000803e3d6000fd5b505050506040513d601f19601f820116820180604052508101906115839190615b83565b600692830b90920b808852919550915061159e908290615dfc565b600690810b900b602086015250505b81156115c6576115bc4261476e565b60408401526115ce565b600060408401525b50505b919050565b3360009081526007602052604090205460ff1615611607576040516362e6201d60e01b815260040160405180910390fd5b3360009081526011602090815260408083206001600160a01b038516845290915290205461164857604051636258f48160e01b815260040160405180910390fd5b3360009081526011602090815260408083206001600160a01b0385168452909152902054421161168b57604051630fd0eeef60e11b815260040160405180910390fd5b3360008181526011602090815260408083206001600160a01b03861684529091528120819055906116bc9083614e87565b9050816001600160a01b0316336001600160a01b03167f3673530133b6da67e9854f605b0cfa7bb9798cd33c18036dfc10d8da7c4d4a758360405161170391815260200190565b60405180910390a35050565b6018546001600160a01b0316331461173a57604051637ef5703160e11b815260040160405180910390fd5b60188054601780546001600160a01b0383166001600160a01b031991821681179092559091169091556040517fc73be659241aade67e9a059bcf21494955018b213dbd1179054ccf928b13f3b69161179191615c42565b60405180910390a1565b600260005414156117c75760405162461bcd60e51b81526004016117be90615d4b565b60405180910390fd5b600260009081553381526013602090815260408083206001600160a01b038516845290915290205461180c5760405163184c088160e21b815260040160405180910390fd5b3360009081526012602090815260408083206001600160a01b0385168452909152902054421161184f576040516327cfdcb760e01b815260040160405180910390fd5b3360009081526007602052604090205460ff1615611880576040516362e6201d60e01b815260040160405180910390fd5b3360009081526013602090815260408083206001600160a01b0385811680865291909352922054601b5490929116141561191357601c5460405163140e25ad60e31b8152600481018390526001600160a01b039091169063a0712d6890602401600060405180830381600087803b1580156118fa57600080fd5b505af115801561190e573d6000803e3d6000fd5b505050505b3360008181526013602090815260408083206001600160a01b0387168085529083528184208490558484526012835281842081855290925282209190915561195b9183614f9e565b6040518181526001600160a01b0383169033907f2717ead6b9200dd235aad468c9809ea400fe33ac69b5bfaa6d3e90fc922b63989060200160405180910390a350506001600055565b600260005414156119c75760405162461bcd60e51b81526004016117be90615d4b565b60026000556119d76026836147c6565b6119f45760405163e0b6aead60e01b815260040160405180910390fd5b6119ff6015846147c6565b611a1c57604051636211d34960e01b815260040160405180910390fd5b6001600160a01b0383166000908152600d60205260409020611a3e9083614ff9565b50611a488361500e565b6021546001600160a01b03808516600090815260286020908152604080832093871683529290522054611a8690611a80908490615db1565b84614a07565b1015611aa557604051636f447fcd60e11b815260040160405180910390fd5b6001600160a01b038316600081815260296020908152604080832054600a835281842054600b90935292819020549051600080516020615f7683398151915293611af29390929091615d9b565b60405180910390a2611b0f6001600160a01b03831633308461506c565b6001600160a01b03808416600090815260286020908152604080832093861683529290529081208054839290611b46908490615db1565b90915550611b599050610dab8284614a07565b6001600160a01b0384166000908152600b602052604081208054909190611b81908490615db1565b909155505060405181815233906001600160a01b0384811691908616907f4e186bc75a2220191b826baff3ee63c3e970e94e58a9007ff94c9a7b8e6ebb3f9060200160405180910390a45050600160005550565b336000908152601a602052604090205460ff16611c0557604051630942721960e31b815260040160405180910390fd5b6001600160a01b03811660009081526007602052604090205460ff16611c3e576040516310cec38560e21b815260040160405180910390fd5b6001600160a01b038116600081815260076020526040808220805460ff19169055513392917fe02b2375d8fb4aef3e5bc5d53bffcf70b6f185c5c93e69dcbe8b6cfc58e837e291a350565b60026000541415611cac5760405162461bcd60e51b81526004016117be90615d4b565b6002600055611cbc6015846147c6565b611cd957604051636211d34960e01b815260040160405180910390fd5b601b546001600160a01b0383811691161415611d075760405162822d9760e71b815260040160405180910390fd5b6040516370a0823160e01b81526000906001600160a01b038416906370a0823190611d36903090600401615c42565b60206040518083038186803b158015611d4e57600080fd5b505afa158015611d62573d6000803e3d6000fd5b505050506040513d601f19601f82011682018060405250810190611d869190615bdf565b9050611d9d6001600160a01b03841633308561506c565b600081846001600160a01b03166370a08231306040518263ffffffff1660e01b8152600401611dcc9190615c42565b60206040518083038186803b158015611de457600080fd5b505afa158015611df8573d6000803e3d6000fd5b505050506040513d601f19601f82011682018060405250810190611e1c9190615bdf565b611e269190615e4c565b9050600061271060245483611e3b9190615ddd565b611e459190615dc9565b9050611e518183615e4c565b6001600160a01b038088166000908152600960209081526040808320938a1683529290529081208054909190611e88908490615db1565b90915550506001600160a01b0380871660009081526025602090815260408083208985168085529252909120429055601754611ec5921683614f9e565b6001600160a01b0386166000908152600c60205260409020611ee79086614ff9565b50336001600160a01b0316856001600160a01b0316876001600160a01b03167fec1a37d4a331a5059081e0fb5da1735e7890900cd215a4fb1e9f2779fd7b83eb85604051611f3791815260200190565b60405180910390a45050600160005550505050565b6001600160a01b038281166000908152600160205260409020548391163314611f8857604051636efb4f4160e11b815260040160405180910390fd5b6001600160a01b03838116600081815260026020908152604080832080546001600160a01b031916888716908117909155600190925280832054905191941692917fa8bad3f0b781e1d954af9945167d5f80bfe5e57930f17c93843187c77557a6b891a4505050565b6001600160a01b03818116600090815260026020526040902054829116331461202d5760405163cfe9663360e01b815260040160405180910390fd5b6001600160a01b03828116600081815260016020908152604080832080546002909352818420805487166001600160a01b031980861691909117909255805490911690555193169283929133917fcf30c54296d5eee76168b564c59c50578d49c271733a470f32707c8cfbc88a8b9190a4505050565b3360008181526007602052604090205460ff16156120d45760405163ad2fdf3b60e01b815260040160405180910390fd5b6120df6015826147c6565b6120fb5760405162941a5760e11b815260040160405180910390fd5b61210481614b25565b1561215f576001600160a01b038116600081815260296020908152604080832054600a835281842054600b90935292819020549051600080516020615f76833981519152936121569390929091615d9b565b60405180910390a25b601d546001600160a01b038381166000908152600860209081526040808320601b548516845290915280822054905163435b21c160e01b8152600481019190915290928392839291169063435b21c19060240160606040518083038186803b1580156121ca57600080fd5b505afa1580156121de573d6000803e3d6000fd5b505050506040513d601f19601f820116820180604052508101906122029190615bf8565b9250925092506000612212614e6d565b90506000612222828486886150aa565b6001600160a01b0387166000908152600a60205260409020549091508111156122bc5761224e86614cfb565b6001600160a01b038616600081815260296020908152604080832054600a835281842054600b90935292819020549051600080516020615f768339815191529361229b9390929091615d9b565b60405180910390a26122ab614e6d565b91506122b9828486886150aa565b90505b6122c7868883614d89565b601b5460408051838152602081018590526001600160a01b038a8116938a821693911691600080516020615f56833981519152910160405180910390a450505050505050565b6017546001600160a01b03163314612338576040516354348f0360e01b815260040160405180910390fd5b612343602682615107565b61236057604051630a8d08b160e01b815260040160405180910390fd5b7f51199d699bdfd516fa88dd0d2f8487c40c147b4867acaa23adc8d4df6b098e56816040516112059190615c42565b6017546001600160a01b031633146123ba576040516354348f0360e01b815260040160405180910390fd5b6001600160a01b03811660009081526019602052604090205460ff16156123f45760405163546da66560e11b815260040160405180910390fd5b6001600160a01b03811660009081526019602052604090819020805460ff19166001179055517f049ccb28ab796d3225573a065712f6e7754487ced56056cda8889c337511807b90611205908390615c42565b6017546001600160a01b03163314612472576040516354348f0360e01b815260040160405180910390fd5b60248190556040518181527f4c10ca068ff7002cf5da78f2f697d1e91f6f0ac27f7344b28e8ef25263f87e5d90602001611205565b60006124b1614e6d565b602e556124bf6003836147c6565b156115d1577f4851cad52e624c8f7a1d44c28a80db05988ba2451fc0db6b0ec338d8eca95afb602e546040516124f791815260200190565b60405180910390a1506001919050565b6000805b6001600160a01b0383166000908152600d6020526040902061252c9061511c565b811015612637576001600160a01b0383166000908152600d602052604081206125559083615126565b90506125626026826147c6565b1561262457600061257282611210565b90508060400151600014612622576001600160a01b0382166000908152600f602052604081205460ff166125b35781602001516125ae90615ebe565b6125b9565b81602001515b601d546001600160a01b03888116600090815260286020908152604080832089851684529091529081902054602254915163a0d2710760e01b815294955061261494929093169263a0d2710792610d5b928791600401615d82565b61261e9086615db1565b9450505b505b508061262f81615e8f565b91505061250b565b50919050565b3360009081526019602052604090205460ff1661266d57604051637e57b1e160e01b815260040160405180910390fd5b6001600160a01b03831660009081526007602052604090205460ff166126a6576040516310cec38560e21b815260040160405180910390fd5b6126b18383836147f9565b60175460405163a9059cbb60e01b81526001600160a01b038481169263a9059cbb926126e592909116908590600401615cb2565b602060405180830381600087803b1580156126ff57600080fd5b505af192505050801561272f575060408051601f3d908101601f1916820190925261272c91810190615b68565b60015b6127385761273a565b505b336001600160a01b0316836001600160a01b03167f6e10247c3c094d220ee99436c164b7f38d63b335a20ed817cbefaee4bb02d20e848460405161277f929190615cb2565b60405180910390a3505050565b6017546001600160a01b031633146127b7576040516354348f0360e01b815260040160405180910390fd5b6001600160a01b0381166127de5760405163d92e233d60e01b815260040160405180910390fd5b601d80546001600160a01b0319166001600160a01b0383161790556040517f71973fd672e51deb8f739b1f7e1eab991936645acd6f83e2bde6eeeaff5490b090611205908390615c42565b3360009081526019602052604090205460ff1661285957604051637e57b1e160e01b815260040160405180910390fd5b6001600160a01b03811660009081526007602052604090205460ff16612892576040516310cec38560e21b815260040160405180910390fd5b61289d600382615107565b50601b546001600160a01b038083166000818152600860209081526040808320949095168083529381528482205492825260138152848220848352905292909220546128eb92849291615132565b60405133906001600160a01b038316907f038a17b9b553c0c3fc2ed14b957a5d8420a1666fd2efe5c1b3fe5f23eea61bb390600090a350565b6060610cb660156147b2565b60008061293c83612507565b6022546001600160a01b038516600090815260296020526040902054919250906129669042615e4c565b1015610dbb5760008111612992576001600160a01b0383166000908152600a60205260409020546129cc565b6001600160a01b0383166000908152600b6020908152604080832054600a909252909120546129c2908390615ddd565b6129cc9190615dc9565b9150612637565b6017546001600160a01b031633146129fe576040516354348f0360e01b815260040160405180910390fd5b60208181556040518281527fc8d443472c9783cc36f8f5f5091f08ce9f37fc2f9e6d79cf1d9aaf40a433fee29101611205565b6001600160a01b038281166000908152600160205260409020548391163314612a6d57604051636efb4f4160e11b815260040160405180910390fd5b816001600160a01b0316836001600160a01b03161415612aa05760405163afe7ad4960e01b815260040160405180910390fd5b6001600160a01b038381166000818152602c6020908152604080832080546001600160a01b0319169588169586179055602d825280832094835293905282902042905590517fff0456758201108de53c0ff04c69988d4678ff455b2ce6f733328cf85722c04c90612b12908590615c42565b60405180910390a2505050565b6060610cb660036147b2565b6017546001600160a01b03163314612b56576040516354348f0360e01b815260040160405180910390fd5b6001600160a01b038116612b7d5760405163d92e233d60e01b815260040160405180910390fd5b6001600160a01b03831673eeeeeeeeeeeeeeeeeeeeeeeeeeeeeeeeeeeeeeee1415612bde576040516001600160a01b0382169083156108fc029084906000818181858888f19350505050158015612bd8573d6000803e3d6000fd5b50612bf2565b612bf26001600160a01b0384168284614f9e565b604080516001600160a01b0385811682526020820185905283168183015290517f9a3055ded8c8b5f21bbf4946c5afab6e1fa8b3f057922658e5e1ade125fb0b1e9181900360600190a1505050565b6017546001600160a01b03163314612c6c576040516354348f0360e01b815260040160405180910390fd5b6001600160a01b0381166000908152601a602052604090205460ff1615612ca65760405163274e25dd60e11b815260040160405180910390fd5b6001600160a01b0381166000908152601a602052604090819020805460ff19166001179055517f8addc69f897ecca0e41d70ed4ff9d75a9148a615a0fbda8597e53aea2684302f90611205908390615c42565b6001600160a01b038381166000908152600160205260409020548491163314612d3557604051636efb4f4160e11b815260040160405180910390fd5b6001600160a01b038216612d5c5760405163d92e233d60e01b815260040160405180910390fd5b6001600160a01b03808516600090815260136020908152604080832093871683529290522054612d9f5760405163184c088160e21b815260040160405180910390fd5b6001600160a01b038085166000908152601260209081526040808320938716835292905220544211612de4576040516327cfdcb760e01b815260040160405180910390fd5b6001600160a01b03841660009081526007602052604090205460ff1615612e1e576040516362e6201d60e01b815260040160405180910390fd5b6001600160a01b0380851660008181526013602090815260408083209488168084529482528083208054908490559383526012825280832085845290915281205590612e6b908483614f9e565b826001600160a01b0316846001600160a01b0316866001600160a01b03167ffdb7893bf11f50c621e59cc7f1cf540e94295cb27ca869ec7ed7618ca792886284604051612eba91815260200190565b60405180910390a45050505050565b60026000541415612eec5760405162461bcd60e51b81526004016117be90615d4b565b600260009081553381526007602052604090205460ff1615612f21576040516362e6201d60e01b815260040160405180910390fd5b612f2c6015336147c6565b15612f4a5760405163d7229c4360e01b815260040160405180910390fd5b601f54612f579042615db1565b3360009081526011602090815260408083206001600160a01b03871680855292528083209390935591516370a0823160e01b81529091906370a0823190612fa2903090600401615c42565b60206040518083038186803b158015612fba57600080fd5b505afa158015612fce573d6000803e3d6000fd5b505050506040513d601f19601f82011682018060405250810190612ff29190615bdf565b90506130096001600160a01b03841633308561506c565b6040516370a0823160e01b815281906001600160a01b038516906370a0823190613037903090600401615c42565b60206040518083038186803b15801561304f57600080fd5b505afa158015613063573d6000803e3d6000fd5b505050506040513d601f19601f820116820180604052508101906130879190615bdf565b6130919190615e4c565b336000908152601460209081526040808320805460ff19166001179055601082528083206001600160a01b03881684529091528120805492945084929091906130db908490615db1565b90915550506040518281526001600160a01b0384169033907fa7e66869262026842e8d81f5e6806cdc8d846e27c824e2e22f4fe51442771b349060200160405180910390a35050600160005550565b6020546131379042615db1565b3360008181526012602090815260408083206001600160a01b03881680855290835281842095909555928252600881528282209382529290925281208054839290613183908490615e4c565b90915550503360009081526013602090815260408083206001600160a01b0386168452909152812080548392906131bb908490615db1565b90915550506040518181526001600160a01b0383169033907f9aaab310d247ad45aef26bbdefc4ebf20c728fdb84c92b95b2b05d21826940de90602001611703565b6017546001600160a01b03163314613228576040516354348f0360e01b815260040160405180910390fd5b6001600160a01b03811660009081526019602052604090205460ff16613261576040516336fe17e760e21b815260040160405180910390fd5b6001600160a01b03811660009081526019602052604090819020805460ff19169055517f3ed8cbce8cab40e59282f1743e2b607effa08b5cbe0111bb4721134f2f80d02590611205908390615c42565b6017546001600160a01b031633146132dc576040516354348f0360e01b815260040160405180910390fd5b601880546001600160a01b0319166001600160a01b0383161790556040517fe987aaedf9d279143bdf1eee16cf1d0feb47742867d81083df8d6cd0a5ac857f90611205908390615c42565b6001600160a01b03818116600090815260016020526040902054829116331461336357604051636efb4f4160e11b815260040160405180910390fd5b6001600160a01b03831660009081526007602052604090205460ff16806133a257506001600160a01b03821660009081526007602052604090205460ff165b156133c05760405163ad2fdf3b60e01b815260040160405180910390fd5b6001600160a01b038381166000908152602c60205260409020548116908316146133fd57604051630ced616b60e21b815260040160405180910390fd5b6001600160a01b038084166000908152602d602090815260408083209386168352929052205461342f90603c90615db1565b42101561344f576040516356248e9760e01b815260040160405180910390fd5b6134588361500e565b6134618261500e565b6001600160a01b0383166000908152600c602052604081206134829061511c565b1115613564576001600160a01b0383166000908152600c602052604081206134aa9082615126565b6001600160a01b03808616600090815260096020818152604080842085871680865290835281852054958a1685529282528084209284529190528120805493945091926134f8908490615db1565b90915550506001600160a01b0380851660008181526009602090815260408083209486168352938152838220829055918152600c9091522061353a9082615107565b506001600160a01b0383166000908152600c6020526040902061355d9082614ff9565b5050613461565b6001600160a01b0383166000908152600d602052604081206135859061511c565b1115613667576001600160a01b0383166000908152600d602052604081206135ad9082615126565b6001600160a01b03808616600090815260286020818152604080842085871680865290835281852054958a1685529282528084209284529190528120805493945091926135fb908490615db1565b90915550506001600160a01b038085166000908152602860209081526040808320858516845282528083208390559286168252600d90522061363d9082614ff9565b506001600160a01b0384166000908152600d602052604090206136609082615107565b5050613564565b6001600160a01b038084166000908152600b602052604080822054928516825281208054909190613699908490615db1565b90915550506001600160a01b038084166000908152600b60209081526040808320839055600a909152808220549285168252812080549091906136dd908490615db1565b90915550506001600160a01b0383166000908152600a602090815260408083208390556029909152812055613713601584615107565b506001600160a01b03808416600081815260016020908152604080832080546001600160a01b031990811690915560028352818420805482169055602d8352818420958816808552958352818420849055938352602c909152908190208054909216909155517f9b712b63e3fb1325fa042d3c238ce8144937875065900528ea1e4f3b00f379f290612b12908690615c42565b6017546001600160a01b031633146137d1576040516354348f0360e01b815260040160405180910390fd5b60238190556040518181527fbdcfd7b8482f31cff6a87c362d9e2e3887f4cdc2018c7c485d8e78a7b2fadb6990602001611205565b6017546001600160a01b03163314613831576040516354348f0360e01b815260040160405180910390fd5b61383c602682614ff9565b6138595760405163f25e6b9f60e01b815260040160405180910390fd5b806001600160a01b03166316f0115b6040518163ffffffff1660e01b815260040160206040518083038186803b15801561389257600080fd5b505afa1580156138a6573d6000803e3d6000fd5b505050506040513d601f19601f820116820180604052508101906138ca9190615939565b6001600160a01b038281166000908152600e60205260409081902080546001600160a01b0319169383169384179055601d54905163696a437b60e01b815291169163696a437b9161391e9190600401615c42565b60206040518083038186803b15801561393657600080fd5b505afa15801561394a573d6000803e3d6000fd5b505050506040513d601f19601f8201168201806040525081019061396e9190615b68565b6001600160a01b0382166000908152600f60205260409020805460ff191691151591909117905561399e81611210565b6001600160a01b0382166000908152602b60209081526040918290208351815492850151600690810b66ffffffffffffff908116600160381b026001600160701b03199095169290910b161791909117815591810151600190920191909155517fabfa8db4d238fa78bf4e15fcc91328dd35f3978f200e2857a56bb719732b7b0b90611205908390615c42565b6017546001600160a01b03163314613a56576040516354348f0360e01b815260040160405180910390fd5b601f8190556040518181527fd319ef78d2b690bb773fcccc2d096306bac7c9222dd0bb6b300f461e4a376b4390602001611205565b3360009081526019602052604090205460ff16613abb57604051637e57b1e160e01b815260040160405180910390fd5b6001600160a01b03841660009081526007602052604090205460ff16613af4576040516310cec38560e21b815260040160405180910390fd5b613b0084848484615132565b336001600160a01b0385167f10a73de7ab6e9023aa6e2bc23f7abf4dcef591487e7e55f44c00e34fe60d56db613b368486615db1565b60405190815260200160405180910390a350505050565b613b586015826147c6565b15613b7657604051630809740d60e01b815260040160405180910390fd5b6001600160a01b03811660009081526014602052604090205460ff1615613bb057604051632f3d320560e01b815260040160405180910390fd5b613bbb601582614ff9565b506001600160a01b03811660008181526001602052604080822080546001600160a01b03191633908117909155905190917fed3faef50715743626cd57de74281a2b17cdbfc11c0486feda541fb911e0293d91a350565b6017546001600160a01b03163314613c3d576040516354348f0360e01b815260040160405180910390fd5b6001600160a01b038116613c645760405163d92e233d60e01b815260040160405180910390fd5b601c80546001600160a01b0319166001600160a01b0383161790556040517feb931b4b5a98d20a6b1e6693a7c59d8e337a06e2f1473bb776e19251db7ae25090611205908390615c42565b6017546001600160a01b03163314613cda576040516354348f0360e01b815260040160405180910390fd5b62015180811015613cfe57604051633f384aad60e21b815260040160405180910390fd5b60228190556040518181527f54aafa56429e22230b52f1495588ffc632277d74f3a85ec755e13ac50c1584d990602001611205565b60026000541415613d565760405162461bcd60e51b81526004016117be90615d4b565b600260009081556001600160a01b03858116825260016020526040909120548591163314613d9757604051636efb4f4160e11b815260040160405180910390fd5b6001600160a01b03808616600090815260256020908152604080832093881683529290522054613dc990603c90615db1565b4211613de857604051631e0b407560e01b815260040160405180910390fd5b6001600160a01b03808616600090815260096020908152604080832093881683529290522054831115613e2e5760405163024ae82d60e61b815260040160405180910390fd5b6001600160a01b03851660009081526007602052604090205460ff1615613e685760405163ad2fdf3b60e01b815260040160405180910390fd5b6001600160a01b03808616600090815260096020908152604080832093881683529290529081208054859290613e9f908490615e4c565b90915550613eb990506001600160a01b0385168385614f9e565b6001600160a01b03808616600090815260096020908152604080832093881683529290522054613f07576001600160a01b0385166000908152600c60205260409020613f059085615107565b505b816001600160a01b0316846001600160a01b0316866001600160a01b03167f53e982dd9ec088d634c74c98fbbc161f808b4b6469a26c657120b9a31cb34bfe86604051613f5691815260200190565b60405180910390a450506001600055505050565b3360008181526007602052604090205460ff1615613f9b5760405163ad2fdf3b60e01b815260040160405180910390fd5b6001600160a01b03831660009081526007602052604090205460ff1615613fd5576040516362e6201d60e01b815260040160405180910390fd5b613fe06015826147c6565b613ffc5760405162941a5760e11b815260040160405180910390fd5b6001600160a01b038082166000908152600960209081526040808320938816835292905220548211156140425760405163356680b760e01b815260040160405180910390fd5b6001600160a01b03808216600090815260096020908152604080832093881683529290529081208054849290614079908490615e4c565b9091555061409390506001600160a01b0385168484614f9e565b826001600160a01b0316816001600160a01b0316856001600160a01b0316600080516020615f56833981519152856140c9614e6d565b6040805192835260208301919091520160405180910390a450505050565b6017546001600160a01b03163314614112576040516354348f0360e01b815260040160405180910390fd5b60218190556040518181527f24d51b415694a791b1c77df7817c075ac82b83ce611bcd8627d2e66cf37aa3e790602001611205565b6017546001600160a01b03163314614172576040516354348f0360e01b815260040160405180910390fd5b6001600160a01b0381166141995760405163d92e233d60e01b815260040160405180910390fd5b601b80546001600160a01b0319166001600160a01b0383161790556040517f1d1a3e7caf0717056e48dc8aefa54d806c7af86324fece4e5d49f8e1f01f84bf90611205908390615c42565b6017546001600160a01b0316331461420f576040516354348f0360e01b815260040160405180910390fd5b6001600160a01b0381166000908152601a602052604090205460ff1661424857604051633ca0d42760e11b815260040160405180910390fd5b6001600160a01b0381166000908152601a602052604090819020805460ff19169055517f5e8bd21d0a98cb2caf33706e56139ff40ffbdca7ec5d9d412a0a2292496dc70e90611205908390615c42565b3360009081526019602052604090205460ff166142c857604051637e57b1e160e01b815260040160405180910390fd5b6001600160a01b03831660009081526007602052604090205460ff16614301576040516310cec38560e21b815260040160405180910390fd5b6001600160a01b0383166000908152600c6020526040902061432390836147c6565b61434057604051632eda7a1160e01b815260040160405180910390fd5b6001600160a01b038084166000908152600960209081526040808320938616835292905220548111156143855760405162919bed60e01b815260040160405180910390fd5b60175460405163a9059cbb60e01b81526001600160a01b038481169263a9059cbb926143b992909116908590600401615cb2565b602060405180830381600087803b1580156143d357600080fd5b505af1925050508015614403575060408051601f3d908101601f1916820190925261440091810190615b68565b60015b61440c5761440e565b505b6001600160a01b03808416600090815260096020908152604080832093861683529290529081208054839290614445908490615e4c565b90915550506001600160a01b03808416600090815260096020908152604080832093861683529290522054614498576001600160a01b0383166000908152600c602052604090206144969083615107565b505b336001600160a01b0316836001600160a01b03167f20262b97130b5cb8f80624eed2733df2b05db4a0789b4a3d0157e1d318333104848460405161277f929190615cb2565b336000908152601a602052604090205460ff1661450d57604051630942721960e31b815260040160405180910390fd5b6001600160a01b03811660009081526007602052604090205460ff1615614547576040516304ee891b60e11b815260040160405180910390fd5b6001600160a01b038116600081815260076020526040808220805460ff19166001179055513392917f070125a1c0f5202217aae14ec399abfaaa13c2fd98a91d43bd3a897dd4751e8091a350565b600061459f614e6d565b602e556145ad6003876147c6565b80156145de57506001600160a01b038087166000908152600860209081526040808320938916835292905220548411155b801561460257506001600160a01b0386166000908152600560205260409020548311155b801561463157506001600160a01b038616600090815260066020526040902054829061462e9042615e4c565b10155b15614675577f4851cad52e624c8f7a1d44c28a80db05988ba2451fc0db6b0ec338d8eca95afb602e5460405161466991815260200190565b60405180910390a15060015b95945050505050565b6017546001600160a01b031633146146a9576040516354348f0360e01b815260040160405180910390fd5b6146b46015836147c6565b6146d157604051636211d34960e01b815260040160405180910390fd5b6146da8261500e565b6001600160a01b0382166000908152600a602052604081208054839290614702908490615db1565b90915550506001600160a01b038216600081815260296020908152604080832054600a909252918290205491517f5abcf5031fdbd3badb9d1e09094208de329aee72730e87650f346584205d23d192614762928252602082015260400190565b60405180910390a25050565b60006022548261477e9190615eaa565b610dbb9083615e4c565b6000602254831015612637576022546147a18385615ddd565b6147ab9190615dc9565b9050610dbb565b606060006147bf83615288565b9392505050565b6001600160a01b038116600090815260018301602052604081205415156147bf565b6000610dbb826022546023546152e4565b6002600054141561481c5760405162461bcd60e51b81526004016117be90615d4b565b600260009081556001600160a01b0384168152600d6020526040902061484290836147c6565b61485e576040516241cfa560e21b815260040160405180910390fd5b6001600160a01b038084166000908152602860209081526040808320938616835292905220548111156148a45760405163435b562560e01b815260040160405180910390fd5b6148ad83615392565b60006148bc610dab8385614a07565b6001600160a01b0385166000908152600b602052604090205490915015614972576001600160a01b0384166000908152600b6020908152604080832054600a9092529091205461490d908390615ddd565b6149179190615dc9565b6001600160a01b0385166000908152600a60205260408120805490919061493f908490615e4c565b90915550506001600160a01b0384166000908152600b60205260408120805483929061496c908490615e4c565b90915550505b6001600160a01b038085166000908152602860209081526040808320938716835292905290812080548492906149a9908490615e4c565b90915550506001600160a01b038085166000908152602860209081526040808320938716835292905220546149fc576001600160a01b0384166000908152600d602052604090206149fa9084615107565b505b505060016000555050565b6001600160a01b0381166000908152602b602052604081206001015415610dbb576001600160a01b0382166000908152600f602052604081205460ff16614a79576001600160a01b0383166000908152602b6020526040902054614a7490600160381b900460060b615ebe565b614a9d565b6001600160a01b0383166000908152602b6020526040902054600160381b900460060b5b601d5460225460405163a0d2710760e01b81529293506001600160a01b039091169163a0d2710791614ad59188918691600401615d82565b60206040518083038186803b158015614aed57600080fd5b505afa158015614b01573d6000803e3d6000fd5b505050506040513d601f19601f82011682018060405250810190610ca29190615bdf565b6000614b304261476e565b6001600160a01b03831660009081526029602052604090205410156115d157614b6060225442610bc69190615e4c565b6001600160a01b03831660009081526029602052604090205411614bd657614b8782615392565b6001600160a01b0382166000908152600b6020908152604080832054600a90925290912055614bb54261476e565b6001600160a01b038316600090815260296020526040902055506001919050565b6022546001600160a01b038316600090815260296020526040902054614bfc9042615e4c565b10614c5857614c0a82615392565b6001600160a01b0382166000908152600b6020908152604080832054600a83528184205560225460299092528220805491929091614c49908490615db1565b90915550600191506115d19050565b614c614261476e565b6001600160a01b0383166000908152602a602052604090205410156115d1576001600160a01b0382166000908152600b6020526040902054614ca283615392565b6001600160a01b0383166000908152600b6020908152604080832054600a909252909120548291614cd291615ddd565b614cdc9190615dc9565b6001600160a01b0384166000908152600a602052604090205550919050565b6001600160a01b038116600090815260296020526040902054614d4090614d229042615e4c565b6001600160a01b0383166000908152600b6020526040902054614788565b6001600160a01b0382166000908152600a602052604081208054909190614d68908490615db1565b90915550506001600160a01b03166000908152602960205260409020429055565b6001600160a01b0383166000908152600a6020526040902054811115614dc25760405163356680b760e01b815260040160405180910390fd5b6001600160a01b0383166000908152602a60209081526040808320429055600a90915281208054839290614df7908490615e4c565b90915550506001600160a01b038083166000908152600860209081526040808320601b5490941683529290529081208054839290614e36908490615db1565b90915550506001600160a01b03821660009081526005602052604081208054839290614e63908490615db1565b9091555050505050565b6000603f5a614e7d906040615ddd565b610cb69190615dc9565b6001600160a01b038216600090815260066020526040812054614ec0576001600160a01b03831660009081526006602052604090204290555b614ecb600384614ff9565b50506001600160a01b03808316600081815260106020908152604080832094861680845294825280832080549084905593835260088252808320948352939052918220805491928392614f1f908490615db1565b9091555050601b546001600160a01b0383811691161415610dbb57601b54604051630852cd8d60e31b8152600481018390526001600160a01b03909116906342966c6890602401600060405180830381600087803b158015614f8057600080fd5b505af1158015614f94573d6000803e3d6000fd5b5050505092915050565b614ff48363a9059cbb60e01b8484604051602401614fbd929190615cb2565b60408051601f198184030181529190526020810180516001600160e01b03166001600160e01b0319909316929092179091526153b7565b505050565b60006147bf836001600160a01b038416615489565b61501781614b25565b5061502181614cfb565b6001600160a01b0381166000908152600a6020908152604080832054600b9092529091205461505091906154d8565b6001600160a01b039091166000908152600a6020526040902055565b6040516001600160a01b03808516602483015283166044820152606481018290526150a49085906323b872dd60e01b90608401614fbd565b50505050565b6000808486602e546150bc9190615e4c565b6150c69190615db1565b9050670de0b6b3a7640000846127106150df8685615ddd565b6150e99190615dc9565b6150f39190615ddd565b6150fd9190615dc9565b9695505050505050565b60006147bf836001600160a01b0384166154ee565b6000610dbb825490565b60006147bf83836155e1565b601b546001600160a01b0384811691161461520a576017546001600160a01b038085169163a9059cbb91166151678486615db1565b6040518363ffffffff1660e01b8152600401615184929190615cb2565b602060405180830381600087803b15801561519e57600080fd5b505af19250505080156151ce575060408051601f3d908101601f191682019092526151cb91810190615b68565b60015b615208573d8080156151fc576040519150601f19603f3d011682016040523d82523d6000602084013e615201565b606091505b505061520a565b505b6001600160a01b03808516600090815260086020908152604080832093871683529290529081208054849290615241908490615e4c565b90915550506001600160a01b0380851660009081526013602090815260408083209387168352929052908120805483929061527d908490615e4c565b909155505050505050565b6060816000018054806020026020016040519081016040528092919081815260200182805480156152d857602002820191906000526020600020905b8154815260200190600101908083116152c4575b50505050509050919050565b60008080600019858709858702925082811083820303915050806000141561531e576000841161531357600080fd5b5082900490506147bf565b80841161532a57600080fd5b600084868809600260036001881981018916988990049182028318808302840302808302840302808302840302808302840302808302840302918202909203026000889003889004909101858311909403939093029303949094049190911702949350505050565b61539b8161560b565b6001600160a01b039091166000908152600b6020526040902055565b600061540c826040518060400160405280602081526020017f5361666545524332303a206c6f772d6c6576656c2063616c6c206661696c6564815250856001600160a01b03166157ef9092919063ffffffff16565b805190915015614ff4578080602001905181019061542a9190615b68565b614ff45760405162461bcd60e51b815260206004820152602a60248201527f5361666545524332303a204552433230206f7065726174696f6e20646964206e6044820152691bdd081cdd58d8d9595960b21b60648201526084016117be565b60008181526001830160205260408120546154d057508154600181810184556000848152602080822090930184905584548482528286019093526040902091909155610dbb565b506000610dbb565b60008183106154e757816147bf565b5090919050565b600081815260018301602052604081205480156155d7576000615512600183615e4c565b855490915060009061552690600190615e4c565b905081811461558b57600086600001828154811061554657615546615f27565b906000526020600020015490508087600001848154811061556957615569615f27565b6000918252602080832090910192909255918252600188019052604090208390555b855486908061559c5761559c615f11565b600190038181906000526020600020016000905590558560010160008681526020019081526020016000206000905560019350505050610dbb565b6000915050610dbb565b60008260000182815481106155f8576155f8615f27565b9060005260206000200154905092915050565b60006156164261476e565b601e546001600160a01b03166000908152602b6020526040902060010154146156ad57601e5461564e906001600160a01b0316611210565b601e546001600160a01b03166000908152602b60209081526040918290208351815492850151600690810b66ffffffffffffff908116600160381b026001600160701b03199095169290910b1617919091178155910151600191909101555b60005b6001600160a01b0383166000908152600d602052604090206156d19061511c565b811015612637576001600160a01b0383166000908152600d602052604081206156fa9083615126565b90506157076026826147c6565b156157dc576157154261476e565b6001600160a01b0382166000908152602b60205260409020600101541461579b5761573f81611210565b6001600160a01b0382166000908152602b60209081526040918290208351815492850151600690810b66ffffffffffffff908116600160381b026001600160701b03199095169290910b16179190911781559101516001909101555b6001600160a01b038085166000908152602860209081526040808320938516835292905220546157cf90610dab9083614a07565b6157d99084615db1565b92505b50806157e781615e8f565b9150506156b0565b6060610ca2848460008585843b6158485760405162461bcd60e51b815260206004820152601d60248201527f416464726573733a2063616c6c20746f206e6f6e2d636f6e747261637400000060448201526064016117be565b600080866001600160a01b031685876040516158649190615c26565b60006040518083038185875af1925050503d80600081146158a1576040519150601f19603f3d011682016040523d82523d6000602084013e6158a6565b606091505b50915091506158b68282866158c1565b979650505050505050565b606083156158d05750816147bf565b8251156158e05782518084602001fd5b8160405162461bcd60e51b81526004016117be9190615d18565b805180151581146115d157600080fd5b8051600681900b81146115d157600080fd5b60006020828403121561592e57600080fd5b81356147bf81615f3d565b60006020828403121561594b57600080fd5b81516147bf81615f3d565b6000806040838503121561596957600080fd5b823561597481615f3d565b9150602083013561598481615f3d565b809150509250929050565b6000806000606084860312156159a457600080fd5b83356159af81615f3d565b925060208401356159bf81615f3d565b915060408401356159cf81615f3d565b809150509250925092565b6000806000606084860312156159ef57600080fd5b83356159fa81615f3d565b92506020840135615a0a81615f3d565b929592945050506040919091013590565b60008060008060808587031215615a3157600080fd5b8435615a3c81615f3d565b93506020850135615a4c81615f3d565b9250604085013591506060850135615a6381615f3d565b939692955090935050565b60008060008060808587031215615a8457600080fd5b8435615a8f81615f3d565b93506020850135615a9f81615f3d565b93969395505050506040820135916060013590565b600080600080600060a08688031215615acc57600080fd5b8535615ad781615f3d565b94506020860135615ae781615f3d565b94979496505050506040830135926060810135926080909101359150565b60008060408385031215615b1857600080fd5b8235615b2381615f3d565b946020939093013593505050565b600080600060608486031215615b4657600080fd5b8335615b5181615f3d565b92506020840135915060408401356159cf81615f3d565b600060208284031215615b7a57600080fd5b6147bf826158fa565b600080600060608486031215615b9857600080fd5b615ba18461590a565b9250615baf6020850161590a565b9150615bbd604085016158fa565b90509250925092565b600060208284031215615bd857600080fd5b5035919050565b600060208284031215615bf157600080fd5b5051919050565b600080600060608486031215615c0d57600080fd5b8351925060208401519150604084015190509250925092565b60008251615c38818460208701615e63565b9190910192915050565b6001600160a01b0391909116815260200190565b6001600160a01b038316815260406020808301829052835191830182905260009184820191906060850190845b81811015615ca557845163ffffffff1683529383019391830191600101615c83565b5090979650505050505050565b6001600160a01b03929092168252602082015260400190565b6020808252825182820181905260009190848201906040850190845b81811015615d0c5783516001600160a01b031683529284019291840191600101615ce7565b50909695505050505050565b6020815260008251806020840152615d37816040850160208701615e63565b601f01601f19169190910160400192915050565b6020808252601f908201527f5265656e7472616e637947756172643a207265656e7472616e742063616c6c00604082015260600190565b92835260069190910b6020830152604082015260600190565b9283526020830191909152604082015260600190565b60008219821115615dc457615dc4615ee5565b500190565b600082615dd857615dd8615efb565b500490565b6000816000190483118215151615615df757615df7615ee5565b500290565b60008160060b8360060b6000811281667fffffffffffff1901831281151615615e2757615e27615ee5565b81667fffffffffffff018313811615615e4257615e42615ee5565b5090039392505050565b600082821015615e5e57615e5e615ee5565b500390565b60005b83811015615e7e578181015183820152602001615e66565b838111156150a45750506000910152565b6000600019821415615ea357615ea3615ee5565b5060010190565b600082615eb957615eb9615efb565b500690565b60008160060b667fffffffffffff19811415615edc57615edc615ee5565b60000392915050565b634e487b7160e01b600052601160045260246000fd5b634e487b7160e01b600052601260045260246000fd5b634e487b7160e01b600052603160045260246000fd5b634e487b7160e01b600052603260045260246000fd5b6001600160a01b0381168114615f5257600080fd5b5056fe46f2180879a7123a197cc3828c28955d70d661c70acbdc02450daf5f9a9c1cfaee3f0daba9837d1ab0597acf34328550e4832d02e24e467825e7c2dd318c3820a2646970667358221220a652922e4d7790b0f864618e6193f295e00a8e3132caf1f7755731c5f43e8adb64736f6c63430008070033",
  "devdoc": {
    "kind": "dev",
    "methods": {
      "acceptJobMigration(address,address)": {
        "details": "Unbond/withdraw process doesn't get migrated",
        "params": {
          "_fromJob": "The address of the job that requested to migrate",
          "_toJob": "The address to which the job wants to migrate to"
        }
      },
      "acceptJobOwnership(address)": {
        "params": {
          "_job": "The address of the job"
        }
      },
      "activate(address)": {
        "params": {
          "_bonding": "The asset being activated as bond collateral"
        }
      },
      "addJob(address)": {
        "params": {
          "_job": "Address of the contract for which work should be performed"
        }
      },
      "addLiquidityToJob(address,address,uint256)": {
        "params": {
          "_amount": "The amount of liquidity tokens to add",
          "_job": "The address of the job to assign liquidity to",
          "_liquidity": "The liquidity being added"
        }
      },
      "addTokenCreditsToJob(address,address,uint256)": {
        "params": {
          "_amount": "The amount of credit being added",
          "_job": "The address of the job being credited",
          "_token": "The address of the token being credited"
        }
      },
      "approveLiquidity(address)": {
        "params": {
          "_liquidity": "The address of the liquidity accepted"
        }
      },
      "approvedLiquidities()": {
        "returns": {
          "_list": "An array of addresses with all the approved liquidity pairs"
        }
      },
      "bond(address,uint256)": {
        "params": {
          "_amount": "The amount of bonding asset being bonded",
          "_bonding": "The asset being bonded"
        }
      },
      "bondedPayment(address,uint256)": {
        "details": "Pays the keeper that performs the work with KP3R",
        "params": {
          "_keeper": "Address of the keeper that performed the work",
          "_payment": "The reward that should be allocated for the job"
        }
      },
      "changeJobOwnership(address,address)": {
        "params": {
          "_job": "The address of the job",
          "_newOwner": "The address of the proposed new owner"
        }
      },
      "directTokenPayment(address,address,uint256)": {
        "details": "Pays the keeper that performs the work with a specific token",
        "params": {
          "_amount": "The reward that should be allocated",
          "_keeper": "Address of the keeper that performed the work",
          "_token": "The asset being awarded to the keeper"
        }
      },
      "dispute(address)": {
        "params": {
          "_jobOrKeeper": "The address in dispute"
        }
      },
      "forceLiquidityCreditsToJob(address,uint256)": {
        "params": {
          "_amount": "The amount of liquidity credits to gift",
          "_job": "The address of the job being credited"
        }
      },
      "isBondedKeeper(address,address,uint256,uint256,uint256)": {
        "details": "Should be used for protected functions",
        "params": {
          "_age": "The minimum keeper age required",
          "_bond": "The bond token being evaluated",
          "_earned": "The minimum funds earned in the keepers lifetime",
          "_keeper": "The keeper to check",
          "_minBond": "The minimum amount of bonded tokens"
        },
        "returns": {
          "_isBondedKeeper": "Whether the `_keeper` meets the given requirements"
        }
      },
      "isKeeper(address)": {
        "details": "Can be used for general (non critical) functions",
        "params": {
          "_keeper": "The keeper being investigated"
        },
        "returns": {
          "_isKeeper": "Whether the address passed as a parameter is a keeper or not"
        }
      },
      "jobLiquidityCredits(address)": {
        "params": {
          "_job": "The address of the job of which we want to know the liquidity credits"
        },
        "returns": {
          "_liquidityCredits": "The liquidity credits of a given job"
        }
      },
      "jobPeriodCredits(address)": {
        "params": {
          "_job": "The address of the job of which we want to know the period credits"
        },
        "returns": {
          "_periodCredits": "The credits the given job has at the current period"
        }
      },
      "jobs()": {
        "returns": {
          "_list": "Array with all the jobs in _jobs"
        }
      },
      "keepers()": {
        "returns": {
          "_list": "Array with all the keepers in _keepers"
        }
      },
      "migrateJob(address,address)": {
        "params": {
          "_fromJob": "The address of the job that is requesting to migrate",
          "_toJob": "The address at which the job is requesting to migrate"
        }
      },
      "observeLiquidity(address)": {
        "params": {
          "_liquidity": "The address of the liquidity pair being observed"
        },
        "returns": {
          "_tickCache": "The updated TickCache"
        }
      },
      "quoteLiquidity(address,uint256)": {
        "details": "_periodCredits = underlying KP3Rs for given liquidity amount * rewardPeriod / inflationPeriod",
        "params": {
          "_amount": "The amount of liquidity to provide",
          "_liquidity": "The address of the liquidity to provide"
        },
        "returns": {
          "_periodCredits": "The amount of KP3R periodically minted for the given liquidity"
        }
      },
      "resolve(address)": {
        "params": {
          "_jobOrKeeper": "The address cleared"
        }
      },
      "revoke(address)": {
        "params": {
          "_keeper": "The address being slashed"
        }
      },
      "revokeLiquidity(address)": {
        "params": {
          "_liquidity": "The liquidity no longer accepted"
        }
      },
      "sendDust(address,uint256,address)": {
        "params": {
          "_amount": "The amount of the token that will be transferred",
          "_to": "The address that will receive the idle funds",
          "_token": "The token that will be transferred"
        }
      },
      "setBondTime(uint256)": {
        "params": {
          "_bond": "The new bond time"
        }
      },
      "setFee(uint256)": {
        "params": {
          "_fee": "The new fee"
        }
      },
      "setGovernance(address)": {
        "params": {
          "_governance": "The address being proposed as the new governance"
        }
      },
      "setInflationPeriod(uint256)": {
        "params": {
          "_inflationPeriod": "The new inflation period"
        }
      },
      "setKeep3rHelper(address)": {
        "params": {
          "_keep3rHelper": "The Keep3rHelper address"
        }
      },
      "setKeep3rV1(address)": {
        "params": {
          "_keep3rV1": "The Keep3rV1 address"
        }
      },
      "setKeep3rV1Proxy(address)": {
        "params": {
          "_keep3rV1Proxy": "The Keep3rV1Proxy address"
        }
      },
      "setKp3rWethPool(address)": {
        "params": {
          "_kp3rWethPool": "The KP3R-WETH pool address"
        }
      },
      "setLiquidityMinimum(uint256)": {
        "params": {
          "_liquidityMinimum": "The new minimum amount of liquidity"
        }
      },
      "setRewardPeriodTime(uint256)": {
        "params": {
          "_rewardPeriodTime": "The new amount of time required to pass between rewards"
        }
      },
      "setUnbondTime(uint256)": {
        "params": {
          "_unbond": "The new unbond time"
        }
      },
      "slash(address,address,uint256,uint256)": {
        "params": {
          "_bondAmount": "The bonded amount being slashed",
          "_bonded": "The asset being slashed",
          "_keeper": "The address being slashed",
          "_unbondAmount": "The pending unbond amount being slashed"
        }
      },
      "slashLiquidityFromJob(address,address,uint256)": {
        "params": {
          "_amount": "The amount of liquidity that will be slashed",
          "_job": "The address being slashed",
          "_liquidity": "The address of the liquidity that will be slashed"
        }
      },
      "slashTokenFromJob(address,address,uint256)": {
        "params": {
          "_amount": "The amount of the token that will be slashed",
          "_job": "The address of the job from which the token will be slashed",
          "_token": "The address of the token that will be slashed"
        }
      },
      "totalJobCredits(address)": {
        "params": {
          "_job": "The address of the job of which we want to know the total credits"
        },
        "returns": {
          "_credits": "The total credits of the given job"
        }
      },
      "unbond(address,uint256)": {
        "params": {
          "_amount": "Allows for partial unbonding",
          "_bonding": "The asset being unbonded"
        }
      },
      "unbondLiquidityFromJob(address,address,uint256)": {
        "details": "Can only be called by the job's owner",
        "params": {
          "_amount": "The amount of liquidity being removed",
          "_job": "The address of the job being unbonded from",
          "_liquidity": "The liquidity being unbonded"
        }
      },
      "withdraw(address)": {
        "params": {
          "_bonding": "The asset to withdraw from the bonding pool"
        }
      },
      "withdrawLiquidityFromJob(address,address,address)": {
        "params": {
          "_job": "The address of the job being withdrawn from",
          "_liquidity": "The liquidity being withdrawn",
          "_receiver": "The address that will receive the withdrawn liquidity"
        }
      },
      "withdrawTokenCreditsFromJob(address,address,uint256,address)": {
        "params": {
          "_amount": "The amount of token to be withdrawn",
          "_job": "The address of the job from which the credits are withdrawn",
          "_receiver": "The user that will receive tokens",
          "_token": "The address of the token being withdrawn"
        }
      },
      "worked(address)": {
        "details": "Automatically calculates the payment for the keeper and pays the keeper with bonded KP3R",
        "params": {
          "_keeper": "Address of the keeper that performed the work"
        }
      }
    },
    "version": 1
  },
  "userdoc": {
    "errors": {
      "AlreadyAJob()": [
        {
          "notice": "Throws when the address that is trying to register as a job is already a job"
        }
      ],
      "AlreadyAKeeper()": [
        {
          "notice": "Throws when the address that is trying to register as a keeper is already a keeper"
        }
      ],
      "AlreadyDisputed()": [
        {
          "notice": "Throws when a job or keeper is already disputed"
        }
      ],
      "BondsLocked()": [
        {
          "notice": "Throws if the time required to bond an asset has not passed yet"
        }
      ],
      "BondsUnexistent()": [
        {
          "notice": "Throws if there are no bonded assets"
        }
      ],
      "Disputed()": [
        {
          "notice": "Throws if either a job or a keeper is disputed"
        }
      ],
      "DisputerExistent()": [
        {
          "notice": "Throws if the address is already a registered disputer"
        }
      ],
      "DisputerUnexistent()": [
        {
          "notice": "Throws if caller is not a registered disputer"
        }
      ],
      "InsufficientFunds()": [
        {
          "notice": "Throws if the amount of funds in the job is less than the payment that must be paid to the keeper that works that job"
        }
      ],
      "InsufficientJobTokenCredits()": [
        {
          "notice": "Throws when the user tries to withdraw more tokens than it has"
        }
      ],
      "JobAlreadyAdded()": [
        {
          "notice": "Throws when trying to add a job that has already been added"
        }
      ],
      "JobDisputed()": [
        {
          "notice": "Throws when an action that requires an undisputed job is applied on a disputed job"
        }
      ],
      "JobLiquidityInsufficient()": [
        {
          "notice": "Throws when trying to remove more liquidity than the job has"
        }
      ],
      "JobLiquidityLessThanMin()": [
        {
          "notice": "Throws when trying to add less liquidity than the minimum liquidity required"
        }
      ],
      "JobLiquidityUnexistent()": [
        {
          "notice": "Throws when the job doesn't have the requested liquidity"
        }
      ],
      "JobMigrationImpossible()": [
        {
          "notice": "Throws when the address of the job that requests to migrate wants to migrate to its same address"
        }
      ],
      "JobMigrationLocked()": [
        {
          "notice": "Throws when cooldown between migrations has not yet passed"
        }
      ],
      "JobMigrationUnavailable()": [
        {
          "notice": "Throws when the _toJob address differs from the address being tracked in the pendingJobMigrations mapping"
        }
      ],
      "JobTokenCreditsLocked()": [
        {
          "notice": "Throws when the token withdraw cooldown has not yet passed"
        }
      ],
      "JobTokenInsufficient()": [
        {
          "notice": "Throws when someone tries to slash more tokens than the job has"
        }
      ],
      "JobTokenUnexistent()": [
        {
          "notice": "Throws when the token trying to be slashed doesn't exist"
        }
      ],
      "JobUnapproved()": [
        {
          "notice": "Throws if the address claiming to be a job is not in the list of approved jobs"
        }
      ],
      "JobUnavailable()": [
        {
          "notice": "Throws when an address is passed as a job, but that address is not a job"
        }
      ],
      "LiquidityPairApproved()": [
        {
          "notice": "Throws when the liquidity being approved has already been approved"
        }
      ],
      "LiquidityPairUnapproved()": [
        {
          "notice": "Throws when trying to add liquidity to an unapproved pool"
        }
      ],
      "LiquidityPairUnexistent()": [
        {
          "notice": "Throws when the liquidity being removed has not been approved"
        }
      ],
      "MinRewardPeriod()": [
        {
          "notice": "Throws if the reward period is less than the minimum reward period time"
        }
      ],
      "NoGovernanceZeroAddress()": [
        {
          "notice": "Throws if trying to set governance to zero address"
        }
      ],
      "NotDisputed()": [
        {
          "notice": "Throws when a job or keeper is not disputed and someone tries to resolve the dispute"
        }
      ],
      "OnlyDisputer()": [
        {
          "notice": "Throws if the msg.sender is not a disputer or is not a part of governance"
        }
      ],
      "OnlyGovernance()": [
        {
          "notice": "Throws if the caller of the function is not governance"
        }
      ],
      "OnlyJobOwner()": [
        {
          "notice": "Throws when the caller of the function is not the job owner"
        }
      ],
      "OnlyPendingGovernance()": [
        {
          "notice": "Throws if the caller of the function is not pendingGovernance"
        }
      ],
      "OnlyPendingJobOwner()": [
        {
          "notice": "Throws when the caller of the function is not the pending job owner"
        }
      ],
      "OnlySlasher()": [
        {
          "notice": "Throws if the msg.sender is not a slasher or is not a part of governance"
        }
      ],
      "SlasherExistent()": [
        {
          "notice": "Throws if the address is already a registered slasher"
        }
      ],
      "SlasherUnexistent()": [
        {
          "notice": "Throws if caller is not a registered slasher"
        }
      ],
      "TokenUnallowed()": [
        {
          "notice": "Throws when the token is KP3R, as it should not be used for direct token payments"
        }
      ],
      "UnbondsLocked()": [
        {
          "notice": "Throws if the time required to withdraw the bonds has not passed yet"
        }
      ],
      "UnbondsUnexistent()": [
        {
          "notice": "Throws if there are no bonds to withdraw"
        }
      ],
      "ZeroAddress()": [
        {
          "notice": "Throws if a variable is assigned to the zero address"
        }
      ]
    },
    "events": {
      "Activation(address,address,uint256)": {
        "notice": "Emitted when Keep3rKeeperFundable#activate is called"
      },
      "BondTimeChange(uint256)": {
        "notice": "Emitted when bondTime is changed"
      },
      "Bonding(address,address,uint256)": {
        "notice": "Emitted when the bonding process of a new keeper begins"
      },
      "Dispute(address,address)": {
        "notice": "Emitted when a keeper or a job is disputed"
      },
      "DisputerAdded(address)": {
        "notice": "Emitted when a disputer is added"
      },
      "DisputerRemoved(address)": {
        "notice": "Emitted when a disputer is removed"
      },
      "DustSent(address,uint256,address)": {
        "notice": "Emitted when dust is sent"
      },
      "FeeChange(uint256)": {
        "notice": "Emitted when the fee is changed"
      },
      "GovernanceProposal(address)": {
        "notice": "Emitted when a new governance is proposed"
      },
      "GovernanceSet(address)": {
        "notice": "Emitted when pendingGovernance accepts to be governance"
      },
      "InflationPeriodChange(uint256)": {
        "notice": "Emitted when the inflationPeriod is changed"
      },
      "JobAddition(address,address)": {
        "notice": "Emitted when Keep3rJobManager#addJob is called"
      },
      "JobMigrationRequested(address,address)": {
        "notice": "Emitted when Keep3rJobMigration#migrateJob function is called"
      },
      "JobMigrationSuccessful(address,address)": {
        "notice": "Emitted when Keep3rJobMigration#acceptJobMigration function is called"
      },
      "JobOwnershipAssent(address,address,address)": {
        "notice": "Emitted when Keep3rJobOwnership#JobOwnershipAssent is called"
      },
      "JobOwnershipChange(address,address,address)": {
        "notice": "Emitted when Keep3rJobOwnership#changeJobOwnership is called"
      },
      "JobSlashLiquidity(address,address,address,uint256)": {
        "notice": "Emitted when Keep3rJobDisputable#slashLiquidityFromJob is called"
      },
      "JobSlashToken(address,address,address,uint256)": {
        "notice": "Emitted when Keep3rJobDisputable#slashTokenFromJob is called"
      },
      "Keep3rHelperChange(address)": {
        "notice": "Emitted when the Keep3rHelper address is changed"
      },
      "Keep3rV1Change(address)": {
        "notice": "Emitted when the Keep3rV1 address is changed"
      },
      "Keep3rV1ProxyChange(address)": {
        "notice": "Emitted when the Keep3rV1Proxy address is changed"
      },
      "KeeperRevoke(address,address)": {
        "notice": "Emitted when Keep3rKeeperDisputable#revoke is called"
      },
      "KeeperSlash(address,address,uint256)": {
        "notice": "Emitted when Keep3rKeeperDisputable#slash is called"
      },
      "KeeperValidation(uint256)": {
        "notice": "Emitted when a keeper is validated before a job"
      },
      "KeeperWork(address,address,address,uint256,uint256)": {
        "notice": "Emitted when a keeper works a job"
      },
      "Kp3rWethPoolChange(address)": {
        "notice": "Emitted when the KP3R-WETH pool address is changed"
      },
      "LiquidityAddition(address,address,address,uint256)": {
        "notice": "Emitted when IKeep3rJobFundableLiquidity#addLiquidityToJob function is called"
      },
      "LiquidityApproval(address)": {
        "notice": "Emitted when Keep3rJobFundableLiquidity#approveLiquidity function is called"
      },
      "LiquidityCreditsForced(address,uint256,uint256)": {
        "notice": "Emitted when Keep3rJobFundableLiquidity#forceLiquidityCreditsToJob function is called"
      },
      "LiquidityCreditsReward(address,uint256,uint256,uint256)": {
        "notice": "Emitted when Keep3rJobFundableLiquidity#addLiquidityToJob function is called"
      },
      "LiquidityMinimumChange(uint256)": {
        "notice": "Emitted when _liquidityMinimum is changed"
      },
      "LiquidityRevocation(address)": {
        "notice": "Emitted when Keep3rJobFundableLiquidity#revokeLiquidity function is called"
      },
      "LiquidityWithdrawal(address,address,address,uint256)": {
        "notice": "Emitted when IKeep3rJobFundableLiquidity#withdrawLiquidityFromJob function is called"
      },
      "Resolve(address,address)": {
        "notice": "Emitted when a dispute is resolved"
      },
      "RewardPeriodTimeChange(uint256)": {
        "notice": "Emitted when _rewardPeriodTime is changed"
      },
      "SlasherAdded(address)": {
        "notice": "Emitted when a slasher is added"
      },
      "SlasherRemoved(address)": {
        "notice": "Emitted when a slasher is removed"
      },
      "TokenCreditAddition(address,address,address,uint256)": {
        "notice": "Emitted when Keep3rJobFundableCredits#addTokenCreditsToJob is called"
      },
      "TokenCreditWithdrawal(address,address,address,uint256)": {
        "notice": "Emitted when Keep3rJobFundableCredits#withdrawTokenCreditsFromJob is called"
      },
      "UnbondTimeChange(uint256)": {
        "notice": "Emitted when _unbondTime is changed"
      },
      "Unbonding(address,address,uint256)": {
        "notice": "Emitted when a keeper or job begins the unbonding process to withdraw the funds"
      },
      "Withdrawal(address,address,uint256)": {
        "notice": "Emitted when Keep3rKeeperFundable#withdraw is called"
      }
    },
    "kind": "user",
    "methods": {
      "acceptGovernance()": {
        "notice": "Changes the governance from the current governance to the previously proposed address"
      },
      "acceptJobMigration(address,address)": {
        "notice": "Completes the migration process for a job"
      },
      "acceptJobOwnership(address)": {
        "notice": "The proposed address accepts to be the owner of the job"
      },
      "activate(address)": {
        "notice": "End of the bonding process after bonding time has passed"
      },
      "addDisputer(address)": {
        "notice": "Registers a disputer by updating the disputers mapping"
      },
      "addJob(address)": {
        "notice": "Allows any caller to add a new job"
      },
      "addLiquidityToJob(address,address,uint256)": {
        "notice": "Allows anyone to fund a job with liquidity"
      },
      "addSlasher(address)": {
        "notice": "Registers a slasher by updating the slashers mapping"
      },
      "addTokenCreditsToJob(address,address,uint256)": {
        "notice": "Add credit to a job to be paid out for work"
      },
      "approveLiquidity(address)": {
        "notice": "Approve a liquidity pair for being accepted in future"
      },
      "approvedLiquidities()": {
        "notice": "Lists liquidity pairs"
      },
      "bond(address,uint256)": {
        "notice": "Beginning of the bonding process"
      },
      "bondTime()": {
        "notice": "The amount of time required to pass after a keeper has bonded assets for it to be able to activate"
      },
      "bondedPayment(address,uint256)": {
        "notice": "Implemented by jobs to show that a keeper performed work"
      },
      "bonds(address,address)": {
        "notice": "Mapping (job => bonding => amount)"
      },
      "canActivateAfter(address,address)": {
        "notice": "Tracks when a bonding for a keeper can be activated"
      },
      "canWithdrawAfter(address,address)": {
        "notice": "Tracks when keeper bonds are ready to be withdrawn"
      },
      "changeJobOwnership(address,address)": {
        "notice": "Proposes a new address to be the owner of the job"
      },
      "directTokenPayment(address,address,uint256)": {
        "notice": "Implemented by jobs to show that a keeper performed work"
      },
      "dispute(address)": {
        "notice": "Allows governance to create a dispute for a given keeper/job"
      },
      "disputers(address)": {
        "notice": "Tracks whether the address is a disputer or not"
      },
      "disputes(address)": {
        "notice": "Tracks if a keeper or job has a pending dispute"
      },
      "fee()": {
        "notice": "The fee to be sent to governance when a user adds liquidity to a job"
      },
      "firstSeen(address)": {
        "notice": "Tracks when a keeper was first registered"
      },
      "forceLiquidityCreditsToJob(address,uint256)": {
        "notice": "Gifts liquidity credits to the specified job"
      },
      "governance()": {
        "notice": "Stores the governance address"
      },
      "hasBonded(address)": {
        "notice": "Checks whether the address has ever bonded an asset"
      },
      "inflationPeriod()": {
        "notice": "The inflation period is the denominator used to regulate the emission of KP3R"
      },
      "isBondedKeeper(address,address,uint256,uint256,uint256)": {
        "notice": "Confirms if the current keeper is registered and has a minimum bond of any asset."
      },
      "isKeeper(address)": {
        "notice": "Confirms if the current keeper is registered"
      },
      "jobLiquidityCredits(address)": {
        "notice": "Returns the liquidity credits of a given job"
      },
      "jobOwner(address)": {
        "notice": "Maps the job to the owner of the job"
      },
      "jobPendingOwner(address)": {
        "notice": "Maps the job to its pending owner"
      },
      "jobPeriodCredits(address)": {
        "notice": "Returns the credits of a given job for the current period"
      },
      "jobTokenCredits(address,address)": {
        "notice": "The current token credits available for a job"
      },
      "jobTokenCreditsAddedAt(address,address)": {
        "notice": "Last block where tokens were added to the job"
      },
      "jobs()": {
        "notice": "Lists all jobs"
      },
      "keep3rHelper()": {
        "notice": "Address of Keep3rHelper's contract"
      },
      "keep3rV1()": {
        "notice": "Address of Keep3rV1's contract"
      },
      "keep3rV1Proxy()": {
        "notice": "Address of Keep3rV1Proxy's contract"
      },
      "keepers()": {
        "notice": "Lists all keepers"
      },
      "kp3rWethPool()": {
        "notice": "Address of the KP3R-WETH pool"
      },
      "liquidityAmount(address,address)": {
        "notice": "Amount of liquidity in a specified job"
      },
      "liquidityMinimum()": {
        "notice": "The minimum amount of liquidity required to fund a job per liquidity"
      },
      "migrateJob(address,address)": {
        "notice": "Initializes the migration process for a job by adding the request to the pendingJobMigrations mapping"
      },
      "observeLiquidity(address)": {
        "notice": "Observes the current state of the liquidity pair being observed and updates TickCache with the information"
      },
      "pendingBonds(address,address)": {
        "notice": "Tracks the amount of assets deposited in pending bonds"
      },
      "pendingGovernance()": {
        "notice": "Stores the pendingGovernance address"
      },
      "pendingJobMigrations(address)": {
        "notice": "Maps the jobs that have requested a migration to the address they have requested to migrate to"
      },
      "pendingUnbonds(address,address)": {
        "notice": "Tracks how much keeper bonds are to be withdrawn"
      },
      "quoteLiquidity(address,uint256)": {
        "notice": "Calculates how many credits should be rewarded periodically for a given liquidity amount"
      },
      "removeDisputer(address)": {
        "notice": "Removes a disputer by updating the disputers mapping"
      },
      "removeSlasher(address)": {
        "notice": "Removes a slasher by updating the slashers mapping"
      },
      "resolve(address)": {
        "notice": "Allows governance to resolve a dispute on a keeper/job"
      },
      "revoke(address)": {
        "notice": "Blacklists a keeper from participating in the network"
      },
      "revokeLiquidity(address)": {
        "notice": "Revoke a liquidity pair from being accepted in future"
      },
      "rewardPeriodTime()": {
        "notice": "The amount of time between each scheduled credits reward given to a job"
      },
      "rewardedAt(address)": {
        "notice": "Last time the job was rewarded liquidity credits"
      },
      "sendDust(address,uint256,address)": {
        "notice": "Allows an authorized user to transfer the tokens or eth that may have been left in a contract"
      },
      "setBondTime(uint256)": {
        "notice": "Sets the bond time required to activate as a keeper"
      },
      "setFee(uint256)": {
        "notice": "Sets the new fee"
      },
      "setGovernance(address)": {
        "notice": "Proposes a new address to be governance"
      },
      "setInflationPeriod(uint256)": {
        "notice": "Sets the new inflation period"
      },
      "setKeep3rHelper(address)": {
        "notice": "Sets the Keep3rHelper address"
      },
      "setKeep3rV1(address)": {
        "notice": "Sets the Keep3rV1 address"
      },
      "setKeep3rV1Proxy(address)": {
        "notice": "Sets the Keep3rV1Proxy address"
      },
      "setKp3rWethPool(address)": {
        "notice": "Sets the KP3R-WETH pool address"
      },
      "setLiquidityMinimum(uint256)": {
        "notice": "Sets the minimum amount of liquidity required to fund a job"
      },
      "setRewardPeriodTime(uint256)": {
        "notice": "Sets the time required to pass between rewards for jobs"
      },
      "setUnbondTime(uint256)": {
        "notice": "Sets the unbond time required unbond what has been bonded"
      },
      "slash(address,address,uint256,uint256)": {
        "notice": "Allows governance to slash a keeper based on a dispute"
      },
      "slashLiquidityFromJob(address,address,uint256)": {
        "notice": "Allows governance or a slasher to slash liquidity from a job"
      },
      "slashTokenFromJob(address,address,uint256)": {
        "notice": "Allows governance or slasher to slash a job specific token"
      },
      "slashers(address)": {
        "notice": "Tracks whether the address is a slasher or not"
      },
      "totalJobCredits(address)": {
        "notice": "Calculates the total credits of a given job"
      },
      "unbond(address,uint256)": {
        "notice": "Beginning of the unbonding process"
      },
      "unbondLiquidityFromJob(address,address,uint256)": {
        "notice": "Unbond liquidity for a job"
      },
      "unbondTime()": {
        "notice": "The amount of time required to pass before a keeper can unbond what he has bonded"
      },
      "withdraw(address)": {
        "notice": "Withdraw funds after unbonding has finished"
      },
      "withdrawLiquidityFromJob(address,address,address)": {
        "notice": "Withdraw liquidity from a job"
      },
      "withdrawTokenCreditsFromJob(address,address,uint256,address)": {
        "notice": "Withdraw credit from a job"
      },
      "workCompleted(address)": {
        "notice": "Tracks the total KP3R earnings of a keeper since it started working"
      },
      "worked(address)": {
        "notice": "Implemented by jobs to show that a keeper performed work"
      },
      "workedAt(address)": {
        "notice": "Last time the job was worked"
      }
    },
    "version": 1
  },
  "storageLayout": {
    "storage": [
      {
        "astId": 10,
        "contract": "solidity/contracts/Keep3r.sol:Keep3r",
        "label": "_status",
        "offset": 0,
        "slot": "0",
        "type": "t_uint256"
      },
      {
        "astId": 8303,
        "contract": "solidity/contracts/Keep3r.sol:Keep3r",
        "label": "jobOwner",
        "offset": 0,
        "slot": "1",
        "type": "t_mapping(t_address,t_address)"
      },
      {
        "astId": 8309,
        "contract": "solidity/contracts/Keep3r.sol:Keep3r",
        "label": "jobPendingOwner",
        "offset": 0,
        "slot": "2",
        "type": "t_mapping(t_address,t_address)"
      },
      {
        "astId": 5368,
        "contract": "solidity/contracts/Keep3r.sol:Keep3r",
        "label": "_keepers",
        "offset": 0,
        "slot": "3",
        "type": "t_struct(AddressSet)1631_storage"
      },
      {
        "astId": 5374,
        "contract": "solidity/contracts/Keep3r.sol:Keep3r",
        "label": "workCompleted",
        "offset": 0,
        "slot": "5",
        "type": "t_mapping(t_address,t_uint256)"
      },
      {
        "astId": 5380,
        "contract": "solidity/contracts/Keep3r.sol:Keep3r",
        "label": "firstSeen",
        "offset": 0,
        "slot": "6",
        "type": "t_mapping(t_address,t_uint256)"
      },
      {
        "astId": 5386,
        "contract": "solidity/contracts/Keep3r.sol:Keep3r",
        "label": "disputes",
        "offset": 0,
        "slot": "7",
        "type": "t_mapping(t_address,t_bool)"
      },
      {
        "astId": 5394,
        "contract": "solidity/contracts/Keep3r.sol:Keep3r",
        "label": "bonds",
        "offset": 0,
        "slot": "8",
        "type": "t_mapping(t_address,t_mapping(t_address,t_uint256))"
      },
      {
        "astId": 5402,
        "contract": "solidity/contracts/Keep3r.sol:Keep3r",
        "label": "jobTokenCredits",
        "offset": 0,
        "slot": "9",
        "type": "t_mapping(t_address,t_mapping(t_address,t_uint256))"
      },
      {
        "astId": 5407,
        "contract": "solidity/contracts/Keep3r.sol:Keep3r",
        "label": "_jobLiquidityCredits",
        "offset": 0,
        "slot": "10",
        "type": "t_mapping(t_address,t_uint256)"
      },
      {
        "astId": 5412,
        "contract": "solidity/contracts/Keep3r.sol:Keep3r",
        "label": "_jobPeriodCredits",
        "offset": 0,
        "slot": "11",
        "type": "t_mapping(t_address,t_uint256)"
      },
      {
        "astId": 5418,
        "contract": "solidity/contracts/Keep3r.sol:Keep3r",
        "label": "_jobTokens",
        "offset": 0,
        "slot": "12",
        "type": "t_mapping(t_address,t_struct(AddressSet)1631_storage)"
      },
      {
        "astId": 5424,
        "contract": "solidity/contracts/Keep3r.sol:Keep3r",
        "label": "_jobLiquidities",
        "offset": 0,
        "slot": "13",
        "type": "t_mapping(t_address,t_struct(AddressSet)1631_storage)"
      },
      {
        "astId": 5429,
        "contract": "solidity/contracts/Keep3r.sol:Keep3r",
        "label": "_liquidityPool",
        "offset": 0,
        "slot": "14",
        "type": "t_mapping(t_address,t_address)"
      },
      {
        "astId": 5434,
        "contract": "solidity/contracts/Keep3r.sol:Keep3r",
        "label": "_isKP3RToken0",
        "offset": 0,
        "slot": "15",
        "type": "t_mapping(t_address,t_bool)"
      },
      {
        "astId": 5442,
        "contract": "solidity/contracts/Keep3r.sol:Keep3r",
        "label": "pendingBonds",
        "offset": 0,
        "slot": "16",
        "type": "t_mapping(t_address,t_mapping(t_address,t_uint256))"
      },
      {
        "astId": 5450,
        "contract": "solidity/contracts/Keep3r.sol:Keep3r",
        "label": "canActivateAfter",
        "offset": 0,
        "slot": "17",
        "type": "t_mapping(t_address,t_mapping(t_address,t_uint256))"
      },
      {
        "astId": 5458,
        "contract": "solidity/contracts/Keep3r.sol:Keep3r",
        "label": "canWithdrawAfter",
        "offset": 0,
        "slot": "18",
        "type": "t_mapping(t_address,t_mapping(t_address,t_uint256))"
      },
      {
        "astId": 5466,
        "contract": "solidity/contracts/Keep3r.sol:Keep3r",
        "label": "pendingUnbonds",
        "offset": 0,
        "slot": "19",
        "type": "t_mapping(t_address,t_mapping(t_address,t_uint256))"
      },
      {
        "astId": 5472,
        "contract": "solidity/contracts/Keep3r.sol:Keep3r",
        "label": "hasBonded",
        "offset": 0,
        "slot": "20",
        "type": "t_mapping(t_address,t_bool)"
      },
      {
        "astId": 5476,
        "contract": "solidity/contracts/Keep3r.sol:Keep3r",
        "label": "_jobs",
        "offset": 0,
        "slot": "21",
        "type": "t_struct(AddressSet)1631_storage"
      },
      {
        "astId": 5266,
        "contract": "solidity/contracts/Keep3r.sol:Keep3r",
        "label": "governance",
        "offset": 0,
        "slot": "23",
        "type": "t_address"
      },
      {
        "astId": 5270,
        "contract": "solidity/contracts/Keep3r.sol:Keep3r",
        "label": "pendingGovernance",
        "offset": 0,
        "slot": "24",
        "type": "t_address"
      },
      {
        "astId": 5949,
        "contract": "solidity/contracts/Keep3r.sol:Keep3r",
        "label": "slashers",
        "offset": 0,
        "slot": "25",
        "type": "t_mapping(t_address,t_bool)"
      },
      {
        "astId": 5955,
        "contract": "solidity/contracts/Keep3r.sol:Keep3r",
        "label": "disputers",
        "offset": 0,
        "slot": "26",
        "type": "t_mapping(t_address,t_bool)"
      },
      {
        "astId": 5594,
        "contract": "solidity/contracts/Keep3r.sol:Keep3r",
        "label": "keep3rV1",
        "offset": 0,
        "slot": "27",
        "type": "t_address"
      },
      {
        "astId": 5598,
        "contract": "solidity/contracts/Keep3r.sol:Keep3r",
        "label": "keep3rV1Proxy",
        "offset": 0,
        "slot": "28",
        "type": "t_address"
      },
      {
        "astId": 5602,
        "contract": "solidity/contracts/Keep3r.sol:Keep3r",
        "label": "keep3rHelper",
        "offset": 0,
        "slot": "29",
        "type": "t_address"
      },
      {
        "astId": 5606,
        "contract": "solidity/contracts/Keep3r.sol:Keep3r",
        "label": "kp3rWethPool",
        "offset": 0,
        "slot": "30",
        "type": "t_address"
      },
      {
        "astId": 5611,
        "contract": "solidity/contracts/Keep3r.sol:Keep3r",
        "label": "bondTime",
        "offset": 0,
        "slot": "31",
        "type": "t_uint256"
      },
      {
        "astId": 5616,
        "contract": "solidity/contracts/Keep3r.sol:Keep3r",
        "label": "unbondTime",
        "offset": 0,
        "slot": "32",
        "type": "t_uint256"
      },
      {
        "astId": 5621,
        "contract": "solidity/contracts/Keep3r.sol:Keep3r",
        "label": "liquidityMinimum",
        "offset": 0,
        "slot": "33",
        "type": "t_uint256"
      },
      {
        "astId": 5626,
        "contract": "solidity/contracts/Keep3r.sol:Keep3r",
        "label": "rewardPeriodTime",
        "offset": 0,
        "slot": "34",
        "type": "t_uint256"
      },
      {
        "astId": 5631,
        "contract": "solidity/contracts/Keep3r.sol:Keep3r",
        "label": "inflationPeriod",
        "offset": 0,
        "slot": "35",
        "type": "t_uint256"
      },
      {
        "astId": 5636,
        "contract": "solidity/contracts/Keep3r.sol:Keep3r",
        "label": "fee",
        "offset": 0,
        "slot": "36",
        "type": "t_uint256"
      },
      {
        "astId": 6297,
        "contract": "solidity/contracts/Keep3r.sol:Keep3r",
        "label": "jobTokenCreditsAddedAt",
        "offset": 0,
        "slot": "37",
        "type": "t_mapping(t_address,t_mapping(t_address,t_uint256))"
      },
      {
        "astId": 6540,
        "contract": "solidity/contracts/Keep3r.sol:Keep3r",
        "label": "_approvedLiquidities",
        "offset": 0,
        "slot": "38",
        "type": "t_struct(AddressSet)1631_storage"
      },
      {
        "astId": 6548,
        "contract": "solidity/contracts/Keep3r.sol:Keep3r",
        "label": "liquidityAmount",
        "offset": 0,
        "slot": "40",
        "type": "t_mapping(t_address,t_mapping(t_address,t_uint256))"
      },
      {
        "astId": 6554,
        "contract": "solidity/contracts/Keep3r.sol:Keep3r",
        "label": "rewardedAt",
        "offset": 0,
        "slot": "41",
        "type": "t_mapping(t_address,t_uint256)"
      },
      {
        "astId": 6560,
        "contract": "solidity/contracts/Keep3r.sol:Keep3r",
        "label": "workedAt",
        "offset": 0,
        "slot": "42",
        "type": "t_mapping(t_address,t_uint256)"
      },
      {
        "astId": 6566,
        "contract": "solidity/contracts/Keep3r.sol:Keep3r",
        "label": "_tick",
        "offset": 0,
        "slot": "43",
        "type": "t_mapping(t_address,t_struct(TickCache)13178_storage)"
      },
      {
        "astId": 8024,
        "contract": "solidity/contracts/Keep3r.sol:Keep3r",
        "label": "pendingJobMigrations",
        "offset": 0,
        "slot": "44",
        "type": "t_mapping(t_address,t_address)"
      },
      {
        "astId": 8030,
        "contract": "solidity/contracts/Keep3r.sol:Keep3r",
        "label": "_migrationCreatedAt",
        "offset": 0,
        "slot": "45",
        "type": "t_mapping(t_address,t_mapping(t_address,t_uint256))"
      },
      {
        "astId": 8427,
        "contract": "solidity/contracts/Keep3r.sol:Keep3r",
        "label": "_initialGas",
        "offset": 0,
        "slot": "46",
        "type": "t_uint256"
      }
    ],
    "types": {
      "t_address": {
        "encoding": "inplace",
        "label": "address",
        "numberOfBytes": "20"
      },
      "t_array(t_bytes32)dyn_storage": {
        "base": "t_bytes32",
        "encoding": "dynamic_array",
        "label": "bytes32[]",
        "numberOfBytes": "32"
      },
      "t_bool": {
        "encoding": "inplace",
        "label": "bool",
        "numberOfBytes": "1"
      },
      "t_bytes32": {
        "encoding": "inplace",
        "label": "bytes32",
        "numberOfBytes": "32"
      },
      "t_int56": {
        "encoding": "inplace",
        "label": "int56",
        "numberOfBytes": "7"
      },
      "t_mapping(t_address,t_address)": {
        "encoding": "mapping",
        "key": "t_address",
        "label": "mapping(address => address)",
        "numberOfBytes": "32",
        "value": "t_address"
      },
      "t_mapping(t_address,t_bool)": {
        "encoding": "mapping",
        "key": "t_address",
        "label": "mapping(address => bool)",
        "numberOfBytes": "32",
        "value": "t_bool"
      },
      "t_mapping(t_address,t_mapping(t_address,t_uint256))": {
        "encoding": "mapping",
        "key": "t_address",
        "label": "mapping(address => mapping(address => uint256))",
        "numberOfBytes": "32",
        "value": "t_mapping(t_address,t_uint256)"
      },
      "t_mapping(t_address,t_struct(AddressSet)1631_storage)": {
        "encoding": "mapping",
        "key": "t_address",
        "label": "mapping(address => struct EnumerableSet.AddressSet)",
        "numberOfBytes": "32",
        "value": "t_struct(AddressSet)1631_storage"
      },
      "t_mapping(t_address,t_struct(TickCache)13178_storage)": {
        "encoding": "mapping",
        "key": "t_address",
        "label": "mapping(address => struct IKeep3rJobFundableLiquidity.TickCache)",
        "numberOfBytes": "32",
        "value": "t_struct(TickCache)13178_storage"
      },
      "t_mapping(t_address,t_uint256)": {
        "encoding": "mapping",
        "key": "t_address",
        "label": "mapping(address => uint256)",
        "numberOfBytes": "32",
        "value": "t_uint256"
      },
      "t_mapping(t_bytes32,t_uint256)": {
        "encoding": "mapping",
        "key": "t_bytes32",
        "label": "mapping(bytes32 => uint256)",
        "numberOfBytes": "32",
        "value": "t_uint256"
      },
      "t_struct(AddressSet)1631_storage": {
        "encoding": "inplace",
        "label": "struct EnumerableSet.AddressSet",
        "members": [
          {
            "astId": 1630,
            "contract": "solidity/contracts/Keep3r.sol:Keep3r",
            "label": "_inner",
            "offset": 0,
            "slot": "0",
            "type": "t_struct(Set)1330_storage"
          }
        ],
        "numberOfBytes": "64"
      },
      "t_struct(Set)1330_storage": {
        "encoding": "inplace",
        "label": "struct EnumerableSet.Set",
        "members": [
          {
            "astId": 1325,
            "contract": "solidity/contracts/Keep3r.sol:Keep3r",
            "label": "_values",
            "offset": 0,
            "slot": "0",
            "type": "t_array(t_bytes32)dyn_storage"
          },
          {
            "astId": 1329,
            "contract": "solidity/contracts/Keep3r.sol:Keep3r",
            "label": "_indexes",
            "offset": 0,
            "slot": "1",
            "type": "t_mapping(t_bytes32,t_uint256)"
          }
        ],
        "numberOfBytes": "64"
      },
      "t_struct(TickCache)13178_storage": {
        "encoding": "inplace",
        "label": "struct IKeep3rJobFundableLiquidity.TickCache",
        "members": [
          {
            "astId": 13173,
            "contract": "solidity/contracts/Keep3r.sol:Keep3r",
            "label": "current",
            "offset": 0,
            "slot": "0",
            "type": "t_int56"
          },
          {
            "astId": 13175,
            "contract": "solidity/contracts/Keep3r.sol:Keep3r",
            "label": "difference",
            "offset": 7,
            "slot": "0",
            "type": "t_int56"
          },
          {
            "astId": 13177,
            "contract": "solidity/contracts/Keep3r.sol:Keep3r",
            "label": "period",
            "offset": 0,
            "slot": "1",
            "type": "t_uint256"
          }
        ],
        "numberOfBytes": "64"
      },
      "t_uint256": {
        "encoding": "inplace",
        "label": "uint256",
        "numberOfBytes": "32"
      }
    }
  }
}