{
  "address": "0x214DfEBeEfd0BeE69Aba7F22Ea5438797879a4a4",
  "abi": [
    {
      "inputs": [
        {
          "internalType": "address",
          "name": "_keep3r",
          "type": "address"
        }
      ],
      "stateMutability": "nonpayable",
      "type": "constructor"
    },
    {
      "inputs": [],
      "name": "KeeperNotValid",
      "type": "error"
    },
    {
      "inputs": [
        {
          "internalType": "uint256",
          "name": "",
          "type": "uint256"
        }
      ],
      "name": "array",
      "outputs": [
        {
          "internalType": "uint256",
          "name": "",
          "type": "uint256"
        }
      ],
      "stateMutability": "view",
      "type": "function"
    },
    {
      "inputs": [],
      "name": "keep3r",
      "outputs": [
        {
          "internalType": "address",
          "name": "",
          "type": "address"
        }
      ],
      "stateMutability": "view",
      "type": "function"
    },
    {
      "inputs": [],
      "name": "nonce",
      "outputs": [
        {
          "internalType": "uint256",
          "name": "",
          "type": "uint256"
        }
      ],
      "stateMutability": "view",
      "type": "function"
    },
    {
      "inputs": [],
      "name": "work",
      "outputs": [],
      "stateMutability": "nonpayable",
      "type": "function"
    },
    {
      "inputs": [
        {
          "internalType": "uint256",
          "name": "_howHard",
          "type": "uint256"
        }
      ],
      "name": "workHard",
      "outputs": [],
      "stateMutability": "nonpayable",
      "type": "function"
    },
    {
      "inputs": [
        {
          "internalType": "uint256",
          "name": "_howHard",
          "type": "uint256"
        }
      ],
      "name": "workRefund",
      "outputs": [],
      "stateMutability": "nonpayable",
      "type": "function"
    }
  ],
  "transactionHash": "0x8853ea87dd26b3625f2f70f9f6d814fe4849e8c646cccbae3d4106d663855822",
  "args": [
    "0x229d018065019c3164B899F4B9c2d4ffEae9B92b"
  ],
  "numDeployments": 2,
  "solcInputHash": "a2dd8c00aab95ba5d841446478d867fa",
  "bytecode": "0x608060405234801561001057600080fd5b506040516105f83803806105f883398101604081905261002f91610054565b600080546001600160a01b0319166001600160a01b0392909216919091179055610084565b60006020828403121561006657600080fd5b81516001600160a01b038116811461007d57600080fd5b9392505050565b610565806100936000396000f3fe608060405234801561001057600080fd5b50600436106100625760003560e01c8063322e9f041461006757806338d94193146100715780633bb39c3314610097578063634c7bb5146100aa578063affed0e0146100ca578063ead731ad146100d3575b600080fd5b61006f6100e6565b005b61008461007f3660046104c3565b6101e9565b6040519081526020015b60405180910390f35b61006f6100a53660046104c3565b61020a565b6000546100bd906001600160a01b031681565b60405161008e91906104dc565b61008460015481565b61006f6100e13660046104c3565b610343565b6000546040516335d2155560e11b81526001600160a01b0390911690636ba42aaa906101169033906004016104dc565b602060405180830381600087803b15801561013057600080fd5b505af1158015610144573d6000803e3d6000fd5b505050506040513d601f19601f82011682018060405250810190610168919061049a565b61018557604051636959565560e11b815260040160405180910390fd5b6000546040516317fbade560e21b81526001600160a01b0390911690635feeb794906101b59033906004016104dc565b600060405180830381600087803b1580156101cf57600080fd5b505af11580156101e3573d6000803e3d6000fd5b50505050565b600281815481106101f957600080fd5b600091825260209091200154905081565b6000546040516335d2155560e11b81526001600160a01b0390911690636ba42aaa9061023a9033906004016104dc565b602060405180830381600087803b15801561025457600080fd5b505af1158015610268573d6000803e3d6000fd5b505050506040513d601f19601f8201168201806040525081019061028c919061049a565b6102a957604051636959565560e11b815260040160405180910390fd5b6001545b818110156102dd57600180549060006102c5836104f0565b919050555080806102d5906104f0565b9150506102ad565b506000546040516317fbade560e21b81526001600160a01b0390911690635feeb7949061030e9033906004016104dc565b600060405180830381600087803b15801561032857600080fd5b505af115801561033c573d6000803e3d6000fd5b5050505050565b6000546040516335d2155560e11b81526001600160a01b0390911690636ba42aaa906103739033906004016104dc565b602060405180830381600087803b15801561038d57600080fd5b505af11580156103a1573d6000803e3d6000fd5b505050506040513d601f19601f820116820180604052508101906103c5919061049a565b6103e257604051636959565560e11b815260040160405180910390fd5b60005b8181101561043457600280546001810182556000919091527f405787fa12a823e0f2b7631cc41b3ba8828b3321ca811111fa75cd3aa3bb5ace018190558061042c816104f0565b9150506103e5565b505b6002541561046a57600280548061044f5761044f610519565b60019003818190600052602060002001600090559055610436565b6000546040516317fbade560e21b81526001600160a01b0390911690635feeb7949061030e9033906004016104dc565b6000602082840312156104ac57600080fd5b815180151581146104bc57600080fd5b9392505050565b6000602082840312156104d557600080fd5b5035919050565b6001600160a01b0391909116815260200190565b600060001982141561051257634e487b7160e01b600052601160045260246000fd5b5060010190565b634e487b7160e01b600052603160045260246000fdfea26469706673582212203f9310f7ea47008aed6186eba3047510159acaad5be40e9e2a679bef7b52852464736f6c63430008070033",
  "devdoc": {
    "kind": "dev",
    "methods": {},
    "version": 1
  },
  "userdoc": {
    "kind": "user",
    "methods": {},
    "version": 1
  },
  "storageLayout": {
    "storage": [
      {
        "astId": 10461,
        "contract": "solidity/for-test/BasicJob.sol:BasicJob",
        "label": "keep3r",
        "offset": 0,
        "slot": "0",
        "type": "t_address"
      },
      {
        "astId": 10463,
        "contract": "solidity/for-test/BasicJob.sol:BasicJob",
        "label": "nonce",
        "offset": 0,
        "slot": "1",
        "type": "t_uint256"
      },
      {
        "astId": 10466,
        "contract": "solidity/for-test/BasicJob.sol:BasicJob",
        "label": "array",
        "offset": 0,
        "slot": "2",
        "type": "t_array(t_uint256)dyn_storage"
      }
    ],
    "types": {
      "t_address": {
        "encoding": "inplace",
        "label": "address",
        "numberOfBytes": "20"
      },
      "t_array(t_uint256)dyn_storage": {
        "base": "t_uint256",
        "encoding": "dynamic_array",
        "label": "uint256[]",
        "numberOfBytes": "32"
      },
      "t_uint256": {
        "encoding": "inplace",
        "label": "uint256",
        "numberOfBytes": "32"
      }
    }
  }
}