{
  "address": "0x229d018065019c3164B899F4B9c2d4ffEae9B92b",
  "abi": [
    {
      "inputs": [
        {
          "internalType": "address",
          "name": "_governance",
          "type": "address"
        },
        {
          "internalType": "address",
          "name": "_keep3rHelper",
          "type": "address"
        },
        {
          "internalType": "address",
          "name": "_keep3rV1",
          "type": "address"
        },
        {
          "internalType": "address",
          "name": "_keep3rV1Proxy",
          "type": "address"
        }
      ],
      "stateMutability": "nonpayable",
      "type": "constructor"
    },
    {
      "inputs": [],
      "name": "AlreadyAJob",
      "type": "error"
    },
    {
      "inputs": [],
      "name": "AlreadyAKeeper",
      "type": "error"
    },
    {
      "inputs": [],
      "name": "AlreadyDisputed",
      "type": "error"
    },
    {
      "inputs": [],
      "name": "BondsLocked",
      "type": "error"
    },
    {
      "inputs": [],
      "name": "BondsUnexistent",
      "type": "error"
    },
    {
      "inputs": [],
      "name": "Disputed",
      "type": "error"
    },
    {
      "inputs": [],
      "name": "DisputerExistent",
      "type": "error"
    },
    {
      "inputs": [],
      "name": "DisputerUnexistent",
      "type": "error"
    },
    {
      "inputs": [],
      "name": "GasNotInitialized",
      "type": "error"
    },
    {
      "inputs": [],
      "name": "InsufficientFunds",
      "type": "error"
    },
    {
      "inputs": [],
      "name": "InsufficientJobTokenCredits",
      "type": "error"
    },
    {
      "inputs": [],
      "name": "JobAlreadyAdded",
      "type": "error"
    },
    {
      "inputs": [],
      "name": "JobDisputed",
      "type": "error"
    },
    {
      "inputs": [],
      "name": "JobLiquidityInsufficient",
      "type": "error"
    },
    {
      "inputs": [],
      "name": "JobLiquidityLessThanMin",
      "type": "error"
    },
    {
      "inputs": [],
      "name": "JobLiquidityUnexistent",
      "type": "error"
    },
    {
      "inputs": [],
      "name": "JobMigrationImpossible",
      "type": "error"
    },
    {
      "inputs": [],
      "name": "JobMigrationLocked",
      "type": "error"
    },
    {
      "inputs": [],
      "name": "JobMigrationUnavailable",
      "type": "error"
    },
    {
      "inputs": [],
      "name": "JobTokenCreditsLocked",
      "type": "error"
    },
    {
      "inputs": [],
      "name": "JobTokenInsufficient",
      "type": "error"
    },
    {
      "inputs": [],
      "name": "JobTokenUnexistent",
      "type": "error"
    },
    {
      "inputs": [],
      "name": "JobUnapproved",
      "type": "error"
    },
    {
      "inputs": [],
      "name": "JobUnavailable",
      "type": "error"
    },
    {
      "inputs": [],
      "name": "LiquidityPairApproved",
      "type": "error"
    },
    {
      "inputs": [],
      "name": "LiquidityPairUnapproved",
      "type": "error"
    },
    {
      "inputs": [],
      "name": "LiquidityPairUnexistent",
      "type": "error"
    },
    {
      "inputs": [],
      "name": "MinRewardPeriod",
      "type": "error"
    },
    {
      "inputs": [],
      "name": "NoGovernanceZeroAddress",
      "type": "error"
    },
    {
      "inputs": [],
      "name": "NotDisputed",
      "type": "error"
    },
    {
      "inputs": [],
      "name": "OnlyDisputer",
      "type": "error"
    },
    {
      "inputs": [],
      "name": "OnlyGovernance",
      "type": "error"
    },
    {
      "inputs": [],
      "name": "OnlyJobOwner",
      "type": "error"
    },
    {
      "inputs": [],
      "name": "OnlyPendingGovernance",
      "type": "error"
    },
    {
      "inputs": [],
      "name": "OnlyPendingJobOwner",
      "type": "error"
    },
    {
      "inputs": [],
      "name": "OnlySlasher",
      "type": "error"
    },
    {
      "inputs": [],
      "name": "SlasherExistent",
      "type": "error"
    },
    {
      "inputs": [],
      "name": "SlasherUnexistent",
      "type": "error"
    },
    {
      "inputs": [],
      "name": "TokenUnallowed",
      "type": "error"
    },
    {
      "inputs": [],
      "name": "UnbondsLocked",
      "type": "error"
    },
    {
      "inputs": [],
      "name": "UnbondsUnexistent",
      "type": "error"
    },
    {
      "inputs": [],
      "name": "ZeroAddress",
      "type": "error"
    },
    {
      "anonymous": false,
      "inputs": [
        {
          "indexed": true,
          "internalType": "address",
          "name": "_keeper",
          "type": "address"
        },
        {
          "indexed": true,
          "internalType": "address",
          "name": "_bond",
          "type": "address"
        },
        {
          "indexed": false,
          "internalType": "uint256",
          "name": "_amount",
          "type": "uint256"
        }
      ],
      "name": "Activation",
      "type": "event"
    },
    {
      "anonymous": false,
      "inputs": [
        {
          "indexed": false,
          "internalType": "uint256",
          "name": "_bondTime",
          "type": "uint256"
        }
      ],
      "name": "BondTimeChange",
      "type": "event"
    },
    {
      "anonymous": false,
      "inputs": [
        {
          "indexed": true,
          "internalType": "address",
          "name": "_keeper",
          "type": "address"
        },
        {
          "indexed": true,
          "internalType": "address",
          "name": "_bonding",
          "type": "address"
        },
        {
          "indexed": false,
          "internalType": "uint256",
          "name": "_amount",
          "type": "uint256"
        }
      ],
      "name": "Bonding",
      "type": "event"
    },
    {
      "anonymous": false,
      "inputs": [
        {
          "indexed": true,
          "internalType": "address",
          "name": "_jobOrKeeper",
          "type": "address"
        },
        {
          "indexed": true,
          "internalType": "address",
          "name": "_disputer",
          "type": "address"
        }
      ],
      "name": "Dispute",
      "type": "event"
    },
    {
      "anonymous": false,
      "inputs": [
        {
          "indexed": false,
          "internalType": "address",
          "name": "_disputer",
          "type": "address"
        }
      ],
      "name": "DisputerAdded",
      "type": "event"
    },
    {
      "anonymous": false,
      "inputs": [
        {
          "indexed": false,
          "internalType": "address",
          "name": "_disputer",
          "type": "address"
        }
      ],
      "name": "DisputerRemoved",
      "type": "event"
    },
    {
      "anonymous": false,
      "inputs": [
        {
          "indexed": false,
          "internalType": "address",
          "name": "_token",
          "type": "address"
        },
        {
          "indexed": false,
          "internalType": "uint256",
          "name": "_amount",
          "type": "uint256"
        },
        {
          "indexed": false,
          "internalType": "address",
          "name": "_to",
          "type": "address"
        }
      ],
      "name": "DustSent",
      "type": "event"
    },
    {
      "anonymous": false,
      "inputs": [
        {
          "indexed": false,
          "internalType": "uint256",
          "name": "_fee",
          "type": "uint256"
        }
      ],
      "name": "FeeChange",
      "type": "event"
    },
    {
      "anonymous": false,
      "inputs": [
        {
          "indexed": false,
          "internalType": "address",
          "name": "_pendingGovernance",
          "type": "address"
        }
      ],
      "name": "GovernanceProposal",
      "type": "event"
    },
    {
      "anonymous": false,
      "inputs": [
        {
          "indexed": false,
          "internalType": "address",
          "name": "_governance",
          "type": "address"
        }
      ],
      "name": "GovernanceSet",
      "type": "event"
    },
    {
      "anonymous": false,
      "inputs": [
        {
          "indexed": false,
          "internalType": "uint256",
          "name": "_inflationPeriod",
          "type": "uint256"
        }
      ],
      "name": "InflationPeriodChange",
      "type": "event"
    },
    {
      "anonymous": false,
      "inputs": [
        {
          "indexed": true,
          "internalType": "address",
          "name": "_job",
          "type": "address"
        },
        {
          "indexed": true,
          "internalType": "address",
          "name": "_jobOwner",
          "type": "address"
        }
      ],
      "name": "JobAddition",
      "type": "event"
    },
    {
      "anonymous": false,
      "inputs": [
        {
          "indexed": true,
          "internalType": "address",
          "name": "_fromJob",
          "type": "address"
        },
        {
          "indexed": false,
          "internalType": "address",
          "name": "_toJob",
          "type": "address"
        }
      ],
      "name": "JobMigrationRequested",
      "type": "event"
    },
    {
      "anonymous": false,
      "inputs": [
        {
          "indexed": false,
          "internalType": "address",
          "name": "_fromJob",
          "type": "address"
        },
        {
          "indexed": true,
          "internalType": "address",
          "name": "_toJob",
          "type": "address"
        }
      ],
      "name": "JobMigrationSuccessful",
      "type": "event"
    },
    {
      "anonymous": false,
      "inputs": [
        {
          "indexed": true,
          "internalType": "address",
          "name": "_job",
          "type": "address"
        },
        {
          "indexed": true,
          "internalType": "address",
          "name": "_previousOwner",
          "type": "address"
        },
        {
          "indexed": true,
          "internalType": "address",
          "name": "_newOwner",
          "type": "address"
        }
      ],
      "name": "JobOwnershipAssent",
      "type": "event"
    },
    {
      "anonymous": false,
      "inputs": [
        {
          "indexed": true,
          "internalType": "address",
          "name": "_job",
          "type": "address"
        },
        {
          "indexed": true,
          "internalType": "address",
          "name": "_owner",
          "type": "address"
        },
        {
          "indexed": true,
          "internalType": "address",
          "name": "_pendingOwner",
          "type": "address"
        }
      ],
      "name": "JobOwnershipChange",
      "type": "event"
    },
    {
      "anonymous": false,
      "inputs": [
        {
          "indexed": true,
          "internalType": "address",
          "name": "_job",
          "type": "address"
        },
        {
          "indexed": false,
          "internalType": "address",
          "name": "_liquidity",
          "type": "address"
        },
        {
          "indexed": true,
          "internalType": "address",
          "name": "_slasher",
          "type": "address"
        },
        {
          "indexed": false,
          "internalType": "uint256",
          "name": "_amount",
          "type": "uint256"
        }
      ],
      "name": "JobSlashLiquidity",
      "type": "event"
    },
    {
      "anonymous": false,
      "inputs": [
        {
          "indexed": true,
          "internalType": "address",
          "name": "_job",
          "type": "address"
        },
        {
          "indexed": false,
          "internalType": "address",
          "name": "_token",
          "type": "address"
        },
        {
          "indexed": true,
          "internalType": "address",
          "name": "_slasher",
          "type": "address"
        },
        {
          "indexed": false,
          "internalType": "uint256",
          "name": "_amount",
          "type": "uint256"
        }
      ],
      "name": "JobSlashToken",
      "type": "event"
    },
    {
      "anonymous": false,
      "inputs": [
        {
          "indexed": false,
          "internalType": "address",
          "name": "_keep3rHelper",
          "type": "address"
        }
      ],
      "name": "Keep3rHelperChange",
      "type": "event"
    },
    {
      "anonymous": false,
      "inputs": [
        {
          "indexed": false,
          "internalType": "address",
          "name": "_keep3rV1",
          "type": "address"
        }
      ],
      "name": "Keep3rV1Change",
      "type": "event"
    },
    {
      "anonymous": false,
      "inputs": [
        {
          "indexed": false,
          "internalType": "address",
          "name": "_keep3rV1Proxy",
          "type": "address"
        }
      ],
      "name": "Keep3rV1ProxyChange",
      "type": "event"
    },
    {
      "anonymous": false,
      "inputs": [
        {
          "indexed": true,
          "internalType": "address",
          "name": "_keeper",
          "type": "address"
        },
        {
          "indexed": true,
          "internalType": "address",
          "name": "_slasher",
          "type": "address"
        }
      ],
      "name": "KeeperRevoke",
      "type": "event"
    },
    {
      "anonymous": false,
      "inputs": [
        {
          "indexed": true,
          "internalType": "address",
          "name": "_keeper",
          "type": "address"
        },
        {
          "indexed": true,
          "internalType": "address",
          "name": "_slasher",
          "type": "address"
        },
        {
          "indexed": false,
          "internalType": "uint256",
          "name": "_amount",
          "type": "uint256"
        }
      ],
      "name": "KeeperSlash",
      "type": "event"
    },
    {
      "anonymous": false,
      "inputs": [
        {
          "indexed": false,
          "internalType": "uint256",
          "name": "_gasLeft",
          "type": "uint256"
        }
      ],
      "name": "KeeperValidation",
      "type": "event"
    },
    {
      "anonymous": false,
      "inputs": [
        {
          "indexed": true,
          "internalType": "address",
          "name": "_credit",
          "type": "address"
        },
        {
          "indexed": true,
          "internalType": "address",
          "name": "_job",
          "type": "address"
        },
        {
          "indexed": true,
          "internalType": "address",
          "name": "_keeper",
          "type": "address"
        },
        {
          "indexed": false,
          "internalType": "uint256",
          "name": "_payment",
          "type": "uint256"
        },
        {
          "indexed": false,
          "internalType": "uint256",
          "name": "_gasLeft",
          "type": "uint256"
        }
      ],
      "name": "KeeperWork",
      "type": "event"
    },
    {
      "anonymous": false,
      "inputs": [
        {
          "indexed": true,
          "internalType": "address",
          "name": "_job",
          "type": "address"
        },
        {
          "indexed": true,
          "internalType": "address",
          "name": "_liquidity",
          "type": "address"
        },
        {
          "indexed": true,
          "internalType": "address",
          "name": "_provider",
          "type": "address"
        },
        {
          "indexed": false,
          "internalType": "uint256",
          "name": "_amount",
          "type": "uint256"
        }
      ],
      "name": "LiquidityAddition",
      "type": "event"
    },
    {
      "anonymous": false,
      "inputs": [
        {
          "indexed": false,
          "internalType": "address",
          "name": "_liquidity",
          "type": "address"
        }
      ],
      "name": "LiquidityApproval",
      "type": "event"
    },
    {
      "anonymous": false,
      "inputs": [
        {
          "indexed": true,
          "internalType": "address",
          "name": "_job",
          "type": "address"
        },
        {
          "indexed": false,
          "internalType": "uint256",
          "name": "_rewardedAt",
          "type": "uint256"
        },
        {
          "indexed": false,
          "internalType": "uint256",
          "name": "_currentCredits",
          "type": "uint256"
        }
      ],
      "name": "LiquidityCreditsForced",
      "type": "event"
    },
    {
      "anonymous": false,
      "inputs": [
        {
          "indexed": true,
          "internalType": "address",
          "name": "_job",
          "type": "address"
        },
        {
          "indexed": false,
          "internalType": "uint256",
          "name": "_rewardedAt",
          "type": "uint256"
        },
        {
          "indexed": false,
          "internalType": "uint256",
          "name": "_currentCredits",
          "type": "uint256"
        },
        {
          "indexed": false,
          "internalType": "uint256",
          "name": "_periodCredits",
          "type": "uint256"
        }
      ],
      "name": "LiquidityCreditsReward",
      "type": "event"
    },
    {
      "anonymous": false,
      "inputs": [
        {
          "indexed": false,
          "internalType": "uint256",
          "name": "_liquidityMinimum",
          "type": "uint256"
        }
      ],
      "name": "LiquidityMinimumChange",
      "type": "event"
    },
    {
      "anonymous": false,
      "inputs": [
        {
          "indexed": false,
          "internalType": "address",
          "name": "_liquidity",
          "type": "address"
        }
      ],
      "name": "LiquidityRevocation",
      "type": "event"
    },
    {
      "anonymous": false,
      "inputs": [
        {
          "indexed": true,
          "internalType": "address",
          "name": "_job",
          "type": "address"
        },
        {
          "indexed": true,
          "internalType": "address",
          "name": "_liquidity",
          "type": "address"
        },
        {
          "indexed": true,
          "internalType": "address",
          "name": "_receiver",
          "type": "address"
        },
        {
          "indexed": false,
          "internalType": "uint256",
          "name": "_amount",
          "type": "uint256"
        }
      ],
      "name": "LiquidityWithdrawal",
      "type": "event"
    },
    {
      "anonymous": false,
      "inputs": [
        {
          "indexed": true,
          "internalType": "address",
          "name": "_jobOrKeeper",
          "type": "address"
        },
        {
          "indexed": true,
          "internalType": "address",
          "name": "_resolver",
          "type": "address"
        }
      ],
      "name": "Resolve",
      "type": "event"
    },
    {
      "anonymous": false,
      "inputs": [
        {
          "indexed": false,
          "internalType": "uint256",
          "name": "_rewardPeriodTime",
          "type": "uint256"
        }
      ],
      "name": "RewardPeriodTimeChange",
      "type": "event"
    },
    {
      "anonymous": false,
      "inputs": [
        {
          "indexed": false,
          "internalType": "address",
          "name": "_slasher",
          "type": "address"
        }
      ],
      "name": "SlasherAdded",
      "type": "event"
    },
    {
      "anonymous": false,
      "inputs": [
        {
          "indexed": false,
          "internalType": "address",
          "name": "_slasher",
          "type": "address"
        }
      ],
      "name": "SlasherRemoved",
      "type": "event"
    },
    {
      "anonymous": false,
      "inputs": [
        {
          "indexed": true,
          "internalType": "address",
          "name": "_job",
          "type": "address"
        },
        {
          "indexed": true,
          "internalType": "address",
          "name": "_token",
          "type": "address"
        },
        {
          "indexed": true,
          "internalType": "address",
          "name": "_provider",
          "type": "address"
        },
        {
          "indexed": false,
          "internalType": "uint256",
          "name": "_amount",
          "type": "uint256"
        }
      ],
      "name": "TokenCreditAddition",
      "type": "event"
    },
    {
      "anonymous": false,
      "inputs": [
        {
          "indexed": true,
          "internalType": "address",
          "name": "_job",
          "type": "address"
        },
        {
          "indexed": true,
          "internalType": "address",
          "name": "_token",
          "type": "address"
        },
        {
          "indexed": true,
          "internalType": "address",
          "name": "_receiver",
          "type": "address"
        },
        {
          "indexed": false,
          "internalType": "uint256",
          "name": "_amount",
          "type": "uint256"
        }
      ],
      "name": "TokenCreditWithdrawal",
      "type": "event"
    },
    {
      "anonymous": false,
      "inputs": [
        {
          "indexed": false,
          "internalType": "uint256",
          "name": "_unbondTime",
          "type": "uint256"
        }
      ],
      "name": "UnbondTimeChange",
      "type": "event"
    },
    {
      "anonymous": false,
      "inputs": [
        {
          "indexed": true,
          "internalType": "address",
          "name": "_keeperOrJob",
          "type": "address"
        },
        {
          "indexed": true,
          "internalType": "address",
          "name": "_unbonding",
          "type": "address"
        },
        {
          "indexed": false,
          "internalType": "uint256",
          "name": "_amount",
          "type": "uint256"
        }
      ],
      "name": "Unbonding",
      "type": "event"
    },
    {
      "anonymous": false,
      "inputs": [
        {
          "indexed": true,
          "internalType": "address",
          "name": "_keeper",
          "type": "address"
        },
        {
          "indexed": true,
          "internalType": "address",
          "name": "_bond",
          "type": "address"
        },
        {
          "indexed": false,
          "internalType": "uint256",
          "name": "_amount",
          "type": "uint256"
        }
      ],
      "name": "Withdrawal",
      "type": "event"
    },
    {
      "inputs": [],
      "name": "acceptGovernance",
      "outputs": [],
      "stateMutability": "nonpayable",
      "type": "function"
    },
    {
      "inputs": [
        {
          "internalType": "address",
          "name": "_fromJob",
          "type": "address"
        },
        {
          "internalType": "address",
          "name": "_toJob",
          "type": "address"
        }
      ],
      "name": "acceptJobMigration",
      "outputs": [],
      "stateMutability": "nonpayable",
      "type": "function"
    },
    {
      "inputs": [
        {
          "internalType": "address",
          "name": "_job",
          "type": "address"
        }
      ],
      "name": "acceptJobOwnership",
      "outputs": [],
      "stateMutability": "nonpayable",
      "type": "function"
    },
    {
      "inputs": [
        {
          "internalType": "address",
          "name": "_bonding",
          "type": "address"
        }
      ],
      "name": "activate",
      "outputs": [],
      "stateMutability": "nonpayable",
      "type": "function"
    },
    {
      "inputs": [
        {
          "internalType": "address",
          "name": "_disputer",
          "type": "address"
        }
      ],
      "name": "addDisputer",
      "outputs": [],
      "stateMutability": "nonpayable",
      "type": "function"
    },
    {
      "inputs": [
        {
          "internalType": "address",
          "name": "_job",
          "type": "address"
        }
      ],
      "name": "addJob",
      "outputs": [],
      "stateMutability": "nonpayable",
      "type": "function"
    },
    {
      "inputs": [
        {
          "internalType": "address",
          "name": "_job",
          "type": "address"
        },
        {
          "internalType": "address",
          "name": "_liquidity",
          "type": "address"
        },
        {
          "internalType": "uint256",
          "name": "_amount",
          "type": "uint256"
        }
      ],
      "name": "addLiquidityToJob",
      "outputs": [],
      "stateMutability": "nonpayable",
      "type": "function"
    },
    {
      "inputs": [
        {
          "internalType": "address",
          "name": "_slasher",
          "type": "address"
        }
      ],
      "name": "addSlasher",
      "outputs": [],
      "stateMutability": "nonpayable",
      "type": "function"
    },
    {
      "inputs": [
        {
          "internalType": "address",
          "name": "_job",
          "type": "address"
        },
        {
          "internalType": "address",
          "name": "_token",
          "type": "address"
        },
        {
          "internalType": "uint256",
          "name": "_amount",
          "type": "uint256"
        }
      ],
      "name": "addTokenCreditsToJob",
      "outputs": [],
      "stateMutability": "nonpayable",
      "type": "function"
    },
    {
      "inputs": [
        {
          "internalType": "address",
          "name": "_liquidity",
          "type": "address"
        }
      ],
      "name": "approveLiquidity",
      "outputs": [],
      "stateMutability": "nonpayable",
      "type": "function"
    },
    {
      "inputs": [],
      "name": "approvedLiquidities",
      "outputs": [
        {
          "internalType": "address[]",
          "name": "_list",
          "type": "address[]"
        }
      ],
      "stateMutability": "view",
      "type": "function"
    },
    {
      "inputs": [
        {
          "internalType": "address",
          "name": "_bonding",
          "type": "address"
        },
        {
          "internalType": "uint256",
          "name": "_amount",
          "type": "uint256"
        }
      ],
      "name": "bond",
      "outputs": [],
      "stateMutability": "nonpayable",
      "type": "function"
    },
    {
      "inputs": [],
      "name": "bondTime",
      "outputs": [
        {
          "internalType": "uint256",
          "name": "",
          "type": "uint256"
        }
      ],
      "stateMutability": "view",
      "type": "function"
    },
    {
      "inputs": [
        {
          "internalType": "address",
          "name": "_keeper",
          "type": "address"
        },
        {
          "internalType": "uint256",
          "name": "_payment",
          "type": "uint256"
        }
      ],
      "name": "bondedPayment",
      "outputs": [],
      "stateMutability": "nonpayable",
      "type": "function"
    },
    {
      "inputs": [
        {
          "internalType": "address",
          "name": "",
          "type": "address"
        },
        {
          "internalType": "address",
          "name": "",
          "type": "address"
        }
      ],
      "name": "bonds",
      "outputs": [
        {
          "internalType": "uint256",
          "name": "",
          "type": "uint256"
        }
      ],
      "stateMutability": "view",
      "type": "function"
    },
    {
      "inputs": [
        {
          "internalType": "address",
          "name": "",
          "type": "address"
        },
        {
          "internalType": "address",
          "name": "",
          "type": "address"
        }
      ],
      "name": "canActivateAfter",
      "outputs": [
        {
          "internalType": "uint256",
          "name": "",
          "type": "uint256"
        }
      ],
      "stateMutability": "view",
      "type": "function"
    },
    {
      "inputs": [
        {
          "internalType": "address",
          "name": "",
          "type": "address"
        },
        {
          "internalType": "address",
          "name": "",
          "type": "address"
        }
      ],
      "name": "canWithdrawAfter",
      "outputs": [
        {
          "internalType": "uint256",
          "name": "",
          "type": "uint256"
        }
      ],
      "stateMutability": "view",
      "type": "function"
    },
    {
      "inputs": [
        {
          "internalType": "address",
          "name": "_job",
          "type": "address"
        },
        {
          "internalType": "address",
          "name": "_newOwner",
          "type": "address"
        }
      ],
      "name": "changeJobOwnership",
      "outputs": [],
      "stateMutability": "nonpayable",
      "type": "function"
    },
    {
      "inputs": [
        {
          "internalType": "address",
          "name": "_token",
          "type": "address"
        },
        {
          "internalType": "address",
          "name": "_keeper",
          "type": "address"
        },
        {
          "internalType": "uint256",
          "name": "_amount",
          "type": "uint256"
        }
      ],
      "name": "directTokenPayment",
      "outputs": [],
      "stateMutability": "nonpayable",
      "type": "function"
    },
    {
      "inputs": [
        {
          "internalType": "address",
          "name": "_jobOrKeeper",
          "type": "address"
        }
      ],
      "name": "dispute",
      "outputs": [],
      "stateMutability": "nonpayable",
      "type": "function"
    },
    {
      "inputs": [
        {
          "internalType": "address",
          "name": "",
          "type": "address"
        }
      ],
      "name": "disputers",
      "outputs": [
        {
          "internalType": "bool",
          "name": "",
          "type": "bool"
        }
      ],
      "stateMutability": "view",
      "type": "function"
    },
    {
      "inputs": [
        {
          "internalType": "address",
          "name": "",
          "type": "address"
        }
      ],
      "name": "disputes",
      "outputs": [
        {
          "internalType": "bool",
          "name": "",
          "type": "bool"
        }
      ],
      "stateMutability": "view",
      "type": "function"
    },
    {
      "inputs": [],
      "name": "fee",
      "outputs": [
        {
          "internalType": "uint256",
          "name": "",
          "type": "uint256"
        }
      ],
      "stateMutability": "view",
      "type": "function"
    },
    {
      "inputs": [
        {
          "internalType": "address",
          "name": "",
          "type": "address"
        }
      ],
      "name": "firstSeen",
      "outputs": [
        {
          "internalType": "uint256",
          "name": "",
          "type": "uint256"
        }
      ],
      "stateMutability": "view",
      "type": "function"
    },
    {
      "inputs": [
        {
          "internalType": "address",
          "name": "_job",
          "type": "address"
        },
        {
          "internalType": "uint256",
          "name": "_amount",
          "type": "uint256"
        }
      ],
      "name": "forceLiquidityCreditsToJob",
      "outputs": [],
      "stateMutability": "nonpayable",
      "type": "function"
    },
    {
      "inputs": [],
      "name": "governance",
      "outputs": [
        {
          "internalType": "address",
          "name": "",
          "type": "address"
        }
      ],
      "stateMutability": "view",
      "type": "function"
    },
    {
      "inputs": [
        {
          "internalType": "address",
          "name": "",
          "type": "address"
        }
      ],
      "name": "hasBonded",
      "outputs": [
        {
          "internalType": "bool",
          "name": "",
          "type": "bool"
        }
      ],
      "stateMutability": "view",
      "type": "function"
    },
    {
      "inputs": [],
      "name": "inflationPeriod",
      "outputs": [
        {
          "internalType": "uint256",
          "name": "",
          "type": "uint256"
        }
      ],
      "stateMutability": "view",
      "type": "function"
    },
    {
      "inputs": [
        {
          "internalType": "address",
          "name": "_keeper",
          "type": "address"
        },
        {
          "internalType": "address",
          "name": "_bond",
          "type": "address"
        },
        {
          "internalType": "uint256",
          "name": "_minBond",
          "type": "uint256"
        },
        {
          "internalType": "uint256",
          "name": "_earned",
          "type": "uint256"
        },
        {
          "internalType": "uint256",
          "name": "_age",
          "type": "uint256"
        }
      ],
      "name": "isBondedKeeper",
      "outputs": [
        {
          "internalType": "bool",
          "name": "_isBondedKeeper",
          "type": "bool"
        }
      ],
      "stateMutability": "nonpayable",
      "type": "function"
    },
    {
      "inputs": [
        {
          "internalType": "address",
          "name": "_keeper",
          "type": "address"
        }
      ],
      "name": "isKeeper",
      "outputs": [
        {
          "internalType": "bool",
          "name": "_isKeeper",
          "type": "bool"
        }
      ],
      "stateMutability": "nonpayable",
      "type": "function"
    },
    {
      "inputs": [
        {
          "internalType": "address",
          "name": "_job",
          "type": "address"
        }
      ],
      "name": "jobLiquidityCredits",
      "outputs": [
        {
          "internalType": "uint256",
          "name": "_liquidityCredits",
          "type": "uint256"
        }
      ],
      "stateMutability": "view",
      "type": "function"
    },
    {
      "inputs": [
        {
          "internalType": "address",
          "name": "",
          "type": "address"
        }
      ],
      "name": "jobOwner",
      "outputs": [
        {
          "internalType": "address",
          "name": "",
          "type": "address"
        }
      ],
      "stateMutability": "view",
      "type": "function"
    },
    {
      "inputs": [
        {
          "internalType": "address",
          "name": "",
          "type": "address"
        }
      ],
      "name": "jobPendingOwner",
      "outputs": [
        {
          "internalType": "address",
          "name": "",
          "type": "address"
        }
      ],
      "stateMutability": "view",
      "type": "function"
    },
    {
      "inputs": [
        {
          "internalType": "address",
          "name": "_job",
          "type": "address"
        }
      ],
      "name": "jobPeriodCredits",
      "outputs": [
        {
          "internalType": "uint256",
          "name": "_periodCredits",
          "type": "uint256"
        }
      ],
      "stateMutability": "view",
      "type": "function"
    },
    {
      "inputs": [
        {
          "internalType": "address",
          "name": "",
          "type": "address"
        },
        {
          "internalType": "address",
          "name": "",
          "type": "address"
        }
      ],
      "name": "jobTokenCredits",
      "outputs": [
        {
          "internalType": "uint256",
          "name": "",
          "type": "uint256"
        }
      ],
      "stateMutability": "view",
      "type": "function"
    },
    {
      "inputs": [
        {
          "internalType": "address",
          "name": "",
          "type": "address"
        },
        {
          "internalType": "address",
          "name": "",
          "type": "address"
        }
      ],
      "name": "jobTokenCreditsAddedAt",
      "outputs": [
        {
          "internalType": "uint256",
          "name": "",
          "type": "uint256"
        }
      ],
      "stateMutability": "view",
      "type": "function"
    },
    {
      "inputs": [],
      "name": "jobs",
      "outputs": [
        {
          "internalType": "address[]",
          "name": "_list",
          "type": "address[]"
        }
      ],
      "stateMutability": "view",
      "type": "function"
    },
    {
      "inputs": [],
      "name": "keep3rHelper",
      "outputs": [
        {
          "internalType": "address",
          "name": "",
          "type": "address"
        }
      ],
      "stateMutability": "view",
      "type": "function"
    },
    {
      "inputs": [],
      "name": "keep3rV1",
      "outputs": [
        {
          "internalType": "address",
          "name": "",
          "type": "address"
        }
      ],
      "stateMutability": "view",
      "type": "function"
    },
    {
      "inputs": [],
      "name": "keep3rV1Proxy",
      "outputs": [
        {
          "internalType": "address",
          "name": "",
          "type": "address"
        }
      ],
      "stateMutability": "view",
      "type": "function"
    },
    {
      "inputs": [],
      "name": "keepers",
      "outputs": [
        {
          "internalType": "address[]",
          "name": "_list",
          "type": "address[]"
        }
      ],
      "stateMutability": "view",
      "type": "function"
    },
    {
      "inputs": [
        {
          "internalType": "address",
          "name": "",
          "type": "address"
        },
        {
          "internalType": "address",
          "name": "",
          "type": "address"
        }
      ],
      "name": "liquidityAmount",
      "outputs": [
        {
          "internalType": "uint256",
          "name": "",
          "type": "uint256"
        }
      ],
      "stateMutability": "view",
      "type": "function"
    },
    {
      "inputs": [],
      "name": "liquidityMinimum",
      "outputs": [
        {
          "internalType": "uint256",
          "name": "",
          "type": "uint256"
        }
      ],
      "stateMutability": "view",
      "type": "function"
    },
    {
      "inputs": [
        {
          "internalType": "address",
          "name": "_fromJob",
          "type": "address"
        },
        {
          "internalType": "address",
          "name": "_toJob",
          "type": "address"
        }
      ],
      "name": "migrateJob",
      "outputs": [],
      "stateMutability": "nonpayable",
      "type": "function"
    },
    {
      "inputs": [
        {
          "internalType": "address",
          "name": "_liquidity",
          "type": "address"
        }
      ],
      "name": "observeLiquidity",
      "outputs": [
        {
          "components": [
            {
              "internalType": "int56",
              "name": "current",
              "type": "int56"
            },
            {
              "internalType": "int56",
              "name": "difference",
              "type": "int56"
            },
            {
              "internalType": "uint256",
              "name": "period",
              "type": "uint256"
            }
          ],
          "internalType": "struct IKeep3rJobFundableLiquidity.TickCache",
          "name": "_tickCache",
          "type": "tuple"
        }
      ],
      "stateMutability": "view",
      "type": "function"
    },
    {
      "inputs": [
        {
          "internalType": "address",
          "name": "",
          "type": "address"
        },
        {
          "internalType": "address",
          "name": "",
          "type": "address"
        }
      ],
      "name": "pendingBonds",
      "outputs": [
        {
          "internalType": "uint256",
          "name": "",
          "type": "uint256"
        }
      ],
      "stateMutability": "view",
      "type": "function"
    },
    {
      "inputs": [],
      "name": "pendingGovernance",
      "outputs": [
        {
          "internalType": "address",
          "name": "",
          "type": "address"
        }
      ],
      "stateMutability": "view",
      "type": "function"
    },
    {
      "inputs": [
        {
          "internalType": "address",
          "name": "",
          "type": "address"
        }
      ],
      "name": "pendingJobMigrations",
      "outputs": [
        {
          "internalType": "address",
          "name": "",
          "type": "address"
        }
      ],
      "stateMutability": "view",
      "type": "function"
    },
    {
      "inputs": [
        {
          "internalType": "address",
          "name": "",
          "type": "address"
        },
        {
          "internalType": "address",
          "name": "",
          "type": "address"
        }
      ],
      "name": "pendingUnbonds",
      "outputs": [
        {
          "internalType": "uint256",
          "name": "",
          "type": "uint256"
        }
      ],
      "stateMutability": "view",
      "type": "function"
    },
    {
      "inputs": [
        {
          "internalType": "address",
          "name": "_liquidity",
          "type": "address"
        },
        {
          "internalType": "uint256",
          "name": "_amount",
          "type": "uint256"
        }
      ],
      "name": "quoteLiquidity",
      "outputs": [
        {
          "internalType": "uint256",
          "name": "_periodCredits",
          "type": "uint256"
        }
      ],
      "stateMutability": "view",
      "type": "function"
    },
    {
      "inputs": [
        {
          "internalType": "address",
          "name": "_disputer",
          "type": "address"
        }
      ],
      "name": "removeDisputer",
      "outputs": [],
      "stateMutability": "nonpayable",
      "type": "function"
    },
    {
      "inputs": [
        {
          "internalType": "address",
          "name": "_slasher",
          "type": "address"
        }
      ],
      "name": "removeSlasher",
      "outputs": [],
      "stateMutability": "nonpayable",
      "type": "function"
    },
    {
      "inputs": [
        {
          "internalType": "address",
          "name": "_jobOrKeeper",
          "type": "address"
        }
      ],
      "name": "resolve",
      "outputs": [],
      "stateMutability": "nonpayable",
      "type": "function"
    },
    {
      "inputs": [
        {
          "internalType": "address",
          "name": "_keeper",
          "type": "address"
        }
      ],
      "name": "revoke",
      "outputs": [],
      "stateMutability": "nonpayable",
      "type": "function"
    },
    {
      "inputs": [
        {
          "internalType": "address",
          "name": "_liquidity",
          "type": "address"
        }
      ],
      "name": "revokeLiquidity",
      "outputs": [],
      "stateMutability": "nonpayable",
      "type": "function"
    },
    {
      "inputs": [],
      "name": "rewardPeriodTime",
      "outputs": [
        {
          "internalType": "uint256",
          "name": "",
          "type": "uint256"
        }
      ],
      "stateMutability": "view",
      "type": "function"
    },
    {
      "inputs": [
        {
          "internalType": "address",
          "name": "",
          "type": "address"
        }
      ],
      "name": "rewardedAt",
      "outputs": [
        {
          "internalType": "uint256",
          "name": "",
          "type": "uint256"
        }
      ],
      "stateMutability": "view",
      "type": "function"
    },
    {
      "inputs": [
        {
          "internalType": "address",
          "name": "_token",
          "type": "address"
        },
        {
          "internalType": "uint256",
          "name": "_amount",
          "type": "uint256"
        },
        {
          "internalType": "address",
          "name": "_to",
          "type": "address"
        }
      ],
      "name": "sendDust",
      "outputs": [],
      "stateMutability": "nonpayable",
      "type": "function"
    },
    {
      "inputs": [
        {
          "internalType": "uint256",
          "name": "_bondTime",
          "type": "uint256"
        }
      ],
      "name": "setBondTime",
      "outputs": [],
      "stateMutability": "nonpayable",
      "type": "function"
    },
    {
      "inputs": [
        {
          "internalType": "uint256",
          "name": "_fee",
          "type": "uint256"
        }
      ],
      "name": "setFee",
      "outputs": [],
      "stateMutability": "nonpayable",
      "type": "function"
    },
    {
      "inputs": [
        {
          "internalType": "address",
          "name": "_governance",
          "type": "address"
        }
      ],
      "name": "setGovernance",
      "outputs": [],
      "stateMutability": "nonpayable",
      "type": "function"
    },
    {
      "inputs": [
        {
          "internalType": "uint256",
          "name": "_inflationPeriod",
          "type": "uint256"
        }
      ],
      "name": "setInflationPeriod",
      "outputs": [],
      "stateMutability": "nonpayable",
      "type": "function"
    },
    {
      "inputs": [
        {
          "internalType": "address",
          "name": "_keep3rHelper",
          "type": "address"
        }
      ],
      "name": "setKeep3rHelper",
      "outputs": [],
      "stateMutability": "nonpayable",
      "type": "function"
    },
    {
      "inputs": [
        {
          "internalType": "address",
          "name": "_keep3rV1",
          "type": "address"
        }
      ],
      "name": "setKeep3rV1",
      "outputs": [],
      "stateMutability": "nonpayable",
      "type": "function"
    },
    {
      "inputs": [
        {
          "internalType": "address",
          "name": "_keep3rV1Proxy",
          "type": "address"
        }
      ],
      "name": "setKeep3rV1Proxy",
      "outputs": [],
      "stateMutability": "nonpayable",
      "type": "function"
    },
    {
      "inputs": [
        {
          "internalType": "uint256",
          "name": "_liquidityMinimum",
          "type": "uint256"
        }
      ],
      "name": "setLiquidityMinimum",
      "outputs": [],
      "stateMutability": "nonpayable",
      "type": "function"
    },
    {
      "inputs": [
        {
          "internalType": "uint256",
          "name": "_rewardPeriodTime",
          "type": "uint256"
        }
      ],
      "name": "setRewardPeriodTime",
      "outputs": [],
      "stateMutability": "nonpayable",
      "type": "function"
    },
    {
      "inputs": [
        {
          "internalType": "uint256",
          "name": "_unbondTime",
          "type": "uint256"
        }
      ],
      "name": "setUnbondTime",
      "outputs": [],
      "stateMutability": "nonpayable",
      "type": "function"
    },
    {
      "inputs": [
        {
          "internalType": "address",
          "name": "_keeper",
          "type": "address"
        },
        {
          "internalType": "address",
          "name": "_bonded",
          "type": "address"
        },
        {
          "internalType": "uint256",
          "name": "_bondAmount",
          "type": "uint256"
        },
        {
          "internalType": "uint256",
          "name": "_unbondAmount",
          "type": "uint256"
        }
      ],
      "name": "slash",
      "outputs": [],
      "stateMutability": "nonpayable",
      "type": "function"
    },
    {
      "inputs": [
        {
          "internalType": "address",
          "name": "_job",
          "type": "address"
        },
        {
          "internalType": "address",
          "name": "_liquidity",
          "type": "address"
        },
        {
          "internalType": "uint256",
          "name": "_amount",
          "type": "uint256"
        }
      ],
      "name": "slashLiquidityFromJob",
      "outputs": [],
      "stateMutability": "nonpayable",
      "type": "function"
    },
    {
      "inputs": [
        {
          "internalType": "address",
          "name": "_job",
          "type": "address"
        },
        {
          "internalType": "address",
          "name": "_token",
          "type": "address"
        },
        {
          "internalType": "uint256",
          "name": "_amount",
          "type": "uint256"
        }
      ],
      "name": "slashTokenFromJob",
      "outputs": [],
      "stateMutability": "nonpayable",
      "type": "function"
    },
    {
      "inputs": [
        {
          "internalType": "address",
          "name": "",
          "type": "address"
        }
      ],
      "name": "slashers",
      "outputs": [
        {
          "internalType": "bool",
          "name": "",
          "type": "bool"
        }
      ],
      "stateMutability": "view",
      "type": "function"
    },
    {
      "inputs": [
        {
          "internalType": "address",
          "name": "_job",
          "type": "address"
        }
      ],
      "name": "totalJobCredits",
      "outputs": [
        {
          "internalType": "uint256",
          "name": "_credits",
          "type": "uint256"
        }
      ],
      "stateMutability": "view",
      "type": "function"
    },
    {
      "inputs": [
        {
          "internalType": "address",
          "name": "_bonding",
          "type": "address"
        },
        {
          "internalType": "uint256",
          "name": "_amount",
          "type": "uint256"
        }
      ],
      "name": "unbond",
      "outputs": [],
      "stateMutability": "nonpayable",
      "type": "function"
    },
    {
      "inputs": [
        {
          "internalType": "address",
          "name": "_job",
          "type": "address"
        },
        {
          "internalType": "address",
          "name": "_liquidity",
          "type": "address"
        },
        {
          "internalType": "uint256",
          "name": "_amount",
          "type": "uint256"
        }
      ],
      "name": "unbondLiquidityFromJob",
      "outputs": [],
      "stateMutability": "nonpayable",
      "type": "function"
    },
    {
      "inputs": [],
      "name": "unbondTime",
      "outputs": [
        {
          "internalType": "uint256",
          "name": "",
          "type": "uint256"
        }
      ],
      "stateMutability": "view",
      "type": "function"
    },
    {
      "inputs": [
        {
          "internalType": "address",
          "name": "_bonding",
          "type": "address"
        }
      ],
      "name": "withdraw",
      "outputs": [],
      "stateMutability": "nonpayable",
      "type": "function"
    },
    {
      "inputs": [
        {
          "internalType": "address",
          "name": "_job",
          "type": "address"
        },
        {
          "internalType": "address",
          "name": "_liquidity",
          "type": "address"
        },
        {
          "internalType": "address",
          "name": "_receiver",
          "type": "address"
        }
      ],
      "name": "withdrawLiquidityFromJob",
      "outputs": [],
      "stateMutability": "nonpayable",
      "type": "function"
    },
    {
      "inputs": [
        {
          "internalType": "address",
          "name": "_job",
          "type": "address"
        },
        {
          "internalType": "address",
          "name": "_token",
          "type": "address"
        },
        {
          "internalType": "uint256",
          "name": "_amount",
          "type": "uint256"
        },
        {
          "internalType": "address",
          "name": "_receiver",
          "type": "address"
        }
      ],
      "name": "withdrawTokenCreditsFromJob",
      "outputs": [],
      "stateMutability": "nonpayable",
      "type": "function"
    },
    {
      "inputs": [
        {
          "internalType": "address",
          "name": "",
          "type": "address"
        }
      ],
      "name": "workCompleted",
      "outputs": [
        {
          "internalType": "uint256",
          "name": "",
          "type": "uint256"
        }
      ],
      "stateMutability": "view",
      "type": "function"
    },
    {
      "inputs": [
        {
          "internalType": "address",
          "name": "_keeper",
          "type": "address"
        }
      ],
      "name": "worked",
      "outputs": [],
      "stateMutability": "nonpayable",
      "type": "function"
    },
    {
      "inputs": [
        {
          "internalType": "address",
          "name": "",
          "type": "address"
        }
      ],
      "name": "workedAt",
      "outputs": [
        {
          "internalType": "uint256",
          "name": "",
          "type": "uint256"
        }
      ],
      "stateMutability": "view",
      "type": "function"
    }
  ],
  "transactionHash": "0x70ba7598db4c3f6785b3625064f6891836f7a6b654ce94a3694c152bdaac4cd7",
  "args": [
    "0x258b180E741157763236F5277619D71ECf00B906",
    "0xe8b291495aB1505A96317b2FCB04a370bA1AE3c2",
    "0x16F63C5036d3F48A239358656a8f123eCE85789C",
    "0x16F63C5036d3F48A239358656a8f123eCE85789C"
  ],
  "numDeployments": 2,
  "solcInputHash": "a2dd8c00aab95ba5d841446478d867fa",
  "bytecode": "0x60806040526203f480601e5562127500601f556729a2241af62c000060205562069780602155622cd300602255601e6023553480156200003e57600080fd5b5060405162005fa638038062005fa683398101604081905262000061916200012a565b60016000558383838382828286806001600160a01b038116620000965760405162b293ed60e81b815260040160405180910390fd5b600380546001600160a01b03199081166001600160a01b0393841617909155601d8054821696831696909617909555601b805486169482169490941790935550601c8054909316911617905550506000601e819055601f555050600160205550506201518060215550506206978060225562000187565b80516001600160a01b03811681146200012557600080fd5b919050565b600080600080608085870312156200014157600080fd5b6200014c856200010d565b93506200015c602086016200010d565b92506200016c604086016200010d565b91506200017c606086016200010d565b905092959194509250565b615e0f80620001976000396000f3fe608060405234801561001057600080fd5b50600436106103d65760003560e01c8063951dc22c11610202578063c5198abc11610121578063c5198abc146109a5578063c7ae40d0146109b8578063cb4be2bb146109cb578063cb54694d146109de578063cd22af1b146109f1578063d55995fe14610a1c578063dd2080d614610a2f578063ddca3f4314610a42578063e326ac4314610a4b578063ebbb619414610a6b578063ec00cdfc14610a7e578063ec8ca64314610a91578063f0f346b914610aba578063f11a1d1a14610acd578063f136a09d14610ae0578063f25e311b14610b00578063f39c38a014610b13578063f75f9f7b14610b26578063f9d46cf214610b39578063fc253d2b14610b4c578063fe75bc4614610b5557600080fd5b8063951dc22c146107cb578063966abd00146107d357806398e90a0f146107e65780639d5c33d81461080f578063a214580914610822578063a39744b514610835578063a515366a14610860578063a5d059ca14610873578063a676f9ff14610886578063a7d2e784146108a6578063aac6aa9c146108af578063ab033ea9146108c2578063af320e81146108d5578063b0103b1a146108e8578063b23922331461090b578063b440027f1461091e578063b600702a14610949578063b7e773401461095c578063b87fcbff1461096f578063c20297f01461099257600080fd5b806359a2255e116102f957806359a2255e146106275780635aa6e6751461063a5780635ebe23f01461064d5780635feeb79414610656578063633fb68f1461066957806364bb43ee1461067257806368a9f19c14610685578063694798e61461069857806369fe0e2d146106c35780636ba42aaa146106d65780636cf262bc146106e95780636e2a9ca6146106fc57806372da828a1461070f57806374a8f10314610722578063768b5d90146107355780637c8fce231461073e578063878c723e146107465780638bb6dfa81461076f5780638cb22b76146107825780638fe204dd146107a557806390a4684e146107b857600080fd5b8063034d4c61146103db57806307b435c2146104015780630c620bce1461042c5780630d6a1f87146104415780631101eb411461045457806311466d721461046957806315006b821461047c578063165e62e7146104a7578063168f92e7146104e45780631b44555e1461050f5780631c5a9d9c1461052f5780631ef94b911461054257806321040b0114610562578063238efcbc1461058d578063274a8db41461059557806351cff8d9146105c857806352a4de29146105db57806355ea6c47146105ee578063575288bf14610601578063594a3a9314610614575b600080fd5b6103ee6103e9366004615760565b610b68565b6040519081526020015b60405180910390f35b6103ee61040f36600461579a565b601660209081526000928352604080842090915290825290205481565b610434610c6e565b6040516103f89190615b0f565b6103ee61044f366004615949565b610c7f565b61046761046236600461581e565b610d85565b005b610467610477366004615949565b610edf565b6103ee61048a36600461579a565b601460209081526000928352604080842090915290825290205481565b6104ba6104b5366004615760565b61106e565b604080518251600690810b825260208085015190910b9082015291810151908201526060016103f8565b6103ee6104f236600461579a565b600d60209081526000928352604080842090915290825290205481565b6103ee61051d366004615760565b60096020526000908152604090205481565b61046761053d366004615760565b611434565b601b54610555906001600160a01b031681565b6040516103f89190615a86565b6103ee61057036600461579a565b601760209081526000928352604080842090915290825290205481565b610467611598565b6105b86105a3366004615760565b60066020526000908152604090205460ff1681565b60405190151581526020016103f8565b6104676105d6366004615760565b611624565b6104676105e936600461581e565b6117bc565b6104676105fc366004615760565b6119ee565b61046761060f36600461581e565b611aa2565b61046761062236600461579a565b611d65565b610467610635366004615760565b611e0a565b600354610555906001600160a01b031681565b6103ee601e5481565b610467610664366004615760565b611ebc565b6103ee60205481565b610467610680366004615760565b61214b565b610467610693366004615760565b61222c565b6103ee6106a636600461579a565b602760209081526000928352604080842090915290825290205481565b6104676106d1366004615a0a565b61230b565b6105b86106e4366004615760565b61236b565b6103ee6106f7366004615760565b6123cb565b61046761070a36600461581e565b612501565b61046761071d366004615760565b612650565b610467610730366004615760565b6126ed565b6103ee60215481565b6104346127e8565b610555610754366004615760565b6001602052600090815260409020546001600160a01b031681565b6103ee61077d366004615760565b6127f4565b6105b8610790366004615760565b60186020526000908152604090205460ff1681565b6104676107b3366004615a0a565b612897565b6104676107c636600461579a565b6128f7565b6104346129e5565b6104676107e1366004615975565b6129f1565b6105556107f4366004615760565b6002602052600090815260409020546001600160a01b031681565b61046761081d366004615760565b612b07565b6104676108303660046157d3565b612be6565b6103ee61084336600461579a565b600c60209081526000928352604080842090915290825290205481565b61046761086e366004615949565b612db6565b610467610881366004615949565b613017565b6103ee610894366004615760565b60286020526000908152604090205481565b6103ee601f5481565b6104676108bd366004615760565b6130f1565b6104676108d0366004615760565b6131a5565b6104676108e336600461579a565b61321b565b6105b86108f6366004615760565b600b6020526000908152604090205460ff1681565b610467610919366004615a0a565b61369a565b6103ee61092c36600461579a565b602460209081526000928352604080842090915290825290205481565b610467610957366004615760565b6136fa565b61046761096a366004615a0a565b61391f565b6105b861097d366004615760565b60056020526000908152604090205460ff1681565b6104676109a03660046158b2565b61397f565b6104676109b3366004615760565b613a38565b601c54610555906001600160a01b031681565b6104676109d9366004615760565b613afe565b6104676109ec366004615a0a565b613b9b565b6103ee6109ff36600461579a565b601560209081526000928352604080842090915290825290205481565b610467610a2a36600461585f565b613c1f565b610467610a3d36600461581e565b613e56565b6103ee60235481565b6103ee610a59366004615760565b600a6020526000908152604090205481565b610467610a79366004615a0a565b613fd3565b610467610a8c366004615760565b614031565b610555610a9f366004615760565b602b602052600090815260409020546001600160a01b031681565b610467610ac8366004615760565b6140ce565b601d54610555906001600160a01b031681565b6103ee610aee366004615760565b60296020526000908152604090205481565b610467610b0e36600461581e565b614182565b600454610555906001600160a01b031681565b610467610b34366004615760565b6143c7565b6105b8610b473660046158f8565b61447f565b6103ee60225481565b610467610b63366004615949565b614568565b600080610b74836123cb565b6021549091504290610b8f90610b8a9083615c90565b614658565b6001600160a01b0385166000908152602860205260409020541115610c33576021546001600160a01b038516600090815260286020526040902054610bd49042615c90565b10610c10576021546001600160a01b038516600090815260286020526040902054610bff9190615bf5565b610c099082615c90565b9050610c49565b6001600160a01b038416600090815260286020526040902054610c099082615c90565b610c3c42614658565b610c469082615c90565b90505b610c538183614672565b610c5c856127f4565b610c669190615bf5565b949350505050565b6060610c7a602561469c565b905090565b6000610c8c6025846146b0565b15610d7f576000610c9c8461106e565b90508060400151600014610d7d576001600160a01b03841660009081526013602052604081205460ff16610cdd578160200151610cd890615d02565b610ce3565b81602001515b601d5460215460405163a0d2710760e01b8152929350610d74926001600160a01b039092169163a0d2710791610d1f9189918791600401615bc6565b60206040518083038186803b158015610d3757600080fd5b505afa158015610d4b573d6000803e3d6000fd5b505050506040513d601f19601f82011682018060405250810190610d6f9190615a23565b6146d2565b92505050610d7f565b505b92915050565b6001600160a01b038381166000908152600160205260409020548491163314610dc157604051636efb4f4160e11b815260040160405180910390fd5b601f54610dce9042615bf5565b6001600160a01b03808616600081815260166020908152604080832094891680845294825280832095909555918152601782528381209281529190529081208054849290610e1d908490615bf5565b90915550610e2e90508484846146e3565b6001600160a01b038085166000908152602760209081526040808320938716835292905220548015801590610e6d5750602054610e6b82866148f1565b105b15610e8b57604051636f447fcd60e11b815260040160405180910390fd5b836001600160a01b0316856001600160a01b03167f9aaab310d247ad45aef26bbdefc4ebf20c728fdb84c92b95b2b05d21826940de85604051610ed091815260200190565b60405180910390a35050505050565b336000818152600b602052604090205460ff1615610f105760405163ad2fdf3b60e01b815260040160405180910390fd5b610f1b6019826146b0565b610f375760405162941a5760e11b815260040160405180910390fd5b610f4081614a0f565b15610f9b576001600160a01b038116600081815260286020908152604080832054600e835281842054600f90935292819020549051600080516020615dba83398151915293610f929390929091615bdf565b60405180910390a25b6001600160a01b0381166000908152600e602052604090205482111561101a57610fc481614be5565b6001600160a01b038116600081815260286020908152604080832054600e835281842054600f90935292819020549051600080516020615dba833981519152936110119390929091615bdf565b60405180910390a25b611025818484614c73565b601b546001600160a01b03808516918382169116600080516020615d9a83398151915285611051614d57565b6040805192835260208301919091520160405180910390a4505050565b604080516060810182526000808252602082018190529181019190915261109442614658565b6001600160a01b0383166000908152602a6020526040902060010154141561110a57506001600160a01b03166000908152602a602090815260409182902082516060810184528154600681810b810b810b8352600160381b909104810b810b900b92810192909252600101549181019190915290565b60008061111e60215442610b8a9190615c90565b6001600160a01b0385166000908152602a602052604090206001015490915081141561128257604080516001808252818301909252600091602080830190803683375050506001600160a01b0386166000908152602a602052604090205490915060060b61118b42614658565b6111959042615c90565b826000815181106111a8576111a8615d6b565b63ffffffff909216602092830291909101820152601d546001600160a01b038881166000908152601290935260409283902054925163dc686d9160e01b81529181169263dc686d91926112049291909116908690600401615a9a565b60606040518083038186803b15801561121c57600080fd5b505afa158015611230573d6000803e3d6000fd5b505050506040513d601f19601f8201168201806040525081019061125491906159c7565b600692830b90920b80885291955061126e91839150615c40565b600690810b900b60208601525061140b9050565b6001600160a01b0384166000908152602a602052604090206001015481111561140b576040805160028082526060820183526000926020830190803683370190505090506112cf42614658565b6112d99042615c90565b816000815181106112ec576112ec615d6b565b602002602001019063ffffffff16908163ffffffff168152505060215461131242614658565b61131c9042615c90565b6113269190615bf5565b8160018151811061133957611339615d6b565b63ffffffff909216602092830291909101820152601d546001600160a01b0387811660009081526012909352604080842054905163dc686d9160e01b81529282169263dc686d91926113919216908690600401615a9a565b60606040518083038186803b1580156113a957600080fd5b505afa1580156113bd573d6000803e3d6000fd5b505050506040513d601f19601f820116820180604052508101906113e191906159c7565b600692830b90920b80885291955091506113fc908290615c40565b600690810b900b602086015250505b81156114245761141a42614658565b604084015261142c565b600060408401525b50505b919050565b336000818152600b602052604090205460ff1615611465576040516362e6201d60e01b815260040160405180910390fd5b6001600160a01b03808216600090815260156020908152604080832093861683529290522054806114a957604051636258f48160e01b815260040160405180910390fd5b4281106114c957604051630fd0eeef60e11b815260040160405180910390fd5b6001600160a01b0382166000908152600a6020526040902054611502576001600160a01b0382166000908152600a602052604090204290555b61150d600783614d71565b506001600160a01b03828116600090815260146020908152604080832093871683529290529081208054919055611545838583614d86565b836001600160a01b0316836001600160a01b03167f3673530133b6da67e9854f605b0cfa7bb9798cd33c18036dfc10d8da7c4d4a758360405161158a91815260200190565b60405180910390a350505050565b6004546001600160a01b031633146115c357604051637ef5703160e11b815260040160405180910390fd5b60048054600380546001600160a01b0383166001600160a01b031991821681179092559091169091556040517fc73be659241aade67e9a059bcf21494955018b213dbd1179054ccf928b13f3b69161161a91615a86565b60405180910390a1565b600260005414156116505760405162461bcd60e51b815260040161164790615b8f565b60405180910390fd5b600260009081553381526017602090815260408083206001600160a01b03851684529091529020546116955760405163184c088160e21b815260040160405180910390fd5b3360009081526016602090815260408083206001600160a01b038516845290915290205442116116d8576040516327cfdcb760e01b815260040160405180910390fd5b336000908152600b602052604090205460ff1615611709576040516362e6201d60e01b815260040160405180910390fd5b3360008181526017602090815260408083206001600160a01b038681168086529184528285208054908690559585526016845282852082865290935290832092909255601b5416141561175f5761175f81614e3c565b6117736001600160a01b0383163383614e9d565b6040518181526001600160a01b0383169033907f2717ead6b9200dd235aad468c9809ea400fe33ac69b5bfaa6d3e90fc922b63989060200160405180910390a350506001600055565b600260005414156117df5760405162461bcd60e51b815260040161164790615b8f565b60026000556117ef6025836146b0565b61180c5760405163e0b6aead60e01b815260040160405180910390fd5b6118176019846146b0565b61183457604051636211d34960e01b815260040160405180910390fd5b6001600160a01b03831660009081526011602052604090206118569083614d71565b5061186083614ef3565b602080546001600160a01b0380861660009081526027845260408082209287168252919093529091205461189f90611899908490615bf5565b846148f1565b10156118be57604051636f447fcd60e11b815260040160405180910390fd5b6001600160a01b038316600081815260286020908152604080832054600e835281842054600f90935292819020549051600080516020615dba8339815191529361190b9390929091615bdf565b60405180910390a26119286001600160a01b038316333084614f51565b6001600160a01b0380841660009081526027602090815260408083209386168352929052908120805483929061195f908490615bf5565b909155506119729050610d6f82846148f1565b6001600160a01b0384166000908152600f60205260408120805490919061199a908490615bf5565b909155505060405181815233906001600160a01b0384811691908616907f4e186bc75a2220191b826baff3ee63c3e970e94e58a9007ff94c9a7b8e6ebb3f9060200160405180910390a45050600160005550565b3360009081526006602052604090205460ff16611a1e57604051630942721960e31b815260040160405180910390fd5b6001600160a01b0381166000908152600b602052604090205460ff16611a57576040516310cec38560e21b815260040160405180910390fd5b6001600160a01b0381166000818152600b6020526040808220805460ff19169055513392917fe02b2375d8fb4aef3e5bc5d53bffcf70b6f185c5c93e69dcbe8b6cfc58e837e291a350565b60026000541415611ac55760405162461bcd60e51b815260040161164790615b8f565b6002600055611ad56019846146b0565b611af257604051636211d34960e01b815260040160405180910390fd5b601b546001600160a01b0383811691161415611b205760405162822d9760e71b815260040160405180910390fd5b6040516370a0823160e01b81526000906001600160a01b038416906370a0823190611b4f903090600401615a86565b60206040518083038186803b158015611b6757600080fd5b505afa158015611b7b573d6000803e3d6000fd5b505050506040513d601f19601f82011682018060405250810190611b9f9190615a23565b9050611bb66001600160a01b038416333085614f51565b600081846001600160a01b03166370a08231306040518263ffffffff1660e01b8152600401611be59190615a86565b60206040518083038186803b158015611bfd57600080fd5b505afa158015611c11573d6000803e3d6000fd5b505050506040513d601f19601f82011682018060405250810190611c359190615a23565b611c3f9190615c90565b9050600061271060235483611c549190615c21565b611c5e9190615c0d565b9050611c6a8183615c90565b6001600160a01b038088166000908152600d60209081526040808320938a1683529290529081208054909190611ca1908490615bf5565b90915550506001600160a01b0380871660009081526024602090815260408083208985168085529252909120429055600354611cde921683614e9d565b6001600160a01b0386166000908152601060205260409020611d009086614d71565b50336001600160a01b0316856001600160a01b0316876001600160a01b03167fec1a37d4a331a5059081e0fb5da1735e7890900cd215a4fb1e9f2779fd7b83eb85604051611d5091815260200190565b60405180910390a45050600160005550505050565b6001600160a01b038281166000908152600160205260409020548391163314611da157604051636efb4f4160e11b815260040160405180910390fd5b6001600160a01b03838116600081815260026020908152604080832080546001600160a01b031916888716908117909155600190925280832054905191941692917fa8bad3f0b781e1d954af9945167d5f80bfe5e57930f17c93843187c77557a6b891a4505050565b6001600160a01b038181166000908152600260205260409020548291163314611e465760405163cfe9663360e01b815260040160405180910390fd5b6001600160a01b03828116600081815260016020908152604080832080546002909352818420805487166001600160a01b031980861691909117909255805490911690555193169283929133917fcf30c54296d5eee76168b564c59c50578d49c271733a470f32707c8cfbc88a8b9190a4505050565b602d54611edc57604051630262ab9b60e61b815260040160405180910390fd5b336000818152600b602052604090205460ff1615611f0d5760405163ad2fdf3b60e01b815260040160405180910390fd5b611f186019826146b0565b611f345760405162941a5760e11b815260040160405180910390fd5b611f3d81614a0f565b15611f98576001600160a01b038116600081815260286020908152604080832054600e835281842054600f90935292819020549051600080516020615dba83398151915293611f8f9390929091615bdf565b60405180910390a25b601d546001600160a01b038381166000908152600c60209081526040808320601b548516845290915280822054905163435b21c160e01b8152600481019190915290928392839291169063435b21c19060240160606040518083038186803b15801561200357600080fd5b505afa158015612017573d6000803e3d6000fd5b505050506040513d601f19601f8201168201806040525081019061203b9190615a3c565b925092509250600061204b614d57565b9050600061205b82848688614f8f565b6001600160a01b0387166000908152600e60205260409020549091508111156120f55761208786614be5565b6001600160a01b038616600081815260286020908152604080832054600e835281842054600f90935292819020549051600080516020615dba833981519152936120d49390929091615bdf565b60405180910390a26120e4614d57565b91506120f282848688614f8f565b90505b612100868883614c73565b6000602d55601b5460408051838152602081018590526001600160a01b038a8116938a821693911691600080516020615d9a833981519152910160405180910390a450505050505050565b6003546001600160a01b03163314612176576040516354348f0360e01b815260040160405180910390fd5b612181602582614fec565b61219e57604051630a8d08b160e01b815260040160405180910390fd5b6001600160a01b038116600090815260126020908152604080832080546001600160a01b031916905560138252808320805460ff19169055602a90915280822080546001600160701b031916815560010191909155517f51199d699bdfd516fa88dd0d2f8487c40c147b4867acaa23adc8d4df6b098e5690612221908390615a86565b60405180910390a150565b6003546001600160a01b03163314612257576040516354348f0360e01b815260040160405180910390fd5b6001600160a01b03811661227e5760405163d92e233d60e01b815260040160405180910390fd5b6001600160a01b03811660009081526005602052604090205460ff16156122b85760405163546da66560e11b815260040160405180910390fd5b6001600160a01b03811660009081526005602052604090819020805460ff19166001179055517f049ccb28ab796d3225573a065712f6e7754487ced56056cda8889c337511807b90612221908390615a86565b6003546001600160a01b03163314612336576040516354348f0360e01b815260040160405180910390fd5b60238190556040518181527f4c10ca068ff7002cf5da78f2f697d1e91f6f0ac27f7344b28e8ef25263f87e5d90602001612221565b6000612375614d57565b602d556123836007836146b0565b1561142f577f4851cad52e624c8f7a1d44c28a80db05988ba2451fc0db6b0ec338d8eca95afb602d546040516123bb91815260200190565b60405180910390a1506001919050565b6000805b6001600160a01b03831660009081526011602052604090206123f090615001565b8110156124fb576001600160a01b0383166000908152601160205260408120612419908361500b565b90506124266025826146b0565b156124e85760006124368261106e565b905080604001516000146124e6576001600160a01b03821660009081526013602052604081205460ff1661247757816020015161247290615d02565b61247d565b81602001515b601d546001600160a01b03888116600090815260276020908152604080832089851684529091529081902054602154915163a0d2710760e01b81529495506124d894929093169263a0d2710792610d1f928791600401615bc6565b6124e29086615bf5565b9450505b505b50806124f381615cd3565b9150506123cf565b50919050565b3360009081526005602052604090205460ff1661253157604051637e57b1e160e01b815260040160405180910390fd5b6001600160a01b0383166000908152600b602052604090205460ff1661256a576040516310cec38560e21b815260040160405180910390fd5b6125758383836146e3565b60035460405163a9059cbb60e01b81526001600160a01b038481169263a9059cbb926125a992909116908590600401615af6565b602060405180830381600087803b1580156125c357600080fd5b505af19250505080156125f3575060408051601f3d908101601f191682019092526125f0918101906159ac565b60015b6125fc576125fe565b505b336001600160a01b0316836001600160a01b03167f6e10247c3c094d220ee99436c164b7f38d63b335a20ed817cbefaee4bb02d20e8484604051612643929190615af6565b60405180910390a3505050565b6003546001600160a01b0316331461267b576040516354348f0360e01b815260040160405180910390fd5b6001600160a01b0381166126a25760405163d92e233d60e01b815260040160405180910390fd5b601d80546001600160a01b0319166001600160a01b0383161790556040517f71973fd672e51deb8f739b1f7e1eab991936645acd6f83e2bde6eeeaff5490b090612221908390615a86565b3360009081526005602052604090205460ff1661271d57604051637e57b1e160e01b815260040160405180910390fd5b6001600160a01b0381166000908152600b602052604090205460ff16612756576040516310cec38560e21b815260040160405180910390fd5b612761600782614fec565b50601b546001600160a01b038083166000818152600c60209081526040808320949095168083529381528482205492825260178152848220848352905292909220546127af92849291615017565b60405133906001600160a01b038316907f038a17b9b553c0c3fc2ed14b957a5d8420a1666fd2efe5c1b3fe5f23eea61bb390600090a350565b6060610c7a601961469c565b600080612800836123cb565b6021546001600160a01b0385166000908152602860205260409020549192509061282a9042615c90565b1015610d7f5760008111612856576001600160a01b0383166000908152600e6020526040902054612890565b6001600160a01b0383166000908152600f6020908152604080832054600e90925290912054612886908390615c21565b6128909190615c0d565b91506124fb565b6003546001600160a01b031633146128c2576040516354348f0360e01b815260040160405180910390fd5b601f8190556040518181527fc8d443472c9783cc36f8f5f5091f08ce9f37fc2f9e6d79cf1d9aaf40a433fee290602001612221565b6001600160a01b03828116600090815260016020526040902054839116331461293357604051636efb4f4160e11b815260040160405180910390fd5b816001600160a01b0316836001600160a01b031614156129665760405163afe7ad4960e01b815260040160405180910390fd5b6001600160a01b038381166000818152602b6020908152604080832080546001600160a01b0319169588169586179055602c825280832094835293905282902042905590517fff0456758201108de53c0ff04c69988d4678ff455b2ce6f733328cf85722c04c906129d8908590615a86565b60405180910390a2505050565b6060610c7a600761469c565b6003546001600160a01b03163314612a1c576040516354348f0360e01b815260040160405180910390fd5b6001600160a01b038116612a435760405163d92e233d60e01b815260040160405180910390fd5b6001600160a01b03831673eeeeeeeeeeeeeeeeeeeeeeeeeeeeeeeeeeeeeeee1415612aa4576040516001600160a01b0382169083156108fc029084906000818181858888f19350505050158015612a9e573d6000803e3d6000fd5b50612ab8565b612ab86001600160a01b0384168284614e9d565b604080516001600160a01b0385811682526020820185905283168183015290517f9a3055ded8c8b5f21bbf4946c5afab6e1fa8b3f057922658e5e1ade125fb0b1e9181900360600190a1505050565b6003546001600160a01b03163314612b32576040516354348f0360e01b815260040160405180910390fd5b6001600160a01b038116612b595760405163d92e233d60e01b815260040160405180910390fd5b6001600160a01b03811660009081526006602052604090205460ff1615612b935760405163274e25dd60e11b815260040160405180910390fd5b6001600160a01b03811660009081526006602052604090819020805460ff19166001179055517f8addc69f897ecca0e41d70ed4ff9d75a9148a615a0fbda8597e53aea2684302f90612221908390615a86565b6001600160a01b038381166000908152600160205260409020548491163314612c2257604051636efb4f4160e11b815260040160405180910390fd5b6001600160a01b038216612c495760405163d92e233d60e01b815260040160405180910390fd5b6001600160a01b03808516600090815260176020908152604080832093871683529290522054612c8c5760405163184c088160e21b815260040160405180910390fd5b6001600160a01b038085166000908152601660209081526040808320938716835292905220544211612cd1576040516327cfdcb760e01b815260040160405180910390fd5b6001600160a01b0384166000908152600b602052604090205460ff1615612d0b576040516362e6201d60e01b815260040160405180910390fd5b6001600160a01b0380851660008181526017602090815260408083209488168084529482528083208054908490559383526016825280832085845290915281205590612d58908483614e9d565b826001600160a01b0316846001600160a01b0316866001600160a01b03167ffdb7893bf11f50c621e59cc7f1cf540e94295cb27ca869ec7ed7618ca792886284604051612da791815260200190565b60405180910390a45050505050565b60026000541415612dd95760405162461bcd60e51b815260040161164790615b8f565b60026000908155338152600b602052604090205460ff1615612e0e576040516362e6201d60e01b815260040160405180910390fd5b612e196019336146b0565b15612e375760405163d7229c4360e01b815260040160405180910390fd5b601e54612e449042615bf5565b3360009081526015602090815260408083206001600160a01b03871680855292528083209390935591516370a0823160e01b81529091906370a0823190612e8f903090600401615a86565b60206040518083038186803b158015612ea757600080fd5b505afa158015612ebb573d6000803e3d6000fd5b505050506040513d601f19601f82011682018060405250810190612edf9190615a23565b9050612ef66001600160a01b038416333085614f51565b6040516370a0823160e01b815281906001600160a01b038516906370a0823190612f24903090600401615a86565b60206040518083038186803b158015612f3c57600080fd5b505afa158015612f50573d6000803e3d6000fd5b505050506040513d601f19601f82011682018060405250810190612f749190615a23565b612f7e9190615c90565b336000908152601860209081526040808320805460ff19166001179055601482528083206001600160a01b0388168452909152812080549294508492909190612fc8908490615bf5565b90915550506040518281526001600160a01b0384169033907fa7e66869262026842e8d81f5e6806cdc8d846e27c824e2e22f4fe51442771b349060200160405180910390a35050600160005550565b601f546130249042615bf5565b3360008181526016602090815260408083206001600160a01b03881680855290835281842095909555928252600c81528282209382529290925281208054839290613070908490615c90565b90915550503360009081526017602090815260408083206001600160a01b0386168452909152812080548392906130a8908490615bf5565b90915550506040518181526001600160a01b0383169033907f9aaab310d247ad45aef26bbdefc4ebf20c728fdb84c92b95b2b05d21826940de9060200160405180910390a35050565b6003546001600160a01b0316331461311c576040516354348f0360e01b815260040160405180910390fd5b6001600160a01b03811660009081526005602052604090205460ff16613155576040516336fe17e760e21b815260040160405180910390fd5b6001600160a01b03811660009081526005602052604090819020805460ff19169055517f3ed8cbce8cab40e59282f1743e2b607effa08b5cbe0111bb4721134f2f80d02590612221908390615a86565b6003546001600160a01b031633146131d0576040516354348f0360e01b815260040160405180910390fd5b600480546001600160a01b0319166001600160a01b0383161790556040517fe987aaedf9d279143bdf1eee16cf1d0feb47742867d81083df8d6cd0a5ac857f90612221908390615a86565b6001600160a01b03818116600090815260016020526040902054829116331461325757604051636efb4f4160e11b815260040160405180910390fd5b6001600160a01b0383166000908152600b602052604090205460ff168061329657506001600160a01b0382166000908152600b602052604090205460ff165b156132b45760405163ad2fdf3b60e01b815260040160405180910390fd5b6001600160a01b038381166000908152602b60205260409020548116908316146132f157604051630ced616b60e21b815260040160405180910390fd5b6001600160a01b038084166000908152602c602090815260408083209386168352929052205461332390603c90615bf5565b421015613343576040516356248e9760e01b815260040160405180910390fd5b61334c83614ef3565b61335582614ef3565b6001600160a01b038316600090815260106020526040812061337690615001565b1115613458576001600160a01b038316600090815260106020526040812061339e908261500b565b6001600160a01b038086166000908152600d6020818152604080842085871680865290835281852054958a1685529282528084209284529190528120805493945091926133ec908490615bf5565b90915550506001600160a01b038085166000818152600d60209081526040808320948616835293815283822082905591815260109091522061342e9082614fec565b506001600160a01b03831660009081526010602052604090206134519082614d71565b5050613355565b6001600160a01b038316600090815260116020526040812061347990615001565b111561355b576001600160a01b03831660009081526011602052604081206134a1908261500b565b6001600160a01b03808616600090815260276020818152604080842085871680865290835281852054958a1685529282528084209284529190528120805493945091926134ef908490615bf5565b90915550506001600160a01b03808516600090815260276020908152604080832085851684528252808320839055928616825260119052206135319082614d71565b506001600160a01b03841660009081526011602052604090206135549082614fec565b5050613458565b6001600160a01b038084166000908152600f60205260408082205492851682528120805490919061358d908490615bf5565b90915550506001600160a01b038084166000908152600f60209081526040808320839055600e909152808220549285168252812080549091906135d1908490615bf5565b90915550506001600160a01b0383166000908152600e602090815260408083208390556028909152812055613607601984614fec565b506001600160a01b03808416600081815260016020908152604080832080546001600160a01b031990811690915560028352818420805482169055602c8352818420958816808552958352818420849055938352602b909152908190208054909216909155517f9b712b63e3fb1325fa042d3c238ce8144937875065900528ea1e4f3b00f379f2906129d8908690615a86565b6003546001600160a01b031633146136c5576040516354348f0360e01b815260040160405180910390fd5b60228190556040518181527fbdcfd7b8482f31cff6a87c362d9e2e3887f4cdc2018c7c485d8e78a7b2fadb6990602001612221565b6003546001600160a01b03163314613725576040516354348f0360e01b815260040160405180910390fd5b613730602582614d71565b61374d5760405163f25e6b9f60e01b815260040160405180910390fd5b806001600160a01b03166316f0115b6040518163ffffffff1660e01b815260040160206040518083038186803b15801561378657600080fd5b505afa15801561379a573d6000803e3d6000fd5b505050506040513d601f19601f820116820180604052508101906137be919061577d565b6001600160a01b038281166000908152601260205260409081902080546001600160a01b0319169383169384179055601d54905163696a437b60e01b815291169163696a437b916138129190600401615a86565b60206040518083038186803b15801561382a57600080fd5b505afa15801561383e573d6000803e3d6000fd5b505050506040513d601f19601f8201168201806040525081019061386291906159ac565b6001600160a01b0382166000908152601360205260409020805460ff19169115159190911790556138928161106e565b6001600160a01b0382166000908152602a60209081526040918290208351815492850151600690810b66ffffffffffffff908116600160381b026001600160701b03199095169290910b161791909117815591810151600190920191909155517fabfa8db4d238fa78bf4e15fcc91328dd35f3978f200e2857a56bb719732b7b0b90612221908390615a86565b6003546001600160a01b0316331461394a576040516354348f0360e01b815260040160405180910390fd5b601e8190556040518181527fd319ef78d2b690bb773fcccc2d096306bac7c9222dd0bb6b300f461e4a376b4390602001612221565b3360009081526005602052604090205460ff166139af57604051637e57b1e160e01b815260040160405180910390fd5b6001600160a01b0384166000908152600b602052604090205460ff166139e8576040516310cec38560e21b815260040160405180910390fd5b6139f484848484615017565b336001600160a01b0385167f10a73de7ab6e9023aa6e2bc23f7abf4dcef591487e7e55f44c00e34fe60d56db613a2a8486615bf5565b60405190815260200161158a565b613a436019826146b0565b15613a6157604051630809740d60e01b815260040160405180910390fd5b6001600160a01b03811660009081526018602052604090205460ff1615613a9b57604051632f3d320560e01b815260040160405180910390fd5b613aa6601982614d71565b506001600160a01b03811660008181526001602052604080822080546001600160a01b0319163390811790915590519092917fed3faef50715743626cd57de74281a2b17cdbfc11c0486feda541fb911e0293d91a350565b6003546001600160a01b03163314613b29576040516354348f0360e01b815260040160405180910390fd5b6001600160a01b038116613b505760405163d92e233d60e01b815260040160405180910390fd5b601c80546001600160a01b0319166001600160a01b0383161790556040517feb931b4b5a98d20a6b1e6693a7c59d8e337a06e2f1473bb776e19251db7ae25090612221908390615a86565b6003546001600160a01b03163314613bc6576040516354348f0360e01b815260040160405180910390fd5b62015180811015613bea57604051633f384aad60e21b815260040160405180910390fd5b60218190556040518181527f54aafa56429e22230b52f1495588ffc632277d74f3a85ec755e13ac50c1584d990602001612221565b60026000541415613c425760405162461bcd60e51b815260040161164790615b8f565b600260009081556001600160a01b03858116825260016020526040909120548591163314613c8357604051636efb4f4160e11b815260040160405180910390fd5b6001600160a01b03808616600090815260246020908152604080832093881683529290522054613cb590603c90615bf5565b4211613cd457604051631e0b407560e01b815260040160405180910390fd5b6001600160a01b038086166000908152600d6020908152604080832093881683529290522054831115613d1a5760405163024ae82d60e61b815260040160405180910390fd5b6001600160a01b0385166000908152600b602052604090205460ff1615613d545760405163ad2fdf3b60e01b815260040160405180910390fd5b6001600160a01b038086166000908152600d6020908152604080832093881683529290529081208054859290613d8b908490615c90565b90915550613da590506001600160a01b0385168385614e9d565b6001600160a01b038086166000908152600d6020908152604080832093881683529290522054613df3576001600160a01b0385166000908152601060205260409020613df19085614fec565b505b816001600160a01b0316846001600160a01b0316866001600160a01b03167f53e982dd9ec088d634c74c98fbbc161f808b4b6469a26c657120b9a31cb34bfe86604051613e4291815260200190565b60405180910390a450506001600055505050565b336000818152600b602052604090205460ff1615613e875760405163ad2fdf3b60e01b815260040160405180910390fd5b6001600160a01b0383166000908152600b602052604090205460ff1615613ec1576040516362e6201d60e01b815260040160405180910390fd5b613ecc6019826146b0565b613ee85760405162941a5760e11b815260040160405180910390fd5b6001600160a01b038082166000908152600d6020908152604080832093881683529290522054821115613f2e5760405163356680b760e01b815260040160405180910390fd5b6001600160a01b038082166000908152600d6020908152604080832093881683529290529081208054849290613f65908490615c90565b90915550613f7f90506001600160a01b0385168484614e9d565b826001600160a01b0316816001600160a01b0316856001600160a01b0316600080516020615d9a83398151915285613fb5614d57565b6040805192835260208301919091520160405180910390a450505050565b6003546001600160a01b03163314613ffe576040516354348f0360e01b815260040160405180910390fd5b60208181556040518281527f24d51b415694a791b1c77df7817c075ac82b83ce611bcd8627d2e66cf37aa3e79101612221565b6003546001600160a01b0316331461405c576040516354348f0360e01b815260040160405180910390fd5b6001600160a01b0381166140835760405163d92e233d60e01b815260040160405180910390fd5b601b80546001600160a01b0319166001600160a01b0383161790556040517f1d1a3e7caf0717056e48dc8aefa54d806c7af86324fece4e5d49f8e1f01f84bf90612221908390615a86565b6003546001600160a01b031633146140f9576040516354348f0360e01b815260040160405180910390fd5b6001600160a01b03811660009081526006602052604090205460ff1661413257604051633ca0d42760e11b815260040160405180910390fd5b6001600160a01b03811660009081526006602052604090819020805460ff19169055517f5e8bd21d0a98cb2caf33706e56139ff40ffbdca7ec5d9d412a0a2292496dc70e90612221908390615a86565b3360009081526005602052604090205460ff166141b257604051637e57b1e160e01b815260040160405180910390fd5b6001600160a01b0383166000908152600b602052604090205460ff166141eb576040516310cec38560e21b815260040160405180910390fd5b6001600160a01b038316600090815260106020526040902061420d90836146b0565b61422a57604051632eda7a1160e01b815260040160405180910390fd5b6001600160a01b038084166000908152600d602090815260408083209386168352929052205481111561426f5760405162919bed60e01b815260040160405180910390fd5b60035460405163a9059cbb60e01b81526001600160a01b038481169263a9059cbb926142a392909116908590600401615af6565b602060405180830381600087803b1580156142bd57600080fd5b505af19250505080156142ed575060408051601f3d908101601f191682019092526142ea918101906159ac565b60015b6142f6576142f8565b505b6001600160a01b038084166000908152600d602090815260408083209386168352929052908120805483929061432f908490615c90565b90915550506001600160a01b038084166000908152600d6020908152604080832093861683529290522054614382576001600160a01b03831660009081526010602052604090206143809083614fec565b505b336001600160a01b0316836001600160a01b03167f20262b97130b5cb8f80624eed2733df2b05db4a0789b4a3d0157e1d3183331048484604051612643929190615af6565b3360009081526006602052604090205460ff166143f757604051630942721960e31b815260040160405180910390fd5b6001600160a01b0381166000908152600b602052604090205460ff1615614431576040516304ee891b60e11b815260040160405180910390fd5b6001600160a01b0381166000818152600b6020526040808220805460ff19166001179055513392917f070125a1c0f5202217aae14ec399abfaaa13c2fd98a91d43bd3a897dd4751e8091a350565b6000614489614d57565b602d556144976007876146b0565b80156144c857506001600160a01b038087166000908152600c60209081526040808320938916835292905220548411155b80156144ec57506001600160a01b0386166000908152600960205260409020548311155b801561451b57506001600160a01b0386166000908152600a602052604090205482906145189042615c90565b10155b1561455f577f4851cad52e624c8f7a1d44c28a80db05988ba2451fc0db6b0ec338d8eca95afb602d5460405161455391815260200190565b60405180910390a15060015b95945050505050565b6003546001600160a01b03163314614593576040516354348f0360e01b815260040160405180910390fd5b61459e6019836146b0565b6145bb57604051636211d34960e01b815260040160405180910390fd5b6145c482614ef3565b6001600160a01b0382166000908152600e6020526040812080548392906145ec908490615bf5565b90915550506001600160a01b038216600081815260286020908152604080832054600e909252918290205491517f5abcf5031fdbd3badb9d1e09094208de329aee72730e87650f346584205d23d19261464c928252602082015260400190565b60405180910390a25050565b6000602154826146689190615cee565b610d7f9083615c90565b60006021548310156124fb5760215461468b8385615c21565b6146959190615c0d565b9050610d7f565b606060006146a98361516d565b9392505050565b6001600160a01b038116600090815260018301602052604081205415156146a9565b6000610d7f826021546022546151c9565b600260005414156147065760405162461bcd60e51b815260040161164790615b8f565b600260009081556001600160a01b038416815260116020526040902061472c90836146b0565b614748576040516241cfa560e21b815260040160405180910390fd5b6001600160a01b0380841660009081526027602090815260408083209386168352929052205481111561478e5760405163435b562560e01b815260040160405180910390fd5b61479783615277565b60006147a6610d6f83856148f1565b6001600160a01b0385166000908152600f60205260409020549091501561485c576001600160a01b0384166000908152600f6020908152604080832054600e909252909120546147f7908390615c21565b6148019190615c0d565b6001600160a01b0385166000908152600e602052604081208054909190614829908490615c90565b90915550506001600160a01b0384166000908152600f602052604081208054839290614856908490615c90565b90915550505b6001600160a01b03808516600090815260276020908152604080832093871683529290529081208054849290614893908490615c90565b90915550506001600160a01b038085166000908152602760209081526040808320938716835292905220546148e6576001600160a01b03841660009081526011602052604090206148e49084614fec565b505b505060016000555050565b6001600160a01b0381166000908152602a602052604081206001015415610d7f576001600160a01b03821660009081526013602052604081205460ff16614963576001600160a01b0383166000908152602a602052604090205461495e90600160381b900460060b615d02565b614987565b6001600160a01b0383166000908152602a6020526040902054600160381b900460060b5b601d5460215460405163a0d2710760e01b81529293506001600160a01b039091169163a0d27107916149bf9188918691600401615bc6565b60206040518083038186803b1580156149d757600080fd5b505afa1580156149eb573d6000803e3d6000fd5b505050506040513d601f19601f82011682018060405250810190610c669190615a23565b6000614a1a42614658565b6001600160a01b038316600090815260286020526040902054101561142f57614a4a60215442610b8a9190615c90565b6001600160a01b03831660009081526028602052604090205411614ac057614a7182615277565b6001600160a01b0382166000908152600f6020908152604080832054600e90925290912055614a9f42614658565b6001600160a01b038316600090815260286020526040902055506001919050565b6021546001600160a01b038316600090815260286020526040902054614ae69042615c90565b10614b4257614af482615277565b6001600160a01b0382166000908152600f6020908152604080832054600e83528184205560215460289092528220805491929091614b33908490615bf5565b909155506001915061142f9050565b614b4b42614658565b6001600160a01b038316600090815260296020526040902054101561142f576001600160a01b0382166000908152600f6020526040902054614b8c83615277565b6001600160a01b0383166000908152600f6020908152604080832054600e909252909120548291614bbc91615c21565b614bc69190615c0d565b6001600160a01b0384166000908152600e602052604090205550919050565b6001600160a01b038116600090815260286020526040902054614c2a90614c0c9042615c90565b6001600160a01b0383166000908152600f6020526040902054614672565b6001600160a01b0382166000908152600e602052604081208054909190614c52908490615bf5565b90915550506001600160a01b03166000908152602860205260409020429055565b6001600160a01b0383166000908152600e6020526040902054811115614cac5760405163356680b760e01b815260040160405180910390fd5b6001600160a01b0383166000908152602960209081526040808320429055600e90915281208054839290614ce1908490615c90565b90915550506001600160a01b038083166000908152600c60209081526040808320601b5490941683529290529081208054839290614d20908490615bf5565b90915550506001600160a01b03821660009081526009602052604081208054839290614d4d908490615bf5565b9091555050505050565b6000603f5a614d67906040615c21565b610c7a9190615c0d565b60006146a9836001600160a01b03841661529c565b6001600160a01b038084166000908152600c6020908152604080832093861683529290529081208054839290614dbd908490615bf5565b9091555050601b546001600160a01b0383811691161415614e3757601b54604051630852cd8d60e31b8152600481018390526001600160a01b03909116906342966c6890602401600060405180830381600087803b158015614e1e57600080fd5b505af1158015614e32573d6000803e3d6000fd5b505050505b505050565b601c5460405163140e25ad60e31b8152600481018390526001600160a01b039091169063a0712d6890602401600060405180830381600087803b158015614e8257600080fd5b505af1158015614e96573d6000803e3d6000fd5b5050505050565b614e378363a9059cbb60e01b8484604051602401614ebc929190615af6565b60408051601f198184030181529190526020810180516001600160e01b03166001600160e01b0319909316929092179091526152eb565b614efc81614a0f565b50614f0681614be5565b6001600160a01b0381166000908152600e6020908152604080832054600f90925290912054614f3591906153bd565b6001600160a01b039091166000908152600e6020526040902055565b6040516001600160a01b0380851660248301528316604482015260648101829052614f899085906323b872dd60e01b90608401614ebc565b50505050565b6000808486602d54614fa19190615c90565b614fab9190615bf5565b9050670de0b6b3a764000084612710614fc48685615c21565b614fce9190615c0d565b614fd89190615c21565b614fe29190615c0d565b9695505050505050565b60006146a9836001600160a01b0384166153d3565b6000610d7f825490565b60006146a983836154c6565b601b546001600160a01b038481169116146150ef576003546001600160a01b038085169163a9059cbb911661504c8486615bf5565b6040518363ffffffff1660e01b8152600401615069929190615af6565b602060405180830381600087803b15801561508357600080fd5b505af19250505080156150b3575060408051601f3d908101601f191682019092526150b0918101906159ac565b60015b6150ed573d8080156150e1576040519150601f19603f3d011682016040523d82523d6000602084013e6150e6565b606091505b50506150ef565b505b6001600160a01b038085166000908152600c6020908152604080832093871683529290529081208054849290615126908490615c90565b90915550506001600160a01b03808516600090815260176020908152604080832093871683529290529081208054839290615162908490615c90565b909155505050505050565b6060816000018054806020026020016040519081016040528092919081815260200182805480156151bd57602002820191906000526020600020905b8154815260200190600101908083116151a9575b50505050509050919050565b60008080600019858709858702925082811083820303915050806000141561520357600084116151f857600080fd5b5082900490506146a9565b80841161520f57600080fd5b600084868809600260036001881981018916988990049182028318808302840302808302840302808302840302808302840302808302840302918202909203026000889003889004909101858311909403939093029303949094049190911702949350505050565b615280816154f0565b6001600160a01b039091166000908152600f6020526040902055565b60008181526001830160205260408120546152e357508154600181810184556000848152602080822090930184905584548482528286019093526040902091909155610d7f565b506000610d7f565b6000615340826040518060400160405280602081526020017f5361666545524332303a206c6f772d6c6576656c2063616c6c206661696c6564815250856001600160a01b03166156339092919063ffffffff16565b805190915015614e37578080602001905181019061535e91906159ac565b614e375760405162461bcd60e51b815260206004820152602a60248201527f5361666545524332303a204552433230206f7065726174696f6e20646964206e6044820152691bdd081cdd58d8d9595960b21b6064820152608401611647565b60008183106153cc57816146a9565b5090919050565b600081815260018301602052604081205480156154bc5760006153f7600183615c90565b855490915060009061540b90600190615c90565b905081811461547057600086600001828154811061542b5761542b615d6b565b906000526020600020015490508087600001848154811061544e5761544e615d6b565b6000918252602080832090910192909255918252600188019052604090208390555b855486908061548157615481615d55565b600190038181906000526020600020016000905590558560010160008681526020019081526020016000206000905560019350505050610d7f565b6000915050610d7f565b60008260000182815481106154dd576154dd615d6b565b9060005260206000200154905092915050565b6000805b6001600160a01b038316600090815260116020526040902061551590615001565b8110156124fb576001600160a01b038316600090815260116020526040812061553e908361500b565b905061554b6025826146b0565b156156205761555942614658565b6001600160a01b0382166000908152602a6020526040902060010154146155df576155838161106e565b6001600160a01b0382166000908152602a60209081526040918290208351815492850151600690810b66ffffffffffffff908116600160381b026001600160701b03199095169290910b16179190911781559101516001909101555b6001600160a01b0380851660009081526027602090815260408083209385168352929052205461561390610d6f90836148f1565b61561d9084615bf5565b92505b508061562b81615cd3565b9150506154f4565b6060610c66848460008585843b61568c5760405162461bcd60e51b815260206004820152601d60248201527f416464726573733a2063616c6c20746f206e6f6e2d636f6e74726163740000006044820152606401611647565b600080866001600160a01b031685876040516156a89190615a6a565b60006040518083038185875af1925050503d80600081146156e5576040519150601f19603f3d011682016040523d82523d6000602084013e6156ea565b606091505b50915091506156fa828286615705565b979650505050505050565b606083156157145750816146a9565b8251156157245782518084602001fd5b8160405162461bcd60e51b81526004016116479190615b5c565b8051801515811461142f57600080fd5b8051600681900b811461142f57600080fd5b60006020828403121561577257600080fd5b81356146a981615d81565b60006020828403121561578f57600080fd5b81516146a981615d81565b600080604083850312156157ad57600080fd5b82356157b881615d81565b915060208301356157c881615d81565b809150509250929050565b6000806000606084860312156157e857600080fd5b83356157f381615d81565b9250602084013561580381615d81565b9150604084013561581381615d81565b809150509250925092565b60008060006060848603121561583357600080fd5b833561583e81615d81565b9250602084013561584e81615d81565b929592945050506040919091013590565b6000806000806080858703121561587557600080fd5b843561588081615d81565b9350602085013561589081615d81565b92506040850135915060608501356158a781615d81565b939692955090935050565b600080600080608085870312156158c857600080fd5b84356158d381615d81565b935060208501356158e381615d81565b93969395505050506040820135916060013590565b600080600080600060a0868803121561591057600080fd5b853561591b81615d81565b9450602086013561592b81615d81565b94979496505050506040830135926060810135926080909101359150565b6000806040838503121561595c57600080fd5b823561596781615d81565b946020939093013593505050565b60008060006060848603121561598a57600080fd5b833561599581615d81565b925060208401359150604084013561581381615d81565b6000602082840312156159be57600080fd5b6146a98261573e565b6000806000606084860312156159dc57600080fd5b6159e58461574e565b92506159f36020850161574e565b9150615a016040850161573e565b90509250925092565b600060208284031215615a1c57600080fd5b5035919050565b600060208284031215615a3557600080fd5b5051919050565b600080600060608486031215615a5157600080fd5b8351925060208401519150604084015190509250925092565b60008251615a7c818460208701615ca7565b9190910192915050565b6001600160a01b0391909116815260200190565b6001600160a01b038316815260406020808301829052835191830182905260009184820191906060850190845b81811015615ae957845163ffffffff1683529383019391830191600101615ac7565b5090979650505050505050565b6001600160a01b03929092168252602082015260400190565b6020808252825182820181905260009190848201906040850190845b81811015615b505783516001600160a01b031683529284019291840191600101615b2b565b50909695505050505050565b6020815260008251806020840152615b7b816040850160208701615ca7565b601f01601f19169190910160400192915050565b6020808252601f908201527f5265656e7472616e637947756172643a207265656e7472616e742063616c6c00604082015260600190565b92835260069190910b6020830152604082015260600190565b9283526020830191909152604082015260600190565b60008219821115615c0857615c08615d29565b500190565b600082615c1c57615c1c615d3f565b500490565b6000816000190483118215151615615c3b57615c3b615d29565b500290565b60008160060b8360060b6000811281667fffffffffffff1901831281151615615c6b57615c6b615d29565b81667fffffffffffff018313811615615c8657615c86615d29565b5090039392505050565b600082821015615ca257615ca2615d29565b500390565b60005b83811015615cc2578181015183820152602001615caa565b83811115614f895750506000910152565b6000600019821415615ce757615ce7615d29565b5060010190565b600082615cfd57615cfd615d3f565b500690565b60008160060b667fffffffffffff19811415615d2057615d20615d29565b60000392915050565b634e487b7160e01b600052601160045260246000fd5b634e487b7160e01b600052601260045260246000fd5b634e487b7160e01b600052603160045260246000fd5b634e487b7160e01b600052603260045260246000fd5b6001600160a01b0381168114615d9657600080fd5b5056fe46f2180879a7123a197cc3828c28955d70d661c70acbdc02450daf5f9a9c1cfaee3f0daba9837d1ab0597acf34328550e4832d02e24e467825e7c2dd318c3820a2646970667358221220deb9df8ff35657e1a12e81f8ef9afd471831f8295ea7f82180fa059863a3067564736f6c63430008070033",
  "devdoc": {
    "kind": "dev",
    "methods": {
      "acceptJobMigration(address,address)": {
        "details": "Unbond/withdraw process doesn't get migrated",
        "params": {
          "_fromJob": "The address of the job that requested to migrate",
          "_toJob": "The address to which the job wants to migrate to"
        }
      },
      "acceptJobOwnership(address)": {
        "params": {
          "_job": "The address of the job"
        }
      },
      "activate(address)": {
        "params": {
          "_bonding": "The asset being activated as bond collateral"
        }
      },
      "addJob(address)": {
        "params": {
          "_job": "Address of the contract for which work should be performed"
        }
      },
      "addLiquidityToJob(address,address,uint256)": {
        "params": {
          "_amount": "The amount of liquidity tokens to add",
          "_job": "The address of the job to assign liquidity to",
          "_liquidity": "The liquidity being added"
        }
      },
      "addTokenCreditsToJob(address,address,uint256)": {
        "params": {
          "_amount": "The amount of credit being added",
          "_job": "The address of the job being credited",
          "_token": "The address of the token being credited"
        }
      },
      "approveLiquidity(address)": {
        "params": {
          "_liquidity": "The address of the liquidity accepted"
        }
      },
      "approvedLiquidities()": {
        "returns": {
          "_list": "An array of addresses with all the approved liquidity pairs"
        }
      },
      "bond(address,uint256)": {
        "params": {
          "_amount": "The amount of bonding asset being bonded",
          "_bonding": "The asset being bonded"
        }
      },
      "bondedPayment(address,uint256)": {
        "details": "Pays the keeper that performs the work with KP3R",
        "params": {
          "_keeper": "Address of the keeper that performed the work",
          "_payment": "The reward that should be allocated for the job"
        }
      },
      "changeJobOwnership(address,address)": {
        "params": {
          "_job": "The address of the job",
          "_newOwner": "The address of the proposed new owner"
        }
      },
      "directTokenPayment(address,address,uint256)": {
        "details": "Pays the keeper that performs the work with a specific token",
        "params": {
          "_amount": "The reward that should be allocated",
          "_keeper": "Address of the keeper that performed the work",
          "_token": "The asset being awarded to the keeper"
        }
      },
      "dispute(address)": {
        "params": {
          "_jobOrKeeper": "The address in dispute"
        }
      },
      "forceLiquidityCreditsToJob(address,uint256)": {
        "params": {
          "_amount": "The amount of liquidity credits to gift",
          "_job": "The address of the job being credited"
        }
      },
      "isBondedKeeper(address,address,uint256,uint256,uint256)": {
        "details": "Should be used for protected functions",
        "params": {
          "_age": "The minimum keeper age required",
          "_bond": "The bond token being evaluated",
          "_earned": "The minimum funds earned in the keepers lifetime",
          "_keeper": "The keeper to check",
          "_minBond": "The minimum amount of bonded tokens"
        },
        "returns": {
          "_isBondedKeeper": "Whether the `_keeper` meets the given requirements"
        }
      },
      "isKeeper(address)": {
        "details": "Can be used for general (non critical) functions",
        "params": {
          "_keeper": "The keeper being investigated"
        },
        "returns": {
          "_isKeeper": "Whether the address passed as a parameter is a keeper or not"
        }
      },
      "jobLiquidityCredits(address)": {
        "params": {
          "_job": "The address of the job of which we want to know the liquidity credits"
        },
        "returns": {
          "_liquidityCredits": "The liquidity credits of a given job"
        }
      },
      "jobPeriodCredits(address)": {
        "params": {
          "_job": "The address of the job of which we want to know the period credits"
        },
        "returns": {
          "_periodCredits": "The credits the given job has at the current period"
        }
      },
      "jobs()": {
        "returns": {
          "_list": "Array with all the jobs in _jobs"
        }
      },
      "keepers()": {
        "returns": {
          "_list": "Array with all the keepers in _keepers"
        }
      },
      "migrateJob(address,address)": {
        "params": {
          "_fromJob": "The address of the job that is requesting to migrate",
          "_toJob": "The address at which the job is requesting to migrate"
        }
      },
      "observeLiquidity(address)": {
        "params": {
          "_liquidity": "The address of the liquidity pair being observed"
        },
        "returns": {
          "_tickCache": "The updated TickCache"
        }
      },
      "quoteLiquidity(address,uint256)": {
        "details": "_periodCredits = underlying KP3Rs for given liquidity amount * rewardPeriod / inflationPeriod",
        "params": {
          "_amount": "The amount of liquidity to provide",
          "_liquidity": "The address of the liquidity to provide"
        },
        "returns": {
          "_periodCredits": "The amount of KP3R periodically minted for the given liquidity"
        }
      },
      "resolve(address)": {
        "params": {
          "_jobOrKeeper": "The address cleared"
        }
      },
      "revoke(address)": {
        "params": {
          "_keeper": "The address being slashed"
        }
      },
      "revokeLiquidity(address)": {
        "params": {
          "_liquidity": "The liquidity no longer accepted"
        }
      },
      "sendDust(address,uint256,address)": {
        "params": {
          "_amount": "The amount of the token that will be transferred",
          "_to": "The address that will receive the idle funds",
          "_token": "The token that will be transferred"
        }
      },
      "setBondTime(uint256)": {
        "params": {
          "_bond": "The new bond time"
        }
      },
      "setFee(uint256)": {
        "params": {
          "_fee": "The new fee"
        }
      },
      "setGovernance(address)": {
        "params": {
          "_governance": "The address being proposed as the new governance"
        }
      },
      "setInflationPeriod(uint256)": {
        "params": {
          "_inflationPeriod": "The new inflation period"
        }
      },
      "setKeep3rHelper(address)": {
        "params": {
          "_keep3rHelper": "The Keep3rHelper address"
        }
      },
      "setKeep3rV1(address)": {
        "params": {
          "_keep3rV1": "The Keep3rV1 address"
        }
      },
      "setKeep3rV1Proxy(address)": {
        "params": {
          "_keep3rV1Proxy": "The Keep3rV1Proxy address"
        }
      },
      "setLiquidityMinimum(uint256)": {
        "params": {
          "_liquidityMinimum": "The new minimum amount of liquidity"
        }
      },
      "setRewardPeriodTime(uint256)": {
        "params": {
          "_rewardPeriodTime": "The new amount of time required to pass between rewards"
        }
      },
      "setUnbondTime(uint256)": {
        "params": {
          "_unbond": "The new unbond time"
        }
      },
      "slash(address,address,uint256,uint256)": {
        "params": {
          "_bondAmount": "The bonded amount being slashed",
          "_bonded": "The asset being slashed",
          "_keeper": "The address being slashed",
          "_unbondAmount": "The pending unbond amount being slashed"
        }
      },
      "slashLiquidityFromJob(address,address,uint256)": {
        "params": {
          "_amount": "The amount of liquidity that will be slashed",
          "_job": "The address being slashed",
          "_liquidity": "The address of the liquidity that will be slashed"
        }
      },
      "slashTokenFromJob(address,address,uint256)": {
        "params": {
          "_amount": "The amount of the token that will be slashed",
          "_job": "The address of the job from which the token will be slashed",
          "_token": "The address of the token that will be slashed"
        }
      },
      "totalJobCredits(address)": {
        "params": {
          "_job": "The address of the job of which we want to know the total credits"
        },
        "returns": {
          "_credits": "The total credits of the given job"
        }
      },
      "unbond(address,uint256)": {
        "params": {
          "_amount": "Allows for partial unbonding",
          "_bonding": "The asset being unbonded"
        }
      },
      "unbondLiquidityFromJob(address,address,uint256)": {
        "details": "Can only be called by the job's owner",
        "params": {
          "_amount": "The amount of liquidity being removed",
          "_job": "The address of the job being unbonded from",
          "_liquidity": "The liquidity being unbonded"
        }
      },
      "withdraw(address)": {
        "params": {
          "_bonding": "The asset to withdraw from the bonding pool"
        }
      },
      "withdrawLiquidityFromJob(address,address,address)": {
        "params": {
          "_job": "The address of the job being withdrawn from",
          "_liquidity": "The liquidity being withdrawn",
          "_receiver": "The address that will receive the withdrawn liquidity"
        }
      },
      "withdrawTokenCreditsFromJob(address,address,uint256,address)": {
        "params": {
          "_amount": "The amount of token to be withdrawn",
          "_job": "The address of the job from which the credits are withdrawn",
          "_receiver": "The user that will receive tokens",
          "_token": "The address of the token being withdrawn"
        }
      },
      "worked(address)": {
        "details": "Automatically calculates the payment for the keeper and pays the keeper with bonded KP3R",
        "params": {
          "_keeper": "Address of the keeper that performed the work"
        }
      }
    },
    "version": 1
  },
  "userdoc": {
    "errors": {
      "AlreadyAJob()": [
        {
          "notice": "Throws when the address that is trying to register as a job is already a job"
        }
      ],
      "AlreadyAKeeper()": [
        {
          "notice": "Throws when the address that is trying to register as a keeper is already a keeper"
        }
      ],
      "AlreadyDisputed()": [
        {
          "notice": "Throws when a job or keeper is already disputed"
        }
      ],
      "BondsLocked()": [
        {
          "notice": "Throws if the time required to bond an asset has not passed yet"
        }
      ],
      "BondsUnexistent()": [
        {
          "notice": "Throws if there are no bonded assets"
        }
      ],
      "Disputed()": [
        {
          "notice": "Throws if either a job or a keeper is disputed"
        }
      ],
      "DisputerExistent()": [
        {
          "notice": "Throws if the address is already a registered disputer"
        }
      ],
      "DisputerUnexistent()": [
        {
          "notice": "Throws if caller is not a registered disputer"
        }
      ],
      "GasNotInitialized()": [
        {
          "notice": "Throws if work method was called without calling isKeeper or isBondedKeeper"
        }
      ],
      "InsufficientFunds()": [
        {
          "notice": "Throws if the amount of funds in the job is less than the payment that must be paid to the keeper that works that job"
        }
      ],
      "InsufficientJobTokenCredits()": [
        {
          "notice": "Throws when the user tries to withdraw more tokens than it has"
        }
      ],
      "JobAlreadyAdded()": [
        {
          "notice": "Throws when trying to add a job that has already been added"
        }
      ],
      "JobDisputed()": [
        {
          "notice": "Throws when an action that requires an undisputed job is applied on a disputed job"
        }
      ],
      "JobLiquidityInsufficient()": [
        {
          "notice": "Throws when trying to remove more liquidity than the job has"
        }
      ],
      "JobLiquidityLessThanMin()": [
        {
          "notice": "Throws when trying to add less liquidity than the minimum liquidity required"
        }
      ],
      "JobLiquidityUnexistent()": [
        {
          "notice": "Throws when the job doesn't have the requested liquidity"
        }
      ],
      "JobMigrationImpossible()": [
        {
          "notice": "Throws when the address of the job that requests to migrate wants to migrate to its same address"
        }
      ],
      "JobMigrationLocked()": [
        {
          "notice": "Throws when cooldown between migrations has not yet passed"
        }
      ],
      "JobMigrationUnavailable()": [
        {
          "notice": "Throws when the _toJob address differs from the address being tracked in the pendingJobMigrations mapping"
        }
      ],
      "JobTokenCreditsLocked()": [
        {
          "notice": "Throws when the token withdraw cooldown has not yet passed"
        }
      ],
      "JobTokenInsufficient()": [
        {
          "notice": "Throws when someone tries to slash more tokens than the job has"
        }
      ],
      "JobTokenUnexistent()": [
        {
          "notice": "Throws when the token trying to be slashed doesn't exist"
        }
      ],
      "JobUnapproved()": [
        {
          "notice": "Throws if the address claiming to be a job is not in the list of approved jobs"
        }
      ],
      "JobUnavailable()": [
        {
          "notice": "Throws when an address is passed as a job, but that address is not a job"
        }
      ],
      "LiquidityPairApproved()": [
        {
          "notice": "Throws when the liquidity being approved has already been approved"
        }
      ],
      "LiquidityPairUnapproved()": [
        {
          "notice": "Throws when trying to add liquidity to an unapproved pool"
        }
      ],
      "LiquidityPairUnexistent()": [
        {
          "notice": "Throws when the liquidity being removed has not been approved"
        }
      ],
      "MinRewardPeriod()": [
        {
          "notice": "Throws if the reward period is less than the minimum reward period time"
        }
      ],
      "NoGovernanceZeroAddress()": [
        {
          "notice": "Throws if trying to set governance to zero address"
        }
      ],
      "NotDisputed()": [
        {
          "notice": "Throws when a job or keeper is not disputed and someone tries to resolve the dispute"
        }
      ],
      "OnlyDisputer()": [
        {
          "notice": "Throws if the msg.sender is not a disputer or is not a part of governance"
        }
      ],
      "OnlyGovernance()": [
        {
          "notice": "Throws if the caller of the function is not governance"
        }
      ],
      "OnlyJobOwner()": [
        {
          "notice": "Throws when the caller of the function is not the job owner"
        }
      ],
      "OnlyPendingGovernance()": [
        {
          "notice": "Throws if the caller of the function is not pendingGovernance"
        }
      ],
      "OnlyPendingJobOwner()": [
        {
          "notice": "Throws when the caller of the function is not the pending job owner"
        }
      ],
      "OnlySlasher()": [
        {
          "notice": "Throws if the msg.sender is not a slasher or is not a part of governance"
        }
      ],
      "SlasherExistent()": [
        {
          "notice": "Throws if the address is already a registered slasher"
        }
      ],
      "SlasherUnexistent()": [
        {
          "notice": "Throws if caller is not a registered slasher"
        }
      ],
      "TokenUnallowed()": [
        {
          "notice": "Throws when the token is KP3R, as it should not be used for direct token payments"
        }
      ],
      "UnbondsLocked()": [
        {
          "notice": "Throws if the time required to withdraw the bonds has not passed yet"
        }
      ],
      "UnbondsUnexistent()": [
        {
          "notice": "Throws if there are no bonds to withdraw"
        }
      ],
      "ZeroAddress()": [
        {
          "notice": "Throws if a variable is assigned to the zero address"
        }
      ]
    },
    "events": {
      "Activation(address,address,uint256)": {
        "notice": "Emitted when Keep3rKeeperFundable#activate is called"
      },
      "BondTimeChange(uint256)": {
        "notice": "Emitted when bondTime is changed"
      },
      "Bonding(address,address,uint256)": {
        "notice": "Emitted when the bonding process of a new keeper begins"
      },
      "Dispute(address,address)": {
        "notice": "Emitted when a keeper or a job is disputed"
      },
      "DisputerAdded(address)": {
        "notice": "Emitted when a disputer is added"
      },
      "DisputerRemoved(address)": {
        "notice": "Emitted when a disputer is removed"
      },
      "DustSent(address,uint256,address)": {
        "notice": "Emitted when dust is sent"
      },
      "FeeChange(uint256)": {
        "notice": "Emitted when the fee is changed"
      },
      "GovernanceProposal(address)": {
        "notice": "Emitted when a new governance is proposed"
      },
      "GovernanceSet(address)": {
        "notice": "Emitted when pendingGovernance accepts to be governance"
      },
      "InflationPeriodChange(uint256)": {
        "notice": "Emitted when the inflationPeriod is changed"
      },
      "JobAddition(address,address)": {
        "notice": "Emitted when Keep3rJobManager#addJob is called"
      },
      "JobMigrationRequested(address,address)": {
        "notice": "Emitted when Keep3rJobMigration#migrateJob function is called"
      },
      "JobMigrationSuccessful(address,address)": {
        "notice": "Emitted when Keep3rJobMigration#acceptJobMigration function is called"
      },
      "JobOwnershipAssent(address,address,address)": {
        "notice": "Emitted when Keep3rJobOwnership#JobOwnershipAssent is called"
      },
      "JobOwnershipChange(address,address,address)": {
        "notice": "Emitted when Keep3rJobOwnership#changeJobOwnership is called"
      },
      "JobSlashLiquidity(address,address,address,uint256)": {
        "notice": "Emitted when Keep3rJobDisputable#slashLiquidityFromJob is called"
      },
      "JobSlashToken(address,address,address,uint256)": {
        "notice": "Emitted when Keep3rJobDisputable#slashTokenFromJob is called"
      },
      "Keep3rHelperChange(address)": {
        "notice": "Emitted when the Keep3rHelper address is changed"
      },
      "Keep3rV1Change(address)": {
        "notice": "Emitted when the Keep3rV1 address is changed"
      },
      "Keep3rV1ProxyChange(address)": {
        "notice": "Emitted when the Keep3rV1Proxy address is changed"
      },
      "KeeperRevoke(address,address)": {
        "notice": "Emitted when Keep3rKeeperDisputable#revoke is called"
      },
      "KeeperSlash(address,address,uint256)": {
        "notice": "Emitted when Keep3rKeeperDisputable#slash is called"
      },
      "KeeperValidation(uint256)": {
        "notice": "Emitted when a keeper is validated before a job"
      },
      "KeeperWork(address,address,address,uint256,uint256)": {
        "notice": "Emitted when a keeper works a job"
      },
      "LiquidityAddition(address,address,address,uint256)": {
        "notice": "Emitted when IKeep3rJobFundableLiquidity#addLiquidityToJob function is called"
      },
      "LiquidityApproval(address)": {
        "notice": "Emitted when Keep3rJobFundableLiquidity#approveLiquidity function is called"
      },
      "LiquidityCreditsForced(address,uint256,uint256)": {
        "notice": "Emitted when Keep3rJobFundableLiquidity#forceLiquidityCreditsToJob function is called"
      },
      "LiquidityCreditsReward(address,uint256,uint256,uint256)": {
        "notice": "Emitted when Keep3rJobFundableLiquidity#addLiquidityToJob function is called"
      },
      "LiquidityMinimumChange(uint256)": {
        "notice": "Emitted when _liquidityMinimum is changed"
      },
      "LiquidityRevocation(address)": {
        "notice": "Emitted when Keep3rJobFundableLiquidity#revokeLiquidity function is called"
      },
      "LiquidityWithdrawal(address,address,address,uint256)": {
        "notice": "Emitted when IKeep3rJobFundableLiquidity#withdrawLiquidityFromJob function is called"
      },
      "Resolve(address,address)": {
        "notice": "Emitted when a dispute is resolved"
      },
      "RewardPeriodTimeChange(uint256)": {
        "notice": "Emitted when _rewardPeriodTime is changed"
      },
      "SlasherAdded(address)": {
        "notice": "Emitted when a slasher is added"
      },
      "SlasherRemoved(address)": {
        "notice": "Emitted when a slasher is removed"
      },
      "TokenCreditAddition(address,address,address,uint256)": {
        "notice": "Emitted when Keep3rJobFundableCredits#addTokenCreditsToJob is called"
      },
      "TokenCreditWithdrawal(address,address,address,uint256)": {
        "notice": "Emitted when Keep3rJobFundableCredits#withdrawTokenCreditsFromJob is called"
      },
      "UnbondTimeChange(uint256)": {
        "notice": "Emitted when _unbondTime is changed"
      },
      "Unbonding(address,address,uint256)": {
        "notice": "Emitted when a keeper or job begins the unbonding process to withdraw the funds"
      },
      "Withdrawal(address,address,uint256)": {
        "notice": "Emitted when Keep3rKeeperFundable#withdraw is called"
      }
    },
    "kind": "user",
    "methods": {
      "acceptGovernance()": {
        "notice": "Changes the governance from the current governance to the previously proposed address"
      },
      "acceptJobMigration(address,address)": {
        "notice": "Completes the migration process for a job"
      },
      "acceptJobOwnership(address)": {
        "notice": "The proposed address accepts to be the owner of the job"
      },
      "activate(address)": {
        "notice": "End of the bonding process after bonding time has passed"
      },
      "addDisputer(address)": {
        "notice": "Registers a disputer by updating the disputers mapping"
      },
      "addJob(address)": {
        "notice": "Allows any caller to add a new job"
      },
      "addLiquidityToJob(address,address,uint256)": {
        "notice": "Allows anyone to fund a job with liquidity"
      },
      "addSlasher(address)": {
        "notice": "Registers a slasher by updating the slashers mapping"
      },
      "addTokenCreditsToJob(address,address,uint256)": {
        "notice": "Add credit to a job to be paid out for work"
      },
      "approveLiquidity(address)": {
        "notice": "Approve a liquidity pair for being accepted in future"
      },
      "approvedLiquidities()": {
        "notice": "Lists liquidity pairs"
      },
      "bond(address,uint256)": {
        "notice": "Beginning of the bonding process"
      },
      "bondTime()": {
        "notice": "The amount of time required to pass after a keeper has bonded assets for it to be able to activate"
      },
      "bondedPayment(address,uint256)": {
        "notice": "Implemented by jobs to show that a keeper performed work"
      },
      "bonds(address,address)": {
        "notice": "Mapping (job => bonding => amount)"
      },
      "canActivateAfter(address,address)": {
        "notice": "Tracks when a bonding for a keeper can be activated"
      },
      "canWithdrawAfter(address,address)": {
        "notice": "Tracks when keeper bonds are ready to be withdrawn"
      },
      "changeJobOwnership(address,address)": {
        "notice": "Proposes a new address to be the owner of the job"
      },
      "directTokenPayment(address,address,uint256)": {
        "notice": "Implemented by jobs to show that a keeper performed work"
      },
      "dispute(address)": {
        "notice": "Allows governance to create a dispute for a given keeper/job"
      },
      "disputers(address)": {
        "notice": "Tracks whether the address is a disputer or not"
      },
      "disputes(address)": {
        "notice": "Tracks if a keeper or job has a pending dispute"
      },
      "fee()": {
        "notice": "The fee to be sent to governance when a user adds liquidity to a job"
      },
      "firstSeen(address)": {
        "notice": "Tracks when a keeper was first registered"
      },
      "forceLiquidityCreditsToJob(address,uint256)": {
        "notice": "Gifts liquidity credits to the specified job"
      },
      "governance()": {
        "notice": "Stores the governance address"
      },
      "hasBonded(address)": {
        "notice": "Checks whether the address has ever bonded an asset"
      },
      "inflationPeriod()": {
        "notice": "The inflation period is the denominator used to regulate the emission of KP3R"
      },
      "isBondedKeeper(address,address,uint256,uint256,uint256)": {
        "notice": "Confirms if the current keeper is registered and has a minimum bond of any asset."
      },
      "isKeeper(address)": {
        "notice": "Confirms if the current keeper is registered"
      },
      "jobLiquidityCredits(address)": {
        "notice": "Returns the liquidity credits of a given job"
      },
      "jobOwner(address)": {
        "notice": "Maps the job to the owner of the job"
      },
      "jobPendingOwner(address)": {
        "notice": "Maps the job to its pending owner"
      },
      "jobPeriodCredits(address)": {
        "notice": "Returns the credits of a given job for the current period"
      },
      "jobTokenCredits(address,address)": {
        "notice": "The current token credits available for a job"
      },
      "jobTokenCreditsAddedAt(address,address)": {
        "notice": "Last block where tokens were added to the job"
      },
      "jobs()": {
        "notice": "Lists all jobs"
      },
      "keep3rHelper()": {
        "notice": "Address of Keep3rHelper's contract"
      },
      "keep3rV1()": {
        "notice": "Address of Keep3rV1's contract"
      },
      "keep3rV1Proxy()": {
        "notice": "Address of Keep3rV1Proxy's contract"
      },
      "keepers()": {
        "notice": "Lists all keepers"
      },
      "liquidityAmount(address,address)": {
        "notice": "Amount of liquidity in a specified job"
      },
      "liquidityMinimum()": {
        "notice": "The minimum amount of liquidity required to fund a job per liquidity"
      },
      "migrateJob(address,address)": {
        "notice": "Initializes the migration process for a job by adding the request to the pendingJobMigrations mapping"
      },
      "observeLiquidity(address)": {
        "notice": "Observes the current state of the liquidity pair being observed and updates TickCache with the information"
      },
      "pendingBonds(address,address)": {
        "notice": "Tracks the amount of assets deposited in pending bonds"
      },
      "pendingGovernance()": {
        "notice": "Stores the pendingGovernance address"
      },
      "pendingJobMigrations(address)": {
        "notice": "Maps the jobs that have requested a migration to the address they have requested to migrate to"
      },
      "pendingUnbonds(address,address)": {
        "notice": "Tracks how much keeper bonds are to be withdrawn"
      },
      "quoteLiquidity(address,uint256)": {
        "notice": "Calculates how many credits should be rewarded periodically for a given liquidity amount"
      },
      "removeDisputer(address)": {
        "notice": "Removes a disputer by updating the disputers mapping"
      },
      "removeSlasher(address)": {
        "notice": "Removes a slasher by updating the slashers mapping"
      },
      "resolve(address)": {
        "notice": "Allows governance to resolve a dispute on a keeper/job"
      },
      "revoke(address)": {
        "notice": "Blacklists a keeper from participating in the network"
      },
      "revokeLiquidity(address)": {
        "notice": "Revoke a liquidity pair from being accepted in future"
      },
      "rewardPeriodTime()": {
        "notice": "The amount of time between each scheduled credits reward given to a job"
      },
      "rewardedAt(address)": {
        "notice": "Last time the job was rewarded liquidity credits"
      },
      "sendDust(address,uint256,address)": {
        "notice": "Allows an authorized user to transfer the tokens or eth that may have been left in a contract"
      },
      "setBondTime(uint256)": {
        "notice": "Sets the bond time required to activate as a keeper"
      },
      "setFee(uint256)": {
        "notice": "Sets the new fee"
      },
      "setGovernance(address)": {
        "notice": "Proposes a new address to be governance"
      },
      "setInflationPeriod(uint256)": {
        "notice": "Sets the new inflation period"
      },
      "setKeep3rHelper(address)": {
        "notice": "Sets the Keep3rHelper address"
      },
      "setKeep3rV1(address)": {
        "notice": "Sets the Keep3rV1 address"
      },
      "setKeep3rV1Proxy(address)": {
        "notice": "Sets the Keep3rV1Proxy address"
      },
      "setLiquidityMinimum(uint256)": {
        "notice": "Sets the minimum amount of liquidity required to fund a job"
      },
      "setRewardPeriodTime(uint256)": {
        "notice": "Sets the time required to pass between rewards for jobs"
      },
      "setUnbondTime(uint256)": {
        "notice": "Sets the unbond time required unbond what has been bonded"
      },
      "slash(address,address,uint256,uint256)": {
        "notice": "Allows governance to slash a keeper based on a dispute"
      },
      "slashLiquidityFromJob(address,address,uint256)": {
        "notice": "Allows governance or a slasher to slash liquidity from a job"
      },
      "slashTokenFromJob(address,address,uint256)": {
        "notice": "Allows governance or slasher to slash a job specific token"
      },
      "slashers(address)": {
        "notice": "Tracks whether the address is a slasher or not"
      },
      "totalJobCredits(address)": {
        "notice": "Calculates the total credits of a given job"
      },
      "unbond(address,uint256)": {
        "notice": "Beginning of the unbonding process"
      },
      "unbondLiquidityFromJob(address,address,uint256)": {
        "notice": "Unbond liquidity for a job"
      },
      "unbondTime()": {
        "notice": "The amount of time required to pass before a keeper can unbond what he has bonded"
      },
      "withdraw(address)": {
        "notice": "Withdraw funds after unbonding has finished"
      },
      "withdrawLiquidityFromJob(address,address,address)": {
        "notice": "Withdraw liquidity from a job"
      },
      "withdrawTokenCreditsFromJob(address,address,uint256,address)": {
        "notice": "Withdraw credit from a job"
      },
      "workCompleted(address)": {
        "notice": "Tracks the total KP3R earnings of a keeper since it started working"
      },
      "worked(address)": {
        "notice": "Implemented by jobs to show that a keeper performed work"
      },
      "workedAt(address)": {
        "notice": "Last time the job was worked"
      }
    },
    "version": 1
  },
  "storageLayout": {
    "storage": [
      {
        "astId": 10,
        "contract": "solidity/for-test/testnet/Keep3rForTestnet.sol:Keep3rForTestnet",
        "label": "_status",
        "offset": 0,
        "slot": "0",
        "type": "t_uint256"
      },
      {
        "astId": 8417,
        "contract": "solidity/for-test/testnet/Keep3rForTestnet.sol:Keep3rForTestnet",
        "label": "jobOwner",
        "offset": 0,
        "slot": "1",
        "type": "t_mapping(t_address,t_address)"
      },
      {
        "astId": 8423,
        "contract": "solidity/for-test/testnet/Keep3rForTestnet.sol:Keep3rForTestnet",
        "label": "jobPendingOwner",
        "offset": 0,
        "slot": "2",
        "type": "t_mapping(t_address,t_address)"
      },
      {
        "astId": 5374,
        "contract": "solidity/for-test/testnet/Keep3rForTestnet.sol:Keep3rForTestnet",
        "label": "governance",
        "offset": 0,
        "slot": "3",
        "type": "t_address"
      },
      {
        "astId": 5378,
        "contract": "solidity/for-test/testnet/Keep3rForTestnet.sol:Keep3rForTestnet",
        "label": "pendingGovernance",
        "offset": 0,
        "slot": "4",
        "type": "t_address"
      },
      {
        "astId": 5985,
        "contract": "solidity/for-test/testnet/Keep3rForTestnet.sol:Keep3rForTestnet",
        "label": "slashers",
        "offset": 0,
        "slot": "5",
        "type": "t_mapping(t_address,t_bool)"
      },
      {
        "astId": 5991,
        "contract": "solidity/for-test/testnet/Keep3rForTestnet.sol:Keep3rForTestnet",
        "label": "disputers",
        "offset": 0,
        "slot": "6",
        "type": "t_mapping(t_address,t_bool)"
      },
      {
        "astId": 5479,
        "contract": "solidity/for-test/testnet/Keep3rForTestnet.sol:Keep3rForTestnet",
        "label": "_keepers",
        "offset": 0,
        "slot": "7",
        "type": "t_struct(AddressSet)1631_storage"
      },
      {
        "astId": 5485,
        "contract": "solidity/for-test/testnet/Keep3rForTestnet.sol:Keep3rForTestnet",
        "label": "workCompleted",
        "offset": 0,
        "slot": "9",
        "type": "t_mapping(t_address,t_uint256)"
      },
      {
        "astId": 5491,
        "contract": "solidity/for-test/testnet/Keep3rForTestnet.sol:Keep3rForTestnet",
        "label": "firstSeen",
        "offset": 0,
        "slot": "10",
        "type": "t_mapping(t_address,t_uint256)"
      },
      {
        "astId": 5497,
        "contract": "solidity/for-test/testnet/Keep3rForTestnet.sol:Keep3rForTestnet",
        "label": "disputes",
        "offset": 0,
        "slot": "11",
        "type": "t_mapping(t_address,t_bool)"
      },
      {
        "astId": 5505,
        "contract": "solidity/for-test/testnet/Keep3rForTestnet.sol:Keep3rForTestnet",
        "label": "bonds",
        "offset": 0,
        "slot": "12",
        "type": "t_mapping(t_address,t_mapping(t_address,t_uint256))"
      },
      {
        "astId": 5513,
        "contract": "solidity/for-test/testnet/Keep3rForTestnet.sol:Keep3rForTestnet",
        "label": "jobTokenCredits",
        "offset": 0,
        "slot": "13",
        "type": "t_mapping(t_address,t_mapping(t_address,t_uint256))"
      },
      {
        "astId": 5518,
        "contract": "solidity/for-test/testnet/Keep3rForTestnet.sol:Keep3rForTestnet",
        "label": "_jobLiquidityCredits",
        "offset": 0,
        "slot": "14",
        "type": "t_mapping(t_address,t_uint256)"
      },
      {
        "astId": 5523,
        "contract": "solidity/for-test/testnet/Keep3rForTestnet.sol:Keep3rForTestnet",
        "label": "_jobPeriodCredits",
        "offset": 0,
        "slot": "15",
        "type": "t_mapping(t_address,t_uint256)"
      },
      {
        "astId": 5529,
        "contract": "solidity/for-test/testnet/Keep3rForTestnet.sol:Keep3rForTestnet",
        "label": "_jobTokens",
        "offset": 0,
        "slot": "16",
        "type": "t_mapping(t_address,t_struct(AddressSet)1631_storage)"
      },
      {
        "astId": 5535,
        "contract": "solidity/for-test/testnet/Keep3rForTestnet.sol:Keep3rForTestnet",
        "label": "_jobLiquidities",
        "offset": 0,
        "slot": "17",
        "type": "t_mapping(t_address,t_struct(AddressSet)1631_storage)"
      },
      {
        "astId": 5540,
        "contract": "solidity/for-test/testnet/Keep3rForTestnet.sol:Keep3rForTestnet",
        "label": "_liquidityPool",
        "offset": 0,
        "slot": "18",
        "type": "t_mapping(t_address,t_address)"
      },
      {
        "astId": 5545,
        "contract": "solidity/for-test/testnet/Keep3rForTestnet.sol:Keep3rForTestnet",
        "label": "_isKP3RToken0",
        "offset": 0,
        "slot": "19",
        "type": "t_mapping(t_address,t_bool)"
      },
      {
        "astId": 5553,
        "contract": "solidity/for-test/testnet/Keep3rForTestnet.sol:Keep3rForTestnet",
        "label": "pendingBonds",
        "offset": 0,
        "slot": "20",
        "type": "t_mapping(t_address,t_mapping(t_address,t_uint256))"
      },
      {
        "astId": 5561,
        "contract": "solidity/for-test/testnet/Keep3rForTestnet.sol:Keep3rForTestnet",
        "label": "canActivateAfter",
        "offset": 0,
        "slot": "21",
        "type": "t_mapping(t_address,t_mapping(t_address,t_uint256))"
      },
      {
        "astId": 5569,
        "contract": "solidity/for-test/testnet/Keep3rForTestnet.sol:Keep3rForTestnet",
        "label": "canWithdrawAfter",
        "offset": 0,
        "slot": "22",
        "type": "t_mapping(t_address,t_mapping(t_address,t_uint256))"
      },
      {
        "astId": 5577,
        "contract": "solidity/for-test/testnet/Keep3rForTestnet.sol:Keep3rForTestnet",
        "label": "pendingUnbonds",
        "offset": 0,
        "slot": "23",
        "type": "t_mapping(t_address,t_mapping(t_address,t_uint256))"
      },
      {
        "astId": 5583,
        "contract": "solidity/for-test/testnet/Keep3rForTestnet.sol:Keep3rForTestnet",
        "label": "hasBonded",
        "offset": 0,
        "slot": "24",
        "type": "t_mapping(t_address,t_bool)"
      },
      {
        "astId": 5587,
        "contract": "solidity/for-test/testnet/Keep3rForTestnet.sol:Keep3rForTestnet",
        "label": "_jobs",
        "offset": 0,
        "slot": "25",
        "type": "t_struct(AddressSet)1631_storage"
      },
      {
        "astId": 5699,
        "contract": "solidity/for-test/testnet/Keep3rForTestnet.sol:Keep3rForTestnet",
        "label": "keep3rV1",
        "offset": 0,
        "slot": "27",
        "type": "t_address"
      },
      {
        "astId": 5703,
        "contract": "solidity/for-test/testnet/Keep3rForTestnet.sol:Keep3rForTestnet",
        "label": "keep3rV1Proxy",
        "offset": 0,
        "slot": "28",
        "type": "t_address"
      },
      {
        "astId": 5707,
        "contract": "solidity/for-test/testnet/Keep3rForTestnet.sol:Keep3rForTestnet",
        "label": "keep3rHelper",
        "offset": 0,
        "slot": "29",
        "type": "t_address"
      },
      {
        "astId": 5712,
        "contract": "solidity/for-test/testnet/Keep3rForTestnet.sol:Keep3rForTestnet",
        "label": "bondTime",
        "offset": 0,
        "slot": "30",
        "type": "t_uint256"
      },
      {
        "astId": 5717,
        "contract": "solidity/for-test/testnet/Keep3rForTestnet.sol:Keep3rForTestnet",
        "label": "unbondTime",
        "offset": 0,
        "slot": "31",
        "type": "t_uint256"
      },
      {
        "astId": 5722,
        "contract": "solidity/for-test/testnet/Keep3rForTestnet.sol:Keep3rForTestnet",
        "label": "liquidityMinimum",
        "offset": 0,
        "slot": "32",
        "type": "t_uint256"
      },
      {
        "astId": 5727,
        "contract": "solidity/for-test/testnet/Keep3rForTestnet.sol:Keep3rForTestnet",
        "label": "rewardPeriodTime",
        "offset": 0,
        "slot": "33",
        "type": "t_uint256"
      },
      {
        "astId": 5732,
        "contract": "solidity/for-test/testnet/Keep3rForTestnet.sol:Keep3rForTestnet",
        "label": "inflationPeriod",
        "offset": 0,
        "slot": "34",
        "type": "t_uint256"
      },
      {
        "astId": 5737,
        "contract": "solidity/for-test/testnet/Keep3rForTestnet.sol:Keep3rForTestnet",
        "label": "fee",
        "offset": 0,
        "slot": "35",
        "type": "t_uint256"
      },
      {
        "astId": 6418,
        "contract": "solidity/for-test/testnet/Keep3rForTestnet.sol:Keep3rForTestnet",
        "label": "jobTokenCreditsAddedAt",
        "offset": 0,
        "slot": "36",
        "type": "t_mapping(t_address,t_mapping(t_address,t_uint256))"
      },
      {
        "astId": 6661,
        "contract": "solidity/for-test/testnet/Keep3rForTestnet.sol:Keep3rForTestnet",
        "label": "_approvedLiquidities",
        "offset": 0,
        "slot": "37",
        "type": "t_struct(AddressSet)1631_storage"
      },
      {
        "astId": 6669,
        "contract": "solidity/for-test/testnet/Keep3rForTestnet.sol:Keep3rForTestnet",
        "label": "liquidityAmount",
        "offset": 0,
        "slot": "39",
        "type": "t_mapping(t_address,t_mapping(t_address,t_uint256))"
      },
      {
        "astId": 6675,
        "contract": "solidity/for-test/testnet/Keep3rForTestnet.sol:Keep3rForTestnet",
        "label": "rewardedAt",
        "offset": 0,
        "slot": "40",
        "type": "t_mapping(t_address,t_uint256)"
      },
      {
        "astId": 6681,
        "contract": "solidity/for-test/testnet/Keep3rForTestnet.sol:Keep3rForTestnet",
        "label": "workedAt",
        "offset": 0,
        "slot": "41",
        "type": "t_mapping(t_address,t_uint256)"
      },
      {
        "astId": 6687,
        "contract": "solidity/for-test/testnet/Keep3rForTestnet.sol:Keep3rForTestnet",
        "label": "_tick",
        "offset": 0,
        "slot": "42",
        "type": "t_mapping(t_address,t_struct(TickCache)14724_storage)"
      },
      {
        "astId": 8138,
        "contract": "solidity/for-test/testnet/Keep3rForTestnet.sol:Keep3rForTestnet",
        "label": "pendingJobMigrations",
        "offset": 0,
        "slot": "43",
        "type": "t_mapping(t_address,t_address)"
      },
      {
        "astId": 8144,
        "contract": "solidity/for-test/testnet/Keep3rForTestnet.sol:Keep3rForTestnet",
        "label": "_migrationCreatedAt",
        "offset": 0,
        "slot": "44",
        "type": "t_mapping(t_address,t_mapping(t_address,t_uint256))"
      },
      {
        "astId": 8541,
        "contract": "solidity/for-test/testnet/Keep3rForTestnet.sol:Keep3rForTestnet",
        "label": "_initialGas",
        "offset": 0,
        "slot": "45",
        "type": "t_uint256"
      }
    ],
    "types": {
      "t_address": {
        "encoding": "inplace",
        "label": "address",
        "numberOfBytes": "20"
      },
      "t_array(t_bytes32)dyn_storage": {
        "base": "t_bytes32",
        "encoding": "dynamic_array",
        "label": "bytes32[]",
        "numberOfBytes": "32"
      },
      "t_bool": {
        "encoding": "inplace",
        "label": "bool",
        "numberOfBytes": "1"
      },
      "t_bytes32": {
        "encoding": "inplace",
        "label": "bytes32",
        "numberOfBytes": "32"
      },
      "t_int56": {
        "encoding": "inplace",
        "label": "int56",
        "numberOfBytes": "7"
      },
      "t_mapping(t_address,t_address)": {
        "encoding": "mapping",
        "key": "t_address",
        "label": "mapping(address => address)",
        "numberOfBytes": "32",
        "value": "t_address"
      },
      "t_mapping(t_address,t_bool)": {
        "encoding": "mapping",
        "key": "t_address",
        "label": "mapping(address => bool)",
        "numberOfBytes": "32",
        "value": "t_bool"
      },
      "t_mapping(t_address,t_mapping(t_address,t_uint256))": {
        "encoding": "mapping",
        "key": "t_address",
        "label": "mapping(address => mapping(address => uint256))",
        "numberOfBytes": "32",
        "value": "t_mapping(t_address,t_uint256)"
      },
      "t_mapping(t_address,t_struct(AddressSet)1631_storage)": {
        "encoding": "mapping",
        "key": "t_address",
        "label": "mapping(address => struct EnumerableSet.AddressSet)",
        "numberOfBytes": "32",
        "value": "t_struct(AddressSet)1631_storage"
      },
      "t_mapping(t_address,t_struct(TickCache)14724_storage)": {
        "encoding": "mapping",
        "key": "t_address",
        "label": "mapping(address => struct IKeep3rJobFundableLiquidity.TickCache)",
        "numberOfBytes": "32",
        "value": "t_struct(TickCache)14724_storage"
      },
      "t_mapping(t_address,t_uint256)": {
        "encoding": "mapping",
        "key": "t_address",
        "label": "mapping(address => uint256)",
        "numberOfBytes": "32",
        "value": "t_uint256"
      },
      "t_mapping(t_bytes32,t_uint256)": {
        "encoding": "mapping",
        "key": "t_bytes32",
        "label": "mapping(bytes32 => uint256)",
        "numberOfBytes": "32",
        "value": "t_uint256"
      },
      "t_struct(AddressSet)1631_storage": {
        "encoding": "inplace",
        "label": "struct EnumerableSet.AddressSet",
        "members": [
          {
            "astId": 1630,
            "contract": "solidity/for-test/testnet/Keep3rForTestnet.sol:Keep3rForTestnet",
            "label": "_inner",
            "offset": 0,
            "slot": "0",
            "type": "t_struct(Set)1330_storage"
          }
        ],
        "numberOfBytes": "64"
      },
      "t_struct(Set)1330_storage": {
        "encoding": "inplace",
        "label": "struct EnumerableSet.Set",
        "members": [
          {
            "astId": 1325,
            "contract": "solidity/for-test/testnet/Keep3rForTestnet.sol:Keep3rForTestnet",
            "label": "_values",
            "offset": 0,
            "slot": "0",
            "type": "t_array(t_bytes32)dyn_storage"
          },
          {
            "astId": 1329,
            "contract": "solidity/for-test/testnet/Keep3rForTestnet.sol:Keep3rForTestnet",
            "label": "_indexes",
            "offset": 0,
            "slot": "1",
            "type": "t_mapping(t_bytes32,t_uint256)"
          }
        ],
        "numberOfBytes": "64"
      },
      "t_struct(TickCache)14724_storage": {
        "encoding": "inplace",
        "label": "struct IKeep3rJobFundableLiquidity.TickCache",
        "members": [
          {
            "astId": 14719,
            "contract": "solidity/for-test/testnet/Keep3rForTestnet.sol:Keep3rForTestnet",
            "label": "current",
            "offset": 0,
            "slot": "0",
            "type": "t_int56"
          },
          {
            "astId": 14721,
            "contract": "solidity/for-test/testnet/Keep3rForTestnet.sol:Keep3rForTestnet",
            "label": "difference",
            "offset": 7,
            "slot": "0",
            "type": "t_int56"
          },
          {
            "astId": 14723,
            "contract": "solidity/for-test/testnet/Keep3rForTestnet.sol:Keep3rForTestnet",
            "label": "period",
            "offset": 0,
            "slot": "1",
            "type": "t_uint256"
          }
        ],
        "numberOfBytes": "64"
      },
      "t_uint256": {
        "encoding": "inplace",
        "label": "uint256",
        "numberOfBytes": "32"
      }
    }
  }
}